{
  "address": "0x08450e7ab581Ead94a20a2BEf934cE019C1CbE63",
  "abi": [
    {
      "inputs": [
        {
          "internalType": "uint256",
          "name": "_minCommitmentAge",
          "type": "uint256"
        },
        {
          "internalType": "uint256",
          "name": "_maxCommitmentAge",
          "type": "uint256"
        },
        {
          "internalType": "contract ENS",
          "name": "_ens",
          "type": "address"
        },
        {
          "internalType": "contract IL2NameWrapper",
          "name": "_nameWrapper",
          "type": "address"
        },
        {
          "internalType": "contract IAggregatorInterface",
          "name": "_usdOracle",
          "type": "address"
        }
      ],
      "stateMutability": "nonpayable",
      "type": "constructor"
    },
    {
      "inputs": [],
      "name": "CannotSetNewCharLengthAmounts",
      "type": "error"
    },
    {
      "inputs": [
        {
          "internalType": "bytes32",
          "name": "commitment",
          "type": "bytes32"
        }
      ],
      "name": "CommitmentTooNew",
      "type": "error"
    },
    {
      "inputs": [
        {
          "internalType": "bytes32",
          "name": "commitment",
          "type": "bytes32"
        }
      ],
      "name": "CommitmentTooOld",
      "type": "error"
    },
    {
      "inputs": [
        {
          "internalType": "uint256",
          "name": "duration",
          "type": "uint256"
        }
      ],
      "name": "DurationTooShort",
      "type": "error"
    },
    {
      "inputs": [],
      "name": "InsufficientValue",
      "type": "error"
    },
    {
      "inputs": [
        {
          "internalType": "uint256",
          "name": "duration",
          "type": "uint256"
        }
      ],
      "name": "InvalidDuration",
      "type": "error"
    },
    {
      "inputs": [],
      "name": "LabelTooLong",
      "type": "error"
    },
    {
      "inputs": [],
      "name": "LabelTooShort",
      "type": "error"
    },
    {
      "inputs": [],
      "name": "MaxCommitmentAgeTooHigh",
      "type": "error"
    },
    {
      "inputs": [],
      "name": "MaxCommitmentAgeTooLow",
      "type": "error"
    },
    {
      "inputs": [
        {
          "internalType": "bytes32",
          "name": "node",
          "type": "bytes32"
        }
      ],
      "name": "UnauthorizedAddress",
      "type": "error"
    },
    {
      "inputs": [
        {
          "internalType": "bytes32",
          "name": "commitment",
          "type": "bytes32"
        }
      ],
      "name": "UnexpiredCommitmentExists",
      "type": "error"
    },
    {
      "inputs": [
        {
          "internalType": "string",
          "name": "label",
          "type": "string"
        }
      ],
      "name": "WrongNumberOfChars",
      "type": "error"
    },
    {
      "anonymous": false,
      "inputs": [
        {
          "indexed": true,
          "internalType": "address",
          "name": "_address",
          "type": "address"
        },
        {
          "indexed": true,
          "internalType": "uint256",
          "name": "amount",
          "type": "uint256"
        }
      ],
      "name": "AddressWithdrew",
      "type": "event"
    },
    {
      "anonymous": false,
      "inputs": [
        {
          "indexed": true,
          "internalType": "string",
          "name": "label",
          "type": "string"
        },
        {
          "indexed": true,
          "internalType": "bytes32",
          "name": "node",
          "type": "bytes32"
        },
        {
          "indexed": true,
          "internalType": "address",
          "name": "owner",
          "type": "address"
        },
        {
          "indexed": false,
          "internalType": "uint256",
          "name": "price",
          "type": "uint256"
        },
        {
          "indexed": false,
          "internalType": "uint256",
          "name": "expires",
          "type": "uint256"
        }
      ],
      "name": "Eth2LDRegistered",
      "type": "event"
    },
    {
      "anonymous": false,
      "inputs": [
        {
          "indexed": true,
          "internalType": "string",
          "name": "label",
          "type": "string"
        },
        {
          "indexed": true,
          "internalType": "uint256",
          "name": "price",
          "type": "uint256"
        },
        {
          "indexed": true,
          "internalType": "uint256",
          "name": "duration",
          "type": "uint256"
        }
      ],
      "name": "EthNameRenewed",
      "type": "event"
    },
    {
      "anonymous": false,
      "inputs": [
        {
          "indexed": true,
          "internalType": "uint256",
          "name": "ownerCut",
          "type": "uint256"
        }
      ],
      "name": "OwnerCutSet",
      "type": "event"
    },
    {
      "anonymous": false,
      "inputs": [
        {
          "indexed": true,
          "internalType": "address",
          "name": "previousOwner",
          "type": "address"
        },
        {
          "indexed": true,
          "internalType": "address",
          "name": "newOwner",
          "type": "address"
        }
      ],
      "name": "OwnershipTransferred",
      "type": "event"
    },
    {
      "anonymous": false,
      "inputs": [
        {
          "indexed": true,
          "internalType": "uint256",
          "name": "referrerCut",
          "type": "uint256"
        }
      ],
      "name": "ReferrerCutSet",
      "type": "event"
    },
    {
      "inputs": [
        {
          "internalType": "uint256",
          "name": "charAmount",
          "type": "uint256"
        }
      ],
      "name": "addNextPriceForCharLength",
      "outputs": [],
      "stateMutability": "nonpayable",
      "type": "function"
    },
    {
      "inputs": [
        {
          "internalType": "bytes",
          "name": "name",
          "type": "bytes"
        }
      ],
      "name": "available",
      "outputs": [
        {
          "internalType": "bool",
          "name": "",
          "type": "bool"
        }
      ],
      "stateMutability": "view",
      "type": "function"
    },
    {
      "inputs": [
        {
          "internalType": "address",
          "name": "",
          "type": "address"
        }
      ],
      "name": "balances",
      "outputs": [
        {
          "internalType": "uint256",
          "name": "",
          "type": "uint256"
        }
      ],
      "stateMutability": "view",
      "type": "function"
    },
    {
      "inputs": [
        {
          "internalType": "uint256",
          "name": "",
          "type": "uint256"
        }
      ],
      "name": "charAmounts",
      "outputs": [
        {
          "internalType": "uint256",
          "name": "",
          "type": "uint256"
        }
      ],
      "stateMutability": "view",
      "type": "function"
    },
    {
      "inputs": [
        {
          "internalType": "bytes32",
          "name": "commitment",
          "type": "bytes32"
        }
      ],
      "name": "commit",
      "outputs": [],
      "stateMutability": "nonpayable",
      "type": "function"
    },
    {
      "inputs": [
        {
          "internalType": "bytes32",
          "name": "",
          "type": "bytes32"
        }
      ],
      "name": "commitments",
      "outputs": [
        {
          "internalType": "uint256",
          "name": "",
          "type": "uint256"
        }
      ],
      "stateMutability": "view",
      "type": "function"
    },
    {
      "inputs": [],
      "name": "ens",
      "outputs": [
        {
          "internalType": "contract ENS",
          "name": "",
          "type": "address"
        }
      ],
      "stateMutability": "view",
      "type": "function"
    },
    {
      "inputs": [],
      "name": "getLastCharIndex",
      "outputs": [
        {
          "internalType": "uint256",
          "name": "",
          "type": "uint256"
        }
      ],
      "stateMutability": "view",
      "type": "function"
    },
    {
      "inputs": [
        {
          "internalType": "uint16",
          "name": "charLength",
          "type": "uint16"
        }
      ],
      "name": "getPriceDataForLength",
      "outputs": [
        {
          "internalType": "uint256",
          "name": "",
          "type": "uint256"
        }
      ],
      "stateMutability": "view",
      "type": "function"
    },
    {
      "inputs": [
        {
          "internalType": "string",
          "name": "label",
          "type": "string"
        },
        {
          "internalType": "address",
          "name": "owner",
          "type": "address"
        },
        {
          "internalType": "bytes32",
          "name": "secret",
          "type": "bytes32"
        }
      ],
      "name": "makeCommitment",
      "outputs": [
        {
          "internalType": "bytes32",
          "name": "",
          "type": "bytes32"
        }
      ],
      "stateMutability": "pure",
      "type": "function"
    },
    {
      "inputs": [],
      "name": "maxChars",
      "outputs": [
        {
          "internalType": "uint16",
          "name": "",
          "type": "uint16"
        }
      ],
      "stateMutability": "view",
      "type": "function"
    },
    {
      "inputs": [],
      "name": "maxCommitmentAge",
      "outputs": [
        {
          "internalType": "uint256",
          "name": "",
          "type": "uint256"
        }
      ],
      "stateMutability": "view",
      "type": "function"
    },
    {
      "inputs": [],
      "name": "maxRegistrationDuration",
      "outputs": [
        {
          "internalType": "uint64",
          "name": "",
          "type": "uint64"
        }
      ],
      "stateMutability": "view",
      "type": "function"
    },
    {
      "inputs": [],
      "name": "minChars",
      "outputs": [
        {
          "internalType": "uint16",
          "name": "",
          "type": "uint16"
        }
      ],
      "stateMutability": "view",
      "type": "function"
    },
    {
      "inputs": [],
      "name": "minCommitmentAge",
      "outputs": [
        {
          "internalType": "uint256",
          "name": "",
          "type": "uint256"
        }
      ],
      "stateMutability": "view",
      "type": "function"
    },
    {
      "inputs": [],
      "name": "minRegistrationDuration",
      "outputs": [
        {
          "internalType": "uint64",
          "name": "",
          "type": "uint64"
        }
      ],
      "stateMutability": "view",
      "type": "function"
    },
    {
      "inputs": [],
      "name": "nameWrapper",
      "outputs": [
        {
          "internalType": "contract IL2NameWrapper",
          "name": "",
          "type": "address"
        }
      ],
      "stateMutability": "view",
      "type": "function"
    },
    {
      "inputs": [],
      "name": "owner",
      "outputs": [
        {
          "internalType": "address",
          "name": "",
          "type": "address"
        }
      ],
      "stateMutability": "view",
      "type": "function"
    },
    {
      "inputs": [],
      "name": "ownerCut",
      "outputs": [
        {
          "internalType": "uint256",
          "name": "",
          "type": "uint256"
        }
      ],
      "stateMutability": "view",
      "type": "function"
    },
    {
      "inputs": [
        {
          "internalType": "address",
          "name": "_token",
          "type": "address"
        },
        {
          "internalType": "address",
          "name": "_to",
          "type": "address"
        },
        {
          "internalType": "uint256",
          "name": "_amount",
          "type": "uint256"
        }
      ],
      "name": "recoverFunds",
      "outputs": [],
      "stateMutability": "nonpayable",
      "type": "function"
    },
    {
      "inputs": [
        {
          "internalType": "address",
          "name": "",
          "type": "address"
        }
      ],
      "name": "referrerCuts",
      "outputs": [
        {
          "internalType": "uint256",
          "name": "",
          "type": "uint256"
        }
      ],
      "stateMutability": "view",
      "type": "function"
    },
    {
      "inputs": [
        {
          "internalType": "string",
          "name": "label",
          "type": "string"
        },
        {
          "internalType": "address",
          "name": "owner",
          "type": "address"
        },
        {
          "internalType": "address",
          "name": "referrer",
          "type": "address"
        },
        {
          "internalType": "uint256",
          "name": "duration",
          "type": "uint256"
        },
        {
          "internalType": "bytes32",
          "name": "secret",
          "type": "bytes32"
        },
        {
          "internalType": "address",
          "name": "resolver",
          "type": "address"
        },
        {
          "internalType": "uint16",
          "name": "fuses",
          "type": "uint16"
        }
      ],
      "name": "register",
      "outputs": [],
      "stateMutability": "payable",
      "type": "function"
    },
    {
      "inputs": [
        {
          "internalType": "string",
          "name": "label",
          "type": "string"
        },
        {
          "internalType": "address",
          "name": "referrer",
          "type": "address"
        },
        {
          "internalType": "uint256",
          "name": "duration",
          "type": "uint256"
        }
      ],
      "name": "renew",
      "outputs": [],
      "stateMutability": "payable",
      "type": "function"
    },
    {
      "inputs": [],
      "name": "renounceOwnership",
      "outputs": [],
      "stateMutability": "nonpayable",
      "type": "function"
    },
    {
      "inputs": [
        {
          "internalType": "bytes",
          "name": "name",
          "type": "bytes"
        },
        {
          "internalType": "uint256",
          "name": "duration",
          "type": "uint256"
        }
      ],
      "name": "rentPrice",
      "outputs": [
        {
          "internalType": "uint256",
          "name": "weiPrice",
          "type": "uint256"
        },
        {
          "internalType": "uint256",
          "name": "usdPrice",
          "type": "uint256"
        }
      ],
      "stateMutability": "view",
      "type": "function"
    },
    {
      "inputs": [
        {
          "internalType": "uint256",
          "name": "_ownerCut",
          "type": "uint256"
        }
      ],
      "name": "setOwnerCut",
      "outputs": [],
      "stateMutability": "nonpayable",
      "type": "function"
    },
    {
      "inputs": [
        {
          "internalType": "uint64",
          "name": "_minRegistrationDuration",
          "type": "uint64"
        },
        {
          "internalType": "uint64",
          "name": "_maxRegistrationDuration",
          "type": "uint64"
        },
        {
          "internalType": "uint16",
          "name": "_minChars",
          "type": "uint16"
        },
        {
          "internalType": "uint16",
          "name": "_maxChars",
          "type": "uint16"
        }
      ],
      "name": "setParams",
      "outputs": [],
      "stateMutability": "nonpayable",
      "type": "function"
    },
    {
      "inputs": [
        {
          "internalType": "uint256[]",
          "name": "_charAmounts",
          "type": "uint256[]"
        }
      ],
      "name": "setPricingForAllLengths",
      "outputs": [],
      "stateMutability": "nonpayable",
      "type": "function"
    },
    {
      "inputs": [
        {
          "internalType": "uint256",
          "name": "_referrerCut",
          "type": "uint256"
        }
      ],
      "name": "setReferrerCut",
      "outputs": [],
      "stateMutability": "nonpayable",
      "type": "function"
    },
    {
      "inputs": [
        {
          "internalType": "bytes4",
          "name": "interfaceId",
          "type": "bytes4"
        }
      ],
      "name": "supportsInterface",
      "outputs": [
        {
          "internalType": "bool",
          "name": "",
          "type": "bool"
        }
      ],
      "stateMutability": "view",
      "type": "function"
    },
    {
      "inputs": [],
      "name": "totalBalance",
      "outputs": [
        {
          "internalType": "uint256",
          "name": "",
          "type": "uint256"
        }
      ],
      "stateMutability": "view",
      "type": "function"
    },
    {
      "inputs": [
        {
          "internalType": "address",
          "name": "newOwner",
          "type": "address"
        }
      ],
      "name": "transferOwnership",
      "outputs": [],
      "stateMutability": "nonpayable",
      "type": "function"
    },
    {
      "inputs": [
        {
          "internalType": "uint16",
          "name": "charLength",
          "type": "uint16"
        },
        {
          "internalType": "uint256",
          "name": "charAmount",
          "type": "uint256"
        }
      ],
      "name": "updatePriceForCharLength",
      "outputs": [],
      "stateMutability": "nonpayable",
      "type": "function"
    },
    {
      "inputs": [],
      "name": "usdOracle",
      "outputs": [
        {
          "internalType": "contract IAggregatorInterface",
          "name": "",
          "type": "address"
        }
      ],
      "stateMutability": "view",
      "type": "function"
    },
    {
      "inputs": [],
      "name": "withdraw",
      "outputs": [],
      "stateMutability": "nonpayable",
      "type": "function"
    }
  ],
  "transactionHash": "0x76204385435d0dd38541a36b0561de2e3bc0047bc97ac350012016391304071b",
  "args": [
    5,
    604800,
    "0xffED83BDBd2F9906Ac12467288946cf7d8F6f599",
    "0x690c1680b0843Ea9Bdb04cA5f9239A92d9dEb493",
    "0x1CF25555Eb74b587b4b3d9019d6Bf279E9920d25"
  ],
  "numDeployments": 3,
  "solcInputHash": "c26ca1e68fb74cc170f6b77ce1b8755f",
  "bytecode": "0x6101206040523480156200001257600080fd5b5060405162002a8838038062002a8883398101604081905262000035916200011c565b6200004033620000b3565b60c860045584841162000066576040516307cb550760e31b815260040160405180910390fd5b428411156200008857604051630b4319e560e21b815260040160405180910390fd5b60809490945260a0929092526001600160a01b0390811660e05290811660c052166101005262000184565b600080546001600160a01b038381166001600160a01b0319831681178455604051919092169283917f8be0079c531659141344cd1fd0a4f28419497f9722a3daafe3b4186f6b6457e09190a35050565b6001600160a01b03811681146200011957600080fd5b50565b600080600080600060a086880312156200013557600080fd5b85519450602086015193506040860151620001508162000103565b6060870151909350620001638162000103565b6080870151909250620001768162000103565b809150509295509295909350565b60805160a05160c05160e0516101005161287262000216600039600081816105a90152611e5e0152600081816102aa01526107900152600081816104df01528181610ac901528181610e7401528181610f2201528181610fc70152818161105701526111e5015260008181610615015281816117160152611c1201526000818161044b0152611bb401526128726000f3fe6080604052600436106101c45760003560e01c80638d839ffe116100f8578063c48561fe11610090578063c48561fe14610577578063c8a4271f14610597578063c9e87113146105cb578063ce1e09c014610603578063ddc0477d14610637578063f14fcbc814610664578063f2fde38b14610684578063f49826be146106a4578063f967c88f146106c457600080fd5b80638d839ffe146104395780638da5cb5b1461046d57806394e82a4c1461048b5780639dbd6227146104ad578063a8e5fbc0146104cd578063ad7a672f14610501578063b77e6aa014610517578063ba8d247914610537578063bae8fc081461055757600080fd5b8063444a2d8d1161016b578063444a2d8d146102f75780634dc80076146103175780635d3590d51461034c578063715018a61461036c57806371dc194f14610381578063757de573146103b657806378693000146103d6578063839df945146103f657806383b5ff8b1461042357600080fd5b806301ffc9a7146101c957806312abf4f7146101fe57806312ee468a1461021e57806317e800661461024157806327e235e3146102565780633ccfd60b146102835780633f15457f146102985780634260c5bf146102e4575b600080fd5b3480156101d557600080fd5b506101e96101e43660046120a5565b6106eb565b60405190151581526020015b60405180910390f35b34801561020a57600080fd5b506101e961021936600461217a565b610722565b34801561022a57600080fd5b50610233610811565b6040519081526020016101f5565b61025461024f36600461221e565b610828565b005b34801561026257600080fd5b506102336102713660046122bb565b60016020526000908152604090205481565b34801561028f57600080fd5b50610254610bdc565b3480156102a457600080fd5b506102cc7f000000000000000000000000000000000000000000000000000000000000000081565b6040516001600160a01b0390911681526020016101f5565b6102546102f23660046122d8565b610d8b565b34801561030357600080fd5b50610233610312366004612334565b6112bf565b34801561032357600080fd5b5060055461033990600160901b900461ffff1681565b60405161ffff90911681526020016101f5565b34801561035857600080fd5b5061025461036736600461234d565b6112e0565b34801561037857600080fd5b50610254611361565b34801561038d57600080fd5b506103a161039c36600461238e565b611375565b604080519283526020830191909152016101f5565b3480156103c257600080fd5b506102546103d1366004612334565b61142d565b3480156103e257600080fd5b506102546103f13660046123d2565b61150c565b34801561040257600080fd5b50610233610411366004612334565b60076020526000908152604090205481565b34801561042f57600080fd5b5061023360045481565b34801561044557600080fd5b506102337f000000000000000000000000000000000000000000000000000000000000000081565b34801561047957600080fd5b506000546001600160a01b03166102cc565b34801561049757600080fd5b5060055461033990600160801b900461ffff1681565b3480156104b957600080fd5b506102336104c83660046123fc565b61156f565b3480156104d957600080fd5b506102cc7f000000000000000000000000000000000000000000000000000000000000000081565b34801561050d57600080fd5b5061023360035481565b34801561052357600080fd5b5061025461053236600461242c565b61159a565b34801561054357600080fd5b50610254610552366004612484565b611603565b34801561056357600080fd5b50610254610572366004612334565b611628565b34801561058357600080fd5b50610254610592366004612334565b6116c2565b3480156105a357600080fd5b506102cc7f000000000000000000000000000000000000000000000000000000000000000081565b3480156105d757600080fd5b506005546105eb906001600160401b031681565b6040516001600160401b0390911681526020016101f5565b34801561060f57600080fd5b506102337f000000000000000000000000000000000000000000000000000000000000000081565b34801561064357600080fd5b506102336106523660046122bb565b60026020526000908152604090205481565b34801561067057600080fd5b5061025461067f366004612334565b6116ff565b34801561069057600080fd5b5061025461069f3660046122bb565b61176f565b3480156106b057600080fd5b506102336106bf3660046124f8565b6117e5565b3480156106d057600080fd5b506005546105eb90600160401b90046001600160401b031681565b60006001600160e01b031982166327821d9160e11b148061071c57506301ffc9a760e01b6001600160e01b03198316145b92915050565b60008080610730848261181b565b9092509050600061074185836118d2565b9050600061074f8285611991565b9050600061075c876119bd565b50905061076881611ab7565b801561080657506040516302571be360e01b8152600481018390526000906001600160a01b037f000000000000000000000000000000000000000000000000000000000000000016906302571be390602401602060405180830381865afa1580156107d7573d6000803e3d6000fd5b505050506040513d601f19601f820116820180604052508101906107fb9190612554565b6001600160a01b0316145b979650505050505050565b60065460009061082390600190612587565b905090565b600061086e7f93cdeb708b7545dc668eb9280176169d1c33cfd8ed6f04690a0bcc88a93fc4ae60001b8a8a60405161086192919061259a565b6040518091039020611991565b905060006108cc8a8a8080601f016020809104026020016040519081016040528093929190818152602001838380828437600092019190915250506040805180820190915260058152626cae8d60e31b60208201529150611b289050565b6005549091506001600160401b03168610806108f95750600554600160401b90046001600160401b031686115b1561091f576040516313b783af60e21b8152600481018790526024015b60405180910390fd5b61095e8a8a8080601f016020809104026020016040519081016040528093929190818152602001838380828437600092019190915250611ab792505050565b61097f578989604051637df0e75560e01b81526004016109169291906125d3565b60006276a70061098f88426125e7565b61099991906125e7565b905060006109a78389611375565b509050803410156109cb5760405163044044a560e21b815260040160405180910390fd5b60006001600160a01b038a1615610a40576001600160a01b038a1660009081526002602052604090205461271090610a0390846125fa565b610a0d9190612611565b6001600160a01b038b16600090815260016020526040812080549293508392909190610a3a9084906125e7565b90915550505b8060036000828254610a5291906125e7565b9250508190555050610ab288610aad8e8e8080601f016020809104026020016040519081016040528093929190818152602001838380828437600081840152601f19601f820116905080830192505050505050508d8b6117e5565b611b9d565b604051636cf84e7760e11b81526001600160a01b037f0000000000000000000000000000000000000000000000000000000000000000169063d9f09cee90610b0b908f908f908f906000908f908e908e90600401612633565b6020604051808303816000875af1158015610b2a573d6000803e3d6000fd5b505050506040513d601f19601f82011682018060405250810190610b4e9190612684565b50896001600160a01b0316848d8d604051610b6a92919061259a565b604080519182900382208583526001600160401b0387166020840152917f5ab68d31acea6a21cd702ea00955807b98116e7cea65d16d92d23ea95af9b751910160405180910390a480341115610bce57610bce610bc78234612587565b3390611c96565b505050505050505050505050565b33610bef6000546001600160a01b031690565b6001600160a01b0316816001600160a01b031603610cab57600060035447610c179190612587565b905060008111610c5e5760405162461bcd60e51b815260206004820152601260248201527104f776e65722062616c616e636520697320360741b6044820152606401610916565b60405181906001600160a01b038416907fb990971c3785a76fb59cf6aa8fe8327738148e676c6d46a6dea040c4b6b2609590600090a3610ca76001600160a01b03831682611c96565b5050565b6001600160a01b038116600090815260016020526040902054610d095760405162461bcd60e51b815260206004820152601660248201527504164647265737327732062616c616e636520697320360541b6044820152606401610916565b6001600160a01b03811660009081526001602052604081208054908290556003805491928392610d3a908490612587565b909155505060405181906001600160a01b038416907fb990971c3785a76fb59cf6aa8fe8327738148e676c6d46a6dea040c4b6b2609590600090a3610ca76001600160a01b03831682611c96565b50565b60008484604051610d9d92919061259a565b6040805191829003822082820190915260058252626cae8d60e31b60208301529150600090610dcc90826118d2565b90506000610dfa7f93cdeb708b7545dc668eb9280176169d1c33cfd8ed6f04690a0bcc88a93fc4ae84611991565b90506000610e5888888080601f016020809104026020016040519081016040528093929190818152602001838380828437600092019190915250506040805180820190915260058152626cae8d60e31b60208201529150611b289050565b6040516331a9108f60e11b8152600481018490529091506000907f00000000000000000000000000000000000000000000000000000000000000006001600160a01b031690636352211e90602401602060405180830381865afa158015610ec3573d6000803e3d6000fd5b505050506040513d601f19601f82011682018060405250810190610ee79190612554565b9050336001600160a01b03821614801590610f8d575060405163e985e9c560e01b81526001600160a01b0382811660048301523360248301527f0000000000000000000000000000000000000000000000000000000000000000169063e985e9c590604401602060405180830381865afa158015610f69573d6000803e3d6000fd5b505050506040513d601f19601f82011682018060405250810190610f8d91906126a1565b15610fae57604051635c20ef6960e11b815260048101849052602401610916565b604051630178fe3f60e01b8152600481018490526000907f00000000000000000000000000000000000000000000000000000000000000006001600160a01b031690630178fe3f90602401606060405180830381865afa158015611016573d6000803e3d6000fd5b505050506040513d601f19601f8201168201806040525081019061103a91906126c3565b604051630178fe3f60e01b815260048101899052909350600092507f00000000000000000000000000000000000000000000000000000000000000006001600160a01b03169150630178fe3f90602401606060405180830381865afa1580156110a7573d6000803e3d6000fd5b505050506040513d601f19601f820116820180604052508101906110cb91906126c3565b92505050806001600160401b031688836001600160401b03166110ee91906125e7565b111561110a576110fe8282612719565b6001600160401b031697505b505060006111188388611375565b5090508034101561113c5760405163044044a560e21b815260040160405180910390fd5b60006001600160a01b038916156111b1576001600160a01b0389166000908152600260205260409020546127109061117490846125fa565b61117e9190612611565b6001600160a01b038a166000908152600160205260408120805492935083929091906111ab9084906125e7565b90915550505b80600360008282546111c391906125e7565b909155505060405163c76795f560e01b815260048101889052602481018990527f00000000000000000000000000000000000000000000000000000000000000006001600160a01b0316915063c76795f5906044016020604051808303816000875af1158015611237573d6000803e3d6000fd5b505050506040513d601f19601f8201168201806040525081019061125b9190612684565b5086818b8b60405161126e92919061259a565b604051908190038120907f66f348c29908d77e00989162a034691440ebc1720e1b8cd55824b5441d7d6c6590600090a4803411156112b3576112b3610bc78234612587565b50505050505050505050565b600681815481106112cf57600080fd5b600091825260209091200154905081565b6112e8611daf565b60405163a9059cbb60e01b81526001600160a01b0383811660048301526024820183905284169063a9059cbb906044016020604051808303816000875af1158015611337573d6000803e3d6000fd5b505050506040513d601f19601f8201168201806040525081019061135b91906126a1565b50505050565b611369611daf565b6113736000611e09565b565b6000806000611383856119bd565b6006549092509050600081156113fe57818310156113ea57600683815481106113ae576113ae612740565b90600052602060002001549050806000036113e55760066000815481106113d7576113d7612740565b906000526020600020015490505b611402565b60066000815481106113d7576113d7612740565b5060005b61141461140f87836125fa565b611e59565b61141e87836125fa565b945094505050505b9250929050565b6000546001600160a01b031633146114875760405162461bcd60e51b815260206004820152601e60248201527f4f6e6c7920746865206f776e65722063616e20736574207468652063757400006044820152606401610916565b6101f48111156114d95760405162461bcd60e51b815260206004820181905260248201527f4f776e6572206375742063616e6e6f74206265206d6f7265207468616e2035256044820152606401610916565b600481905560405181907fd0097c261070735a2812d4540f4ac501d429da168de12584fb6302c6ea3abfd990600090a250565b611514611daf565b60065461152390600190612587565b8261ffff161115611547576040516339b7567760e21b815260040160405180910390fd5b8060068361ffff168154811061155f5761155f612740565b6000918252602090912001555050565b600060068261ffff168154811061158857611588612740565b90600052602060002001549050919050565b6115a2611daf565b600580546001600160401b039586166001600160801b031990911617600160401b94909516939093029390931763ffffffff60801b1916600160801b61ffff9283160261ffff60901b191617600160901b9390911692909202919091179055565b61160b611daf565b61161760066000612027565b61162360068383612045565b505050565b6103e88111156116865760405162461bcd60e51b8152602060048201526024808201527f5265666572726572206375742063616e6e6f74206265206d6f7265207468616e6044820152632031302560e01b6064820152608401610916565b336000908152600260205260408082208390555182917f5132aa1b4691ab49930b655c558addd21627fa35b28ff9695f3468d955c0e0a091a250565b6116ca611daf565b600680546001810182556000919091527ff652222313e28459528d920b65115c16c04f3efc82aaedc97be59f3f377c0d3f0155565b600081815260076020526040902054429061173b907f0000000000000000000000000000000000000000000000000000000000000000906125e7565b1061175c57604051630a059d7160e01b815260048101829052602401610916565b6000908152600760205260409020429055565b611777611daf565b6001600160a01b0381166117dc5760405162461bcd60e51b815260206004820152602660248201527f4f776e61626c653a206e6577206f776e657220697320746865207a65726f206160448201526564647265737360d01b6064820152608401610916565b610d8881611e09565b60008383836040516020016117fc9392919061277a565b6040516020818303038152906040528051906020012090509392505050565b6000808351831061186e5760405162461bcd60e51b815260206004820152601e60248201527f726561644c6162656c3a20496e646578206f7574206f6620626f756e647300006044820152606401610916565b600084848151811061188257611882612740565b016020015160f81c905080156118ae576118a7856118a18660016125e7565b83611f00565b92506118b3565b600092505b6118bd81856125e7565b6118c89060016125e7565b9150509250929050565b60008060006118e1858561181b565b90925090508161195357600185516118f99190612587565b84146119475760405162461bcd60e51b815260206004820152601d60248201527f6e616d65686173683a204a756e6b20617420656e64206f66206e616d650000006044820152606401610916565b506000915061071c9050565b61195d85826118d2565b6040805160208101929092528101839052606001604051602081830303815290604052805190602001209250505092915050565b604080516020808201949094528082019290925280518083038201815260609092019052805191012090565b6060600080836000815181106119d5576119d5612740565b0160200151845160f89190911c9150811080156119f25750600081115b6119fb57600080fd5b6000816001600160401b03811115611a1557611a156120cf565b6040519080825280601f01601f191660200182016040528015611a3f576020820181803683370190505b50905060005b82811015611aad5785611a598260016125e7565b81518110611a6957611a69612740565b602001015160f81c60f81b828281518110611a8657611a86612740565b60200101906001600160f81b031916908160001a905350611aa6816127c5565b9050611a45565b5094909350915050565b600554600090600160801b900461ffff16611ad183611f24565b10611b1b57600554600160901b900461ffff1615801590611b065750600554600160901b900461ffff16611b0483611f24565b115b15611b1357506000919050565b506001919050565b506000919050565b919050565b6060600183511015611b4d57604051631406d65b60e11b815260040160405180910390fd5b60ff83511115611b7057604051633ea2fbc360e11b815260040160405180910390fd5b82518383604051602001611b86939291906127de565b604051602081830303815290604052905092915050565b6000818152600760205260409020544290611bd9907f0000000000000000000000000000000000000000000000000000000000000000906125e7565b1115611bfb57604051635320bcf960e01b815260048101829052602401610916565b6000818152600760205260409020544290611c37907f0000000000000000000000000000000000000000000000000000000000000000906125e7565b11611c585760405163cb7690d760e01b815260048101829052602401610916565b6000818152600760205260408120556005546001600160401b0316821015610ca757604051639a71997b60e01b815260048101839052602401610916565b80471015611ce65760405162461bcd60e51b815260206004820152601d60248201527f416464726573733a20696e73756666696369656e742062616c616e63650000006044820152606401610916565b6000826001600160a01b03168260405160006040518083038185875af1925050503d8060008114611d33576040519150601f19603f3d011682016040523d82523d6000602084013e611d38565b606091505b50509050806116235760405162461bcd60e51b815260206004820152603a60248201527f416464726573733a20756e61626c6520746f2073656e642076616c75652c207260448201527f6563697069656e74206d617920686176652072657665727465640000000000006064820152608401610916565b6000546001600160a01b031633146113735760405162461bcd60e51b815260206004820181905260248201527f4f776e61626c653a2063616c6c6572206973206e6f7420746865206f776e65726044820152606401610916565b600080546001600160a01b038381166001600160a01b0319831681178455604051919092169283917f8be0079c531659141344cd1fd0a4f28419497f9722a3daafe3b4186f6b6457e09190a35050565b6000807f00000000000000000000000000000000000000000000000000000000000000006001600160a01b03166350d25bcd6040518163ffffffff1660e01b8152600401602060405180830381865afa158015611eba573d6000803e3d6000fd5b505050506040513d601f19601f82011682018060405250810190611ede9190612823565b905080611eef846305f5e1006125fa565b611ef99190612611565b9392505050565b8251600090611f0f83856125e7565b1115611f1a57600080fd5b5091016020012090565b8051600090819081905b8082101561201e576000858381518110611f4a57611f4a612740565b01602001516001600160f81b0319169050600160ff1b811015611f7957611f726001846125e7565b925061200b565b600760fd1b6001600160f81b031982161015611f9a57611f726002846125e7565b600f60fc1b6001600160f81b031982161015611fbb57611f726003846125e7565b601f60fb1b6001600160f81b031982161015611fdc57611f726004846125e7565b603f60fa1b6001600160f81b031982161015611ffd57611f726005846125e7565b6120086006846125e7565b92505b5082612016816127c5565b935050611f2e565b50909392505050565b5080546000825590600052602060002090810190610d889190612090565b828054828255906000526020600020908101928215612080579160200282015b82811115612080578235825591602001919060010190612065565b5061208c929150612090565b5090565b5b8082111561208c5760008155600101612091565b6000602082840312156120b757600080fd5b81356001600160e01b031981168114611ef957600080fd5b634e487b7160e01b600052604160045260246000fd5b60006001600160401b03808411156120ff576120ff6120cf565b604051601f8501601f19908116603f01168101908282118183101715612127576121276120cf565b8160405280935085815286868601111561214057600080fd5b858560208301376000602087830101525050509392505050565b600082601f83011261216b57600080fd5b611ef9838335602085016120e5565b60006020828403121561218c57600080fd5b81356001600160401b038111156121a257600080fd5b6121ae8482850161215a565b949350505050565b60008083601f8401126121c857600080fd5b5081356001600160401b038111156121df57600080fd5b60208301915083602082850101111561142657600080fd5b6001600160a01b0381168114610d8857600080fd5b803561ffff81168114611b2357600080fd5b60008060008060008060008060e0898b03121561223a57600080fd5b88356001600160401b0381111561225057600080fd5b61225c8b828c016121b6565b9099509750506020890135612270816121f7565b95506040890135612280816121f7565b9450606089013593506080890135925060a089013561229e816121f7565b91506122ac60c08a0161220c565b90509295985092959890939650565b6000602082840312156122cd57600080fd5b8135611ef9816121f7565b600080600080606085870312156122ee57600080fd5b84356001600160401b0381111561230457600080fd5b612310878288016121b6565b9095509350506020850135612324816121f7565b9396929550929360400135925050565b60006020828403121561234657600080fd5b5035919050565b60008060006060848603121561236257600080fd5b833561236d816121f7565b9250602084013561237d816121f7565b929592945050506040919091013590565b600080604083850312156123a157600080fd5b82356001600160401b038111156123b757600080fd5b6123c38582860161215a565b95602094909401359450505050565b600080604083850312156123e557600080fd5b6123ee8361220c565b946020939093013593505050565b60006020828403121561240e57600080fd5b611ef98261220c565b6001600160401b0381168114610d8857600080fd5b6000806000806080858703121561244257600080fd5b843561244d81612417565b9350602085013561245d81612417565b925061246b6040860161220c565b91506124796060860161220c565b905092959194509250565b6000806020838503121561249757600080fd5b82356001600160401b03808211156124ae57600080fd5b818501915085601f8301126124c257600080fd5b8135818111156124d157600080fd5b8660208260051b85010111156124e657600080fd5b60209290920196919550909350505050565b60008060006060848603121561250d57600080fd5b83356001600160401b0381111561252357600080fd5b8401601f8101861361253457600080fd5b612543868235602084016120e5565b935050602084013561237d816121f7565b60006020828403121561256657600080fd5b8151611ef9816121f7565b634e487b7160e01b600052601160045260246000fd5b8181038181111561071c5761071c612571565b8183823760009101908152919050565b81835281816020850137506000828201602090810191909152601f909101601f19169091010190565b6020815260006121ae6020830184866125aa565b8082018082111561071c5761071c612571565b808202811582820484141761071c5761071c612571565b60008261262e57634e487b7160e01b600052601260045260246000fd5b500490565b60c08152600061264760c08301898b6125aa565b6001600160a01b03978816602084015295871660408301525060608101939093529316608082015261ffff90921660a09092019190915292915050565b60006020828403121561269657600080fd5b8151611ef981612417565b6000602082840312156126b357600080fd5b81518015158114611ef957600080fd5b6000806000606084860312156126d857600080fd5b83516126e3816121f7565b602085015190935063ffffffff811681146126fd57600080fd5b604085015190925061270e81612417565b809150509250925092565b6001600160401b0382811682821603908082111561273957612739612571565b5092915050565b634e487b7160e01b600052603260045260246000fd5b60005b83811015612771578181015183820152602001612759565b50506000910152565b6060815260008451806060840152612799816080850160208901612756565b6001600160a01b039490941660208301525060408101919091526080601f909201601f19160101919050565b6000600182016127d7576127d7612571565b5060010190565b60ff60f81b8460f81b168152600083516127ff816001850160208801612756565b835190830190612816816001840160208801612756565b0160010195945050505050565b60006020828403121561283557600080fd5b505191905056fea2646970667358221220ebd5ff9b7a0d61af219b0fb6ab89d6ccf2024a3aff4302829d43c75395caf14364736f6c63430008130033",
  "devdoc": {
    "details": "A registrar controller for registering and renewing names at fixed cost.",
    "kind": "dev",
    "methods": {
      "addNextPriceForCharLength(uint256)": {
        "params": {
          "charAmount": "The amount in USD/sec. (with 18 digits of precision)  for a character count, e.g. amount for three characters."
        }
      },
      "available(bytes)": {
        "params": {
          "name": "The full name, in DNS format wherein the length precedes each label and is terminted with a 0x0 byte, e.g. \"cb.id\" => [0x02,0x63,0x62,0x02,0x69,0x64,0x00]."
        }
      },
      "getLastCharIndex()": {
        "returns": {
          "_0": "The length of the last character length that was set."
        }
      },
      "getPriceDataForLength(uint16)": {
        "params": {
          "charLength": "The character length, e.g. 3 would be for three characters. Use 0 for the default amount."
        }
      },
      "makeCommitment(string,address,bytes32)": {
        "params": {
          "label": "The label in bytes, \"vitalik\" for vitalik.eth. and is terminted with a 0x0 byte, e.g. \"cb.id\" => [0x02,0x63,0x62,0x02,0x69,0x64,0x00]."
        }
      },
      "owner()": {
        "details": "Returns the address of the current owner."
      },
      "recoverFunds(address,address,uint256)": {
        "details": "The contract is Ownable and only the owner can call the recover function.",
        "params": {
          "_amount": "The amount of tokens to recover.",
          "_to": "The address to send the tokens to.",
          "_token": "The address of the ERC20 token to recover"
        }
      },
      "register(string,address,address,uint256,bytes32,address,uint16)": {
        "params": {
          "duration": "The duration in seconds of the registration.",
          "fuses": "The fuses to be set on the name.",
          "label": "The full name, in DNS format.",
          "owner": "The address that will own the name.",
          "referrer": "The address that referred the owner to the registrar.",
          "resolver": "The address of the resolver to use.",
          "secret": "The secret to be used for the commitment."
        }
      },
      "renew(string,address,uint256)": {
        "params": {
          "duration": "The duration for which the name should be renewed in years.",
          "label": "The name to be renewed in DNS format."
        }
      },
      "renounceOwnership()": {
        "details": "Leaves the contract without owner. It will not be possible to call `onlyOwner` functions. Can only be called by the current owner. NOTE: Renouncing ownership will leave the contract without an owner, thereby disabling any functionality that is only available to the owner."
      },
      "rentPrice(bytes,uint256)": {
        "params": {
          "duration": "The amount of time the name will be rented for/extended in years. "
        },
        "returns": {
          "usdPrice": "The rent price for the duration in USD ",
          "weiPrice": "The rent price for the duration in Wei "
        }
      },
      "setOwnerCut(uint256)": {
        "params": {
          "_ownerCut": "The cut for the owner of the contract."
        }
      },
      "setParams(uint64,uint64,uint16,uint16)": {
        "params": {
          "_maxChars": "The maximum length a name can be.",
          "_maxRegistrationDuration": "The maximum duration a name can be registered for.",
          "_minChars": "The minimum length a name can be.",
          "_minRegistrationDuration": "The minimum duration a name can be registered for."
        }
      },
      "setPricingForAllLengths(uint256[])": {
        "params": {
          "_charAmounts": "An array of amounst for each characer length."
        }
      },
      "setReferrerCut(uint256)": {
        "params": {
          "_referrerCut": "The percentage cut given to the referrer (0-10%)."
        }
      },
      "supportsInterface(bytes4)": {
        "details": "See {IERC165-supportsInterface}."
      },
      "transferOwnership(address)": {
        "details": "Transfers ownership of the contract to a new account (`newOwner`). Can only be called by the current owner."
      },
      "updatePriceForCharLength(uint16,uint256)": {
        "params": {
          "charAmount": "The amount in USD/year for a character count, e.g. amount for three characters.",
          "charLength": "The character length, e.g. 3 would be for three characters. Use 0 for the default amount."
        }
      }
    },
    "version": 1
  },
  "userdoc": {
    "kind": "user",
    "methods": {
      "addNextPriceForCharLength(uint256)": {
        "notice": "Adds a price for the next character length, e.g. three characters."
      },
      "available(bytes)": {
        "notice": "Check to see if the name is available for registration. "
      },
      "getLastCharIndex()": {
        "notice": "Get the last length for a character length that has a price (can be 0), e.g. three characters."
      },
      "getPriceDataForLength(uint16)": {
        "notice": "Get the price for a single character length, e.g. three characters."
      },
      "makeCommitment(string,address,bytes32)": {
        "notice": "Check to see if the name is available for registration. "
      },
      "recoverFunds(address,address,uint256)": {
        "notice": "Recover ERC20 tokens sent to the contract by mistake."
      },
      "register(string,address,address,uint256,bytes32,address,uint16)": {
        "notice": "Register a name."
      },
      "renew(string,address,uint256)": {
        "notice": "Function to renew a name for a specified duration. "
      },
      "rentPrice(bytes,uint256)": {
        "notice": "Gets the total cost of rent in wei, from the unitPrice, i.e. USD, and duration."
      },
      "setOwnerCut(uint256)": {
        "notice": "A function to set the cut for the owner of the contract."
      },
      "setParams(uint64,uint64,uint16,uint16)": {
        "notice": "Set the pricing for subnames of the parent name."
      },
      "setPricingForAllLengths(uint256[])": {
        "notice": "Set the pricing for subname lengths."
      },
      "setReferrerCut(uint256)": {
        "notice": "A function to set the referrer cut percentage for a specific referrer."
      },
      "updatePriceForCharLength(uint16,uint256)": {
        "notice": "Set a price for a single character length, e.g. three characters."
      },
      "withdraw()": {
        "notice": "A function to allow referrers, name owners, or the contract owner to withdraw."
      }
    },
    "version": 1
  },
  "storageLayout": {
    "storage": [
      {
        "astId": 56644,
        "contract": "contracts/layertwo/optimism/wrapper/L2EthRegistrar.sol:L2EthRegistrar",
        "label": "_owner",
        "offset": 0,
        "slot": "0",
        "type": "t_address"
      },
      {
        "astId": 320,
        "contract": "contracts/layertwo/optimism/wrapper/L2EthRegistrar.sol:L2EthRegistrar",
        "label": "balances",
        "offset": 0,
        "slot": "1",
        "type": "t_mapping(t_address,t_uint256)"
      },
      {
        "astId": 324,
        "contract": "contracts/layertwo/optimism/wrapper/L2EthRegistrar.sol:L2EthRegistrar",
        "label": "referrerCuts",
        "offset": 0,
        "slot": "2",
        "type": "t_mapping(t_address,t_uint256)"
      },
      {
        "astId": 326,
        "contract": "contracts/layertwo/optimism/wrapper/L2EthRegistrar.sol:L2EthRegistrar",
        "label": "totalBalance",
        "offset": 0,
        "slot": "3",
        "type": "t_uint256"
      },
      {
        "astId": 328,
        "contract": "contracts/layertwo/optimism/wrapper/L2EthRegistrar.sol:L2EthRegistrar",
        "label": "ownerCut",
        "offset": 0,
        "slot": "4",
        "type": "t_uint256"
      },
      {
        "astId": 1078,
        "contract": "contracts/layertwo/optimism/wrapper/L2EthRegistrar.sol:L2EthRegistrar",
        "label": "minRegistrationDuration",
        "offset": 0,
        "slot": "5",
        "type": "t_uint64"
      },
      {
        "astId": 1080,
        "contract": "contracts/layertwo/optimism/wrapper/L2EthRegistrar.sol:L2EthRegistrar",
        "label": "maxRegistrationDuration",
        "offset": 8,
        "slot": "5",
        "type": "t_uint64"
      },
      {
        "astId": 1082,
        "contract": "contracts/layertwo/optimism/wrapper/L2EthRegistrar.sol:L2EthRegistrar",
        "label": "minChars",
        "offset": 16,
        "slot": "5",
        "type": "t_uint16"
      },
      {
        "astId": 1084,
        "contract": "contracts/layertwo/optimism/wrapper/L2EthRegistrar.sol:L2EthRegistrar",
        "label": "maxChars",
        "offset": 18,
        "slot": "5",
        "type": "t_uint16"
      },
      {
        "astId": 1087,
        "contract": "contracts/layertwo/optimism/wrapper/L2EthRegistrar.sol:L2EthRegistrar",
        "label": "charAmounts",
        "offset": 0,
        "slot": "6",
        "type": "t_array(t_uint256)dyn_storage"
      },
      {
        "astId": 1091,
        "contract": "contracts/layertwo/optimism/wrapper/L2EthRegistrar.sol:L2EthRegistrar",
        "label": "commitments",
        "offset": 0,
        "slot": "7",
        "type": "t_mapping(t_bytes32,t_uint256)"
      }
    ],
    "types": {
      "t_address": {
        "encoding": "inplace",
        "label": "address",
        "numberOfBytes": "20"
      },
      "t_array(t_uint256)dyn_storage": {
        "base": "t_uint256",
        "encoding": "dynamic_array",
        "label": "uint256[]",
        "numberOfBytes": "32"
      },
      "t_bytes32": {
        "encoding": "inplace",
        "label": "bytes32",
        "numberOfBytes": "32"
      },
      "t_mapping(t_address,t_uint256)": {
        "encoding": "mapping",
        "key": "t_address",
        "label": "mapping(address => uint256)",
        "numberOfBytes": "32",
        "value": "t_uint256"
      },
      "t_mapping(t_bytes32,t_uint256)": {
        "encoding": "mapping",
        "key": "t_bytes32",
        "label": "mapping(bytes32 => uint256)",
        "numberOfBytes": "32",
        "value": "t_uint256"
      },
      "t_uint16": {
        "encoding": "inplace",
        "label": "uint16",
        "numberOfBytes": "2"
      },
      "t_uint256": {
        "encoding": "inplace",
        "label": "uint256",
        "numberOfBytes": "32"
      },
      "t_uint64": {
        "encoding": "inplace",
        "label": "uint64",
        "numberOfBytes": "8"
      }
    }
  }
}