{
  "address": "0xf529f4221CaE6c90b526a8849a166c3737030db2",
  "abi": [
    {
      "inputs": [
        {
          "internalType": "uint256",
          "name": "_minCommitmentAge",
          "type": "uint256"
        },
        {
          "internalType": "uint256",
          "name": "_maxCommitmentAge",
          "type": "uint256"
        },
        {
          "internalType": "contract ENS",
          "name": "_ens",
          "type": "address"
        },
        {
          "internalType": "contract IL2NameWrapper",
          "name": "_nameWrapper",
          "type": "address"
        },
        {
          "internalType": "contract IAggregatorInterface",
          "name": "_usdOracle",
          "type": "address"
        }
      ],
      "stateMutability": "nonpayable",
      "type": "constructor"
    },
    {
      "inputs": [],
      "name": "CannotSetNewCharLengthAmounts",
      "type": "error"
    },
    {
      "inputs": [
        {
          "internalType": "bytes32",
          "name": "commitment",
          "type": "bytes32"
        }
      ],
      "name": "CommitmentTooNew",
      "type": "error"
    },
    {
      "inputs": [
        {
          "internalType": "bytes32",
          "name": "commitment",
          "type": "bytes32"
        }
      ],
      "name": "CommitmentTooOld",
      "type": "error"
    },
    {
      "inputs": [
        {
          "internalType": "uint256",
          "name": "duration",
          "type": "uint256"
        }
      ],
      "name": "DurationTooShort",
      "type": "error"
    },
    {
      "inputs": [],
      "name": "InsufficientValue",
      "type": "error"
    },
    {
      "inputs": [
        {
          "internalType": "uint256",
          "name": "duration",
          "type": "uint256"
        }
      ],
      "name": "InvalidDuration",
      "type": "error"
    },
    {
      "inputs": [],
      "name": "LabelTooLong",
      "type": "error"
    },
    {
      "inputs": [],
      "name": "LabelTooShort",
      "type": "error"
    },
    {
      "inputs": [],
      "name": "MaxCommitmentAgeTooHigh",
      "type": "error"
    },
    {
      "inputs": [],
      "name": "MaxCommitmentAgeTooLow",
      "type": "error"
    },
    {
      "inputs": [
        {
          "internalType": "bytes32",
          "name": "node",
          "type": "bytes32"
        }
      ],
      "name": "UnauthorizedAddress",
      "type": "error"
    },
    {
      "inputs": [
        {
          "internalType": "bytes32",
          "name": "commitment",
          "type": "bytes32"
        }
      ],
      "name": "UnexpiredCommitmentExists",
      "type": "error"
    },
    {
      "inputs": [
        {
          "internalType": "string",
          "name": "label",
          "type": "string"
        }
      ],
      "name": "WrongNumberOfChars",
      "type": "error"
    },
    {
      "anonymous": false,
      "inputs": [
        {
          "indexed": true,
          "internalType": "address",
          "name": "_address",
          "type": "address"
        },
        {
          "indexed": true,
          "internalType": "uint256",
          "name": "amount",
          "type": "uint256"
        }
      ],
      "name": "AddressWithdrew",
      "type": "event"
    },
    {
      "anonymous": false,
      "inputs": [
        {
          "indexed": true,
          "internalType": "string",
          "name": "label",
          "type": "string"
        },
        {
          "indexed": true,
          "internalType": "bytes32",
          "name": "node",
          "type": "bytes32"
        },
        {
          "indexed": true,
          "internalType": "address",
          "name": "owner",
          "type": "address"
        },
        {
          "indexed": false,
          "internalType": "uint256",
          "name": "price",
          "type": "uint256"
        },
        {
          "indexed": false,
          "internalType": "uint256",
          "name": "expires",
          "type": "uint256"
        }
      ],
      "name": "Eth2LDRegistered",
      "type": "event"
    },
    {
      "anonymous": false,
      "inputs": [
        {
          "indexed": true,
          "internalType": "string",
          "name": "label",
          "type": "string"
        },
        {
          "indexed": true,
          "internalType": "uint256",
          "name": "cost",
          "type": "uint256"
        },
        {
          "indexed": true,
          "internalType": "uint256",
          "name": "expires",
          "type": "uint256"
        }
      ],
      "name": "NameRenewed",
      "type": "event"
    },
    {
      "anonymous": false,
      "inputs": [
        {
          "indexed": true,
          "internalType": "uint256",
          "name": "ownerCut",
          "type": "uint256"
        }
      ],
      "name": "OwnerCutSet",
      "type": "event"
    },
    {
      "anonymous": false,
      "inputs": [
        {
          "indexed": true,
          "internalType": "address",
          "name": "previousOwner",
          "type": "address"
        },
        {
          "indexed": true,
          "internalType": "address",
          "name": "newOwner",
          "type": "address"
        }
      ],
      "name": "OwnershipTransferred",
      "type": "event"
    },
    {
      "anonymous": false,
      "inputs": [
        {
          "indexed": true,
          "internalType": "uint256",
          "name": "referrerCut",
          "type": "uint256"
        }
      ],
      "name": "ReferrerCutSet",
      "type": "event"
    },
    {
      "inputs": [
        {
          "internalType": "uint256",
          "name": "charAmount",
          "type": "uint256"
        }
      ],
      "name": "addNextPriceForCharLength",
      "outputs": [],
      "stateMutability": "nonpayable",
      "type": "function"
    },
    {
      "inputs": [
        {
          "internalType": "bytes",
          "name": "name",
          "type": "bytes"
        }
      ],
      "name": "available",
      "outputs": [
        {
          "internalType": "bool",
          "name": "",
          "type": "bool"
        }
      ],
      "stateMutability": "view",
      "type": "function"
    },
    {
      "inputs": [
        {
          "internalType": "address",
          "name": "",
          "type": "address"
        }
      ],
      "name": "balances",
      "outputs": [
        {
          "internalType": "uint256",
          "name": "",
          "type": "uint256"
        }
      ],
      "stateMutability": "view",
      "type": "function"
    },
    {
      "inputs": [
        {
          "internalType": "uint256",
          "name": "",
          "type": "uint256"
        }
      ],
      "name": "charAmounts",
      "outputs": [
        {
          "internalType": "uint256",
          "name": "",
          "type": "uint256"
        }
      ],
      "stateMutability": "view",
      "type": "function"
    },
    {
      "inputs": [
        {
          "internalType": "bytes32",
          "name": "commitment",
          "type": "bytes32"
        }
      ],
      "name": "commit",
      "outputs": [],
      "stateMutability": "nonpayable",
      "type": "function"
    },
    {
      "inputs": [
        {
          "internalType": "bytes32",
          "name": "",
          "type": "bytes32"
        }
      ],
      "name": "commitments",
      "outputs": [
        {
          "internalType": "uint256",
          "name": "",
          "type": "uint256"
        }
      ],
      "stateMutability": "view",
      "type": "function"
    },
    {
      "inputs": [],
      "name": "ens",
      "outputs": [
        {
          "internalType": "contract ENS",
          "name": "",
          "type": "address"
        }
      ],
      "stateMutability": "view",
      "type": "function"
    },
    {
      "inputs": [],
      "name": "getLastCharIndex",
      "outputs": [
        {
          "internalType": "uint256",
          "name": "",
          "type": "uint256"
        }
      ],
      "stateMutability": "view",
      "type": "function"
    },
    {
      "inputs": [
        {
          "internalType": "uint16",
          "name": "charLength",
          "type": "uint16"
        }
      ],
      "name": "getPriceDataForLength",
      "outputs": [
        {
          "internalType": "uint256",
          "name": "",
          "type": "uint256"
        }
      ],
      "stateMutability": "view",
      "type": "function"
    },
    {
      "inputs": [
        {
          "internalType": "string",
          "name": "label",
          "type": "string"
        },
        {
          "internalType": "address",
          "name": "owner",
          "type": "address"
        },
        {
          "internalType": "bytes32",
          "name": "secret",
          "type": "bytes32"
        }
      ],
      "name": "makeCommitment",
      "outputs": [
        {
          "internalType": "bytes32",
          "name": "",
          "type": "bytes32"
        }
      ],
      "stateMutability": "pure",
      "type": "function"
    },
    {
      "inputs": [],
      "name": "maxChars",
      "outputs": [
        {
          "internalType": "uint16",
          "name": "",
          "type": "uint16"
        }
      ],
      "stateMutability": "view",
      "type": "function"
    },
    {
      "inputs": [],
      "name": "maxCommitmentAge",
      "outputs": [
        {
          "internalType": "uint256",
          "name": "",
          "type": "uint256"
        }
      ],
      "stateMutability": "view",
      "type": "function"
    },
    {
      "inputs": [],
      "name": "maxRegistrationDuration",
      "outputs": [
        {
          "internalType": "uint64",
          "name": "",
          "type": "uint64"
        }
      ],
      "stateMutability": "view",
      "type": "function"
    },
    {
      "inputs": [],
      "name": "minChars",
      "outputs": [
        {
          "internalType": "uint16",
          "name": "",
          "type": "uint16"
        }
      ],
      "stateMutability": "view",
      "type": "function"
    },
    {
      "inputs": [],
      "name": "minCommitmentAge",
      "outputs": [
        {
          "internalType": "uint256",
          "name": "",
          "type": "uint256"
        }
      ],
      "stateMutability": "view",
      "type": "function"
    },
    {
      "inputs": [],
      "name": "minRegistrationDuration",
      "outputs": [
        {
          "internalType": "uint64",
          "name": "",
          "type": "uint64"
        }
      ],
      "stateMutability": "view",
      "type": "function"
    },
    {
      "inputs": [],
      "name": "nameWrapper",
      "outputs": [
        {
          "internalType": "contract IL2NameWrapper",
          "name": "",
          "type": "address"
        }
      ],
      "stateMutability": "view",
      "type": "function"
    },
    {
      "inputs": [],
      "name": "owner",
      "outputs": [
        {
          "internalType": "address",
          "name": "",
          "type": "address"
        }
      ],
      "stateMutability": "view",
      "type": "function"
    },
    {
      "inputs": [],
      "name": "ownerCut",
      "outputs": [
        {
          "internalType": "uint256",
          "name": "",
          "type": "uint256"
        }
      ],
      "stateMutability": "view",
      "type": "function"
    },
    {
      "inputs": [
        {
          "internalType": "address",
          "name": "_token",
          "type": "address"
        },
        {
          "internalType": "address",
          "name": "_to",
          "type": "address"
        },
        {
          "internalType": "uint256",
          "name": "_amount",
          "type": "uint256"
        }
      ],
      "name": "recoverFunds",
      "outputs": [],
      "stateMutability": "nonpayable",
      "type": "function"
    },
    {
      "inputs": [
        {
          "internalType": "address",
          "name": "",
          "type": "address"
        }
      ],
      "name": "referrerCuts",
      "outputs": [
        {
          "internalType": "uint256",
          "name": "",
          "type": "uint256"
        }
      ],
      "stateMutability": "view",
      "type": "function"
    },
    {
      "inputs": [
        {
          "internalType": "string",
          "name": "label",
          "type": "string"
        },
        {
          "internalType": "address",
          "name": "owner",
          "type": "address"
        },
        {
          "internalType": "address",
          "name": "referrer",
          "type": "address"
        },
        {
          "internalType": "uint256",
          "name": "duration",
          "type": "uint256"
        },
        {
          "internalType": "bytes32",
          "name": "secret",
          "type": "bytes32"
        },
        {
          "internalType": "address",
          "name": "resolver",
          "type": "address"
        },
        {
          "internalType": "uint16",
          "name": "fuses",
          "type": "uint16"
        }
      ],
      "name": "register",
      "outputs": [],
      "stateMutability": "payable",
      "type": "function"
    },
    {
      "inputs": [
        {
          "internalType": "string",
          "name": "label",
          "type": "string"
        },
        {
          "internalType": "address",
          "name": "referrer",
          "type": "address"
        },
        {
          "internalType": "uint256",
          "name": "duration",
          "type": "uint256"
        }
      ],
      "name": "renew",
      "outputs": [],
      "stateMutability": "payable",
      "type": "function"
    },
    {
      "inputs": [],
      "name": "renounceOwnership",
      "outputs": [],
      "stateMutability": "nonpayable",
      "type": "function"
    },
    {
      "inputs": [
        {
          "internalType": "bytes",
          "name": "name",
          "type": "bytes"
        },
        {
          "internalType": "uint256",
          "name": "duration",
          "type": "uint256"
        }
      ],
      "name": "rentPrice",
      "outputs": [
        {
          "internalType": "uint256",
          "name": "weiPrice",
          "type": "uint256"
        },
        {
          "internalType": "uint256",
          "name": "usdPrice",
          "type": "uint256"
        }
      ],
      "stateMutability": "view",
      "type": "function"
    },
    {
      "inputs": [
        {
          "internalType": "uint256",
          "name": "_ownerCut",
          "type": "uint256"
        }
      ],
      "name": "setOwnerCut",
      "outputs": [],
      "stateMutability": "nonpayable",
      "type": "function"
    },
    {
      "inputs": [
        {
          "internalType": "uint64",
          "name": "_minRegistrationDuration",
          "type": "uint64"
        },
        {
          "internalType": "uint64",
          "name": "_maxRegistrationDuration",
          "type": "uint64"
        },
        {
          "internalType": "uint16",
          "name": "_minChars",
          "type": "uint16"
        },
        {
          "internalType": "uint16",
          "name": "_maxChars",
          "type": "uint16"
        }
      ],
      "name": "setParams",
      "outputs": [],
      "stateMutability": "nonpayable",
      "type": "function"
    },
    {
      "inputs": [
        {
          "internalType": "uint256[]",
          "name": "_charAmounts",
          "type": "uint256[]"
        }
      ],
      "name": "setPricingForAllLengths",
      "outputs": [],
      "stateMutability": "nonpayable",
      "type": "function"
    },
    {
      "inputs": [
        {
          "internalType": "uint256",
          "name": "_referrerCut",
          "type": "uint256"
        }
      ],
      "name": "setReferrerCut",
      "outputs": [],
      "stateMutability": "nonpayable",
      "type": "function"
    },
    {
      "inputs": [
        {
          "internalType": "bytes4",
          "name": "interfaceId",
          "type": "bytes4"
        }
      ],
      "name": "supportsInterface",
      "outputs": [
        {
          "internalType": "bool",
          "name": "",
          "type": "bool"
        }
      ],
      "stateMutability": "view",
      "type": "function"
    },
    {
      "inputs": [],
      "name": "totalBalance",
      "outputs": [
        {
          "internalType": "uint256",
          "name": "",
          "type": "uint256"
        }
      ],
      "stateMutability": "view",
      "type": "function"
    },
    {
      "inputs": [
        {
          "internalType": "address",
          "name": "newOwner",
          "type": "address"
        }
      ],
      "name": "transferOwnership",
      "outputs": [],
      "stateMutability": "nonpayable",
      "type": "function"
    },
    {
      "inputs": [
        {
          "internalType": "uint16",
          "name": "charLength",
          "type": "uint16"
        },
        {
          "internalType": "uint256",
          "name": "charAmount",
          "type": "uint256"
        }
      ],
      "name": "updatePriceForCharLength",
      "outputs": [],
      "stateMutability": "nonpayable",
      "type": "function"
    },
    {
      "inputs": [],
      "name": "usdOracle",
      "outputs": [
        {
          "internalType": "contract IAggregatorInterface",
          "name": "",
          "type": "address"
        }
      ],
      "stateMutability": "view",
      "type": "function"
    },
    {
      "inputs": [],
      "name": "withdraw",
      "outputs": [],
      "stateMutability": "nonpayable",
      "type": "function"
    }
  ],
  "transactionHash": "0x0de14f096a0658388aeb91fa26b4ee968f6d72b76022e1c1bc2d23ab75d0038d",
  "args": [
    5,
    604800,
    "0xffED83BDBd2F9906Ac12467288946cf7d8F6f599",
    "0x650E2705c595Ddb5f8e0B76fC3295F252f8aabB8",
    "0x1CF25555Eb74b587b4b3d9019d6Bf279E9920d25"
  ],
  "numDeployments": 1,
  "solcInputHash": "09411f6041dce78a34f63327b23de149",
  "bytecode": "0x6101206040523480156200001257600080fd5b5060405162002c0838038062002c0883398101604081905262000035916200011c565b6200004033620000b3565b60c860045584841162000066576040516307cb550760e31b815260040160405180910390fd5b428411156200008857604051630b4319e560e21b815260040160405180910390fd5b60809490945260a0929092526001600160a01b0390811660e05290811660c052166101005262000184565b600080546001600160a01b038381166001600160a01b0319831681178455604051919092169283917f8be0079c531659141344cd1fd0a4f28419497f9722a3daafe3b4186f6b6457e09190a35050565b6001600160a01b03811681146200011957600080fd5b50565b600080600080600060a086880312156200013557600080fd5b85519450602086015193506040860151620001508162000103565b6060870151909350620001638162000103565b6080870151909250620001768162000103565b809150509295509295909350565b60805160a05160c05160e051610100516129e462000224600039600081816105a90152611fb00152600081816102aa01526107900152600081816104df0152818161093301528181610b3d01528181610ef901528181610f8801528181611036015281816110dd0152818161116d015261132c015260008181610615015281816118680152611d6401526000818161044b0152611d0601526129e46000f3fe6080604052600436106101c45760003560e01c80638d839ffe116100f8578063c48561fe11610090578063c48561fe14610577578063c8a4271f14610597578063c9e87113146105cb578063ce1e09c014610603578063ddc0477d14610637578063f14fcbc814610664578063f2fde38b14610684578063f49826be146106a4578063f967c88f146106c457600080fd5b80638d839ffe146104395780638da5cb5b1461046d57806394e82a4c1461048b5780639dbd6227146104ad578063a8e5fbc0146104cd578063ad7a672f14610501578063b77e6aa014610517578063ba8d247914610537578063bae8fc081461055757600080fd5b8063444a2d8d1161016b578063444a2d8d146102f75780634dc80076146103175780635d3590d51461034c578063715018a61461036c57806371dc194f14610381578063757de573146103b657806378693000146103d6578063839df945146103f657806383b5ff8b1461042357600080fd5b806301ffc9a7146101c957806312abf4f7146101fe57806312ee468a1461021e57806317e800661461024157806327e235e3146102565780633ccfd60b146102835780633f15457f146102985780634260c5bf146102e4575b600080fd5b3480156101d557600080fd5b506101e96101e43660046121f7565b6106eb565b60405190151581526020015b60405180910390f35b34801561020a57600080fd5b506101e96102193660046122cc565b610722565b34801561022a57600080fd5b50610233610811565b6040519081526020016101f5565b61025461024f366004612370565b610828565b005b34801561026257600080fd5b5061023361027136600461240d565b60016020526000908152604090205481565b34801561028f57600080fd5b50610254610c66565b3480156102a457600080fd5b506102cc7f000000000000000000000000000000000000000000000000000000000000000081565b6040516001600160a01b0390911681526020016101f5565b6102546102f236600461242a565b610e15565b34801561030357600080fd5b50610233610312366004612486565b611411565b34801561032357600080fd5b5060055461033990600160901b900461ffff1681565b60405161ffff90911681526020016101f5565b34801561035857600080fd5b5061025461036736600461249f565b611432565b34801561037857600080fd5b506102546114b3565b34801561038d57600080fd5b506103a161039c3660046124e0565b6114c7565b604080519283526020830191909152016101f5565b3480156103c257600080fd5b506102546103d1366004612486565b61157f565b3480156103e257600080fd5b506102546103f1366004612524565b61165e565b34801561040257600080fd5b50610233610411366004612486565b60076020526000908152604090205481565b34801561042f57600080fd5b5061023360045481565b34801561044557600080fd5b506102337f000000000000000000000000000000000000000000000000000000000000000081565b34801561047957600080fd5b506000546001600160a01b03166102cc565b34801561049757600080fd5b5060055461033990600160801b900461ffff1681565b3480156104b957600080fd5b506102336104c836600461254e565b6116c1565b3480156104d957600080fd5b506102cc7f000000000000000000000000000000000000000000000000000000000000000081565b34801561050d57600080fd5b5061023360035481565b34801561052357600080fd5b5061025461053236600461257e565b6116ec565b34801561054357600080fd5b506102546105523660046125d6565b611755565b34801561056357600080fd5b50610254610572366004612486565b61177a565b34801561058357600080fd5b50610254610592366004612486565b611814565b3480156105a357600080fd5b506102cc7f000000000000000000000000000000000000000000000000000000000000000081565b3480156105d757600080fd5b506005546105eb906001600160401b031681565b6040516001600160401b0390911681526020016101f5565b34801561060f57600080fd5b506102337f000000000000000000000000000000000000000000000000000000000000000081565b34801561064357600080fd5b5061023361065236600461240d565b60026020526000908152604090205481565b34801561067057600080fd5b5061025461067f366004612486565b611851565b34801561069057600080fd5b5061025461069f36600461240d565b6118c1565b3480156106b057600080fd5b506102336106bf36600461264a565b611937565b3480156106d057600080fd5b506005546105eb90600160401b90046001600160401b031681565b60006001600160e01b031982166327821d9160e11b148061071c57506301ffc9a760e01b6001600160e01b03198316145b92915050565b60008080610730848261196d565b909250905060006107418583611a24565b9050600061074f8285611ae3565b9050600061075c87611b0f565b50905061076881611c09565b801561080657506040516302571be360e01b8152600481018390526000906001600160a01b037f000000000000000000000000000000000000000000000000000000000000000016906302571be390602401602060405180830381865afa1580156107d7573d6000803e3d6000fd5b505050506040513d601f19601f820116820180604052508101906107fb91906126a6565b6001600160a01b0316145b979650505050505050565b600654600090610823906001906126d9565b905090565b600061085c60008051602061298f83398151915260001b8a8a60405161084f9291906126ec565b6040518091039020611ae3565b905060006108ba8a8a8080601f016020809104026020016040519081016040528093929190818152602001838380828437600092019190915250506040805180820190915260058152626cae8d60e31b60208201529150611c7a9050565b6005549091506001600160401b03168610806108e75750600554600160401b90046001600160401b031686115b1561090d576040516313b783af60e21b8152600481018790526024015b60405180910390fd5b6040516331a9108f60e11b815260008051602061298f83398151915260048201526000907f00000000000000000000000000000000000000000000000000000000000000006001600160a01b031690636352211e90602401602060405180830381865afa158015610982573d6000803e3d6000fd5b505050506040513d601f19601f820116820180604052508101906109a691906126a6565b90506109e78b8b8080601f016020809104026020016040519081016040528093929190818152602001838380828437600092019190915250611c0992505050565b610a08578a8a604051637df0e75560e01b8152600401610904929190612725565b60006276a700610a188942612739565b610a229190612739565b90506000610a30848a6114c7565b50905080341015610a545760405163044044a560e21b815260040160405180910390fd5b60006001600160a01b038b1615610ac9576001600160a01b038b1660009081526002602052604090205461271090610a8c908461274c565b610a969190612763565b6001600160a01b038c16600090815260016020526040812080549293508392909190610ac3908490612739565b90915550505b8060036000828254610adb9190612739565b9250508190555050610b3b89610b368f8f8080601f016020809104026020016040519081016040528093929190818152602001838380828437600081840152601f19601f820116905080830192505050505050508e8c611937565b611cef565b7f00000000000000000000000000000000000000000000000000000000000000006001600160a01b031663d9f09cee8e8e8e60008e8d8d6040518863ffffffff1660e01b8152600401610b949796959493929190612785565b6020604051808303816000875af1158015610bb3573d6000803e3d6000fd5b505050506040513d601f19601f82011682018060405250810190610bd791906127d6565b508a6001600160a01b0316858e8e604051610bf39291906126ec565b604080519182900382208583526001600160401b0387166020840152917f5ab68d31acea6a21cd702ea00955807b98116e7cea65d16d92d23ea95af9b751910160405180910390a480341115610c5757610c57610c5082346126d9565b3390611de8565b50505050505050505050505050565b33610c796000546001600160a01b031690565b6001600160a01b0316816001600160a01b031603610d3557600060035447610ca191906126d9565b905060008111610ce85760405162461bcd60e51b815260206004820152601260248201527104f776e65722062616c616e636520697320360741b6044820152606401610904565b60405181906001600160a01b038416907fb990971c3785a76fb59cf6aa8fe8327738148e676c6d46a6dea040c4b6b2609590600090a3610d316001600160a01b03831682611de8565b5050565b6001600160a01b038116600090815260016020526040902054610d935760405162461bcd60e51b815260206004820152601660248201527504164647265737327732062616c616e636520697320360541b6044820152606401610904565b6001600160a01b03811660009081526001602052604081208054908290556003805491928392610dc49084906126d9565b909155505060405181906001600160a01b038416907fb990971c3785a76fb59cf6aa8fe8327738148e676c6d46a6dea040c4b6b2609590600090a3610d316001600160a01b03831682611de8565b50565b60008484604051610e279291906126ec565b6040805191829003822082820190915260058252626cae8d60e31b60208301529150600090610e569082611a24565b90506000610e7260008051602061298f83398151915284611ae3565b90506000610ed088888080601f016020809104026020016040519081016040528093929190818152602001838380828437600092019190915250506040805180820190915260058152626cae8d60e31b60208201529150611c7a9050565b6040516331a9108f60e11b815260008051602061298f83398151915260048201529091506000907f00000000000000000000000000000000000000000000000000000000000000006001600160a01b031690636352211e90602401602060405180830381865afa158015610f48573d6000803e3d6000fd5b505050506040513d601f19601f82011682018060405250810190610f6c91906126a6565b6040516331a9108f60e11b8152600481018590529091506000907f00000000000000000000000000000000000000000000000000000000000000006001600160a01b031690636352211e90602401602060405180830381865afa158015610fd7573d6000803e3d6000fd5b505050506040513d601f19601f82011682018060405250810190610ffb91906126a6565b9050336001600160a01b038216148015906110a1575060405163e985e9c560e01b81526001600160a01b0382811660048301523360248301527f0000000000000000000000000000000000000000000000000000000000000000169063e985e9c590604401602060405180830381865afa15801561107d573d6000803e3d6000fd5b505050506040513d601f19601f820116820180604052508101906110a191906127f3565b156110c257604051635c20ef6960e11b815260048101859052602401610904565b604051630178fe3f60e01b81526004810185905260009081907f00000000000000000000000000000000000000000000000000000000000000006001600160a01b031690630178fe3f90602401606060405180830381865afa15801561112c573d6000803e3d6000fd5b505050506040513d601f19601f820116820180604052508101906111509190612815565b604051630178fe3f60e01b8152600481018b9052909350600092507f00000000000000000000000000000000000000000000000000000000000000006001600160a01b03169150630178fe3f90602401606060405180830381865afa1580156111bd573d6000803e3d6000fd5b505050506040513d601f19601f820116820180604052508101906111e19190612815565b92505050806001600160401b03168a836001600160401b03166112049190612739565b111561122057611214828261286b565b6001600160401b031699505b6112338a6001600160401b038416612739565b925050506000611243858a6114c7565b509050803410156112675760405163044044a560e21b815260040160405180910390fd5b60006001600160a01b038b16156112dc576001600160a01b038b166000908152600260205260409020546127109061129f908461274c565b6112a99190612763565b6001600160a01b038c166000908152600160205260408120805492935083929091906112d6908490612739565b90915550505b80600360008282546112ee9190612739565b909155505060405163372eb56960e11b815260008051602061298f8339815191526004820152602481018a90526001600160401b03841660448201527f00000000000000000000000000000000000000000000000000000000000000006001600160a01b03169150636e5d6ad2906064016020604051808303816000875af115801561137e573d6000803e3d6000fd5b505050506040513d601f19601f820116820180604052508101906113a291906127d6565b50816001600160401b0316818d8d6040516113be9291906126ec565b604051908190038120907f983587df6b7b703c7d9c0d9fdb64ad88e85b07e5663a41f2ff95d8313abd660690600090a48034111561140357611403610c5082346126d9565b505050505050505050505050565b6006818154811061142157600080fd5b600091825260209091200154905081565b61143a611f01565b60405163a9059cbb60e01b81526001600160a01b0383811660048301526024820183905284169063a9059cbb906044016020604051808303816000875af1158015611489573d6000803e3d6000fd5b505050506040513d601f19601f820116820180604052508101906114ad91906127f3565b50505050565b6114bb611f01565b6114c56000611f5b565b565b60008060006114d585611b0f565b600654909250905060008115611550578183101561153c576006838154811061150057611500612892565b906000526020600020015490508060000361153757600660008154811061152957611529612892565b906000526020600020015490505b611554565b600660008154811061152957611529612892565b5060005b611566611561878361274c565b611fab565b611570878361274c565b945094505050505b9250929050565b6000546001600160a01b031633146115d95760405162461bcd60e51b815260206004820152601e60248201527f4f6e6c7920746865206f776e65722063616e20736574207468652063757400006044820152606401610904565b6101f481111561162b5760405162461bcd60e51b815260206004820181905260248201527f4f776e6572206375742063616e6e6f74206265206d6f7265207468616e2035256044820152606401610904565b600481905560405181907fd0097c261070735a2812d4540f4ac501d429da168de12584fb6302c6ea3abfd990600090a250565b611666611f01565b600654611675906001906126d9565b8261ffff161115611699576040516339b7567760e21b815260040160405180910390fd5b8060068361ffff16815481106116b1576116b1612892565b6000918252602090912001555050565b600060068261ffff16815481106116da576116da612892565b90600052602060002001549050919050565b6116f4611f01565b600580546001600160401b039586166001600160801b031990911617600160401b94909516939093029390931763ffffffff60801b1916600160801b61ffff9283160261ffff60901b191617600160901b9390911692909202919091179055565b61175d611f01565b61176960066000612179565b61177560068383612197565b505050565b6103e88111156117d85760405162461bcd60e51b8152602060048201526024808201527f5265666572726572206375742063616e6e6f74206265206d6f7265207468616e6044820152632031302560e01b6064820152608401610904565b336000908152600260205260408082208390555182917f5132aa1b4691ab49930b655c558addd21627fa35b28ff9695f3468d955c0e0a091a250565b61181c611f01565b600680546001810182556000919091527ff652222313e28459528d920b65115c16c04f3efc82aaedc97be59f3f377c0d3f0155565b600081815260076020526040902054429061188d907f000000000000000000000000000000000000000000000000000000000000000090612739565b106118ae57604051630a059d7160e01b815260048101829052602401610904565b6000908152600760205260409020429055565b6118c9611f01565b6001600160a01b03811661192e5760405162461bcd60e51b815260206004820152602660248201527f4f776e61626c653a206e6577206f776e657220697320746865207a65726f206160448201526564647265737360d01b6064820152608401610904565b610e1281611f5b565b600083838360405160200161194e939291906128cc565b6040516020818303038152906040528051906020012090509392505050565b600080835183106119c05760405162461bcd60e51b815260206004820152601e60248201527f726561644c6162656c3a20496e646578206f7574206f6620626f756e647300006044820152606401610904565b60008484815181106119d4576119d4612892565b016020015160f81c90508015611a00576119f9856119f3866001612739565b83612052565b9250611a05565b600092505b611a0f8185612739565b611a1a906001612739565b9150509250929050565b6000806000611a33858561196d565b909250905081611aa55760018551611a4b91906126d9565b8414611a995760405162461bcd60e51b815260206004820152601d60248201527f6e616d65686173683a204a756e6b20617420656e64206f66206e616d650000006044820152606401610904565b506000915061071c9050565b611aaf8582611a24565b6040805160208101929092528101839052606001604051602081830303815290604052805190602001209250505092915050565b604080516020808201949094528082019290925280518083038201815260609092019052805191012090565b606060008083600081518110611b2757611b27612892565b0160200151845160f89190911c915081108015611b445750600081115b611b4d57600080fd5b6000816001600160401b03811115611b6757611b67612221565b6040519080825280601f01601f191660200182016040528015611b91576020820181803683370190505b50905060005b82811015611bff5785611bab826001612739565b81518110611bbb57611bbb612892565b602001015160f81c60f81b828281518110611bd857611bd8612892565b60200101906001600160f81b031916908160001a905350611bf881612917565b9050611b97565b5094909350915050565b600554600090600160801b900461ffff16611c2383612076565b10611c6d57600554600160901b900461ffff1615801590611c585750600554600160901b900461ffff16611c5683612076565b115b15611c6557506000919050565b506001919050565b506000919050565b919050565b6060600183511015611c9f57604051631406d65b60e11b815260040160405180910390fd5b60ff83511115611cc257604051633ea2fbc360e11b815260040160405180910390fd5b82518383604051602001611cd893929190612930565b604051602081830303815290604052905092915050565b6000818152600760205260409020544290611d2b907f000000000000000000000000000000000000000000000000000000000000000090612739565b1115611d4d57604051635320bcf960e01b815260048101829052602401610904565b6000818152600760205260409020544290611d89907f000000000000000000000000000000000000000000000000000000000000000090612739565b11611daa5760405163cb7690d760e01b815260048101829052602401610904565b6000818152600760205260408120556005546001600160401b0316821015610d3157604051639a71997b60e01b815260048101839052602401610904565b80471015611e385760405162461bcd60e51b815260206004820152601d60248201527f416464726573733a20696e73756666696369656e742062616c616e63650000006044820152606401610904565b6000826001600160a01b03168260405160006040518083038185875af1925050503d8060008114611e85576040519150601f19603f3d011682016040523d82523d6000602084013e611e8a565b606091505b50509050806117755760405162461bcd60e51b815260206004820152603a60248201527f416464726573733a20756e61626c6520746f2073656e642076616c75652c207260448201527f6563697069656e74206d617920686176652072657665727465640000000000006064820152608401610904565b6000546001600160a01b031633146114c55760405162461bcd60e51b815260206004820181905260248201527f4f776e61626c653a2063616c6c6572206973206e6f7420746865206f776e65726044820152606401610904565b600080546001600160a01b038381166001600160a01b0319831681178455604051919092169283917f8be0079c531659141344cd1fd0a4f28419497f9722a3daafe3b4186f6b6457e09190a35050565b6000807f00000000000000000000000000000000000000000000000000000000000000006001600160a01b03166350d25bcd6040518163ffffffff1660e01b8152600401602060405180830381865afa15801561200c573d6000803e3d6000fd5b505050506040513d601f19601f820116820180604052508101906120309190612975565b905080612041846305f5e10061274c565b61204b9190612763565b9392505050565b82516000906120618385612739565b111561206c57600080fd5b5091016020012090565b8051600090819081905b8082101561217057600085838151811061209c5761209c612892565b01602001516001600160f81b0319169050600160ff1b8110156120cb576120c4600184612739565b925061215d565b600760fd1b6001600160f81b0319821610156120ec576120c4600284612739565b600f60fc1b6001600160f81b03198216101561210d576120c4600384612739565b601f60fb1b6001600160f81b03198216101561212e576120c4600484612739565b603f60fa1b6001600160f81b03198216101561214f576120c4600584612739565b61215a600684612739565b92505b508261216881612917565b935050612080565b50909392505050565b5080546000825590600052602060002090810190610e1291906121e2565b8280548282559060005260206000209081019282156121d2579160200282015b828111156121d25782358255916020019190600101906121b7565b506121de9291506121e2565b5090565b5b808211156121de57600081556001016121e3565b60006020828403121561220957600080fd5b81356001600160e01b03198116811461204b57600080fd5b634e487b7160e01b600052604160045260246000fd5b60006001600160401b038084111561225157612251612221565b604051601f8501601f19908116603f0116810190828211818310171561227957612279612221565b8160405280935085815286868601111561229257600080fd5b858560208301376000602087830101525050509392505050565b600082601f8301126122bd57600080fd5b61204b83833560208501612237565b6000602082840312156122de57600080fd5b81356001600160401b038111156122f457600080fd5b612300848285016122ac565b949350505050565b60008083601f84011261231a57600080fd5b5081356001600160401b0381111561233157600080fd5b60208301915083602082850101111561157857600080fd5b6001600160a01b0381168114610e1257600080fd5b803561ffff81168114611c7557600080fd5b60008060008060008060008060e0898b03121561238c57600080fd5b88356001600160401b038111156123a257600080fd5b6123ae8b828c01612308565b90995097505060208901356123c281612349565b955060408901356123d281612349565b9450606089013593506080890135925060a08901356123f081612349565b91506123fe60c08a0161235e565b90509295985092959890939650565b60006020828403121561241f57600080fd5b813561204b81612349565b6000806000806060858703121561244057600080fd5b84356001600160401b0381111561245657600080fd5b61246287828801612308565b909550935050602085013561247681612349565b9396929550929360400135925050565b60006020828403121561249857600080fd5b5035919050565b6000806000606084860312156124b457600080fd5b83356124bf81612349565b925060208401356124cf81612349565b929592945050506040919091013590565b600080604083850312156124f357600080fd5b82356001600160401b0381111561250957600080fd5b612515858286016122ac565b95602094909401359450505050565b6000806040838503121561253757600080fd5b6125408361235e565b946020939093013593505050565b60006020828403121561256057600080fd5b61204b8261235e565b6001600160401b0381168114610e1257600080fd5b6000806000806080858703121561259457600080fd5b843561259f81612569565b935060208501356125af81612569565b92506125bd6040860161235e565b91506125cb6060860161235e565b905092959194509250565b600080602083850312156125e957600080fd5b82356001600160401b038082111561260057600080fd5b818501915085601f83011261261457600080fd5b81358181111561262357600080fd5b8660208260051b850101111561263857600080fd5b60209290920196919550909350505050565b60008060006060848603121561265f57600080fd5b83356001600160401b0381111561267557600080fd5b8401601f8101861361268657600080fd5b61269586823560208401612237565b93505060208401356124cf81612349565b6000602082840312156126b857600080fd5b815161204b81612349565b634e487b7160e01b600052601160045260246000fd5b8181038181111561071c5761071c6126c3565b8183823760009101908152919050565b81835281816020850137506000828201602090810191909152601f909101601f19169091010190565b6020815260006123006020830184866126fc565b8082018082111561071c5761071c6126c3565b808202811582820484141761071c5761071c6126c3565b60008261278057634e487b7160e01b600052601260045260246000fd5b500490565b60c08152600061279960c08301898b6126fc565b6001600160a01b03978816602084015295871660408301525060608101939093529316608082015261ffff90921660a09092019190915292915050565b6000602082840312156127e857600080fd5b815161204b81612569565b60006020828403121561280557600080fd5b8151801515811461204b57600080fd5b60008060006060848603121561282a57600080fd5b835161283581612349565b602085015190935063ffffffff8116811461284f57600080fd5b604085015190925061286081612569565b809150509250925092565b6001600160401b0382811682821603908082111561288b5761288b6126c3565b5092915050565b634e487b7160e01b600052603260045260246000fd5b60005b838110156128c35781810151838201526020016128ab565b50506000910152565b60608152600084518060608401526128eb8160808501602089016128a8565b6001600160a01b039490941660208301525060408101919091526080601f909201601f19160101919050565b600060018201612929576129296126c3565b5060010190565b60ff60f81b8460f81b168152600083516129518160018501602088016128a8565b8351908301906129688160018401602088016128a8565b0160010195945050505050565b60006020828403121561298757600080fd5b505191905056fe93cdeb708b7545dc668eb9280176169d1c33cfd8ed6f04690a0bcc88a93fc4aea2646970667358221220806937483b72314e5ff0f2f7b878a9680801a75c984918a7c32f9becff1a961064736f6c63430008130033",
  "devdoc": {
    "details": "A registrar controller for registering and renewing names at fixed cost.",
    "kind": "dev",
    "methods": {
      "addNextPriceForCharLength(uint256)": {
        "params": {
          "charAmount": "The amount in USD/sec. (with 18 digits of precision)  for a character count, e.g. amount for three characters."
        }
      },
      "available(bytes)": {
        "params": {
          "name": "The full name, in DNS format wherein the length precedes each label and is terminted with a 0x0 byte, e.g. \"cb.id\" => [0x02,0x63,0x62,0x02,0x69,0x64,0x00]."
        }
      },
      "getLastCharIndex()": {
        "returns": {
          "_0": "The length of the last character length that was set."
        }
      },
      "getPriceDataForLength(uint16)": {
        "params": {
          "charLength": "The character length, e.g. 3 would be for three characters. Use 0 for the default amount."
        }
      },
      "makeCommitment(string,address,bytes32)": {
        "params": {
          "label": "The label in bytes, \"vitalik\" for vitalik.eth. and is terminted with a 0x0 byte, e.g. \"cb.id\" => [0x02,0x63,0x62,0x02,0x69,0x64,0x00]."
        }
      },
      "owner()": {
        "details": "Returns the address of the current owner."
      },
      "recoverFunds(address,address,uint256)": {
        "details": "The contract is Ownable and only the owner can call the recover function.",
        "params": {
          "_amount": "The amount of tokens to recover.",
          "_to": "The address to send the tokens to.",
          "_token": "The address of the ERC20 token to recover"
        }
      },
      "register(string,address,address,uint256,bytes32,address,uint16)": {
        "params": {
          "duration": "The duration in seconds of the registration.",
          "fuses": "The fuses to be set on the name.",
          "label": "The full name, in DNS format.",
          "owner": "The address that will own the name.",
          "referrer": "The address that referred the owner to the registrar.",
          "resolver": "The address of the resolver to use.",
          "secret": "The secret to be used for the commitment."
        }
      },
      "renew(string,address,uint256)": {
        "params": {
          "duration": "The duration for which the name should be renewed in years.",
          "label": "The name to be renewed in DNS format."
        }
      },
      "renounceOwnership()": {
        "details": "Leaves the contract without owner. It will not be possible to call `onlyOwner` functions. Can only be called by the current owner. NOTE: Renouncing ownership will leave the contract without an owner, thereby disabling any functionality that is only available to the owner."
      },
      "rentPrice(bytes,uint256)": {
        "params": {
          "duration": "The amount of time the name will be rented for/extended in years. "
        },
        "returns": {
          "usdPrice": "The rent price for the duration in USD ",
          "weiPrice": "The rent price for the duration in Wei "
        }
      },
      "setOwnerCut(uint256)": {
        "params": {
          "_ownerCut": "The cut for the owner of the contract."
        }
      },
      "setParams(uint64,uint64,uint16,uint16)": {
        "params": {
          "_maxChars": "The maximum length a name can be.",
          "_maxRegistrationDuration": "The maximum duration a name can be registered for.",
          "_minChars": "The minimum length a name can be.",
          "_minRegistrationDuration": "The minimum duration a name can be registered for."
        }
      },
      "setPricingForAllLengths(uint256[])": {
        "params": {
          "_charAmounts": "An array of amounst for each characer length."
        }
      },
      "setReferrerCut(uint256)": {
        "params": {
          "_referrerCut": "The percentage cut given to the referrer (0-10%)."
        }
      },
      "supportsInterface(bytes4)": {
        "details": "See {IERC165-supportsInterface}."
      },
      "transferOwnership(address)": {
        "details": "Transfers ownership of the contract to a new account (`newOwner`). Can only be called by the current owner."
      },
      "updatePriceForCharLength(uint16,uint256)": {
        "params": {
          "charAmount": "The amount in USD/year for a character count, e.g. amount for three characters.",
          "charLength": "The character length, e.g. 3 would be for three characters. Use 0 for the default amount."
        }
      }
    },
    "version": 1
  },
  "userdoc": {
    "kind": "user",
    "methods": {
      "addNextPriceForCharLength(uint256)": {
        "notice": "Adds a price for the next character length, e.g. three characters."
      },
      "available(bytes)": {
        "notice": "Check to see if the name is available for registration. "
      },
      "getLastCharIndex()": {
        "notice": "Get the last length for a character length that has a price (can be 0), e.g. three characters."
      },
      "getPriceDataForLength(uint16)": {
        "notice": "Get the price for a single character length, e.g. three characters."
      },
      "makeCommitment(string,address,bytes32)": {
        "notice": "Check to see if the name is available for registration. "
      },
      "recoverFunds(address,address,uint256)": {
        "notice": "Recover ERC20 tokens sent to the contract by mistake."
      },
      "register(string,address,address,uint256,bytes32,address,uint16)": {
        "notice": "Register a name."
      },
      "renew(string,address,uint256)": {
        "notice": "Function to renew a name for a specified duration. "
      },
      "rentPrice(bytes,uint256)": {
        "notice": "Gets the total cost of rent in wei, from the unitPrice, i.e. USD, and duration."
      },
      "setOwnerCut(uint256)": {
        "notice": "A function to set the cut for the owner of the contract."
      },
      "setParams(uint64,uint64,uint16,uint16)": {
        "notice": "Set the pricing for subnames of the parent name."
      },
      "setPricingForAllLengths(uint256[])": {
        "notice": "Set the pricing for subname lengths."
      },
      "setReferrerCut(uint256)": {
        "notice": "A function to set the referrer cut percentage for a specific referrer."
      },
      "updatePriceForCharLength(uint16,uint256)": {
        "notice": "Set a price for a single character length, e.g. three characters."
      },
      "withdraw()": {
        "notice": "A function to allow referrers, name owners, or the contract owner to withdraw."
      }
    },
    "version": 1
  },
  "storageLayout": {
    "storage": [
      {
        "astId": 19865,
        "contract": "contracts/layertwo/optimism/wrapper/L2EthRegistrar.sol:L2EthRegistrar",
        "label": "_owner",
        "offset": 0,
        "slot": "0",
        "type": "t_address"
      },
      {
        "astId": 320,
        "contract": "contracts/layertwo/optimism/wrapper/L2EthRegistrar.sol:L2EthRegistrar",
        "label": "balances",
        "offset": 0,
        "slot": "1",
        "type": "t_mapping(t_address,t_uint256)"
      },
      {
        "astId": 324,
        "contract": "contracts/layertwo/optimism/wrapper/L2EthRegistrar.sol:L2EthRegistrar",
        "label": "referrerCuts",
        "offset": 0,
        "slot": "2",
        "type": "t_mapping(t_address,t_uint256)"
      },
      {
        "astId": 326,
        "contract": "contracts/layertwo/optimism/wrapper/L2EthRegistrar.sol:L2EthRegistrar",
        "label": "totalBalance",
        "offset": 0,
        "slot": "3",
        "type": "t_uint256"
      },
      {
        "astId": 328,
        "contract": "contracts/layertwo/optimism/wrapper/L2EthRegistrar.sol:L2EthRegistrar",
        "label": "ownerCut",
        "offset": 0,
        "slot": "4",
        "type": "t_uint256"
      },
      {
        "astId": 925,
        "contract": "contracts/layertwo/optimism/wrapper/L2EthRegistrar.sol:L2EthRegistrar",
        "label": "minRegistrationDuration",
        "offset": 0,
        "slot": "5",
        "type": "t_uint64"
      },
      {
        "astId": 927,
        "contract": "contracts/layertwo/optimism/wrapper/L2EthRegistrar.sol:L2EthRegistrar",
        "label": "maxRegistrationDuration",
        "offset": 8,
        "slot": "5",
        "type": "t_uint64"
      },
      {
        "astId": 929,
        "contract": "contracts/layertwo/optimism/wrapper/L2EthRegistrar.sol:L2EthRegistrar",
        "label": "minChars",
        "offset": 16,
        "slot": "5",
        "type": "t_uint16"
      },
      {
        "astId": 931,
        "contract": "contracts/layertwo/optimism/wrapper/L2EthRegistrar.sol:L2EthRegistrar",
        "label": "maxChars",
        "offset": 18,
        "slot": "5",
        "type": "t_uint16"
      },
      {
        "astId": 934,
        "contract": "contracts/layertwo/optimism/wrapper/L2EthRegistrar.sol:L2EthRegistrar",
        "label": "charAmounts",
        "offset": 0,
        "slot": "6",
        "type": "t_array(t_uint256)dyn_storage"
      },
      {
        "astId": 938,
        "contract": "contracts/layertwo/optimism/wrapper/L2EthRegistrar.sol:L2EthRegistrar",
        "label": "commitments",
        "offset": 0,
        "slot": "7",
        "type": "t_mapping(t_bytes32,t_uint256)"
      }
    ],
    "types": {
      "t_address": {
        "encoding": "inplace",
        "label": "address",
        "numberOfBytes": "20"
      },
      "t_array(t_uint256)dyn_storage": {
        "base": "t_uint256",
        "encoding": "dynamic_array",
        "label": "uint256[]",
        "numberOfBytes": "32"
      },
      "t_bytes32": {
        "encoding": "inplace",
        "label": "bytes32",
        "numberOfBytes": "32"
      },
      "t_mapping(t_address,t_uint256)": {
        "encoding": "mapping",
        "key": "t_address",
        "label": "mapping(address => uint256)",
        "numberOfBytes": "32",
        "value": "t_uint256"
      },
      "t_mapping(t_bytes32,t_uint256)": {
        "encoding": "mapping",
        "key": "t_bytes32",
        "label": "mapping(bytes32 => uint256)",
        "numberOfBytes": "32",
        "value": "t_uint256"
      },
      "t_uint16": {
        "encoding": "inplace",
        "label": "uint16",
        "numberOfBytes": "2"
      },
      "t_uint256": {
        "encoding": "inplace",
        "label": "uint256",
        "numberOfBytes": "32"
      },
      "t_uint64": {
        "encoding": "inplace",
        "label": "uint64",
        "numberOfBytes": "8"
      }
    }
  }
}