{
  "address": "0x4d9E82ddde61D405b9A999dcDBD255a07a3398F0",
  "abi": [
    {
      "inputs": [
        {
          "internalType": "contract INameWrapper",
          "name": "_nameWrapper",
          "type": "address"
        },
        {
          "internalType": "contract IAggregatorInterface",
          "name": "_usdOracle",
          "type": "address"
        },
        {
          "internalType": "uint256",
          "name": "_usdPrice",
          "type": "uint256"
        }
      ],
      "stateMutability": "nonpayable",
      "type": "constructor"
    },
    {
      "inputs": [],
      "name": "InsufficientValue",
      "type": "error"
    },
    {
      "inputs": [
        {
          "internalType": "bytes32",
          "name": "node",
          "type": "bytes32"
        }
      ],
      "name": "UnauthorizedAddress",
      "type": "error"
    },
    {
      "anonymous": false,
      "inputs": [
        {
          "indexed": true,
          "internalType": "address",
          "name": "_address",
          "type": "address"
        },
        {
          "indexed": true,
          "internalType": "uint256",
          "name": "amount",
          "type": "uint256"
        }
      ],
      "name": "AddressWithdrew",
      "type": "event"
    },
    {
      "anonymous": false,
      "inputs": [
        {
          "indexed": true,
          "internalType": "bytes",
          "name": "name",
          "type": "bytes"
        },
        {
          "indexed": true,
          "internalType": "uint256",
          "name": "price",
          "type": "uint256"
        },
        {
          "indexed": true,
          "internalType": "uint64",
          "name": "expiry",
          "type": "uint64"
        }
      ],
      "name": "NameRenewed",
      "type": "event"
    },
    {
      "anonymous": false,
      "inputs": [],
      "name": "NameWrapperVersionUpdated",
      "type": "event"
    },
    {
      "anonymous": false,
      "inputs": [
        {
          "indexed": true,
          "internalType": "uint256",
          "name": "ownerCut",
          "type": "uint256"
        }
      ],
      "name": "OwnerCutSet",
      "type": "event"
    },
    {
      "anonymous": false,
      "inputs": [
        {
          "indexed": true,
          "internalType": "address",
          "name": "previousOwner",
          "type": "address"
        },
        {
          "indexed": true,
          "internalType": "address",
          "name": "newOwner",
          "type": "address"
        }
      ],
      "name": "OwnershipTransferred",
      "type": "event"
    },
    {
      "anonymous": false,
      "inputs": [
        {
          "indexed": true,
          "internalType": "uint256",
          "name": "referrerCut",
          "type": "uint256"
        }
      ],
      "name": "ReferrerCutSet",
      "type": "event"
    },
    {
      "anonymous": false,
      "inputs": [],
      "name": "SubnameWrapperVersionUpdated",
      "type": "event"
    },
    {
      "inputs": [
        {
          "internalType": "contract INameWrapperUpgrade",
          "name": "_nameWrapper",
          "type": "address"
        }
      ],
      "name": "addNextNameWrapperVersion",
      "outputs": [],
      "stateMutability": "nonpayable",
      "type": "function"
    },
    {
      "inputs": [
        {
          "internalType": "address",
          "name": "",
          "type": "address"
        }
      ],
      "name": "balances",
      "outputs": [
        {
          "internalType": "uint256",
          "name": "",
          "type": "uint256"
        }
      ],
      "stateMutability": "view",
      "type": "function"
    },
    {
      "inputs": [
        {
          "internalType": "uint256",
          "name": "",
          "type": "uint256"
        }
      ],
      "name": "nameWrappers",
      "outputs": [
        {
          "internalType": "address",
          "name": "",
          "type": "address"
        }
      ],
      "stateMutability": "view",
      "type": "function"
    },
    {
      "inputs": [],
      "name": "owner",
      "outputs": [
        {
          "internalType": "address",
          "name": "",
          "type": "address"
        }
      ],
      "stateMutability": "view",
      "type": "function"
    },
    {
      "inputs": [],
      "name": "ownerCut",
      "outputs": [
        {
          "internalType": "uint256",
          "name": "",
          "type": "uint256"
        }
      ],
      "stateMutability": "view",
      "type": "function"
    },
    {
      "inputs": [
        {
          "internalType": "address",
          "name": "_token",
          "type": "address"
        },
        {
          "internalType": "address",
          "name": "_to",
          "type": "address"
        },
        {
          "internalType": "uint256",
          "name": "_amount",
          "type": "uint256"
        }
      ],
      "name": "recoverFunds",
      "outputs": [],
      "stateMutability": "nonpayable",
      "type": "function"
    },
    {
      "inputs": [
        {
          "internalType": "address",
          "name": "",
          "type": "address"
        }
      ],
      "name": "referrerCuts",
      "outputs": [
        {
          "internalType": "uint256",
          "name": "",
          "type": "uint256"
        }
      ],
      "stateMutability": "view",
      "type": "function"
    },
    {
      "inputs": [
        {
          "internalType": "bytes",
          "name": "name",
          "type": "bytes"
        },
        {
          "internalType": "address",
          "name": "referrer",
          "type": "address"
        },
        {
          "internalType": "uint256",
          "name": "duration",
          "type": "uint256"
        }
      ],
      "name": "renew",
      "outputs": [],
      "stateMutability": "payable",
      "type": "function"
    },
    {
      "inputs": [
        {
          "internalType": "uint256",
          "name": "nameWrapperV",
          "type": "uint256"
        },
        {
          "internalType": "bytes",
          "name": "name",
          "type": "bytes"
        },
        {
          "internalType": "address",
          "name": "referrer",
          "type": "address"
        },
        {
          "internalType": "uint256",
          "name": "duration",
          "type": "uint256"
        }
      ],
      "name": "renewWithVersions",
      "outputs": [],
      "stateMutability": "payable",
      "type": "function"
    },
    {
      "inputs": [],
      "name": "renounceOwnership",
      "outputs": [],
      "stateMutability": "nonpayable",
      "type": "function"
    },
    {
      "inputs": [
        {
          "internalType": "bytes",
          "name": "",
          "type": "bytes"
        },
        {
          "internalType": "uint256",
          "name": "duration",
          "type": "uint256"
        }
      ],
      "name": "rentPrice",
      "outputs": [
        {
          "internalType": "uint256",
          "name": "",
          "type": "uint256"
        },
        {
          "internalType": "uint256",
          "name": "",
          "type": "uint256"
        }
      ],
      "stateMutability": "view",
      "type": "function"
    },
    {
      "inputs": [
        {
          "internalType": "uint256",
          "name": "_ownerCut",
          "type": "uint256"
        }
      ],
      "name": "setOwnerCut",
      "outputs": [],
      "stateMutability": "nonpayable",
      "type": "function"
    },
    {
      "inputs": [
        {
          "internalType": "uint256",
          "name": "_referrerCut",
          "type": "uint256"
        }
      ],
      "name": "setReferrerCut",
      "outputs": [],
      "stateMutability": "nonpayable",
      "type": "function"
    },
    {
      "inputs": [
        {
          "internalType": "uint256",
          "name": "_usdPrice",
          "type": "uint256"
        }
      ],
      "name": "setUSDPrice",
      "outputs": [],
      "stateMutability": "nonpayable",
      "type": "function"
    },
    {
      "inputs": [
        {
          "internalType": "bytes4",
          "name": "interfaceId",
          "type": "bytes4"
        }
      ],
      "name": "supportsInterface",
      "outputs": [
        {
          "internalType": "bool",
          "name": "",
          "type": "bool"
        }
      ],
      "stateMutability": "view",
      "type": "function"
    },
    {
      "inputs": [],
      "name": "totalBalance",
      "outputs": [
        {
          "internalType": "uint256",
          "name": "",
          "type": "uint256"
        }
      ],
      "stateMutability": "view",
      "type": "function"
    },
    {
      "inputs": [
        {
          "internalType": "address",
          "name": "newOwner",
          "type": "address"
        }
      ],
      "name": "transferOwnership",
      "outputs": [],
      "stateMutability": "nonpayable",
      "type": "function"
    },
    {
      "inputs": [
        {
          "internalType": "contract IAggregatorInterface",
          "name": "_usdOracle",
          "type": "address"
        }
      ],
      "name": "updateOracle",
      "outputs": [],
      "stateMutability": "nonpayable",
      "type": "function"
    },
    {
      "inputs": [],
      "name": "usdOracle",
      "outputs": [
        {
          "internalType": "contract IAggregatorInterface",
          "name": "",
          "type": "address"
        }
      ],
      "stateMutability": "view",
      "type": "function"
    },
    {
      "inputs": [],
      "name": "usdPrice",
      "outputs": [
        {
          "internalType": "uint256",
          "name": "",
          "type": "uint256"
        }
      ],
      "stateMutability": "view",
      "type": "function"
    },
    {
      "inputs": [],
      "name": "withdraw",
      "outputs": [],
      "stateMutability": "nonpayable",
      "type": "function"
    }
  ],
  "transactionHash": "0xe94a20a8d59316a000427e3ccaddddf2f35b8ff5736c6fe5d784db63ef1d5c22",
  "args": [
    "0x650E2705c595Ddb5f8e0B76fC3295F252f8aabB8",
    "0x1CF25555Eb74b587b4b3d9019d6Bf279E9920d25",
    158548959919
  ],
  "numDeployments": 1,
  "solcInputHash": "cad8f2b8710f80e95abb469eef5fbc7b",
  "bytecode": "0x6001608081815260c06040529060a0602080368337505081516200002b9260059250602001906200011d565b503480156200003957600080fd5b5060405162001a2438038062001a248339810160408190526200005c91620001b7565b826200006833620000cd565b60c8600481905550806005600081548110620000885762000088620001ff565b600091825260209091200180546001600160a01b039283166001600160a01b031991821617909155600780549590921694169390931790925560065550620002159050565b600080546001600160a01b038381166001600160a01b0319831681178455604051919092169283917f8be0079c531659141344cd1fd0a4f28419497f9722a3daafe3b4186f6b6457e09190a35050565b82805482825590600052602060002090810192821562000175579160200282015b828111156200017557825182546001600160a01b0319166001600160a01b039091161782556020909201916001909101906200013e565b506200018392915062000187565b5090565b5b8082111562000183576000815560010162000188565b6001600160a01b0381168114620001b457600080fd5b50565b600080600060608486031215620001cd57600080fd5b8351620001da816200019e565b6020850151909350620001ed816200019e565b80925050604084015190509250925092565b634e487b7160e01b600052603260045260246000fd5b6117ff80620002256000396000f3fe60806040526004361061012a5760003560e01c8063757de573116100ab578063bae8fc081161006f578063bae8fc0814610327578063c182dd7114610347578063c8a4271f14610367578063d471743214610387578063ddc0477d1461039a578063f2fde38b146103c757600080fd5b8063757de5731461029657806383b5ff8b146102b65780638da5cb5b146102cc578063a996aeef146102fe578063ad7a672f1461031157600080fd5b80633ccfd60b116100f25780633ccfd60b146102015780635d3590d5146102165780636619aa8614610236578063715018a61461024c57806371dc194f1461026157600080fd5b806301ffc9a71461012f57806307213bc814610164578063147d959a146101865780631cb44dfc146101a657806327e235e3146101c6575b600080fd5b34801561013b57600080fd5b5061014f61014a36600461141c565b6103e7565b60405190151581526020015b60405180910390f35b34801561017057600080fd5b5061018461017f36600461145b565b61042d565b005b34801561019257600080fd5b506101846101a1366004611478565b6104a9565b3480156101b257600080fd5b506101846101c136600461145b565b6104b6565b3480156101d257600080fd5b506101f36101e136600461145b565b60016020526000908152604090205481565b60405190815260200161015b565b34801561020d57600080fd5b506101846104e0565b34801561022257600080fd5b50610184610231366004611491565b610694565b34801561024257600080fd5b506101f360065481565b34801561025857600080fd5b50610184610715565b34801561026d57600080fd5b5061028161027c36600461151a565b610729565b6040805192835260208301919091520161015b565b3480156102a257600080fd5b506101846102b1366004611478565b61075c565b3480156102c257600080fd5b506101f360045481565b3480156102d857600080fd5b506000546001600160a01b03165b6040516001600160a01b03909116815260200161015b565b61018461030c366004611565565b61083b565b34801561031d57600080fd5b506101f360035481565b34801561033357600080fd5b50610184610342366004611478565b610857565b34801561035357600080fd5b506102e6610362366004611478565b6108f1565b34801561037357600080fd5b506007546102e6906001600160a01b031681565b6101846103953660046115c1565b61091b565b3480156103a657600080fd5b506101f36103b536600461145b565b60026020526000908152604090205481565b3480156103d357600080fd5b506101846103e236600461145b565b610f73565b60006001600160e01b03198216630464ec3360e11b148061041857506001600160e01b031982166306c255bd60e51b145b80610427575061042782610fe9565b92915050565b61043561101e565b6005805460018101825560009182527f036b6384b5eca791c62761152d0c79bb0604c104a5fb6f4eb0703f3154bb3db00180546001600160a01b0319166001600160a01b0384161790556040517fe41a14cd176f2aecc84f8e04f138a2c318414e57c932ebe3e0bfc8864b0b9b529190a150565b6104b161101e565b600655565b6104be61101e565b600780546001600160a01b0319166001600160a01b0392909216919091179055565b336104f36000546001600160a01b031690565b6001600160a01b0316816001600160a01b0316036105b45760006003544761051b919061163d565b9050600081116105675760405162461bcd60e51b815260206004820152601260248201527104f776e65722062616c616e636520697320360741b60448201526064015b60405180910390fd5b60405181906001600160a01b038416907fb990971c3785a76fb59cf6aa8fe8327738148e676c6d46a6dea040c4b6b2609590600090a36105b06001600160a01b03831682611078565b5050565b6001600160a01b0381166000908152600160205260409020546106125760405162461bcd60e51b815260206004820152601660248201527504164647265737327732062616c616e636520697320360541b604482015260640161055e565b6001600160a01b0381166000908152600160205260408120805490829055600380549192839261064390849061163d565b909155505060405181906001600160a01b038416907fb990971c3785a76fb59cf6aa8fe8327738148e676c6d46a6dea040c4b6b2609590600090a36105b06001600160a01b03831682611078565b50565b61069c61101e565b60405163a9059cbb60e01b81526001600160a01b0383811660048301526024820183905284169063a9059cbb906044016020604051808303816000875af11580156106eb573d6000803e3d6000fd5b505050506040513d601f19601f8201168201806040525081019061070f9190611650565b50505050565b61071d61101e565b6107276000611196565b565b6000806107428360065461073d9190611672565b6111e6565b836006546107509190611672565b91509150935093915050565b6000546001600160a01b031633146107b65760405162461bcd60e51b815260206004820152601e60248201527f4f6e6c7920746865206f776e65722063616e2073657420746865206375740000604482015260640161055e565b6101f48111156108085760405162461bcd60e51b815260206004820181905260248201527f4f776e6572206375742063616e6e6f74206265206d6f7265207468616e203525604482015260640161055e565b600481905560405181907fd0097c261070735a2812d4540f4ac501d429da168de12584fb6302c6ea3abfd990600090a250565b60055461070f9061084e9060019061163d565b8585858561091b565b6103e88111156108b55760405162461bcd60e51b8152602060048201526024808201527f5265666572726572206375742063616e6e6f74206265206d6f7265207468616e6044820152632031302560e01b606482015260840161055e565b336000908152600260205260408082208390555182917f5132aa1b4691ab49930b655c558addd21627fa35b28ff9695f3468d955c0e0a091a250565b6005818154811061090157600080fd5b6000918252602090912001546001600160a01b0316905081565b600080600080610965600089898080601f01602080910402602001604051908101604052809392919081815260200183838082843760009201919091525092939250506112829050565b80925081935050506109b08189898080601f01602080910402602001604051908101604052809392919081815260200183838082843760009201919091525092939250506113399050565b604080516020808201849052818301869052825180830384018152606090920190925280519101209094509250506000600589815481106109f3576109f3611689565b6000918252602090912001546040516331a9108f60e11b8152600481018690526001600160a01b0390911690636352211e90602401602060405180830381865afa158015610a45573d6000803e3d6000fd5b505050506040513d601f19601f82011682018060405250810190610a69919061169f565b9050600060058a81548110610a8057610a80611689565b6000918252602090912001546040516331a9108f60e11b8152600481018690526001600160a01b0390911690636352211e90602401602060405180830381865afa158015610ad2573d6000803e3d6000fd5b505050506040513d601f19601f82011682018060405250810190610af6919061169f565b9050336001600160a01b03821614801590610b9e575060058a81548110610b1f57610b1f611689565b60009182526020909120015460405163e985e9c560e01b81526001600160a01b0383811660048301523360248301529091169063e985e9c590604401602060405180830381865afa158015610b78573d6000803e3d6000fd5b505050506040513d601f19601f82011682018060405250810190610b9c9190611650565b155b15610bbf57604051635c20ef6960e11b81526004810185905260240161055e565b60008060058c81548110610bd557610bd5611689565b600091825260209091200154604051630178fe3f60e01b8152600481018890526001600160a01b0390911690630178fe3f90602401606060405180830381865afa158015610c27573d6000803e3d6000fd5b505050506040513d601f19601f82011682018060405250810190610c4b91906116d8565b92505050600060058d81548110610c6457610c64611689565b600091825260209091200154604051630178fe3f60e01b8152600481018a90526001600160a01b0390911690630178fe3f90602401606060405180830381865afa158015610cb6573d6000803e3d6000fd5b505050506040513d601f19601f82011682018060405250810190610cda91906116d8565b92505050806001600160401b031689836001600160401b0316610cfd9190611729565b1115610d1957610d0d828261173c565b6001600160401b031698505b610d2c896001600160401b038416611729565b925050506000610d3d8b8b8a610729565b50905080341015610d615760405163044044a560e21b815260040160405180910390fd5b60006001600160a01b038a1615610dd6576001600160a01b038a1660009081526002602052604090205461271090610d999084611672565b610da39190611763565b6001600160a01b038b16600090815260016020526040812080549293508392909190610dd0908490611729565b90915550505b600061271060045484610de99190611672565b610df39190611763565b905080610e00838561163d565b610e0a919061163d565b6001600160a01b03871660009081526001602052604081208054909190610e32908490611729565b90915550610e429050818461163d565b60036000828254610e539190611729565b92505081905550505060058c81548110610e6f57610e6f611689565b60009182526020909120015460405163372eb56960e11b815260048101899052602481018790526001600160401b03841660448201526001600160a01b0390911690636e5d6ad2906064016020604051808303816000875af1158015610ed9573d6000803e3d6000fd5b505050506040513d601f19601f82011682018060405250810190610efd9190611785565b50816001600160401b0316818c8c604051610f199291906117a0565b604051908190038120907f0ef7ed3ee7f05ff559c931645cd3d52e8630d6ae2ef04acb8c6ce1fe2469fd4490600090a480341115610f6557610f65610f5e823461163d565b3390611078565b505050505050505050505050565b610f7b61101e565b6001600160a01b038116610fe05760405162461bcd60e51b815260206004820152602660248201527f4f776e61626c653a206e6577206f776e657220697320746865207a65726f206160448201526564647265737360d01b606482015260840161055e565b61069181611196565b60006001600160e01b031982166306c255bd60e51b148061042757506301ffc9a760e01b6001600160e01b0319831614610427565b6000546001600160a01b031633146107275760405162461bcd60e51b815260206004820181905260248201527f4f776e61626c653a2063616c6c6572206973206e6f7420746865206f776e6572604482015260640161055e565b804710156110c85760405162461bcd60e51b815260206004820152601d60248201527f416464726573733a20696e73756666696369656e742062616c616e6365000000604482015260640161055e565b6000826001600160a01b03168260405160006040518083038185875af1925050503d8060008114611115576040519150601f19603f3d011682016040523d82523d6000602084013e61111a565b606091505b50509050806111915760405162461bcd60e51b815260206004820152603a60248201527f416464726573733a20756e61626c6520746f2073656e642076616c75652c207260448201527f6563697069656e74206d61792068617665207265766572746564000000000000606482015260840161055e565b505050565b600080546001600160a01b038381166001600160a01b0319831681178455604051919092169283917f8be0079c531659141344cd1fd0a4f28419497f9722a3daafe3b4186f6b6457e09190a35050565b600080600760009054906101000a90046001600160a01b03166001600160a01b03166350d25bcd6040518163ffffffff1660e01b8152600401602060405180830381865afa15801561123c573d6000803e3d6000fd5b505050506040513d601f19601f8201168201806040525081019061126091906117b0565b905080611271846305f5e100611672565b61127b9190611763565b9392505050565b600080835183106112d55760405162461bcd60e51b815260206004820152601e60248201527f726561644c6162656c3a20496e646578206f7574206f6620626f756e64730000604482015260640161055e565b60008484815181106112e9576112e9611689565b016020015160f81c905080156113155761130e85611308866001611729565b836113f8565b925061131a565b600092505b6113248185611729565b61132f906001611729565b9150509250929050565b60008060006113488585611282565b9092509050816113ba5760018551611360919061163d565b84146113ae5760405162461bcd60e51b815260206004820152601d60248201527f6e616d65686173683a204a756e6b20617420656e64206f66206e616d65000000604482015260640161055e565b50600091506104279050565b6113c48582611339565b6040805160208101929092528101839052606001604051602081830303815290604052805190602001209250505092915050565b82516000906114078385611729565b111561141257600080fd5b5091016020012090565b60006020828403121561142e57600080fd5b81356001600160e01b03198116811461127b57600080fd5b6001600160a01b038116811461069157600080fd5b60006020828403121561146d57600080fd5b813561127b81611446565b60006020828403121561148a57600080fd5b5035919050565b6000806000606084860312156114a657600080fd5b83356114b181611446565b925060208401356114c181611446565b929592945050506040919091013590565b60008083601f8401126114e457600080fd5b5081356001600160401b038111156114fb57600080fd5b60208301915083602082850101111561151357600080fd5b9250929050565b60008060006040848603121561152f57600080fd5b83356001600160401b0381111561154557600080fd5b611551868287016114d2565b909790965060209590950135949350505050565b6000806000806060858703121561157b57600080fd5b84356001600160401b0381111561159157600080fd5b61159d878288016114d2565b90955093505060208501356115b181611446565b9396929550929360400135925050565b6000806000806000608086880312156115d957600080fd5b8535945060208601356001600160401b038111156115f657600080fd5b611602888289016114d2565b909550935050604086013561161681611446565b949793965091946060013592915050565b634e487b7160e01b600052601160045260246000fd5b8181038181111561042757610427611627565b60006020828403121561166257600080fd5b8151801515811461127b57600080fd5b808202811582820484141761042757610427611627565b634e487b7160e01b600052603260045260246000fd5b6000602082840312156116b157600080fd5b815161127b81611446565b80516001600160401b03811681146116d357600080fd5b919050565b6000806000606084860312156116ed57600080fd5b83516116f881611446565b602085015190935063ffffffff8116811461171257600080fd5b9150611720604085016116bc565b90509250925092565b8082018082111561042757610427611627565b6001600160401b0382811682821603908082111561175c5761175c611627565b5092915050565b60008261178057634e487b7160e01b600052601260045260246000fd5b500490565b60006020828403121561179757600080fd5b61127b826116bc565b8183823760009101908152919050565b6000602082840312156117c257600080fd5b505191905056fea26469706673582212207dce5a82cb5d2c956af3390c5db75470b61ff35d427f6753dfa6ed5d86bd4e0b64736f6c63430008130033",
  "devdoc": {
    "kind": "dev",
    "methods": {
      "addNextNameWrapperVersion(address)": {
        "params": {
          "_nameWrapper": "The next version of the NameWrapper"
        }
      },
      "owner()": {
        "details": "Returns the address of the current owner."
      },
      "recoverFunds(address,address,uint256)": {
        "details": "The contract is Ownable and only the owner can call the recover function.",
        "params": {
          "_amount": "The amount of tokens to recover.",
          "_to": "The address to send the tokens to.",
          "_token": "The address of the ERC20 token to recover"
        }
      },
      "renew(bytes,address,uint256)": {
        "details": "Function to renew a name for a specified duration. ",
        "params": {
          "duration": "The duration for which the name should be renewed in years.",
          "name": "The name to be renewed in DNS format."
        }
      },
      "renewWithVersions(uint256,bytes,address,uint256)": {
        "details": "This function is allows for the upgradeing of the NameWrapper and SubnameWrapper contracts. It is not possible to know what the interface of the upgarded contracts will be, so we assume that they will be compatible with the current version of the contracts.",
        "params": {
          "duration": "The duration for which the name should be renewed in years.",
          "name": "The name to be renewed in DNS format.",
          "nameWrapperV": "The version of the NameWrapper."
        }
      },
      "renounceOwnership()": {
        "details": "Leaves the contract without owner. It will not be possible to call `onlyOwner` functions. Can only be called by the current owner. NOTE: Renouncing ownership will leave the contract without an owner, thereby disabling any functionality that is only available to the owner."
      },
      "rentPrice(bytes,uint256)": {
        "params": {
          "duration": "The amount of time the name will be rented for/extended in years. "
        },
        "returns": {
          "_0": "The rent price for the duration in Wei, and USD. "
        }
      },
      "setOwnerCut(uint256)": {
        "params": {
          "_ownerCut": "The cut for the owner of the contract."
        }
      },
      "setReferrerCut(uint256)": {
        "params": {
          "_referrerCut": "The percentage cut given to the referrer (0-10%)."
        }
      },
      "setUSDPrice(uint256)": {
        "params": {
          "_usdPrice": "The price of the renewal in USD."
        }
      },
      "supportsInterface(bytes4)": {
        "params": {
          "interfaceId": "The interface identifier, as specified in ERC-165."
        },
        "returns": {
          "_0": "`true` if the contract implements `interfaceID`"
        }
      },
      "transferOwnership(address)": {
        "details": "Transfers ownership of the contract to a new account (`newOwner`). Can only be called by the current owner."
      },
      "updateOracle(address)": {
        "params": {
          "_usdOracle": "The oracle address."
        }
      }
    },
    "version": 1
  },
  "userdoc": {
    "kind": "user",
    "methods": {
      "addNextNameWrapperVersion(address)": {
        "notice": "If the NameWrapper smart contract is upgraded, add the new version."
      },
      "recoverFunds(address,address,uint256)": {
        "notice": "Recover ERC20 tokens sent to the contract by mistake."
      },
      "renewWithVersions(uint256,bytes,address,uint256)": {
        "notice": "Function to renew a name for a specified duration. "
      },
      "rentPrice(bytes,uint256)": {
        "notice": "Gets the total cost of rent in wei, from the unitPrice, i.e. USD, and duration."
      },
      "setOwnerCut(uint256)": {
        "notice": "A function to set the cut for the owner of the contract."
      },
      "setReferrerCut(uint256)": {
        "notice": "A function to set the referrer cut percentage for a specific referrer."
      },
      "setUSDPrice(uint256)": {
        "notice": "Sets the price of the renewal in USD/sec with 18 digits of precision."
      },
      "updateOracle(address)": {
        "notice": "Sets the oracle address."
      },
      "withdraw()": {
        "notice": "A function to allow referrers, name owners, or the contract owner to withdraw."
      }
    },
    "version": 1
  },
  "storageLayout": {
    "storage": [
      {
        "astId": 56156,
        "contract": "contracts/layertwo/optimism/wrapper/renewalControllers/L2FixedPriceRenewalController.sol:L2FixedPriceRenewalController",
        "label": "_owner",
        "offset": 0,
        "slot": "0",
        "type": "t_address"
      },
      {
        "astId": 320,
        "contract": "contracts/layertwo/optimism/wrapper/renewalControllers/L2FixedPriceRenewalController.sol:L2FixedPriceRenewalController",
        "label": "balances",
        "offset": 0,
        "slot": "1",
        "type": "t_mapping(t_address,t_uint256)"
      },
      {
        "astId": 324,
        "contract": "contracts/layertwo/optimism/wrapper/renewalControllers/L2FixedPriceRenewalController.sol:L2FixedPriceRenewalController",
        "label": "referrerCuts",
        "offset": 0,
        "slot": "2",
        "type": "t_mapping(t_address,t_uint256)"
      },
      {
        "astId": 326,
        "contract": "contracts/layertwo/optimism/wrapper/renewalControllers/L2FixedPriceRenewalController.sol:L2FixedPriceRenewalController",
        "label": "totalBalance",
        "offset": 0,
        "slot": "3",
        "type": "t_uint256"
      },
      {
        "astId": 328,
        "contract": "contracts/layertwo/optimism/wrapper/renewalControllers/L2FixedPriceRenewalController.sol:L2FixedPriceRenewalController",
        "label": "ownerCut",
        "offset": 0,
        "slot": "4",
        "type": "t_uint256"
      },
      {
        "astId": 4308,
        "contract": "contracts/layertwo/optimism/wrapper/renewalControllers/L2FixedPriceRenewalController.sol:L2FixedPriceRenewalController",
        "label": "nameWrappers",
        "offset": 0,
        "slot": "5",
        "type": "t_array(t_address)dyn_storage"
      },
      {
        "astId": 6736,
        "contract": "contracts/layertwo/optimism/wrapper/renewalControllers/L2FixedPriceRenewalController.sol:L2FixedPriceRenewalController",
        "label": "usdPrice",
        "offset": 0,
        "slot": "6",
        "type": "t_uint256"
      },
      {
        "astId": 6739,
        "contract": "contracts/layertwo/optimism/wrapper/renewalControllers/L2FixedPriceRenewalController.sol:L2FixedPriceRenewalController",
        "label": "usdOracle",
        "offset": 0,
        "slot": "7",
        "type": "t_contract(IAggregatorInterface)5881"
      }
    ],
    "types": {
      "t_address": {
        "encoding": "inplace",
        "label": "address",
        "numberOfBytes": "20"
      },
      "t_array(t_address)dyn_storage": {
        "base": "t_address",
        "encoding": "dynamic_array",
        "label": "address[]",
        "numberOfBytes": "32"
      },
      "t_contract(IAggregatorInterface)5881": {
        "encoding": "inplace",
        "label": "contract IAggregatorInterface",
        "numberOfBytes": "20"
      },
      "t_mapping(t_address,t_uint256)": {
        "encoding": "mapping",
        "key": "t_address",
        "label": "mapping(address => uint256)",
        "numberOfBytes": "32",
        "value": "t_uint256"
      },
      "t_uint256": {
        "encoding": "inplace",
        "label": "uint256",
        "numberOfBytes": "32"
      }
    }
  }
}