{
  "address": "0x3F8456ea1c2e68B5c996da6800d90E4c52a44df6",
  "abi": [
    {
      "inputs": [
        {
          "internalType": "contract ENS",
          "name": "_ens",
          "type": "address"
        },
        {
          "internalType": "contract IMetadataService",
          "name": "_metadataService",
          "type": "address"
        }
      ],
      "stateMutability": "nonpayable",
      "type": "constructor"
    },
    {
      "inputs": [],
      "name": "CannotUpgrade",
      "type": "error"
    },
    {
      "inputs": [
        {
          "internalType": "address",
          "name": "owner",
          "type": "address"
        }
      ],
      "name": "IncorrectTargetOwner",
      "type": "error"
    },
    {
      "inputs": [
        {
          "internalType": "string",
          "name": "label",
          "type": "string"
        }
      ],
      "name": "LabelTooLong",
      "type": "error"
    },
    {
      "inputs": [],
      "name": "LabelTooShort",
      "type": "error"
    },
    {
      "inputs": [],
      "name": "NameIsNotWrapped",
      "type": "error"
    },
    {
      "inputs": [
        {
          "internalType": "bytes32",
          "name": "node",
          "type": "bytes32"
        }
      ],
      "name": "OperationProhibited",
      "type": "error"
    },
    {
      "inputs": [
        {
          "internalType": "bytes32",
          "name": "node",
          "type": "bytes32"
        },
        {
          "internalType": "address",
          "name": "addr",
          "type": "address"
        }
      ],
      "name": "Unauthorised",
      "type": "error"
    },
    {
      "anonymous": false,
      "inputs": [
        {
          "indexed": true,
          "internalType": "address",
          "name": "owner",
          "type": "address"
        },
        {
          "indexed": true,
          "internalType": "address",
          "name": "approved",
          "type": "address"
        },
        {
          "indexed": true,
          "internalType": "uint256",
          "name": "tokenId",
          "type": "uint256"
        }
      ],
      "name": "Approval",
      "type": "event"
    },
    {
      "anonymous": false,
      "inputs": [
        {
          "indexed": true,
          "internalType": "address",
          "name": "account",
          "type": "address"
        },
        {
          "indexed": true,
          "internalType": "address",
          "name": "operator",
          "type": "address"
        },
        {
          "indexed": false,
          "internalType": "bool",
          "name": "approved",
          "type": "bool"
        }
      ],
      "name": "ApprovalForAll",
      "type": "event"
    },
    {
      "anonymous": false,
      "inputs": [
        {
          "indexed": true,
          "internalType": "address",
          "name": "controller",
          "type": "address"
        },
        {
          "indexed": false,
          "internalType": "bool",
          "name": "active",
          "type": "bool"
        }
      ],
      "name": "ControllerChanged",
      "type": "event"
    },
    {
      "anonymous": false,
      "inputs": [
        {
          "indexed": true,
          "internalType": "bytes32",
          "name": "node",
          "type": "bytes32"
        },
        {
          "indexed": false,
          "internalType": "uint64",
          "name": "expiry",
          "type": "uint64"
        }
      ],
      "name": "ExpiryExtended",
      "type": "event"
    },
    {
      "anonymous": false,
      "inputs": [
        {
          "indexed": true,
          "internalType": "bytes32",
          "name": "node",
          "type": "bytes32"
        },
        {
          "indexed": false,
          "internalType": "uint32",
          "name": "fuses",
          "type": "uint32"
        }
      ],
      "name": "FusesSet",
      "type": "event"
    },
    {
      "anonymous": false,
      "inputs": [
        {
          "indexed": true,
          "internalType": "bytes32",
          "name": "node",
          "type": "bytes32"
        },
        {
          "indexed": false,
          "internalType": "address",
          "name": "owner",
          "type": "address"
        }
      ],
      "name": "NameUnwrapped",
      "type": "event"
    },
    {
      "anonymous": false,
      "inputs": [
        {
          "indexed": true,
          "internalType": "bytes32",
          "name": "node",
          "type": "bytes32"
        },
        {
          "indexed": false,
          "internalType": "bytes",
          "name": "name",
          "type": "bytes"
        },
        {
          "indexed": false,
          "internalType": "address",
          "name": "owner",
          "type": "address"
        },
        {
          "indexed": false,
          "internalType": "uint32",
          "name": "fuses",
          "type": "uint32"
        },
        {
          "indexed": false,
          "internalType": "uint64",
          "name": "expiry",
          "type": "uint64"
        }
      ],
      "name": "NameWrapped",
      "type": "event"
    },
    {
      "anonymous": false,
      "inputs": [
        {
          "indexed": true,
          "internalType": "address",
          "name": "previousOwner",
          "type": "address"
        },
        {
          "indexed": true,
          "internalType": "address",
          "name": "newOwner",
          "type": "address"
        }
      ],
      "name": "OwnershipTransferred",
      "type": "event"
    },
    {
      "anonymous": false,
      "inputs": [
        {
          "indexed": true,
          "internalType": "address",
          "name": "operator",
          "type": "address"
        },
        {
          "indexed": true,
          "internalType": "address",
          "name": "from",
          "type": "address"
        },
        {
          "indexed": true,
          "internalType": "address",
          "name": "to",
          "type": "address"
        },
        {
          "indexed": false,
          "internalType": "uint256[]",
          "name": "ids",
          "type": "uint256[]"
        },
        {
          "indexed": false,
          "internalType": "uint256[]",
          "name": "values",
          "type": "uint256[]"
        }
      ],
      "name": "TransferBatch",
      "type": "event"
    },
    {
      "anonymous": false,
      "inputs": [
        {
          "indexed": true,
          "internalType": "address",
          "name": "operator",
          "type": "address"
        },
        {
          "indexed": true,
          "internalType": "address",
          "name": "from",
          "type": "address"
        },
        {
          "indexed": true,
          "internalType": "address",
          "name": "to",
          "type": "address"
        },
        {
          "indexed": false,
          "internalType": "uint256",
          "name": "id",
          "type": "uint256"
        },
        {
          "indexed": false,
          "internalType": "uint256",
          "name": "value",
          "type": "uint256"
        }
      ],
      "name": "TransferSingle",
      "type": "event"
    },
    {
      "anonymous": false,
      "inputs": [
        {
          "indexed": false,
          "internalType": "string",
          "name": "value",
          "type": "string"
        },
        {
          "indexed": true,
          "internalType": "uint256",
          "name": "id",
          "type": "uint256"
        }
      ],
      "name": "URI",
      "type": "event"
    },
    {
      "inputs": [
        {
          "internalType": "uint256",
          "name": "",
          "type": "uint256"
        }
      ],
      "name": "_tokens",
      "outputs": [
        {
          "internalType": "uint256",
          "name": "",
          "type": "uint256"
        }
      ],
      "stateMutability": "view",
      "type": "function"
    },
    {
      "inputs": [
        {
          "internalType": "bytes32",
          "name": "node",
          "type": "bytes32"
        },
        {
          "internalType": "uint32",
          "name": "fuseMask",
          "type": "uint32"
        }
      ],
      "name": "allFusesBurned",
      "outputs": [
        {
          "internalType": "bool",
          "name": "",
          "type": "bool"
        }
      ],
      "stateMutability": "view",
      "type": "function"
    },
    {
      "inputs": [
        {
          "internalType": "address",
          "name": "to",
          "type": "address"
        },
        {
          "internalType": "uint256",
          "name": "tokenId",
          "type": "uint256"
        }
      ],
      "name": "approve",
      "outputs": [],
      "stateMutability": "nonpayable",
      "type": "function"
    },
    {
      "inputs": [
        {
          "internalType": "address",
          "name": "account",
          "type": "address"
        },
        {
          "internalType": "uint256",
          "name": "id",
          "type": "uint256"
        }
      ],
      "name": "balanceOf",
      "outputs": [
        {
          "internalType": "uint256",
          "name": "",
          "type": "uint256"
        }
      ],
      "stateMutability": "view",
      "type": "function"
    },
    {
      "inputs": [
        {
          "internalType": "address[]",
          "name": "accounts",
          "type": "address[]"
        },
        {
          "internalType": "uint256[]",
          "name": "ids",
          "type": "uint256[]"
        }
      ],
      "name": "balanceOfBatch",
      "outputs": [
        {
          "internalType": "uint256[]",
          "name": "",
          "type": "uint256[]"
        }
      ],
      "stateMutability": "view",
      "type": "function"
    },
    {
      "inputs": [
        {
          "internalType": "bytes32",
          "name": "node",
          "type": "bytes32"
        },
        {
          "internalType": "address",
          "name": "addr",
          "type": "address"
        }
      ],
      "name": "canExtendSubnames",
      "outputs": [
        {
          "internalType": "bool",
          "name": "",
          "type": "bool"
        }
      ],
      "stateMutability": "view",
      "type": "function"
    },
    {
      "inputs": [
        {
          "internalType": "bytes32",
          "name": "node",
          "type": "bytes32"
        },
        {
          "internalType": "address",
          "name": "addr",
          "type": "address"
        }
      ],
      "name": "canModifyName",
      "outputs": [
        {
          "internalType": "bool",
          "name": "",
          "type": "bool"
        }
      ],
      "stateMutability": "view",
      "type": "function"
    },
    {
      "inputs": [
        {
          "internalType": "address",
          "name": "",
          "type": "address"
        }
      ],
      "name": "controllers",
      "outputs": [
        {
          "internalType": "bool",
          "name": "",
          "type": "bool"
        }
      ],
      "stateMutability": "view",
      "type": "function"
    },
    {
      "inputs": [],
      "name": "ens",
      "outputs": [
        {
          "internalType": "contract ENS",
          "name": "",
          "type": "address"
        }
      ],
      "stateMutability": "view",
      "type": "function"
    },
    {
      "inputs": [
        {
          "internalType": "bytes32",
          "name": "parentNode",
          "type": "bytes32"
        },
        {
          "internalType": "bytes32",
          "name": "labelhash",
          "type": "bytes32"
        },
        {
          "internalType": "uint64",
          "name": "expiry",
          "type": "uint64"
        }
      ],
      "name": "extendExpiry",
      "outputs": [
        {
          "internalType": "uint64",
          "name": "",
          "type": "uint64"
        }
      ],
      "stateMutability": "nonpayable",
      "type": "function"
    },
    {
      "inputs": [
        {
          "internalType": "uint256",
          "name": "id",
          "type": "uint256"
        }
      ],
      "name": "getApproved",
      "outputs": [
        {
          "internalType": "address",
          "name": "operator",
          "type": "address"
        }
      ],
      "stateMutability": "view",
      "type": "function"
    },
    {
      "inputs": [
        {
          "internalType": "uint256",
          "name": "id",
          "type": "uint256"
        }
      ],
      "name": "getData",
      "outputs": [
        {
          "internalType": "address",
          "name": "owner",
          "type": "address"
        },
        {
          "internalType": "uint32",
          "name": "fuses",
          "type": "uint32"
        },
        {
          "internalType": "uint64",
          "name": "expiry",
          "type": "uint64"
        }
      ],
      "stateMutability": "view",
      "type": "function"
    },
    {
      "inputs": [
        {
          "internalType": "address",
          "name": "account",
          "type": "address"
        },
        {
          "internalType": "address",
          "name": "operator",
          "type": "address"
        }
      ],
      "name": "isApprovedForAll",
      "outputs": [
        {
          "internalType": "bool",
          "name": "",
          "type": "bool"
        }
      ],
      "stateMutability": "view",
      "type": "function"
    },
    {
      "inputs": [],
      "name": "metadataService",
      "outputs": [
        {
          "internalType": "contract IMetadataService",
          "name": "",
          "type": "address"
        }
      ],
      "stateMutability": "view",
      "type": "function"
    },
    {
      "inputs": [
        {
          "internalType": "bytes32",
          "name": "",
          "type": "bytes32"
        }
      ],
      "name": "names",
      "outputs": [
        {
          "internalType": "bytes",
          "name": "",
          "type": "bytes"
        }
      ],
      "stateMutability": "view",
      "type": "function"
    },
    {
      "inputs": [],
      "name": "owner",
      "outputs": [
        {
          "internalType": "address",
          "name": "",
          "type": "address"
        }
      ],
      "stateMutability": "view",
      "type": "function"
    },
    {
      "inputs": [
        {
          "internalType": "uint256",
          "name": "id",
          "type": "uint256"
        }
      ],
      "name": "ownerOf",
      "outputs": [
        {
          "internalType": "address",
          "name": "owner",
          "type": "address"
        }
      ],
      "stateMutability": "view",
      "type": "function"
    },
    {
      "inputs": [
        {
          "internalType": "address",
          "name": "_token",
          "type": "address"
        },
        {
          "internalType": "address",
          "name": "_to",
          "type": "address"
        },
        {
          "internalType": "uint256",
          "name": "_amount",
          "type": "uint256"
        }
      ],
      "name": "recoverFunds",
      "outputs": [],
      "stateMutability": "nonpayable",
      "type": "function"
    },
    {
      "inputs": [
        {
          "internalType": "string",
          "name": "label",
          "type": "string"
        },
        {
          "internalType": "address",
          "name": "wrappedOwner",
          "type": "address"
        },
        {
          "internalType": "address",
          "name": "approved",
          "type": "address"
        },
        {
          "internalType": "uint64",
          "name": "duration",
          "type": "uint64"
        },
        {
          "internalType": "address",
          "name": "resolver",
          "type": "address"
        },
        {
          "internalType": "uint16",
          "name": "ownerControlledFuses",
          "type": "uint16"
        }
      ],
      "name": "registerAndWrapEth2LD",
      "outputs": [
        {
          "internalType": "uint64",
          "name": "expiry",
          "type": "uint64"
        }
      ],
      "stateMutability": "nonpayable",
      "type": "function"
    },
    {
      "inputs": [
        {
          "internalType": "bytes32",
          "name": "labelhash",
          "type": "bytes32"
        },
        {
          "internalType": "uint64",
          "name": "duration",
          "type": "uint64"
        }
      ],
      "name": "renewEth2LD",
      "outputs": [
        {
          "internalType": "uint64",
          "name": "expiry",
          "type": "uint64"
        }
      ],
      "stateMutability": "nonpayable",
      "type": "function"
    },
    {
      "inputs": [],
      "name": "renounceOwnership",
      "outputs": [],
      "stateMutability": "nonpayable",
      "type": "function"
    },
    {
      "inputs": [
        {
          "internalType": "address",
          "name": "from",
          "type": "address"
        },
        {
          "internalType": "address",
          "name": "to",
          "type": "address"
        },
        {
          "internalType": "uint256[]",
          "name": "ids",
          "type": "uint256[]"
        },
        {
          "internalType": "uint256[]",
          "name": "amounts",
          "type": "uint256[]"
        },
        {
          "internalType": "bytes",
          "name": "data",
          "type": "bytes"
        }
      ],
      "name": "safeBatchTransferFrom",
      "outputs": [],
      "stateMutability": "nonpayable",
      "type": "function"
    },
    {
      "inputs": [
        {
          "internalType": "address",
          "name": "from",
          "type": "address"
        },
        {
          "internalType": "address",
          "name": "to",
          "type": "address"
        },
        {
          "internalType": "uint256",
          "name": "id",
          "type": "uint256"
        },
        {
          "internalType": "uint256",
          "name": "amount",
          "type": "uint256"
        },
        {
          "internalType": "bytes",
          "name": "data",
          "type": "bytes"
        }
      ],
      "name": "safeTransferFrom",
      "outputs": [],
      "stateMutability": "nonpayable",
      "type": "function"
    },
    {
      "inputs": [
        {
          "internalType": "address",
          "name": "operator",
          "type": "address"
        },
        {
          "internalType": "bool",
          "name": "approved",
          "type": "bool"
        }
      ],
      "name": "setApprovalForAll",
      "outputs": [],
      "stateMutability": "nonpayable",
      "type": "function"
    },
    {
      "inputs": [
        {
          "internalType": "bytes32",
          "name": "parentNode",
          "type": "bytes32"
        },
        {
          "internalType": "bytes32",
          "name": "labelhash",
          "type": "bytes32"
        },
        {
          "internalType": "uint32",
          "name": "fuses",
          "type": "uint32"
        },
        {
          "internalType": "uint64",
          "name": "expiry",
          "type": "uint64"
        }
      ],
      "name": "setChildFuses",
      "outputs": [],
      "stateMutability": "nonpayable",
      "type": "function"
    },
    {
      "inputs": [
        {
          "internalType": "address",
          "name": "controller",
          "type": "address"
        },
        {
          "internalType": "bool",
          "name": "active",
          "type": "bool"
        }
      ],
      "name": "setController",
      "outputs": [],
      "stateMutability": "nonpayable",
      "type": "function"
    },
    {
      "inputs": [
        {
          "internalType": "bytes32",
          "name": "node",
          "type": "bytes32"
        },
        {
          "internalType": "uint16",
          "name": "ownerControlledFuses",
          "type": "uint16"
        }
      ],
      "name": "setFuses",
      "outputs": [
        {
          "internalType": "uint32",
          "name": "",
          "type": "uint32"
        }
      ],
      "stateMutability": "nonpayable",
      "type": "function"
    },
    {
      "inputs": [
        {
          "internalType": "contract IMetadataService",
          "name": "_metadataService",
          "type": "address"
        }
      ],
      "name": "setMetadataService",
      "outputs": [],
      "stateMutability": "nonpayable",
      "type": "function"
    },
    {
      "inputs": [
        {
          "internalType": "bytes32",
          "name": "node",
          "type": "bytes32"
        },
        {
          "internalType": "address",
          "name": "owner",
          "type": "address"
        },
        {
          "internalType": "address",
          "name": "resolver",
          "type": "address"
        },
        {
          "internalType": "uint64",
          "name": "ttl",
          "type": "uint64"
        }
      ],
      "name": "setRecord",
      "outputs": [],
      "stateMutability": "nonpayable",
      "type": "function"
    },
    {
      "inputs": [
        {
          "internalType": "bytes32",
          "name": "node",
          "type": "bytes32"
        },
        {
          "internalType": "address",
          "name": "resolver",
          "type": "address"
        }
      ],
      "name": "setResolver",
      "outputs": [],
      "stateMutability": "nonpayable",
      "type": "function"
    },
    {
      "inputs": [
        {
          "internalType": "bytes32",
          "name": "parentNode",
          "type": "bytes32"
        },
        {
          "internalType": "string",
          "name": "label",
          "type": "string"
        },
        {
          "internalType": "address",
          "name": "owner",
          "type": "address"
        },
        {
          "internalType": "address",
          "name": "approved",
          "type": "address"
        },
        {
          "internalType": "uint32",
          "name": "fuses",
          "type": "uint32"
        },
        {
          "internalType": "uint64",
          "name": "expiry",
          "type": "uint64"
        }
      ],
      "name": "setSubnodeOwner",
      "outputs": [
        {
          "internalType": "bytes32",
          "name": "node",
          "type": "bytes32"
        }
      ],
      "stateMutability": "nonpayable",
      "type": "function"
    },
    {
      "inputs": [
        {
          "internalType": "bytes32",
          "name": "parentNode",
          "type": "bytes32"
        },
        {
          "internalType": "string",
          "name": "label",
          "type": "string"
        },
        {
          "internalType": "address",
          "name": "owner",
          "type": "address"
        },
        {
          "internalType": "address",
          "name": "approved",
          "type": "address"
        },
        {
          "internalType": "address",
          "name": "resolver",
          "type": "address"
        },
        {
          "internalType": "uint64",
          "name": "ttl",
          "type": "uint64"
        },
        {
          "internalType": "uint32",
          "name": "fuses",
          "type": "uint32"
        },
        {
          "internalType": "uint64",
          "name": "expiry",
          "type": "uint64"
        }
      ],
      "name": "setSubnodeRecord",
      "outputs": [
        {
          "internalType": "bytes32",
          "name": "node",
          "type": "bytes32"
        }
      ],
      "stateMutability": "nonpayable",
      "type": "function"
    },
    {
      "inputs": [
        {
          "internalType": "bytes32",
          "name": "node",
          "type": "bytes32"
        },
        {
          "internalType": "uint64",
          "name": "ttl",
          "type": "uint64"
        }
      ],
      "name": "setTTL",
      "outputs": [],
      "stateMutability": "nonpayable",
      "type": "function"
    },
    {
      "inputs": [
        {
          "internalType": "contract INameWrapperUpgrade",
          "name": "_upgradeAddress",
          "type": "address"
        }
      ],
      "name": "setUpgradeContract",
      "outputs": [],
      "stateMutability": "nonpayable",
      "type": "function"
    },
    {
      "inputs": [
        {
          "internalType": "bytes4",
          "name": "interfaceId",
          "type": "bytes4"
        }
      ],
      "name": "supportsInterface",
      "outputs": [
        {
          "internalType": "bool",
          "name": "",
          "type": "bool"
        }
      ],
      "stateMutability": "view",
      "type": "function"
    },
    {
      "inputs": [
        {
          "internalType": "address",
          "name": "newOwner",
          "type": "address"
        }
      ],
      "name": "transferOwnership",
      "outputs": [],
      "stateMutability": "nonpayable",
      "type": "function"
    },
    {
      "inputs": [
        {
          "internalType": "bytes",
          "name": "name",
          "type": "bytes"
        },
        {
          "internalType": "bytes",
          "name": "extraData",
          "type": "bytes"
        }
      ],
      "name": "upgrade",
      "outputs": [],
      "stateMutability": "nonpayable",
      "type": "function"
    },
    {
      "inputs": [],
      "name": "upgradeContract",
      "outputs": [
        {
          "internalType": "contract INameWrapperUpgrade",
          "name": "",
          "type": "address"
        }
      ],
      "stateMutability": "view",
      "type": "function"
    },
    {
      "inputs": [
        {
          "internalType": "uint256",
          "name": "tokenId",
          "type": "uint256"
        }
      ],
      "name": "uri",
      "outputs": [
        {
          "internalType": "string",
          "name": "",
          "type": "string"
        }
      ],
      "stateMutability": "view",
      "type": "function"
    }
  ],
  "transactionHash": "0xd8dea8df6746f22321fea69e94361c9151f00a31dbf97c5081fa0e4c9ef70f53",
  "args": [
    "0xffED83BDBd2F9906Ac12467288946cf7d8F6f599",
    "0x5fee95A0794bc172a1f716888CA4016bE3511026"
  ],
  "numDeployments": 1,
  "solcInputHash": "cad8f2b8710f80e95abb469eef5fbc7b",
  "bytecode": "0x60a06040523480156200001157600080fd5b50604051620046dd380380620046dd8339810160408190526200003491620001ea565b6200003f3362000181565b6001600160a01b03828116608052600580546001600160a01b031916918316919091179055600163fffeffff60a01b03197fafa26c20e8b3d9a2853d642cfe1021dae26242ffedfac91c97aab212c1a4b93b8190557fa6eef7e35abe7026729641147f7915573c7e97b47efa546f5f6e3230263bcb4955604080518082019091526001815260006020808301829052908052600690527f54cdd369e4e8a8515e52ca72ec816c2101831ad1f18bf44102ed171459c9b4f890620001039082620002ce565b506040805180820190915260058152626cae8d60e31b6020808301919091527f93cdeb708b7545dc668eb9280176169d1c33cfd8ed6f04690a0bcc88a93fc4ae600052600690527ffb9e8e321b8a5ec48f12a7b41f22c6e595d761285c9eb19d8dda7c99edf1b54f90620001789082620002ce565b5050506200039a565b600080546001600160a01b038381166001600160a01b0319831681178455604051919092169283917f8be0079c531659141344cd1fd0a4f28419497f9722a3daafe3b4186f6b6457e09190a35050565b6001600160a01b0381168114620001e757600080fd5b50565b60008060408385031215620001fe57600080fd5b82516200020b81620001d1565b60208401519092506200021e81620001d1565b809150509250929050565b634e487b7160e01b600052604160045260246000fd5b600181811c908216806200025457607f821691505b6020821081036200027557634e487b7160e01b600052602260045260246000fd5b50919050565b601f821115620002c957600081815260208120601f850160051c81016020861015620002a45750805b601f850160051c820191505b81811015620002c557828155600101620002b0565b5050505b505050565b81516001600160401b03811115620002ea57620002ea62000229565b6200030281620002fb84546200023f565b846200027b565b602080601f8311600181146200033a5760008415620003215750858301515b600019600386901b1c1916600185901b178555620002c5565b600085815260208120601f198616915b828110156200036b578886015182559484019460019091019084016200034a565b50858210156200038a5787850151600019600388901b60f8161c191681555b5050505050600190811b01905550565b6080516142d36200040a600039600081816103b2015281816108ec01528181610a0201528181610d6e01528181611310015281816115900152818161162801528181611818015281816119bf01528181611e010152818161263d0152818161270b0152612cbe01526142d36000f3fe608060405234801561001057600080fd5b506004361061022c5760003560e01c80635d3590d51161013b578063c93ab3fd116100b8578063ed70554d1161007c578063ed70554d1461057a578063f242432a1461059a578063f2fde38b146105ad578063facabfe2146105c0578063faf047d1146105d357600080fd5b8063c93ab3fd1461050b578063cf4088231461051e578063da8c229e14610531578063e0dba60f14610554578063e985e9c51461056757600080fd5b806394115afc116100ff57806394115afc146104ac578063a22cb465146104bf578063adf4960a146104d2578063b1b36f28146104e5578063b6bcad26146104f857600080fd5b80635d3590d5146104425780636352211e146104555780636e5d6ad214610468578063715018a6146104935780638da5cb5b1461049b57600080fd5b80631896f70a116101c95780633f15457f1161018d5780633f15457f146103ad578063402906fc146103d457806341415eab146103fc5780634e1273f41461040f578063530954671461042f57600080fd5b80631896f70a1461034e5780631f4e15041461036157806320c38e2b146103745780632eb2c2d61461038757806333c69ea91461039a57600080fd5b8062fdd58e146102315780630178fe3f1461025757806301ffc9a71461029d578063081812fc146102c0578063095ea7b3146102e05780630e4cd725146102f55780630e89341c1461030857806314ab9038146103285780631534e1771461033b575b600080fd5b61024461023f366004613229565b6105e6565b6040519081526020015b60405180910390f35b61026a610265366004613255565b610693565b604080516001600160a01b03909416845263ffffffff90921660208401526001600160401b03169082015260600161024e565b6102b06102ab366004613284565b6106c3565b604051901515815260200161024e565b6102d36102ce366004613255565b6106e8565b60405161024e91906132a1565b6102f36102ee366004613229565b61072d565b005b6102b06103033660046132b5565b610773565b61031b610316366004613255565b6107ed565b60405161024e9190613335565b6102f361033636600461335f565b61085f565b6102f361034936600461338b565b610959565b6102f361035c3660046132b5565b610983565b6007546102d3906001600160a01b031681565b61031b610382366004613255565b610a39565b6102f361039536600461350b565b610ad3565b6102f36103a83660046135cc565b610d11565b6102d37f000000000000000000000000000000000000000000000000000000000000000081565b6103e76103e2366004613624565b610ee2565b60405163ffffffff909116815260200161024e565b6102b061040a3660046132b5565b610f7f565b61042261041d366004613647565b610fb8565b60405161024e9190613744565b6005546102d3906001600160a01b031681565b6102f3610450366004613757565b6110e1565b6102d3610463366004613255565b611162565b61047b610476366004613798565b61116d565b6040516001600160401b03909116815260200161024e565b6102f361129c565b6000546001600160a01b03166102d3565b61047b6104ba366004613815565b6112b0565b6102f36104cd3660046138be565b6113ff565b6102b06104e03660046138ec565b6114d5565b6102446104f336600461390f565b6114fa565b6102f361050636600461338b565b6116cd565b6102f36105193660046139d1565b6116f7565b6102f361052c366004613a3c565b61191c565b6102b061053f36600461338b565b60046020526000908152604090205460ff1681565b6102f36105623660046138be565b611aae565b6102b0610575366004613a74565b611b16565b610244610588366004613255565b60016020526000908152604090205481565b6102f36105a8366004613aa2565b611b44565b6102f36105bb36600461338b565b611bf1565b61047b6105ce36600461335f565b611c6a565b6102446105e1366004613b0a565b611d14565b60006001600160a01b0383166106575760405162461bcd60e51b815260206004820152602b60248201527f455243313135353a2062616c616e636520717565727920666f7220746865207a60448201526a65726f206164647265737360a81b60648201526084015b60405180910390fd5b600061066283611162565b9050836001600160a01b0316816001600160a01b03160361068757600191505061068d565b60009150505b92915050565b60008181526001602052604090205460a081901c60c082901c6106b7838383611ef6565b90959094509092509050565b60006001600160e01b0319821663216dfd4f60e11b148061068d575061068d82611f2c565b6000806106f483611162565b90506001600160a01b03811661070d5750600092915050565b6000838152600360205260409020546001600160a01b03165b9392505050565b600061073882610693565b50915050603f1960408216016107645760405163a2a7201360e01b81526004810183905260240161064e565b61076e8383611f7c565b505050565b600080808061078186610693565b925092509250846001600160a01b0316836001600160a01b031614806107ac57506107ac8386611b16565b806107d057506001600160a01b0385166107c5876106e8565b6001600160a01b0316145b80156107e357506107e1828261208c565b155b9695505050505050565b6005546040516303a24d0760e21b8152600481018390526060916001600160a01b031690630e89341c90602401600060405180830381865afa158015610837573d6000803e3d6000fd5b505050506040513d6000823e601f3d908101601f1916820160405261068d9190810190613b8e565b8161086a8133610f7f565b61088b57803360405163168ab55d60e31b815260040161064e929190613c05565b826010600061089983610693565b5091505063ffffffff82821616156108c75760405163a2a7201360e01b81526004810184905260240161064e565b604051630295720760e31b8152600481018790526001600160401b03861660248201527f00000000000000000000000000000000000000000000000000000000000000006001600160a01b0316906314ab9038906044015b600060405180830381600087803b15801561093957600080fd5b505af115801561094d573d6000803e3d6000fd5b50505050505050505050565b6109616120bc565b600580546001600160a01b0319166001600160a01b0392909216919091179055565b8161098e8133610f7f565b6109af57803360405163168ab55d60e31b815260040161064e929190613c05565b82600860006109bd83610693565b5091505063ffffffff82821616156109eb5760405163a2a7201360e01b81526004810184905260240161064e565b604051630c4b7b8560e11b81526001600160a01b037f00000000000000000000000000000000000000000000000000000000000000001690631896f70a9061091f9089908990600401613c05565b60066020526000908152604090208054610a5290613c1c565b80601f0160208091040260200160405190810160405280929190818152602001828054610a7e90613c1c565b8015610acb5780601f10610aa057610100808354040283529160200191610acb565b820191906000526020600020905b815481529060010190602001808311610aae57829003601f168201915b505050505081565b8151835114610b355760405162461bcd60e51b815260206004820152602860248201527f455243313135353a2069647320616e6420616d6f756e7473206c656e677468206044820152670dad2e6dac2e8c6d60c31b606482015260840161064e565b6001600160a01b038416610b5b5760405162461bcd60e51b815260040161064e90613c56565b6001600160a01b038516331480610b775750610b778533611b16565b610bde5760405162461bcd60e51b815260206004820152603260248201527f455243313135353a207472616e736665722063616c6c6572206973206e6f74206044820152711bdddb995c881b9bdc88185c1c1c9bdd995960721b606482015260840161064e565b60005b8351811015610ca4576000848281518110610bfe57610bfe613c9b565b602002602001015190506000848381518110610c1c57610c1c613c9b565b602002602001015190506000806000610c3485610693565b925092509250610c45858383612116565b836001148015610c6657508a6001600160a01b0316836001600160a01b0316145b610c825760405162461bcd60e51b815260040161064e90613cb1565b610c8e858b84846121bf565b505050505080610c9d90613d11565b9050610be1565b50836001600160a01b0316856001600160a01b0316336001600160a01b03167f4a39dc06d4c0dbc64b70af90fd698a233a518aa5d07e595d983b8c0526c8f7fb8686604051610cf4929190613d2a565b60405180910390a4610d0a338686868686612201565b5050505050565b6000610d1d8585612366565b9050610d298184612392565b60008080610d3684610693565b919450925090506001600160a01b0383161580610de557506040516302571be360e01b81526004810185905230906001600160a01b037f000000000000000000000000000000000000000000000000000000000000000016906302571be390602401602060405180830381865afa158015610db5573d6000803e3d6000fd5b505050506040513d601f19601f82011682018060405250810190610dd99190613d58565b6001600160a01b031614155b15610e0357604051635374b59960e01b815260040160405180910390fd5b600080610e0f8a610693565b90935091508a9050610e4b57610e258633610f7f565b610e4657853360405163168ab55d60e31b815260040161064e929190613c05565b610e76565b610e558a33610f7f565b610e7657893360405163168ab55d60e31b815260040161064e929190613c05565b610e818689846123c5565b610e8c878483612400565b965062010000841615801590610eb057508363ffffffff1688851763ffffffff1614155b15610ed15760405163a2a7201360e01b81526004810187905260240161064e565b9683179661094d86868a868b612446565b600082610eef8133610f7f565b610f1057803360405163168ab55d60e31b815260040161064e929190613c05565b8360026000610f1e83610693565b5091505063ffffffff8282161615610f4c5760405163a2a7201360e01b81526004810184905260240161064e565b60008080610f598a610693565b925092509250610f728a84848c61ffff16178485612446565b5098975050505050505050565b6000808080610f8d86610693565b925092509250846001600160a01b0316836001600160a01b031614806107d057506107d08386611b16565b6060815183511461101d5760405162461bcd60e51b815260206004820152602960248201527f455243313135353a206163636f756e747320616e6420696473206c656e677468604482015268040dad2e6dac2e8c6d60bb1b606482015260840161064e565b600083516001600160401b03811115611038576110386133a8565b604051908082528060200260200182016040528015611061578160200160208202803683370190505b50905060005b84518110156110d9576110ac85828151811061108557611085613c9b565b602002602001015185838151811061109f5761109f613c9b565b60200260200101516105e6565b8282815181106110be576110be613c9b565b60209081029190910101526110d281613d11565b9050611067565b509392505050565b6110e96120bc565b60405163a9059cbb60e01b81526001600160a01b0383811660048301526024820183905284169063a9059cbb906044016020604051808303816000875af1158015611138573d6000803e3d6000fd5b505050506040513d601f19601f8201168201806040525081019061115c9190613d75565b50505050565b600061068d826124ed565b60008061117a8585612366565b905061118581612503565b6111a257604051635374b59960e01b815260040160405180910390fd5b600080806111af84610693565b9194509250905060006111c1856106e8565b90506111cd8933610773565b1580156111f157506111df8533610f7f565b80156111ef575062040000831615155b155b80156112065750336001600160a01b03821614155b1561122857843360405163168ab55d60e31b815260040161064e929190613c05565b60006112338a610693565b92505050611242888483612400565b97506112508686868b612520565b6040516001600160401b038916815286907ff675815a0817338f93a7da433f6bd5f5542f1029b11b455191ac96c7f6a9b1329060200160405180910390a2509598975050505050505050565b6112a46120bc565b6112ae6000612536565b565b3360009081526004602052604081205460ff166112df5760405162461bcd60e51b815260040161064e90613d92565b600088886040516112f1929190613dda565b6040519081900381206305ef2c7f60e41b825291506001600160a01b037f00000000000000000000000000000000000000000000000000000000000000001690635ef2c7f09061135c9060008051602061427e83398151915290859030906000908190600401613dea565b600060405180830381600087803b15801561137657600080fd5b505af115801561138a573d6000803e3d6000fd5b505050506276a700854261139e9190613e1f565b6113a89190613e1f565b91506113f389898080601f0160208091040260200160405190810160405280939291908181526020018383808284376000920191909152508b92508a91505061ffff87168689612586565b50979650505050505050565b6001600160a01b03821633036114695760405162461bcd60e51b815260206004820152602960248201527f455243313135353a2073657474696e6720617070726f76616c20737461747573604482015268103337b91039b2b63360b91b606482015260840161064e565b3360008181526002602090815260408083206001600160a01b03871680855290835292819020805460ff191686151590811790915590519081529192917f17307eab39ab6107e8899845ad3d59bd9653f200f220920489ca2b5937696c31910160405180910390a35050565b6000806114e184610693565b50841663ffffffff908116908516149250505092915050565b6000886115078133610f7f565b61152857803360405163168ab55d60e31b815260040161064e929190613c05565b885160208a01206115398b82612366565b92506115458b846126b1565b61154f8386612392565b600061155c8c858d6127e7565b905061156a8c8588886128b4565b945061157584612503565b611611576040516305ef2c7f60e41b81526001600160a01b037f00000000000000000000000000000000000000000000000000000000000000001690635ef2c7f0906115cd908f90869030908e908e90600401613dea565b600060405180830381600087803b1580156115e757600080fd5b505af11580156115fb573d6000803e3d6000fd5b5050505061160c84828c89896128fa565b6116a5565b6040516305ef2c7f60e41b81526001600160a01b037f00000000000000000000000000000000000000000000000000000000000000001690635ef2c7f090611665908f90869030908e908e90600401613dea565b600060405180830381600087803b15801561167f57600080fd5b505af1158015611693573d6000803e3d6000fd5b505050506116a58c858d8d8a8a61293c565b6001600160a01b038916156116be576116be8985612a00565b50505098975050505050505050565b6116d56120bc565b600780546001600160a01b0319166001600160a01b0392909216919091179055565b600061173d600086868080601f0160208091040260200160405190810160405280939291908181526020018383808284376000920191909152509293925050612a6e9050565b6007549091506001600160a01b03166117695760405163093075b560e21b815260040160405180910390fd5b6117738133610f7f565b61179457803360405163168ab55d60e31b815260040161064e929190613c05565b600080806117a184610693565b92509250925060006117ed60008a8a8080601f0160208091040260200160405190810160405280939291908181526020018383808284376000920191909152509293925050612b2d9050565b50905060006117fb866106e8565b600754604051635b0fc9c360e01b81529192506001600160a01b037f0000000000000000000000000000000000000000000000000000000000000000811692635b0fc9c392611851928b92911690600401613c05565b600060405180830381600087803b15801561186b57600080fd5b505af115801561187f573d6000803e3d6000fd5b5050505061188f8660001c612be4565b600760009054906101000a90046001600160a01b03166001600160a01b0316639198c2768b8b888888878f8f6040518963ffffffff1660e01b81526004016118de989796959493929190613e6f565b600060405180830381600087803b1580156118f857600080fd5b505af115801561190c573d6000803e3d6000fd5b5050505050505050505050505050565b836119278133610f7f565b61194857803360405163168ab55d60e31b815260040161064e929190613c05565b84601c600061195683610693565b5091505063ffffffff82821616156119845760405163a2a7201360e01b81526004810184905260240161064e565b60405163cf40882360e01b8152600481018990523060248201526001600160a01b0387811660448301526001600160401b03871660648301527f0000000000000000000000000000000000000000000000000000000000000000169063cf40882390608401600060405180830381600087803b158015611a0357600080fd5b505af1158015611a17573d6000803e3d6000fd5b5050506001600160a01b0388169050611a75576000611a3589610693565b509150506201ffff1962020000821601611a645787604051632ca49b0d60e11b815260040161064e91906132a1565b611a6f896000612c72565b50611aa4565b6000611a8089611162565b9050611aa281898b60001c600160405180602001604052806000815250612d57565b505b5050505050505050565b611ab66120bc565b6001600160a01b038216600081815260046020908152604091829020805460ff191685151590811790915591519182527f4c97694570a07277810af7e5669ffd5f6a2d6b74b6e9a274b8b870fd5114cf8791015b60405180910390a25050565b6001600160a01b03918216600090815260026020908152604080832093909416825291909152205460ff1690565b6001600160a01b038416611b6a5760405162461bcd60e51b815260040161064e90613c56565b6001600160a01b038516331480611b865750611b868533611b16565b611be45760405162461bcd60e51b815260206004820152602960248201527f455243313135353a2063616c6c6572206973206e6f74206f776e6572206e6f7260448201526808185c1c1c9bdd995960ba1b606482015260840161064e565b610d0a8585858585612d57565b611bf96120bc565b6001600160a01b038116611c5e5760405162461bcd60e51b815260206004820152602660248201527f4f776e61626c653a206e6577206f776e657220697320746865207a65726f206160448201526564647265737360d01b606482015260840161064e565b611c6781612536565b50565b3360009081526004602052604081205460ff16611c995760405162461bcd60e51b815260040161064e90613d92565b6000611cb360008051602061427e83398151915285612366565b9050611cbe81612503565b611cdb57604051635374b59960e01b815260040160405180910390fd5b60008080611ce884610693565b919450925090506000611cfb8783613e1f565b9050611d0985858584612520565b979650505050505050565b600087611d218133610f7f565b611d4257803360405163168ab55d60e31b815260040161064e929190613c05565b60008888604051611d54929190613dda565b60405180910390209050611d688a82612366565b9250611d748a846126b1565b611d7e8386612392565b6000611dc18b858c8c8080601f0160208091040260200160405190810160405280939291908181526020018383808284376000920191909152506127e792505050565b9050611dcf8b8588886128b4565b9450611dda84612503565b611e89576040516306ab592360e01b8152600481018c9052602481018390523060448201527f00000000000000000000000000000000000000000000000000000000000000006001600160a01b0316906306ab5923906064016020604051808303816000875af1158015611e52573d6000803e3d6000fd5b505050506040513d601f19601f82011682018060405250810190611e769190613ed7565b50611e8484828a89896128fa565b611ecf565b611ecf8b858c8c8080601f0160208091040260200160405190810160405280939291908181526020018383808284376000920191909152508e92508c91508b905061293c565b6001600160a01b03871615611ee857611ee88785612a00565b505050979650505050505050565b60008042836001600160401b03161015611f235761ffff1962010000851601611f1e57600094505b600093505b50929391925050565b60006001600160e01b03198216636cdb3d1360e11b1480611f5d57506001600160e01b031982166303a24d0760e21b145b8061068d57506301ffc9a760e01b6001600160e01b031983161461068d565b6000611f8782611162565b9050806001600160a01b0316836001600160a01b031603611ff45760405162461bcd60e51b815260206004820152602160248201527f4552433732313a20617070726f76616c20746f2063757272656e74206f776e656044820152603960f91b606482015260840161064e565b336001600160a01b038216148061201057506120108133611b16565b6120825760405162461bcd60e51b815260206004820152603d60248201527f4552433732313a20617070726f76652063616c6c6572206973206e6f7420746f60448201527f6b656e206f776e6572206f7220617070726f76656420666f7220616c6c000000606482015260840161064e565b61076e8383612a00565b6000620200008381161480156107265750426120ab6276a70084613ef0565b6001600160401b0316109392505050565b6000546001600160a01b031633146112ae5760405162461bcd60e51b815260206004820181905260248201527f4f776e61626c653a2063616c6c6572206973206e6f7420746865206f776e6572604482015260640161064e565b6201ffff1962020000831601612136576121336276a70082613ef0565b90505b42816001600160401b0316101561216f576201000082161561216a5760405162461bcd60e51b815260040161064e90613cb1565b612194565b60048216156121945760405163a2a7201360e01b81526004810184905260240161064e565b6040821660000361076e575050600090815260036020526040902080546001600160a01b0319169055565b60c0816001600160401b0316901b60a08363ffffffff16901b846001600160a01b03161717600160008681526020019081526020016000208190555050505050565b6001600160a01b0384163b1561235e5760405163bc197c8160e01b81526001600160a01b0385169063bc197c81906122459089908990889088908890600401613f10565b6020604051808303816000875af1925050508015612280575060408051601f3d908101601f1916820190925261227d91810190613f62565b60015b61232c5761228c613f7f565b806308c379a0036122c557506122a0613f9b565b806122ab57506122c7565b8060405162461bcd60e51b815260040161064e9190613335565b505b60405162461bcd60e51b815260206004820152603460248201527f455243313135353a207472616e7366657220746f206e6f6e20455243313135356044820152732932b1b2b4bb32b91034b6b83632b6b2b73a32b960611b606482015260840161064e565b6001600160e01b0319811663bc197c8160e01b1461235c5760405162461bcd60e51b815260040161064e90614024565b505b505050505050565b604080516020808201949094528082019290925280518083038201815260609092019052805191012090565b63fffdffff81811763ffffffff16146123c15760405163a2a7201360e01b81526004810183905260240161064e565b5050565b63ffff000082161580159060018316159082906123df5750805b15610d0a5760405163a2a7201360e01b81526004810186905260240161064e565b6000816001600160401b0316846001600160401b03161115612420578193505b826001600160401b0316846001600160401b0316101561243e578293505b509192915050565b61245285858584612520565b60405163ffffffff8416815285907f39873f00c80f4f94b7bd1594aebcf650f003545b74824d57ddf4939e3ff3a34b9060200160405180910390a2816001600160401b0316816001600160401b03161115610d0a576040516001600160401b038216815285907ff675815a0817338f93a7da433f6bd5f5542f1029b11b455191ac96c7f6a9b132906020015b60405180910390a25050505050565b6000806124f983610693565b5090949350505050565b60008061250f83611162565b6001600160a01b0316141592915050565b61252a8483612e27565b61115c848484846121bf565b600080546001600160a01b038381166001600160a01b0319831681178455604051919092169283917f8be0079c531659141344cd1fd0a4f28419497f9722a3daafe3b4186f6b6457e09190a35050565b8551602087012060006125a760008051602061427e83398151915283612366565b905060006125d089604051806040016040528060058152602001626cae8d60e31b815250612e60565b60008381526006602052604090209091506125eb82826140b2565b506125fe82828a620300018a17896128fa565b6001600160a01b03871615612617576126178783612a00565b6001600160a01b03841615611aa257604051630c4b7b8560e11b81526001600160a01b037f00000000000000000000000000000000000000000000000000000000000000001690631896f70a906126749085908890600401613c05565b600060405180830381600087803b15801561268e57600080fd5b505af11580156126a2573d6000803e3d6000fd5b50505050505050505050505050565b600080806126be84610693565b91945092509050426001600160401b0382161080801561278157506001600160a01b038416158061278157506040516302571be360e01b8152600481018690526000906001600160a01b037f000000000000000000000000000000000000000000000000000000000000000016906302571be390602401602060405180830381865afa158015612752573d6000803e3d6000fd5b505050506040513d601f19601f820116820180604052508101906127769190613d58565b6001600160a01b0316145b156127c057600061279187610693565b5091505060208116156127ba5760405163a2a7201360e01b81526004810187905260240161064e565b5061235e565b6201000083161561235e5760405163a2a7201360e01b81526004810186905260240161064e565b606060006128908360066000888152602001908152602001600020805461280d90613c1c565b80601f016020809104026020016040519081016040528092919081815260200182805461283990613c1c565b80156128865780601f1061285b57610100808354040283529160200191612886565b820191906000526020600020905b81548152906001019060200180831161286957829003601f168201915b5050505050612e60565b60008581526006602052604090209091506128ab82826140b2565b50949350505050565b6000806128c085610693565b925050506000806128d38860001c610693565b92509250506128e38787846123c5565b6128ee858483612400565b98975050505050505050565b61290685848484612ed7565b847f8ce7013e8abebc55c3890a68f5a27c67c3f7efa64e584de5fb22363c606fd340858585856040516124de9493929190614171565b6000808061294988610693565b925092509250600061297388600660008d8152602001908152602001600020805461280d90613c1c565b60008a815260066020526040902080549192509061299090613c1c565b90506000036129b35760008981526006602052604090206129b182826140b2565b505b6129c289858886178589612446565b6001600160a01b0387166129e0576129db896000612c72565b61094d565b61094d84888b60001c600160405180602001604052806000815250612d57565b600081815260036020526040902080546001600160a01b0319166001600160a01b0384169081179091558190612a3582611162565b6001600160a01b03167f8c5be1e5ebec7d5bd14f71427d1e84f3dd0314c0f7b2291e5b200ac8c7c3b92560405160405180910390a45050565b6000806000612a7d8585612b2d565b909250905081612aef5760018551612a9591906141b8565b8414612ae35760405162461bcd60e51b815260206004820152601d60248201527f6e616d65686173683a204a756e6b20617420656e64206f66206e616d65000000604482015260640161064e565b506000915061068d9050565b612af98582612a6e565b6040805160208101929092528101839052606001604051602081830303815290604052805190602001209250505092915050565b60008083518310612b805760405162461bcd60e51b815260206004820152601e60248201527f726561644c6162656c3a20496e646578206f7574206f6620626f756e64730000604482015260640161064e565b6000848481518110612b9457612b94613c9b565b016020015160f81c90508015612bc057612bb985612bb38660016141cb565b83612f4e565b9250612bc5565b600092505b612bcf81856141cb565b612bda9060016141cb565b9150509250929050565b60008181526001602052604090205460a081901c60c082901c612c08838383611ef6565b600086815260036020526040812080546001600160a01b0319169055909350612c359150859084846121bf565b60408051858152600160208201526000916001600160a01b03861691339160008051602061425e833981519152910160405180910390a450505050565b612c7d8260016114d5565b15612c9e5760405163a2a7201360e01b81526004810183905260240161064e565b612ca782612be4565b604051635b0fc9c360e01b81526001600160a01b037f00000000000000000000000000000000000000000000000000000000000000001690635b0fc9c390612cf59085908590600401613c05565b600060405180830381600087803b158015612d0f57600080fd5b505af1158015612d23573d6000803e3d6000fd5b50505050817fee2ba1195c65bcf218a83d874335c6bf9d9067b4c672f3c3bf16cf40de7586c482604051611b0a91906132a1565b6000806000612d6586610693565b925092509250612d76868383612116565b846001148015612d975750876001600160a01b0316836001600160a01b0316145b612db35760405162461bcd60e51b815260040161064e90613cb1565b866001600160a01b0316836001600160a01b031603612dd457505050610d0a565b612de0868884846121bf565b60408051878152602081018790526001600160a01b03808a1692908b1691339160008051602061425e833981519152910160405180910390a4611aa4338989898989612f72565b61ffff811615801590612e3f57506201000181811614155b156123c15760405163a2a7201360e01b81526004810183905260240161064e565b6060600183511015612e8557604051631406d65b60e11b815260040160405180910390fd5b60ff83511115612eaa578260405163e3ba295f60e01b815260040161064e9190613335565b82518383604051602001612ec0939291906141de565b604051602081830303815290604052905092915050565b612ee18483612e27565b6000848152600160205260409020546001600160a01b03811615612f4257612f0885612be4565b847fee2ba1195c65bcf218a83d874335c6bf9d9067b4c672f3c3bf16cf40de7586c46000604051612f3991906132a1565b60405180910390a25b610d0a8585858561302d565b8251600090612f5d83856141cb565b1115612f6857600080fd5b5091016020012090565b6001600160a01b0384163b1561235e5760405163f23a6e6160e01b81526001600160a01b0385169063f23a6e6190612fb69089908990889088908890600401614223565b6020604051808303816000875af1925050508015612ff1575060408051601f3d908101601f19168201909252612fee91810190613f62565b60015b612ffd5761228c613f7f565b6001600160e01b0319811663f23a6e6160e01b1461235c5760405162461bcd60e51b815260040161064e90614024565b836000808061303b84610693565b9194509250905063ffff000082166001600160401b038087169083161115613061578195505b42826001600160401b03161061307657958617955b6001600160a01b038416156130cd5760405162461bcd60e51b815260206004820152601f60248201527f455243313135353a206d696e74206f66206578697374696e6720746f6b656e00604482015260640161064e565b6001600160a01b03881661312d5760405162461bcd60e51b815260206004820152602160248201527f455243313135353a206d696e7420746f20746865207a65726f206164647265736044820152607360f81b606482015260840161064e565b306001600160a01b038916036131a25760405162461bcd60e51b815260206004820152603460248201527f455243313135353a206e65774f776e65722063616e6e6f74206265207468652060448201527313985b5955dc985c1c195c8818dbdb9d1c9858dd60621b606482015260840161064e565b6131ae858989896121bf565b60408051868152600160208201526001600160a01b038a1691600091339160008051602061425e833981519152910160405180910390a4611aa23360008a88600160405180602001604052806000815250612f72565b6001600160a01b0381168114611c6757600080fd5b803561322481613204565b919050565b6000806040838503121561323c57600080fd5b823561324781613204565b946020939093013593505050565b60006020828403121561326757600080fd5b5035919050565b6001600160e01b031981168114611c6757600080fd5b60006020828403121561329657600080fd5b81356107268161326e565b6001600160a01b0391909116815260200190565b600080604083850312156132c857600080fd5b8235915060208301356132da81613204565b809150509250929050565b60005b838110156133005781810151838201526020016132e8565b50506000910152565b600081518084526133218160208601602086016132e5565b601f01601f19169290920160200192915050565b6020815260006107266020830184613309565b80356001600160401b038116811461322457600080fd5b6000806040838503121561337257600080fd5b8235915061338260208401613348565b90509250929050565b60006020828403121561339d57600080fd5b813561072681613204565b634e487b7160e01b600052604160045260246000fd5b601f8201601f191681016001600160401b03811182821017156133e3576133e36133a8565b6040525050565b60006001600160401b03821115613403576134036133a8565b5060051b60200190565b600082601f83011261341e57600080fd5b8135602061342b826133ea565b60405161343882826133be565b83815260059390931b850182019282810191508684111561345857600080fd5b8286015b84811015613473578035835291830191830161345c565b509695505050505050565b60006001600160401b03821115613497576134976133a8565b50601f01601f191660200190565b60006134b08361347e565b6040516134bd82826133be565b8092508481528585850111156134d257600080fd5b8484602083013760006020868301015250509392505050565b600082601f8301126134fc57600080fd5b610726838335602085016134a5565b600080600080600060a0868803121561352357600080fd5b853561352e81613204565b9450602086013561353e81613204565b935060408601356001600160401b038082111561355a57600080fd5b61356689838a0161340d565b9450606088013591508082111561357c57600080fd5b61358889838a0161340d565b9350608088013591508082111561359e57600080fd5b506135ab888289016134eb565b9150509295509295909350565b803563ffffffff8116811461322457600080fd5b600080600080608085870312156135e257600080fd5b84359350602085013592506135f9604086016135b8565b915061360760608601613348565b905092959194509250565b803561ffff8116811461322457600080fd5b6000806040838503121561363757600080fd5b8235915061338260208401613612565b6000806040838503121561365a57600080fd5b82356001600160401b038082111561367157600080fd5b818501915085601f83011261368557600080fd5b81356020613692826133ea565b60405161369f82826133be565b83815260059390931b85018201928281019150898411156136bf57600080fd5b948201945b838610156136e65785356136d781613204565b825294820194908201906136c4565b965050860135925050808211156136fc57600080fd5b50612bda8582860161340d565b600081518084526020808501945080840160005b838110156137395781518752958201959082019060010161371d565b509495945050505050565b6020815260006107266020830184613709565b60008060006060848603121561376c57600080fd5b833561377781613204565b9250602084013561378781613204565b929592945050506040919091013590565b6000806000606084860312156137ad57600080fd5b83359250602084013591506137c460408501613348565b90509250925092565b60008083601f8401126137df57600080fd5b5081356001600160401b038111156137f657600080fd5b60208301915083602082850101111561380e57600080fd5b9250929050565b600080600080600080600060c0888a03121561383057600080fd5b87356001600160401b0381111561384657600080fd5b6138528a828b016137cd565b909850965050602088013561386681613204565b9450604088013561387681613204565b935061388460608901613348565b9250608088013561389481613204565b91506138a260a08901613612565b905092959891949750929550565b8015158114611c6757600080fd5b600080604083850312156138d157600080fd5b82356138dc81613204565b915060208301356132da816138b0565b600080604083850312156138ff57600080fd5b82359150613382602084016135b8565b600080600080600080600080610100898b03121561392c57600080fd5b8835975060208901356001600160401b0381111561394957600080fd5b8901601f81018b1361395a57600080fd5b6139698b8235602084016134a5565b975050604089013561397a81613204565b9550606089013561398a81613204565b945061399860808a01613219565b93506139a660a08a01613348565b92506139b460c08a016135b8565b91506139c260e08a01613348565b90509295985092959890939650565b600080600080604085870312156139e757600080fd5b84356001600160401b03808211156139fe57600080fd5b613a0a888389016137cd565b90965094506020870135915080821115613a2357600080fd5b50613a30878288016137cd565b95989497509550505050565b60008060008060808587031215613a5257600080fd5b843593506020850135613a6481613204565b925060408501356135f981613204565b60008060408385031215613a8757600080fd5b8235613a9281613204565b915060208301356132da81613204565b600080600080600060a08688031215613aba57600080fd5b8535613ac581613204565b94506020860135613ad581613204565b9350604086013592506060860135915060808601356001600160401b03811115613afe57600080fd5b6135ab888289016134eb565b600080600080600080600060c0888a031215613b2557600080fd5b8735965060208801356001600160401b03811115613b4257600080fd5b613b4e8a828b016137cd565b9097509550506040880135613b6281613204565b93506060880135613b7281613204565b9250613b80608089016135b8565b91506138a260a08901613348565b600060208284031215613ba057600080fd5b81516001600160401b03811115613bb657600080fd5b8201601f81018413613bc757600080fd5b8051613bd28161347e565b604051613bdf82826133be565b828152866020848601011115613bf457600080fd5b6107e38360208301602087016132e5565b9182526001600160a01b0316602082015260400190565b600181811c90821680613c3057607f821691505b602082108103613c5057634e487b7160e01b600052602260045260246000fd5b50919050565b60208082526025908201527f455243313135353a207472616e7366657220746f20746865207a65726f206164604082015264647265737360d81b606082015260800190565b634e487b7160e01b600052603260045260246000fd5b6020808252602a908201527f455243313135353a20696e73756666696369656e742062616c616e636520666f60408201526939103a3930b739b332b960b11b606082015260800190565b634e487b7160e01b600052601160045260246000fd5b600060018201613d2357613d23613cfb565b5060010190565b604081526000613d3d6040830185613709565b8281036020840152613d4f8185613709565b95945050505050565b600060208284031215613d6a57600080fd5b815161072681613204565b600060208284031215613d8757600080fd5b8151610726816138b0565b60208082526028908201527f436f6e74726f6c6c61626c653a2043616c6c6572206973206e6f74206120636f604082015267373a3937b63632b960c11b606082015260800190565b8183823760009101908152919050565b94855260208501939093526001600160a01b0391821660408501521660608301526001600160401b0316608082015260a00190565b6001600160401b03818116838216019080821115613e3f57613e3f613cfb565b5092915050565b81835281816020850137506000828201602090810191909152601f909101601f19169091010190565b60c081526000613e8360c083018a8c613e46565b6001600160a01b03898116602085015263ffffffff891660408501526001600160401b03881660608501528616608084015282810360a0840152613ec8818587613e46565b9b9a5050505050505050505050565b600060208284031215613ee957600080fd5b5051919050565b6001600160401b03828116828216039080821115613e3f57613e3f613cfb565b6001600160a01b0386811682528516602082015260a060408201819052600090613f3c90830186613709565b8281036060840152613f4e8186613709565b905082810360808401526128ee8185613309565b600060208284031215613f7457600080fd5b81516107268161326e565b600060033d1115613f985760046000803e5060005160e01c5b90565b600060443d1015613fa95790565b6040516003193d81016004833e81513d6001600160401b038160248401118184111715613fd857505050505090565b8285019150815181811115613ff05750505050505090565b843d870101602082850101111561400a5750505050505090565b614019602082860101876133be565b509095945050505050565b60208082526028908201527f455243313135353a204552433131353552656365697665722072656a656374656040820152676420746f6b656e7360c01b606082015260800190565b601f82111561076e57600081815260208120601f850160051c810160208610156140935750805b601f850160051c820191505b8181101561235e5782815560010161409f565b81516001600160401b038111156140cb576140cb6133a8565b6140df816140d98454613c1c565b8461406c565b602080601f83116001811461411457600084156140fc5750858301515b600019600386901b1c1916600185901b17855561235e565b600085815260208120601f198616915b8281101561414357888601518255948401946001909101908401614124565b50858210156141615787850151600019600388901b60f8161c191681555b5050505050600190811b01905550565b6080815260006141846080830187613309565b6001600160a01b039590951660208301525063ffffffff9290921660408301526001600160401b0316606090910152919050565b8181038181111561068d5761068d613cfb565b8082018082111561068d5761068d613cfb565b60ff60f81b8460f81b168152600083516141ff8160018501602088016132e5565b8351908301906142168160018401602088016132e5565b0160010195945050505050565b6001600160a01b03868116825285166020820152604081018490526060810183905260a060808201819052600090611d099083018461330956fec3d58168c5ae7397731d063d5bbf3d657854427343f4c083240f7aacaa2d0f6293cdeb708b7545dc668eb9280176169d1c33cfd8ed6f04690a0bcc88a93fc4aea2646970667358221220ee17f087c9ff128d8c2dca4b15e49a9b493dcea6511f2b8c2ced13115c7b0d7564736f6c63430008130033",
  "devdoc": {
    "events": {
      "Approval(address,address,uint256)": {
        "details": "Emitted when `owner` enables `approved` to manage the `tokenId` token."
      },
      "ApprovalForAll(address,address,bool)": {
        "details": "Emitted when `account` grants or revokes permission to `operator` to transfer their tokens, according to `approved`."
      },
      "TransferBatch(address,address,address,uint256[],uint256[])": {
        "details": "Equivalent to multiple {TransferSingle} events, where `operator`, `from` and `to` are the same for all transfers."
      },
      "TransferSingle(address,address,address,uint256,uint256)": {
        "details": "Emitted when `value` tokens of token type `id` are transferred from `from` to `to` by `operator`."
      },
      "URI(string,uint256)": {
        "details": "Emitted when the URI for token type `id` changes to `value`, if it is a non-programmatic URI. If an {URI} event was emitted for `id`, the standard https://eips.ethereum.org/EIPS/eip-1155#metadata-extensions[guarantees] that `value` will equal the value returned by {IERC1155MetadataURI-uri}."
      }
    },
    "kind": "dev",
    "methods": {
      "allFusesBurned(bytes32,uint32)": {
        "params": {
          "fuseMask": "The fuses you want to check",
          "node": "Namehash of the name"
        },
        "returns": {
          "_0": "Boolean of whether or not all the selected fuses are burned"
        }
      },
      "approve(address,uint256)": {
        "params": {
          "to": "address to approve",
          "tokenId": "name to approve"
        }
      },
      "balanceOf(address,uint256)": {
        "details": "See {IERC1155-balanceOf}. Requirements: - `account` cannot be the zero address."
      },
      "balanceOfBatch(address[],uint256[])": {
        "details": "See {IERC1155-balanceOfBatch}. Requirements: - `accounts` and `ids` must have the same length."
      },
      "canExtendSubnames(bytes32,address)": {
        "params": {
          "addr": "which address to check permissions for",
          "node": "namehash of the name to check"
        },
        "returns": {
          "_0": "whether or not is owner/operator or approved"
        }
      },
      "canModifyName(bytes32,address)": {
        "params": {
          "addr": "which address to check permissions for",
          "node": "namehash of the name to check"
        },
        "returns": {
          "_0": "whether or not is owner or operator"
        }
      },
      "extendExpiry(bytes32,bytes32,uint64)": {
        "params": {
          "expiry": "When the name will expire in seconds since the Unix epoch",
          "labelhash": "Labelhash of the name, e.g. vitalik.xyz would be keccak256('vitalik')",
          "parentNode": "Parent namehash of the name e.g. vitalik.xyz would be namehash('xyz')"
        },
        "returns": {
          "_0": "New expiry"
        }
      },
      "getApproved(uint256)": {
        "params": {
          "id": "Namehash of the name"
        },
        "returns": {
          "operator": "Approved operator of a name"
        }
      },
      "getData(uint256)": {
        "params": {
          "id": "Namehash of the name"
        },
        "returns": {
          "expiry": "Expiry of the name",
          "fuses": "Fuses of the name",
          "owner": "Owner of the name"
        }
      },
      "isApprovedForAll(address,address)": {
        "details": "See {IERC1155-isApprovedForAll}."
      },
      "owner()": {
        "details": "Returns the address of the current owner."
      },
      "ownerOf(uint256)": {
        "params": {
          "id": "Label as a string of the .eth domain to wrap"
        },
        "returns": {
          "owner": "The owner of the name"
        }
      },
      "recoverFunds(address,address,uint256)": {
        "details": "The contract is Ownable and only the owner can call the recover function.",
        "params": {
          "_amount": "The amount of tokens to recover.",
          "_to": "The address to send the tokens to.",
          "_token": "The address of the ERC20 token to recover"
        }
      },
      "registerAndWrapEth2LD(string,address,address,uint64,address,uint16)": {
        "details": "Registers a new .eth second-level domain and wraps it.      Only callable by authorised controllers.",
        "params": {
          "approved": "The address to approve for the name.",
          "duration": "The duration, in seconds, to register the name for.",
          "label": "The label to register (Eg, 'foo' for 'foo.eth').",
          "ownerControlledFuses": "Initial owner-controlled fuses to set",
          "resolver": "The resolver address to set on the ENS registry (optional).",
          "wrappedOwner": "The owner of the wrapped name."
        },
        "returns": {
          "expiry": "The expiry date of the new name, in seconds since the Unix epoch."
        }
      },
      "renewEth2LD(bytes32,uint64)": {
        "details": "Only callable by authorised controllers.",
        "params": {
          "duration": "The number of seconds to renew the name for.",
          "labelhash": "The hash of the label to register (eg, `keccak256('foo')`, for 'foo.eth')."
        },
        "returns": {
          "expiry": "The expiry date of the name, in seconds since the Unix epoch."
        }
      },
      "renounceOwnership()": {
        "details": "Leaves the contract without owner. It will not be possible to call `onlyOwner` functions. Can only be called by the current owner. NOTE: Renouncing ownership will leave the contract without an owner, thereby disabling any functionality that is only available to the owner."
      },
      "safeBatchTransferFrom(address,address,uint256[],uint256[],bytes)": {
        "details": "See {IERC1155-safeBatchTransferFrom}."
      },
      "safeTransferFrom(address,address,uint256,uint256,bytes)": {
        "details": "See {IERC1155-safeTransferFrom}."
      },
      "setApprovalForAll(address,bool)": {
        "details": "See {IERC1155-setApprovalForAll}."
      },
      "setChildFuses(bytes32,bytes32,uint32,uint64)": {
        "params": {
          "expiry": "When the name will expire in seconds since the Unix epoch",
          "fuses": "Fuses to burn",
          "labelhash": "Labelhash of the name, e.g. vitalik.xyz would be keccak256('vitalik')",
          "parentNode": "Parent namehash of the name e.g. vitalik.xyz would be namehash('xyz')"
        }
      },
      "setFuses(bytes32,uint16)": {
        "params": {
          "node": "Namehash of the name",
          "ownerControlledFuses": "Owner-controlled fuses to burn"
        },
        "returns": {
          "_0": "Old fuses"
        }
      },
      "setMetadataService(address)": {
        "params": {
          "_metadataService": "The new metadata service"
        }
      },
      "setRecord(bytes32,address,address,uint64)": {
        "params": {
          "node": "Namehash of the name to set a record for",
          "owner": "New owner in the registry",
          "resolver": "Resolver contract",
          "ttl": "Time to live in the registry"
        }
      },
      "setResolver(bytes32,address)": {
        "params": {
          "node": "namehash of the name",
          "resolver": "the resolver contract"
        }
      },
      "setSubnodeOwner(bytes32,string,address,address,uint32,uint64)": {
        "params": {
          "approved": "Address to approve for the name",
          "expiry": "When the name will expire in seconds since the Unix epoch",
          "fuses": "Initial fuses for the wrapped subdomain",
          "label": "Label of the subdomain as a string",
          "owner": "New owner in the wrapper",
          "parentNode": "Parent namehash of the subdomain"
        },
        "returns": {
          "node": "Namehash of the subdomain"
        }
      },
      "setSubnodeRecord(bytes32,string,address,address,address,uint64,uint32,uint64)": {
        "params": {
          "approved": "address to approve for the name",
          "expiry": "When the name will expire in seconds since the Unix epoch",
          "fuses": "initial fuses for the wrapped subdomain",
          "label": "label of the subdomain as a string",
          "owner": "new owner in the wrapper",
          "parentNode": "parent namehash of the subdomain",
          "resolver": "resolver contract in the registry",
          "ttl": "ttl in the registry"
        },
        "returns": {
          "node": "Namehash of the subdomain"
        }
      },
      "setTTL(bytes32,uint64)": {
        "params": {
          "node": "Namehash of the name",
          "ttl": "TTL in the registry"
        }
      },
      "setUpgradeContract(address)": {
        "details": "The default value of upgradeContract is the 0 address. Use the 0 address at any time to make the contract not upgradable.",
        "params": {
          "_upgradeAddress": "address of an upgraded contract"
        }
      },
      "transferOwnership(address)": {
        "details": "Transfers ownership of the contract to a new account (`newOwner`). Can only be called by the current owner."
      },
      "upgrade(bytes,bytes)": {
        "details": "Can be called by the owner or an authorised caller",
        "params": {
          "extraData": "Extra data to pass to the upgrade contract",
          "name": "The name to upgrade, in DNS format"
        }
      },
      "uri(uint256)": {
        "params": {
          "tokenId": "The id of the token"
        },
        "returns": {
          "_0": "string uri of the metadata service"
        }
      }
    },
    "version": 1
  },
  "userdoc": {
    "kind": "user",
    "methods": {
      "allFusesBurned(bytes32,uint32)": {
        "notice": "Checks all Fuses in the mask are burned for the node"
      },
      "approve(address,uint256)": {
        "notice": "Approves an address for a name"
      },
      "canExtendSubnames(bytes32,address)": {
        "notice": "Checks if owner/operator or approved by owner"
      },
      "canModifyName(bytes32,address)": {
        "notice": "Checks if owner or operator of the owner"
      },
      "extendExpiry(bytes32,bytes32,uint64)": {
        "notice": "Extends expiry for a name"
      },
      "getApproved(uint256)": {
        "notice": "Gets the owner of a name"
      },
      "getData(uint256)": {
        "notice": "Gets the data for a name"
      },
      "ownerOf(uint256)": {
        "notice": "Gets the owner of a name"
      },
      "recoverFunds(address,address,uint256)": {
        "notice": "Recover ERC20 tokens sent to the contract by mistake."
      },
      "renewEth2LD(bytes32,uint64)": {
        "notice": "Renews a .eth second-level domain."
      },
      "setChildFuses(bytes32,bytes32,uint32,uint64)": {
        "notice": "Sets fuses of a name that you own the parent of"
      },
      "setFuses(bytes32,uint16)": {
        "notice": "Sets fuses of a name"
      },
      "setMetadataService(address)": {
        "notice": "Set the metadata service. Only the owner can do this"
      },
      "setRecord(bytes32,address,address,uint64)": {
        "notice": "Sets records for the name in the ENS Registry"
      },
      "setResolver(bytes32,address)": {
        "notice": "Sets resolver contract in the registry"
      },
      "setSubnodeOwner(bytes32,string,address,address,uint32,uint64)": {
        "notice": "Sets the subdomain owner in the registry and then wraps the subdomain"
      },
      "setSubnodeRecord(bytes32,string,address,address,address,uint64,uint32,uint64)": {
        "notice": "Sets the subdomain owner in the registry with records and then wraps the subdomain"
      },
      "setTTL(bytes32,uint64)": {
        "notice": "Sets TTL in the registry"
      },
      "setUpgradeContract(address)": {
        "notice": "Set the address of the upgradeContract of the contract. only admin can do this"
      },
      "upgrade(bytes,bytes)": {
        "notice": "Upgrades a domain of any kind. Could be a .eth name vitalik.eth, a DNSSEC name vitalik.xyz, or a subdomain"
      },
      "uri(uint256)": {
        "notice": "Get the metadata uri"
      }
    },
    "version": 1
  },
  "storageLayout": {
    "storage": [
      {
        "astId": 56156,
        "contract": "contracts/layertwo/optimism/wrapper/L2NameWrapper.sol:L2NameWrapper",
        "label": "_owner",
        "offset": 0,
        "slot": "0",
        "type": "t_address"
      },
      {
        "astId": 11929,
        "contract": "contracts/layertwo/optimism/wrapper/L2NameWrapper.sol:L2NameWrapper",
        "label": "_tokens",
        "offset": 0,
        "slot": "1",
        "type": "t_mapping(t_uint256,t_uint256)"
      },
      {
        "astId": 11935,
        "contract": "contracts/layertwo/optimism/wrapper/L2NameWrapper.sol:L2NameWrapper",
        "label": "_operatorApprovals",
        "offset": 0,
        "slot": "2",
        "type": "t_mapping(t_address,t_mapping(t_address,t_bool))"
      },
      {
        "astId": 11939,
        "contract": "contracts/layertwo/optimism/wrapper/L2NameWrapper.sol:L2NameWrapper",
        "label": "_tokenApprovals",
        "offset": 0,
        "slot": "3",
        "type": "t_mapping(t_uint256,t_address)"
      },
      {
        "astId": 11860,
        "contract": "contracts/layertwo/optimism/wrapper/L2NameWrapper.sol:L2NameWrapper",
        "label": "controllers",
        "offset": 0,
        "slot": "4",
        "type": "t_mapping(t_address,t_bool)"
      },
      {
        "astId": 2003,
        "contract": "contracts/layertwo/optimism/wrapper/L2NameWrapper.sol:L2NameWrapper",
        "label": "metadataService",
        "offset": 0,
        "slot": "5",
        "type": "t_contract(IMetadataService)12903"
      },
      {
        "astId": 2007,
        "contract": "contracts/layertwo/optimism/wrapper/L2NameWrapper.sol:L2NameWrapper",
        "label": "names",
        "offset": 0,
        "slot": "6",
        "type": "t_mapping(t_bytes32,t_bytes_storage)"
      },
      {
        "astId": 2022,
        "contract": "contracts/layertwo/optimism/wrapper/L2NameWrapper.sol:L2NameWrapper",
        "label": "upgradeContract",
        "offset": 0,
        "slot": "7",
        "type": "t_contract(INameWrapperUpgrade)13295"
      }
    ],
    "types": {
      "t_address": {
        "encoding": "inplace",
        "label": "address",
        "numberOfBytes": "20"
      },
      "t_bool": {
        "encoding": "inplace",
        "label": "bool",
        "numberOfBytes": "1"
      },
      "t_bytes32": {
        "encoding": "inplace",
        "label": "bytes32",
        "numberOfBytes": "32"
      },
      "t_bytes_storage": {
        "encoding": "bytes",
        "label": "bytes",
        "numberOfBytes": "32"
      },
      "t_contract(IMetadataService)12903": {
        "encoding": "inplace",
        "label": "contract IMetadataService",
        "numberOfBytes": "20"
      },
      "t_contract(INameWrapperUpgrade)13295": {
        "encoding": "inplace",
        "label": "contract INameWrapperUpgrade",
        "numberOfBytes": "20"
      },
      "t_mapping(t_address,t_bool)": {
        "encoding": "mapping",
        "key": "t_address",
        "label": "mapping(address => bool)",
        "numberOfBytes": "32",
        "value": "t_bool"
      },
      "t_mapping(t_address,t_mapping(t_address,t_bool))": {
        "encoding": "mapping",
        "key": "t_address",
        "label": "mapping(address => mapping(address => bool))",
        "numberOfBytes": "32",
        "value": "t_mapping(t_address,t_bool)"
      },
      "t_mapping(t_bytes32,t_bytes_storage)": {
        "encoding": "mapping",
        "key": "t_bytes32",
        "label": "mapping(bytes32 => bytes)",
        "numberOfBytes": "32",
        "value": "t_bytes_storage"
      },
      "t_mapping(t_uint256,t_address)": {
        "encoding": "mapping",
        "key": "t_uint256",
        "label": "mapping(uint256 => address)",
        "numberOfBytes": "32",
        "value": "t_address"
      },
      "t_mapping(t_uint256,t_uint256)": {
        "encoding": "mapping",
        "key": "t_uint256",
        "label": "mapping(uint256 => uint256)",
        "numberOfBytes": "32",
        "value": "t_uint256"
      },
      "t_uint256": {
        "encoding": "inplace",
        "label": "uint256",
        "numberOfBytes": "32"
      }
    }
  }
}