{
  "address": "0x690c1680b0843Ea9Bdb04cA5f9239A92d9dEb493",
  "abi": [
    {
      "inputs": [
        {
          "internalType": "contract ENS",
          "name": "_ens",
          "type": "address"
        },
        {
          "internalType": "contract IMetadataService",
          "name": "_metadataService",
          "type": "address"
        }
      ],
      "stateMutability": "nonpayable",
      "type": "constructor"
    },
    {
      "inputs": [],
      "name": "CannotUpgrade",
      "type": "error"
    },
    {
      "inputs": [
        {
          "internalType": "string",
          "name": "label",
          "type": "string"
        }
      ],
      "name": "LabelTooLong",
      "type": "error"
    },
    {
      "inputs": [],
      "name": "LabelTooShort",
      "type": "error"
    },
    {
      "inputs": [],
      "name": "NameIsNotWrapped",
      "type": "error"
    },
    {
      "inputs": [
        {
          "internalType": "bytes32",
          "name": "node",
          "type": "bytes32"
        }
      ],
      "name": "OperationProhibited",
      "type": "error"
    },
    {
      "inputs": [
        {
          "internalType": "bytes32",
          "name": "node",
          "type": "bytes32"
        },
        {
          "internalType": "address",
          "name": "addr",
          "type": "address"
        }
      ],
      "name": "Unauthorized",
      "type": "error"
    },
    {
      "anonymous": false,
      "inputs": [
        {
          "indexed": true,
          "internalType": "address",
          "name": "owner",
          "type": "address"
        },
        {
          "indexed": true,
          "internalType": "address",
          "name": "approved",
          "type": "address"
        },
        {
          "indexed": true,
          "internalType": "uint256",
          "name": "tokenId",
          "type": "uint256"
        }
      ],
      "name": "Approval",
      "type": "event"
    },
    {
      "anonymous": false,
      "inputs": [
        {
          "indexed": true,
          "internalType": "address",
          "name": "account",
          "type": "address"
        },
        {
          "indexed": true,
          "internalType": "address",
          "name": "operator",
          "type": "address"
        },
        {
          "indexed": false,
          "internalType": "bool",
          "name": "approved",
          "type": "bool"
        }
      ],
      "name": "ApprovalForAll",
      "type": "event"
    },
    {
      "anonymous": false,
      "inputs": [
        {
          "indexed": true,
          "internalType": "address",
          "name": "controller",
          "type": "address"
        },
        {
          "indexed": false,
          "internalType": "bool",
          "name": "active",
          "type": "bool"
        }
      ],
      "name": "ControllerChanged",
      "type": "event"
    },
    {
      "anonymous": false,
      "inputs": [
        {
          "indexed": true,
          "internalType": "bytes32",
          "name": "node",
          "type": "bytes32"
        },
        {
          "indexed": false,
          "internalType": "uint64",
          "name": "expiry",
          "type": "uint64"
        }
      ],
      "name": "ExpiryExtended",
      "type": "event"
    },
    {
      "anonymous": false,
      "inputs": [
        {
          "indexed": true,
          "internalType": "bytes32",
          "name": "node",
          "type": "bytes32"
        },
        {
          "indexed": false,
          "internalType": "uint32",
          "name": "fuses",
          "type": "uint32"
        }
      ],
      "name": "FusesSet",
      "type": "event"
    },
    {
      "anonymous": false,
      "inputs": [
        {
          "indexed": true,
          "internalType": "bytes32",
          "name": "node",
          "type": "bytes32"
        },
        {
          "indexed": false,
          "internalType": "address",
          "name": "owner",
          "type": "address"
        }
      ],
      "name": "NameUnwrapped",
      "type": "event"
    },
    {
      "anonymous": false,
      "inputs": [
        {
          "indexed": true,
          "internalType": "bytes32",
          "name": "node",
          "type": "bytes32"
        },
        {
          "indexed": false,
          "internalType": "bytes",
          "name": "name",
          "type": "bytes"
        },
        {
          "indexed": false,
          "internalType": "address",
          "name": "owner",
          "type": "address"
        },
        {
          "indexed": false,
          "internalType": "uint32",
          "name": "fuses",
          "type": "uint32"
        },
        {
          "indexed": false,
          "internalType": "uint64",
          "name": "expiry",
          "type": "uint64"
        }
      ],
      "name": "NameWrapped",
      "type": "event"
    },
    {
      "anonymous": false,
      "inputs": [
        {
          "indexed": true,
          "internalType": "address",
          "name": "previousOwner",
          "type": "address"
        },
        {
          "indexed": true,
          "internalType": "address",
          "name": "newOwner",
          "type": "address"
        }
      ],
      "name": "OwnershipTransferred",
      "type": "event"
    },
    {
      "anonymous": false,
      "inputs": [
        {
          "indexed": true,
          "internalType": "address",
          "name": "operator",
          "type": "address"
        },
        {
          "indexed": true,
          "internalType": "address",
          "name": "from",
          "type": "address"
        },
        {
          "indexed": true,
          "internalType": "address",
          "name": "to",
          "type": "address"
        },
        {
          "indexed": false,
          "internalType": "uint256[]",
          "name": "ids",
          "type": "uint256[]"
        },
        {
          "indexed": false,
          "internalType": "uint256[]",
          "name": "values",
          "type": "uint256[]"
        }
      ],
      "name": "TransferBatch",
      "type": "event"
    },
    {
      "anonymous": false,
      "inputs": [
        {
          "indexed": true,
          "internalType": "address",
          "name": "operator",
          "type": "address"
        },
        {
          "indexed": true,
          "internalType": "address",
          "name": "from",
          "type": "address"
        },
        {
          "indexed": true,
          "internalType": "address",
          "name": "to",
          "type": "address"
        },
        {
          "indexed": false,
          "internalType": "uint256",
          "name": "id",
          "type": "uint256"
        },
        {
          "indexed": false,
          "internalType": "uint256",
          "name": "value",
          "type": "uint256"
        }
      ],
      "name": "TransferSingle",
      "type": "event"
    },
    {
      "anonymous": false,
      "inputs": [
        {
          "indexed": false,
          "internalType": "string",
          "name": "value",
          "type": "string"
        },
        {
          "indexed": true,
          "internalType": "uint256",
          "name": "id",
          "type": "uint256"
        }
      ],
      "name": "URI",
      "type": "event"
    },
    {
      "inputs": [
        {
          "internalType": "uint256",
          "name": "",
          "type": "uint256"
        }
      ],
      "name": "_tokens",
      "outputs": [
        {
          "internalType": "uint256",
          "name": "",
          "type": "uint256"
        }
      ],
      "stateMutability": "view",
      "type": "function"
    },
    {
      "inputs": [
        {
          "internalType": "bytes32",
          "name": "node",
          "type": "bytes32"
        },
        {
          "internalType": "uint32",
          "name": "fuseMask",
          "type": "uint32"
        }
      ],
      "name": "allFusesBurned",
      "outputs": [
        {
          "internalType": "bool",
          "name": "",
          "type": "bool"
        }
      ],
      "stateMutability": "view",
      "type": "function"
    },
    {
      "inputs": [
        {
          "internalType": "address",
          "name": "to",
          "type": "address"
        },
        {
          "internalType": "uint256",
          "name": "tokenId",
          "type": "uint256"
        }
      ],
      "name": "approve",
      "outputs": [],
      "stateMutability": "nonpayable",
      "type": "function"
    },
    {
      "inputs": [
        {
          "internalType": "address",
          "name": "account",
          "type": "address"
        },
        {
          "internalType": "uint256",
          "name": "id",
          "type": "uint256"
        }
      ],
      "name": "balanceOf",
      "outputs": [
        {
          "internalType": "uint256",
          "name": "",
          "type": "uint256"
        }
      ],
      "stateMutability": "view",
      "type": "function"
    },
    {
      "inputs": [
        {
          "internalType": "address[]",
          "name": "accounts",
          "type": "address[]"
        },
        {
          "internalType": "uint256[]",
          "name": "ids",
          "type": "uint256[]"
        }
      ],
      "name": "balanceOfBatch",
      "outputs": [
        {
          "internalType": "uint256[]",
          "name": "",
          "type": "uint256[]"
        }
      ],
      "stateMutability": "view",
      "type": "function"
    },
    {
      "inputs": [
        {
          "internalType": "bytes32",
          "name": "node",
          "type": "bytes32"
        },
        {
          "internalType": "address",
          "name": "addr",
          "type": "address"
        }
      ],
      "name": "canModifyName",
      "outputs": [
        {
          "internalType": "bool",
          "name": "",
          "type": "bool"
        }
      ],
      "stateMutability": "view",
      "type": "function"
    },
    {
      "inputs": [
        {
          "internalType": "address",
          "name": "",
          "type": "address"
        }
      ],
      "name": "controllers",
      "outputs": [
        {
          "internalType": "bool",
          "name": "",
          "type": "bool"
        }
      ],
      "stateMutability": "view",
      "type": "function"
    },
    {
      "inputs": [],
      "name": "ens",
      "outputs": [
        {
          "internalType": "contract ENS",
          "name": "",
          "type": "address"
        }
      ],
      "stateMutability": "view",
      "type": "function"
    },
    {
      "inputs": [
        {
          "internalType": "bytes32",
          "name": "parentNode",
          "type": "bytes32"
        },
        {
          "internalType": "bytes32",
          "name": "labelhash",
          "type": "bytes32"
        },
        {
          "internalType": "uint64",
          "name": "expiry",
          "type": "uint64"
        }
      ],
      "name": "extendExpiry",
      "outputs": [
        {
          "internalType": "uint64",
          "name": "",
          "type": "uint64"
        }
      ],
      "stateMutability": "nonpayable",
      "type": "function"
    },
    {
      "inputs": [
        {
          "internalType": "uint256",
          "name": "id",
          "type": "uint256"
        }
      ],
      "name": "getApproved",
      "outputs": [
        {
          "internalType": "address",
          "name": "operator",
          "type": "address"
        }
      ],
      "stateMutability": "view",
      "type": "function"
    },
    {
      "inputs": [
        {
          "internalType": "uint256",
          "name": "id",
          "type": "uint256"
        }
      ],
      "name": "getData",
      "outputs": [
        {
          "internalType": "address",
          "name": "owner",
          "type": "address"
        },
        {
          "internalType": "uint32",
          "name": "fuses",
          "type": "uint32"
        },
        {
          "internalType": "uint64",
          "name": "expiry",
          "type": "uint64"
        }
      ],
      "stateMutability": "view",
      "type": "function"
    },
    {
      "inputs": [
        {
          "internalType": "address",
          "name": "account",
          "type": "address"
        },
        {
          "internalType": "address",
          "name": "operator",
          "type": "address"
        }
      ],
      "name": "isApprovedForAll",
      "outputs": [
        {
          "internalType": "bool",
          "name": "",
          "type": "bool"
        }
      ],
      "stateMutability": "view",
      "type": "function"
    },
    {
      "inputs": [],
      "name": "metadataService",
      "outputs": [
        {
          "internalType": "contract IMetadataService",
          "name": "",
          "type": "address"
        }
      ],
      "stateMutability": "view",
      "type": "function"
    },
    {
      "inputs": [
        {
          "internalType": "bytes32",
          "name": "",
          "type": "bytes32"
        }
      ],
      "name": "names",
      "outputs": [
        {
          "internalType": "bytes",
          "name": "",
          "type": "bytes"
        }
      ],
      "stateMutability": "view",
      "type": "function"
    },
    {
      "inputs": [],
      "name": "owner",
      "outputs": [
        {
          "internalType": "address",
          "name": "",
          "type": "address"
        }
      ],
      "stateMutability": "view",
      "type": "function"
    },
    {
      "inputs": [
        {
          "internalType": "uint256",
          "name": "id",
          "type": "uint256"
        }
      ],
      "name": "ownerOf",
      "outputs": [
        {
          "internalType": "address",
          "name": "owner",
          "type": "address"
        }
      ],
      "stateMutability": "view",
      "type": "function"
    },
    {
      "inputs": [
        {
          "internalType": "address",
          "name": "_token",
          "type": "address"
        },
        {
          "internalType": "address",
          "name": "_to",
          "type": "address"
        },
        {
          "internalType": "uint256",
          "name": "_amount",
          "type": "uint256"
        }
      ],
      "name": "recoverFunds",
      "outputs": [],
      "stateMutability": "nonpayable",
      "type": "function"
    },
    {
      "inputs": [
        {
          "internalType": "string",
          "name": "label",
          "type": "string"
        },
        {
          "internalType": "address",
          "name": "wrappedOwner",
          "type": "address"
        },
        {
          "internalType": "address",
          "name": "approved",
          "type": "address"
        },
        {
          "internalType": "uint256",
          "name": "duration",
          "type": "uint256"
        },
        {
          "internalType": "address",
          "name": "resolver",
          "type": "address"
        },
        {
          "internalType": "uint16",
          "name": "ownerControlledFuses",
          "type": "uint16"
        }
      ],
      "name": "registerAndWrapEth2LD",
      "outputs": [
        {
          "internalType": "uint64",
          "name": "expiry",
          "type": "uint64"
        }
      ],
      "stateMutability": "nonpayable",
      "type": "function"
    },
    {
      "inputs": [
        {
          "internalType": "bytes32",
          "name": "labelhash",
          "type": "bytes32"
        },
        {
          "internalType": "uint256",
          "name": "duration",
          "type": "uint256"
        }
      ],
      "name": "renewEth2LD",
      "outputs": [
        {
          "internalType": "uint64",
          "name": "expiry",
          "type": "uint64"
        }
      ],
      "stateMutability": "nonpayable",
      "type": "function"
    },
    {
      "inputs": [],
      "name": "renounceOwnership",
      "outputs": [],
      "stateMutability": "nonpayable",
      "type": "function"
    },
    {
      "inputs": [
        {
          "internalType": "address",
          "name": "from",
          "type": "address"
        },
        {
          "internalType": "address",
          "name": "to",
          "type": "address"
        },
        {
          "internalType": "uint256[]",
          "name": "ids",
          "type": "uint256[]"
        },
        {
          "internalType": "uint256[]",
          "name": "amounts",
          "type": "uint256[]"
        },
        {
          "internalType": "bytes",
          "name": "data",
          "type": "bytes"
        }
      ],
      "name": "safeBatchTransferFrom",
      "outputs": [],
      "stateMutability": "nonpayable",
      "type": "function"
    },
    {
      "inputs": [
        {
          "internalType": "address",
          "name": "from",
          "type": "address"
        },
        {
          "internalType": "address",
          "name": "to",
          "type": "address"
        },
        {
          "internalType": "uint256",
          "name": "id",
          "type": "uint256"
        },
        {
          "internalType": "uint256",
          "name": "amount",
          "type": "uint256"
        },
        {
          "internalType": "bytes",
          "name": "data",
          "type": "bytes"
        }
      ],
      "name": "safeTransferFrom",
      "outputs": [],
      "stateMutability": "nonpayable",
      "type": "function"
    },
    {
      "inputs": [
        {
          "internalType": "address",
          "name": "operator",
          "type": "address"
        },
        {
          "internalType": "bool",
          "name": "approved",
          "type": "bool"
        }
      ],
      "name": "setApprovalForAll",
      "outputs": [],
      "stateMutability": "nonpayable",
      "type": "function"
    },
    {
      "inputs": [
        {
          "internalType": "bytes32",
          "name": "parentNode",
          "type": "bytes32"
        },
        {
          "internalType": "bytes32",
          "name": "labelhash",
          "type": "bytes32"
        },
        {
          "internalType": "uint32",
          "name": "fuses",
          "type": "uint32"
        },
        {
          "internalType": "uint64",
          "name": "expiry",
          "type": "uint64"
        }
      ],
      "name": "setChildFuses",
      "outputs": [],
      "stateMutability": "nonpayable",
      "type": "function"
    },
    {
      "inputs": [
        {
          "internalType": "address",
          "name": "controller",
          "type": "address"
        },
        {
          "internalType": "bool",
          "name": "active",
          "type": "bool"
        }
      ],
      "name": "setController",
      "outputs": [],
      "stateMutability": "nonpayable",
      "type": "function"
    },
    {
      "inputs": [
        {
          "internalType": "bytes32",
          "name": "node",
          "type": "bytes32"
        },
        {
          "internalType": "uint16",
          "name": "ownerControlledFuses",
          "type": "uint16"
        }
      ],
      "name": "setFuses",
      "outputs": [
        {
          "internalType": "uint32",
          "name": "",
          "type": "uint32"
        }
      ],
      "stateMutability": "nonpayable",
      "type": "function"
    },
    {
      "inputs": [
        {
          "internalType": "contract IMetadataService",
          "name": "_metadataService",
          "type": "address"
        }
      ],
      "name": "setMetadataService",
      "outputs": [],
      "stateMutability": "nonpayable",
      "type": "function"
    },
    {
      "inputs": [
        {
          "internalType": "bytes32",
          "name": "node",
          "type": "bytes32"
        },
        {
          "internalType": "address",
          "name": "owner",
          "type": "address"
        },
        {
          "internalType": "address",
          "name": "resolver",
          "type": "address"
        },
        {
          "internalType": "uint64",
          "name": "ttl",
          "type": "uint64"
        }
      ],
      "name": "setRecord",
      "outputs": [],
      "stateMutability": "nonpayable",
      "type": "function"
    },
    {
      "inputs": [
        {
          "internalType": "bytes32",
          "name": "node",
          "type": "bytes32"
        },
        {
          "internalType": "address",
          "name": "resolver",
          "type": "address"
        }
      ],
      "name": "setResolver",
      "outputs": [],
      "stateMutability": "nonpayable",
      "type": "function"
    },
    {
      "inputs": [
        {
          "internalType": "bytes32",
          "name": "parentNode",
          "type": "bytes32"
        },
        {
          "internalType": "string",
          "name": "label",
          "type": "string"
        },
        {
          "internalType": "address",
          "name": "owner",
          "type": "address"
        },
        {
          "internalType": "address",
          "name": "approved",
          "type": "address"
        },
        {
          "internalType": "uint32",
          "name": "fuses",
          "type": "uint32"
        },
        {
          "internalType": "uint64",
          "name": "expiry",
          "type": "uint64"
        }
      ],
      "name": "setSubnodeOwner",
      "outputs": [
        {
          "internalType": "bytes32",
          "name": "node",
          "type": "bytes32"
        }
      ],
      "stateMutability": "nonpayable",
      "type": "function"
    },
    {
      "inputs": [
        {
          "internalType": "bytes32",
          "name": "parentNode",
          "type": "bytes32"
        },
        {
          "internalType": "string",
          "name": "label",
          "type": "string"
        },
        {
          "internalType": "address",
          "name": "owner",
          "type": "address"
        },
        {
          "internalType": "address",
          "name": "approved",
          "type": "address"
        },
        {
          "internalType": "address",
          "name": "resolver",
          "type": "address"
        },
        {
          "internalType": "uint64",
          "name": "ttl",
          "type": "uint64"
        },
        {
          "internalType": "uint32",
          "name": "fuses",
          "type": "uint32"
        },
        {
          "internalType": "uint64",
          "name": "expiry",
          "type": "uint64"
        }
      ],
      "name": "setSubnodeRecord",
      "outputs": [
        {
          "internalType": "bytes32",
          "name": "node",
          "type": "bytes32"
        }
      ],
      "stateMutability": "nonpayable",
      "type": "function"
    },
    {
      "inputs": [
        {
          "internalType": "bytes32",
          "name": "node",
          "type": "bytes32"
        },
        {
          "internalType": "uint64",
          "name": "ttl",
          "type": "uint64"
        }
      ],
      "name": "setTTL",
      "outputs": [],
      "stateMutability": "nonpayable",
      "type": "function"
    },
    {
      "inputs": [
        {
          "internalType": "contract INameWrapperUpgrade",
          "name": "_upgradeAddress",
          "type": "address"
        }
      ],
      "name": "setUpgradeContract",
      "outputs": [],
      "stateMutability": "nonpayable",
      "type": "function"
    },
    {
      "inputs": [
        {
          "internalType": "bytes4",
          "name": "interfaceId",
          "type": "bytes4"
        }
      ],
      "name": "supportsInterface",
      "outputs": [
        {
          "internalType": "bool",
          "name": "",
          "type": "bool"
        }
      ],
      "stateMutability": "view",
      "type": "function"
    },
    {
      "inputs": [
        {
          "internalType": "address",
          "name": "newOwner",
          "type": "address"
        }
      ],
      "name": "transferOwnership",
      "outputs": [],
      "stateMutability": "nonpayable",
      "type": "function"
    },
    {
      "inputs": [
        {
          "internalType": "bytes",
          "name": "name",
          "type": "bytes"
        },
        {
          "internalType": "bytes",
          "name": "extraData",
          "type": "bytes"
        }
      ],
      "name": "upgrade",
      "outputs": [],
      "stateMutability": "nonpayable",
      "type": "function"
    },
    {
      "inputs": [],
      "name": "upgradeContract",
      "outputs": [
        {
          "internalType": "contract INameWrapperUpgrade",
          "name": "",
          "type": "address"
        }
      ],
      "stateMutability": "view",
      "type": "function"
    },
    {
      "inputs": [
        {
          "internalType": "uint256",
          "name": "tokenId",
          "type": "uint256"
        }
      ],
      "name": "uri",
      "outputs": [
        {
          "internalType": "string",
          "name": "",
          "type": "string"
        }
      ],
      "stateMutability": "view",
      "type": "function"
    },
    {
      "inputs": [
        {
          "internalType": "bytes",
          "name": "name",
          "type": "bytes"
        },
        {
          "internalType": "address",
          "name": "wrappedOwner",
          "type": "address"
        },
        {
          "internalType": "uint32",
          "name": "fuses",
          "type": "uint32"
        },
        {
          "internalType": "uint64",
          "name": "expiry",
          "type": "uint64"
        }
      ],
      "name": "wrapTLD",
      "outputs": [
        {
          "internalType": "bytes32",
          "name": "",
          "type": "bytes32"
        }
      ],
      "stateMutability": "nonpayable",
      "type": "function"
    }
  ],
  "transactionHash": "0xadace8171d11cf042a3a1093902e2839979928ddc17d9b9515c5dfe2419b42ba",
  "args": [
    "0xffED83BDBd2F9906Ac12467288946cf7d8F6f599",
    "0x5fee95A0794bc172a1f716888CA4016bE3511026"
  ],
  "numDeployments": 3,
  "solcInputHash": "3dc7455bfb2dc1cb3bc79e98ee84422c",
  "bytecode": "0x60a06040523480156200001157600080fd5b5060405162004b4838038062004b488339810160408190526200003491620001ea565b6200003f3362000181565b6001600160a01b03828116608052600580546001600160a01b031916918316919091179055600163fffeffff60a01b03197fa6eef7e35abe7026729641147f7915573c7e97b47efa546f5f6e3230263bcb498190557fafa26c20e8b3d9a2853d642cfe1021dae26242ffedfac91c97aab212c1a4b93b55604080518082019091526001815260006020808301829052908052600790527f6d5257204ebe7d88fd91ae87941cb2dd9d8062b64ae5a2bd2d28ec40b9fbf6df90620001039082620002ce565b506040805180820190915260058152626cae8d60e31b6020808301919091527f93cdeb708b7545dc668eb9280176169d1c33cfd8ed6f04690a0bcc88a93fc4ae600052600790527f67a5df553dfa5ea6cf321241c7a45b123bd5d46f0e6183b7f22d603c884a435590620001789082620002ce565b5050506200039a565b600080546001600160a01b038381166001600160a01b0319831681178455604051919092169283917f8be0079c531659141344cd1fd0a4f28419497f9722a3daafe3b4186f6b6457e09190a35050565b6001600160a01b0381168114620001e757600080fd5b50565b60008060408385031215620001fe57600080fd5b82516200020b81620001d1565b60208401519092506200021e81620001d1565b809150509250929050565b634e487b7160e01b600052604160045260246000fd5b600181811c908216806200025457607f821691505b6020821081036200027557634e487b7160e01b600052602260045260246000fd5b50919050565b601f821115620002c957600081815260208120601f850160051c81016020861015620002a45750805b601f850160051c820191505b81811015620002c557828155600101620002b0565b5050505b505050565b81516001600160401b03811115620002ea57620002ea62000229565b6200030281620002fb84546200023f565b846200027b565b602080601f8311600181146200033a5760008415620003215750858301515b600019600386901b1c1916600185901b178555620002c5565b600085815260208120601f198616915b828110156200036b578886015182559484019460019091019084016200034a565b50858210156200038a5787850151600019600388901b60f8161c191681555b5050505050600190811b01905550565b60805161473062000418600039600081816103b201528181610810015281816108be0152818161096401528181610b1d01528181610c33015281816116ec0152818161178401528181611a0d01528181611bb301528181611d190152818161217b015281816129d601528181612e7301526130a001526147306000f3fe608060405234801561001057600080fd5b506004361061022c5760003560e01c80635d3590d51161013b578063c93ab3fd116100b8578063e985e9c51161007c578063e985e9c51461057a578063ed70554d1461058d578063f242432a146105ad578063f2fde38b146105c0578063faf047d1146105d357600080fd5b8063c93ab3fd1461050b578063cf4088231461051e578063d9f09cee14610531578063da8c229e14610544578063e0dba60f1461056757600080fd5b8063a22cb465116100ff578063a22cb465146104ac578063adf4960a146104bf578063b1b36f28146104d2578063b6bcad26146104e5578063c76795f5146104f857600080fd5b80635d3590d5146104425780636352211e146104555780636e5d6ad214610468578063715018a6146104935780638da5cb5b1461049b57600080fd5b80631896f70a116101c95780633f15457f1161018d5780633f15457f146103ad578063402906fc146103d457806341415eab146103fc5780634e1273f41461040f578063530954671461042f57600080fd5b80631896f70a1461034e5780631f4e15041461036157806320c38e2b146103745780632eb2c2d61461038757806333c69ea91461039a57600080fd5b8062fdd58e146102315780630178fe3f1461025757806301ffc9a71461029d578063081812fc146102c0578063095ea7b3146102e05780630cd57c4f146102f55780630e89341c1461030857806314ab9038146103285780631534e1771461033b575b600080fd5b61024461023f36600461351f565b6105e6565b6040519081526020015b60405180910390f35b61026a61026536600461354b565b610693565b604080516001600160a01b03909416845263ffffffff90921660208401526001600160401b03169082015260600161024e565b6102b06102ab36600461357a565b6106d4565b604051901515815260200161024e565b6102d36102ce36600461354b565b6106f9565b60405161024e9190613597565b6102f36102ee36600461351f565b61073e565b005b61024461030336600461361e565b610784565b61031b61031636600461354b565b610a1e565b60405161024e91906136e4565b6102f36103363660046136f7565b610a90565b6102f3610349366004613723565b610b8a565b6102f361035c366004613740565b610bb4565b6006546102d3906001600160a01b031681565b61031b61038236600461354b565b610c6a565b6102f36103953660046138d3565b610d04565b6102f36103a8366004613980565b610f42565b6102d37f000000000000000000000000000000000000000000000000000000000000000081565b6103e76103e23660046139d8565b61107d565b60405163ffffffff909116815260200161024e565b6102b061040a366004613740565b61111c565b61042261041d3660046139fb565b611172565b60405161024e9190613af8565b6005546102d3906001600160a01b031681565b6102f3610450366004613b0b565b61129b565b6102d361046336600461354b565b61131c565b61047b610476366004613b4c565b611327565b6040516001600160401b03909116815260200161024e565b6102f36114b8565b6000546001600160a01b03166102d3565b6102f36104ba366004613b8f565b6114cc565b6102b06104cd366004613bbd565b6115a2565b6102446104e0366004613be0565b6115c7565b6102f36104f3366004613723565b611856565b61047b610506366004613ca2565b611880565b6102f3610519366004613cc4565b611932565b6102f361052c366004613d2f565b611b10565b61047b61053f366004613d67565b611c65565b6102b0610552366004613723565b60046020526000908152604090205460ff1681565b6102f3610575366004613b8f565b611e09565b6102b0610588366004613dfb565b611e70565b61024461059b36600461354b565b60016020526000908152604090205481565b6102f36105bb366004613e29565b611e9e565b6102f36105ce366004613723565b611f4b565b6102446105e1366004613e91565b611fc4565b60006001600160a01b0383166106575760405162461bcd60e51b815260206004820152602b60248201527f455243313135353a2062616c616e636520717565727920666f7220746865207a60448201526a65726f206164647265737360a81b60648201526084015b60405180910390fd5b60006106628361131c565b9050836001600160a01b0316816001600160a01b03160361068757600191505061068d565b60009150505b92915050565b60008181526001602052604090205460a081901c60c082901c428110156106cd5761ffff19620100008316016106c857600092505b600091505b9193909250565b60006001600160e01b03198216630f909ab560e21b148061068d575061068d82612250565b6000806107058361131c565b90506001600160a01b03811661071e5750600092915050565b6000838152600360205260409020546001600160a01b03165b9392505050565b600061074982610693565b50915050603f1960408216016107755760405163a2a7201360e01b81526004810183905260240161064e565b61077f83836122a0565b505050565b6000806107cb600088888080601f01602080910402602001604051908101604052809392919081815260200183838082843760009201919091525092939250506123b09050565b50905060006107da8183612467565b60008181526007602052604090209091506107f6888a83613faa565b506040516302571be360e01b8152600481018290526000907f00000000000000000000000000000000000000000000000000000000000000006001600160a01b0316906302571be390602401602060405180830381865afa15801561085f573d6000803e3d6000fd5b505050506040513d601f19601f820116820180604052508101906108839190614063565b90506001600160a01b038116331480159061092b575060405163e985e9c560e01b81526001600160a01b0382811660048301523360248301527f0000000000000000000000000000000000000000000000000000000000000000169063e985e9c590604401602060405180830381865afa158015610905573d6000803e3d6000fd5b505050506040513d601f19601f820116820180604052508101906109299190614080565b155b1561094d578133604051636f2ff52760e01b815260040161064e92919061409d565b604051635b0fc9c360e01b81526001600160a01b037f00000000000000000000000000000000000000000000000000000000000000001690635b0fc9c39061099b908590309060040161409d565b600060405180830381600087803b1580156109b557600080fd5b505af11580156109c9573d6000803e3d6000fd5b50505050610a12828a8a8080601f0160208091040260200160405190810160405280939291908181526020018383808284376000920191909152508c92508b91508a9050612493565b50979650505050505050565b6005546040516303a24d0760e21b8152600481018390526060916001600160a01b031690630e89341c90602401600060405180830381865afa158015610a68573d6000803e3d6000fd5b505050506040513d6000823e601f3d908101601f1916820160405261068d91908101906140b4565b81610a9b813361111c565b610abc578033604051636f2ff52760e01b815260040161064e92919061409d565b8260106000610aca83610693565b5091505063ffffffff8282161615610af85760405163a2a7201360e01b81526004810184905260240161064e565b604051630295720760e31b8152600481018790526001600160401b03861660248201527f00000000000000000000000000000000000000000000000000000000000000006001600160a01b0316906314ab9038906044015b600060405180830381600087803b158015610b6a57600080fd5b505af1158015610b7e573d6000803e3d6000fd5b50505050505050505050565b610b926124e4565b600580546001600160a01b0319166001600160a01b0392909216919091179055565b81610bbf813361111c565b610be0578033604051636f2ff52760e01b815260040161064e92919061409d565b8260086000610bee83610693565b5091505063ffffffff8282161615610c1c5760405163a2a7201360e01b81526004810184905260240161064e565b604051630c4b7b8560e11b81526001600160a01b037f00000000000000000000000000000000000000000000000000000000000000001690631896f70a90610b50908990899060040161409d565b60076020526000908152604090208054610c8390613f15565b80601f0160208091040260200160405190810160405280929190818152602001828054610caf90613f15565b8015610cfc5780601f10610cd157610100808354040283529160200191610cfc565b820191906000526020600020905b815481529060010190602001808311610cdf57829003601f168201915b505050505081565b8151835114610d665760405162461bcd60e51b815260206004820152602860248201527f455243313135353a2069647320616e6420616d6f756e7473206c656e677468206044820152670dad2e6dac2e8c6d60c31b606482015260840161064e565b6001600160a01b038416610d8c5760405162461bcd60e51b815260040161064e9061412b565b6001600160a01b038516331480610da85750610da88533611e70565b610e0f5760405162461bcd60e51b815260206004820152603260248201527f455243313135353a207472616e736665722063616c6c6572206973206e6f74206044820152711bdddb995c881b9bdc88185c1c1c9bdd995960721b606482015260840161064e565b60005b8351811015610ed5576000848281518110610e2f57610e2f614170565b602002602001015190506000848381518110610e4d57610e4d614170565b602002602001015190506000806000610e6585610693565b925092509250610e7685838361253e565b836001148015610e9757508a6001600160a01b0316836001600160a01b0316145b610eb35760405162461bcd60e51b815260040161064e90614186565b610ebf858b84846125e7565b505050505080610ece906141e6565b9050610e12565b50836001600160a01b0316856001600160a01b0316336001600160a01b03167f4a39dc06d4c0dbc64b70af90fd698a233a518aa5d07e595d983b8c0526c8f7fb8686604051610f259291906141ff565b60405180910390a4610f3b338686868686612629565b5050505050565b6000610f4e8585612467565b9050610f5a818461278e565b60008080610f6784610693565b9194509250905060008080610f7b8b610693565b919450925090506000610f8d8861131c565b6001600160a01b031603610fb457604051635374b59960e01b815260040160405180910390fd5b8a610feb57610fc5338787876127c0565b610fe6578633604051636f2ff52760e01b815260040161064e92919061409d565b611018565b610ff7338484846127c0565b611018578a33604051636f2ff52760e01b815260040161064e92919061409d565b611023888583612803565b975063ffffffff89161580159061103e575062010000851615155b1561105f5760405163a2a7201360e01b81526004810188905260240161064e565b9784179761107087878b878c612849565b5050505050505050505050565b60008261108a813361111c565b6110ab578033604051636f2ff52760e01b815260040161064e92919061409d565b83600260006110b983610693565b5091505063ffffffff82821616156110e75760405163a2a7201360e01b81526004810184905260240161064e565b600080806110f48a610693565b92509250925061110d8a84848c61ffff16178485612849565b509550505b5050505092915050565b600080808061112a86610693565b925092509250846001600160a01b0316836001600160a01b0316148061115557506111558386611e70565b8015611168575061116682826128e5565b155b9695505050505050565b606081518351146111d75760405162461bcd60e51b815260206004820152602960248201527f455243313135353a206163636f756e747320616e6420696473206c656e677468604482015268040dad2e6dac2e8c6d60bb1b606482015260840161064e565b600083516001600160401b038111156111f2576111f2613770565b60405190808252806020026020018201604052801561121b578160200160208202803683370190505b50905060005b84518110156112935761126685828151811061123f5761123f614170565b602002602001015185838151811061125957611259614170565b60200260200101516105e6565b82828151811061127857611278614170565b602090810291909101015261128c816141e6565b9050611221565b509392505050565b6112a36124e4565b60405163a9059cbb60e01b81526001600160a01b0383811660048301526024820183905284169063a9059cbb906044016020604051808303816000875af11580156112f2573d6000803e3d6000fd5b505050506040513d601f19601f820116820180604052508101906113169190614080565b50505050565b600061068d82612915565b6000806113348585612467565b905060006113418261131c565b6001600160a01b03160361136857604051635374b59960e01b815260040160405180910390fd5b6000808061137584610693565b91945092509050600080806113898b610693565b92509250925061139b338484846127c0565b1580156113d557506113ac8b6106f9565b6001600160a01b0316336001600160a01b03161480156113d357506113d182826128e5565b155b155b80156113fa57506113e8338787876127c0565b80156113f8575062020000851615155b155b8015611420575061140a876106f9565b6001600160a01b0316336001600160a01b031614155b15611442578633604051636f2ff52760e01b815260040161064e92919061409d565b600061144d8c610693565b9250505061145c8a8683612803565b995061146a8888888d61292b565b6040516001600160401b038b16815288907ff675815a0817338f93a7da433f6bd5f5542f1029b11b455191ac96c7f6a9b1329060200160405180910390a250979a9950505050505050505050565b6114c06124e4565b6114ca6000612941565b565b6001600160a01b03821633036115365760405162461bcd60e51b815260206004820152602960248201527f455243313135353a2073657474696e6720617070726f76616c20737461747573604482015268103337b91039b2b63360b91b606482015260840161064e565b3360008181526002602090815260408083206001600160a01b03871680855290835292819020805460ff191686151590811790915590519081529192917f17307eab39ab6107e8899845ad3d59bd9653f200f220920489ca2b5937696c31910160405180910390a35050565b6000806115ae84610693565b50841663ffffffff908116908516149250505092915050565b6000886115d4813361111c565b6115f5578033604051636f2ff52760e01b815260040161064e92919061409d565b885160208a01206116068b82612467565b92506116106134b6565b8a81526001600160a01b038a16602082015261162b84610693565b6001600160401b0316608084015263ffffffff1660608301526001600160a01b0316604082015261165b8c610693565b6001600160401b031660e084015263ffffffff1660c083018190526001600160a01b0390911660a08301526040820151606083015160808401516116a3939288929091612991565b6116b68582608001518360e00151612803565b94506116c2848761278e565b60006116cf8d868e612aa2565b905060006116dc8661131c565b6001600160a01b031603611782577f00000000000000000000000000000000000000000000000000000000000000006001600160a01b0316635ef2c7f08e85308d8d6040518663ffffffff1660e01b815260040161173e959493929190614224565b600060405180830381600087803b15801561175857600080fd5b505af115801561176c573d6000803e3d6000fd5b5050505061177d85828d8a8a612493565b61182d565b7f00000000000000000000000000000000000000000000000000000000000000006001600160a01b0316635ef2c7f08e85308d8d6040518663ffffffff1660e01b81526004016117d6959493929190614224565b600060405180830381600087803b1580156117f057600080fd5b505af1158015611804573d6000803e3d6000fd5b5050505061182d8d86846040015185606001518660800151876000015188602001518e8e612c2d565b6001600160a01b038a1615611846576118468a86612c84565b5050505098975050505050505050565b61185e6124e4565b600680546001600160a01b0319166001600160a01b0392909216919091179055565b3360009081526004602052604081205460ff166118af5760405162461bcd60e51b815260040161064e90614259565b60006118c96000805160206146db83398151915285612467565b905060006118d68261131c565b6001600160a01b0316036118fd57604051635374b59960e01b815260040160405180910390fd5b6000808061190a84610693565b91945092509050611924866001600160401b0383166142a1565b94506111128484848861292b565b6000611978600086868080601f0160208091040260200160405190810160405280939291908181526020018383808284376000920191909152509293925050612cf29050565b90506000808061198784610693565b60065492955090935091506001600160a01b03166119b85760405163093075b560e21b815260040160405180910390fd5b6119c4338484846127c0565b6119e5578333604051636f2ff52760e01b815260040161064e92919061409d565b60006119f0856106f9565b600654604051635b0fc9c360e01b81529192506001600160a01b037f0000000000000000000000000000000000000000000000000000000000000000811692635b0fc9c392611a46928a9291169060040161409d565b600060405180830381600087803b158015611a6057600080fd5b505af1158015611a74573d6000803e3d6000fd5b50505050611a848560001c612db1565b600660009054906101000a90046001600160a01b03166001600160a01b0316639198c2768a8a878787878e8e6040518963ffffffff1660e01b8152600401611ad39897969594939291906142dd565b600060405180830381600087803b158015611aed57600080fd5b505af1158015611b01573d6000803e3d6000fd5b50505050505050505050505050565b83611b1b813361111c565b611b3c578033604051636f2ff52760e01b815260040161064e92919061409d565b84601c6000611b4a83610693565b5091505063ffffffff8282161615611b785760405163a2a7201360e01b81526004810184905260240161064e565b60405163cf40882360e01b8152600481018990523060248201526001600160a01b0387811660448301526001600160401b03871660648301527f0000000000000000000000000000000000000000000000000000000000000000169063cf40882390608401600060405180830381600087803b158015611bf757600080fd5b505af1158015611c0b573d6000803e3d6000fd5b5050506001600160a01b0388169050611c2c57611c2788612e27565b611c5b565b6000611c378961131c565b9050611c5981898b60001c600160405180602001604052806000815250612f19565b505b5050505050505050565b3360009081526004602052604081205460ff16611c945760405162461bcd60e51b815260040161064e90614259565b60008888604051611ca6929190614345565b60405190819003902090506000611ccb6000805160206146db83398151915283612467565b90506000611cd88261131c565b6001600160a01b031614611d025760405163a2a7201360e01b81526004810182905260240161064e565b6040516305ef2c7f60e41b81526001600160a01b037f00000000000000000000000000000000000000000000000000000000000000001690635ef2c7f090611d65906000805160206146db83398151915290869030906000908190600401614224565b600060405180830381600087803b158015611d7f57600080fd5b505af1158015611d93573d6000803e3d6000fd5b505050506276a7008642611da79190614355565b611db19190614355565b9250611dfc8a8a8080601f0160208091040260200160405190810160405280939291908181526020018383808284376000920191909152508c92508b91505061ffff8816878a612fe9565b5050979650505050505050565b611e116124e4565b6001600160a01b038216600081815260046020908152604091829020805460ff191685151590811790915591519182527f4c97694570a07277810af7e5669ffd5f6a2d6b74b6e9a274b8b870fd5114cf87910160405180910390a25050565b6001600160a01b03918216600090815260026020908152604080832093909416825291909152205460ff1690565b6001600160a01b038416611ec45760405162461bcd60e51b815260040161064e9061412b565b6001600160a01b038516331480611ee05750611ee08533611e70565b611f3e5760405162461bcd60e51b815260206004820152602960248201527f455243313135353a2063616c6c6572206973206e6f74206f776e6572206e6f7260448201526808185c1c1c9bdd995960ba1b606482015260840161064e565b610f3b8585858585612f19565b611f536124e4565b6001600160a01b038116611fb85760405162461bcd60e51b815260206004820152602660248201527f4f776e61626c653a206e6577206f776e657220697320746865207a65726f206160448201526564647265737360d01b606482015260840161064e565b611fc181612941565b50565b600087611fd1813361111c565b611ff2578033604051636f2ff52760e01b815260040161064e92919061409d565b60008888604051612004929190614345565b604051809103902090506120188a82612467565b92506120226134b6565b89898080601f0160208091040260200160405190810160405280939291908181526020018383808284376000920191909152505050908252506001600160a01b038816602082015261207384610693565b6001600160401b0316608084015263ffffffff1660608301526001600160a01b031660408201526120a38b610693565b6001600160401b031660e084015263ffffffff1660c083018190526040830151606084015160808501516120db945088929190612991565b6120ee8582608001518360e00151612803565b94506120fa848761278e565b600061213d8c868d8d8080601f016020809104026020016040519081016040528093929190818152602001838380828437600092019190915250612aa292505050565b9050600061214a8661131c565b6001600160a01b031603612203576040516306ab592360e01b8152600481018d9052602481018490523060448201527f00000000000000000000000000000000000000000000000000000000000000006001600160a01b0316906306ab5923906064016020604051808303816000875af11580156121cc573d6000803e3d6000fd5b505050506040513d601f19601f820116820180604052508101906121f0919061437c565b506121fe85828b8a8a612493565b612228565b6122288c86846040015185606001518660800151876000015188602001518e8e612c2d565b6001600160a01b03881615612241576122418886612c84565b50505050979650505050505050565b60006001600160e01b03198216636cdb3d1360e11b148061228157506001600160e01b031982166303a24d0760e21b145b8061068d57506301ffc9a760e01b6001600160e01b031983161461068d565b60006122ab8261131c565b9050806001600160a01b0316836001600160a01b0316036123185760405162461bcd60e51b815260206004820152602160248201527f4552433732313a20617070726f76616c20746f2063757272656e74206f776e656044820152603960f91b606482015260840161064e565b336001600160a01b038216148061233457506123348133611e70565b6123a65760405162461bcd60e51b815260206004820152603d60248201527f4552433732313a20617070726f76652063616c6c6572206973206e6f7420746f60448201527f6b656e206f776e6572206f7220617070726f76656420666f7220616c6c000000606482015260840161064e565b61077f8383612c84565b600080835183106124035760405162461bcd60e51b815260206004820152601e60248201527f726561644c6162656c3a20496e646578206f7574206f6620626f756e64730000604482015260640161064e565b600084848151811061241757612417614170565b016020015160f81c905080156124435761243c856124368660016142a1565b836130d7565b9250612448565b600092505b61245281856142a1565b61245d9060016142a1565b9150509250929050565b604080516020808201949094528082019290925280518083038201815260609092019052805191012090565b61249f858484846130fb565b847f8ce7013e8abebc55c3890a68f5a27c67c3f7efa64e584de5fb22363c606fd340858585856040516124d59493929190614395565b60405180910390a25050505050565b6000546001600160a01b031633146114ca5760405162461bcd60e51b815260206004820181905260248201527f4f776e61626c653a2063616c6c6572206973206e6f7420746865206f776e6572604482015260640161064e565b6203ffff196204000083160161255e5761255b6276a700826143dc565b90505b42816001600160401b0316101561259757620100008216156125925760405162461bcd60e51b815260040161064e90614186565b6125bc565b60048216156125bc5760405163a2a7201360e01b81526004810184905260240161064e565b6040821660000361077f575050600090815260036020526040902080546001600160a01b0319169055565b60c0816001600160401b0316901b60a08363ffffffff16901b846001600160a01b03161717600160008681526020019081526020016000208190555050505050565b6001600160a01b0384163b156127865760405163bc197c8160e01b81526001600160a01b0385169063bc197c819061266d90899089908890889088906004016143fc565b6020604051808303816000875af19250505080156126a8575060408051601f3d908101601f191682019092526126a59181019061445a565b60015b612754576126b4614477565b806308c379a0036126ed57506126c8614493565b806126d357506126ef565b8060405162461bcd60e51b815260040161064e91906136e4565b505b60405162461bcd60e51b815260206004820152603460248201527f455243313135353a207472616e7366657220746f206e6f6e20455243313135356044820152732932b1b2b4bb32b91034b6b83632b6b2b73a32b960611b606482015260840161064e565b6001600160e01b0319811663bc197c8160e01b146127845760405162461bcd60e51b815260040161064e9061451c565b505b505050505050565b6203007f81811763ffffffff16146127bc5760405163a2a7201360e01b81526004810183905260240161064e565b5050565b6000846001600160a01b0316846001600160a01b031614806127e757506127e78486611e70565b80156127fa57506127f883836128e5565b155b95945050505050565b6000816001600160401b0316846001600160401b03161115612823578193505b826001600160401b0316846001600160401b03161015612841578293505b509192915050565b6128558585858461292b565b60405163ffffffff8416815285907f39873f00c80f4f94b7bd1594aebcf650f003545b74824d57ddf4939e3ff3a34b9060200160405180910390a2816001600160401b0316816001600160401b03161115610f3b576040516001600160401b038216815285907ff675815a0817338f93a7da433f6bd5f5542f1029b11b455191ac96c7f6a9b132906020016124d5565b6000620400008381161480156107375750426129046276a700846143dc565b6001600160401b0316109392505050565b60008061292183610693565b5090949350505050565b6129358483613172565b611316848484846125e7565b600080546001600160a01b038381166001600160a01b0319831681178455604051919092169283917f8be0079c531659141344cd1fd0a4f28419497f9722a3daafe3b4186f6b6457e09190a35050565b42816001600160401b0316108015612a4c57506001600160a01b0383161580612a4c57506040516302571be360e01b8152600481018590526000906001600160a01b037f000000000000000000000000000000000000000000000000000000000000000016906302571be390602401602060405180830381865afa158015612a1d573d6000803e3d6000fd5b505050506040513d601f19601f82011682018060405250810190612a419190614063565b6001600160a01b0316145b15612a7b576020851615612a765760405163a2a7201360e01b81526004810185905260240161064e565b610f3b565b62010000821615610f3b5760405163a2a7201360e01b81526004810185905260240161064e565b6000828152600760205260409020805460609190612abf90613f15565b9050600003612b8d5760008481526007602052604081208054612b6a918591612ae790613f15565b80601f0160208091040260200160405190810160405280929190818152602001828054612b1390613f15565b8015612b605780601f10612b3557610100808354040283529160200191612b60565b820191906000526020600020905b815481529060010190602001808311612b4357829003601f168201915b50505050506131ad565b6000858152600760205260409020909150612b858282614564565b509050610737565b60008381526007602052604090208054612ba690613f15565b80601f0160208091040260200160405190810160405280929190818152602001828054612bd290613f15565b8015612c1f5780601f10612bf457610100808354040283529160200191612c1f565b820191906000526020600020905b815481529060010190602001808311612c0257829003601f168201915b505050505090509392505050565b612c38898986612aa2565b50612c4888888489178885612849565b6001600160a01b038316612c6457612c5f88612e27565b611c59565b611c5987848a60001c600160405180602001604052806000815250612f19565b600081815260036020526040902080546001600160a01b0319166001600160a01b0384169081179091558190612cb98261131c565b6001600160a01b03167f8c5be1e5ebec7d5bd14f71427d1e84f3dd0314c0f7b2291e5b200ac8c7c3b92560405160405180910390a45050565b6000806000612d0185856123b0565b909250905081612d735760018551612d19919061461d565b8414612d675760405162461bcd60e51b815260206004820152601d60248201527f6e616d65686173683a204a756e6b20617420656e64206f66206e616d65000000604482015260640161064e565b506000915061068d9050565b612d7d8582612cf2565b6040805160208101929092528101839052606001604051602081830303815290604052805190602001209250505092915050565b6000818152600160209081526040808320546003909252822080546001600160a01b03191690559060c082901c612dea848380846125e7565b60408051858152600160208201526000916001600160a01b0386169133916000805160206146bb833981519152910160405180910390a450505050565b612e328160016115a2565b15612e535760405163a2a7201360e01b81526004810182905260240161064e565b612e5c81612db1565b604051635b0fc9c360e01b81526001600160a01b037f00000000000000000000000000000000000000000000000000000000000000001690635b0fc9c390612eab90849060009060040161409d565b600060405180830381600087803b158015612ec557600080fd5b505af1158015612ed9573d6000803e3d6000fd5b50505050807fee2ba1195c65bcf218a83d874335c6bf9d9067b4c672f3c3bf16cf40de7586c46000604051612f0e9190613597565b60405180910390a250565b6000806000612f2786610693565b925092509250612f3886838361253e565b846001148015612f595750876001600160a01b0316836001600160a01b0316145b612f755760405162461bcd60e51b815260040161064e90614186565b866001600160a01b0316836001600160a01b031603612f9657505050610f3b565b612fa2868884846125e7565b60408051878152602081018790526001600160a01b03808a1692908b169133916000805160206146bb833981519152910160405180910390a4611c5b338989898989613224565b85516020870120600061300a6000805160206146db83398151915283612467565b9050600061303389604051806040016040528060058152602001626cae8d60e31b8152506131ad565b600083815260076020526040902090915061304e8282614564565b5061306182828a620500018a1789612493565b6001600160a01b0387161561307a5761307a8783612c84565b6001600160a01b03841615611c5957604051630c4b7b8560e11b81526001600160a01b037f00000000000000000000000000000000000000000000000000000000000000001690631896f70a90611ad3908590889060040161409d565b82516000906130e683856142a1565b11156130f157600080fd5b5091016020012090565b6131058483613172565b6000848152600160205260409020546001600160a01b038116156131665761312c85612db1565b847fee2ba1195c65bcf218a83d874335c6bf9d9067b4c672f3c3bf16cf40de7586c4600060405161315d9190613597565b60405180910390a25b610f3b858585856132df565b63ffffffff81161580159061318c57506201000081811614155b156127bc5760405163a2a7201360e01b81526004810183905260240161064e565b60606001835110156131d257604051631406d65b60e11b815260040160405180910390fd5b60ff835111156131f7578260405163e3ba295f60e01b815260040161064e91906136e4565b8251838360405160200161320d93929190614630565b604051602081830303815290604052905092915050565b6001600160a01b0384163b156127865760405163f23a6e6160e01b81526001600160a01b0385169063f23a6e61906132689089908990889088908890600401614675565b6020604051808303816000875af19250505080156132a3575060408051601f3d908101601f191682019092526132a09181019061445a565b60015b6132af576126b4614477565b6001600160e01b0319811663f23a6e6160e01b146127845760405162461bcd60e51b815260040161064e9061451c565b83600080806132ed84610693565b9194509250905063ffff000082166001600160401b038087169083161115613313578195505b42826001600160401b03161061332857958617955b6001600160a01b0384161561337f5760405162461bcd60e51b815260206004820152601f60248201527f455243313135353a206d696e74206f66206578697374696e6720746f6b656e00604482015260640161064e565b6001600160a01b0388166133df5760405162461bcd60e51b815260206004820152602160248201527f455243313135353a206d696e7420746f20746865207a65726f206164647265736044820152607360f81b606482015260840161064e565b306001600160a01b038916036134545760405162461bcd60e51b815260206004820152603460248201527f455243313135353a206e65774f776e65722063616e6e6f74206265207468652060448201527313985b5955dc985c1c195c8818dbdb9d1c9858dd60621b606482015260840161064e565b613460858989896125e7565b60408051868152600160208201526001600160a01b038a169160009133916000805160206146bb833981519152910160405180910390a4611c593360008a88600160405180602001604052806000815250613224565b6040805161010081018252606080825260006020830181905292820183905281018290526080810182905260a0810182905260c0810182905260e081019190915290565b6001600160a01b0381168114611fc157600080fd5b803561351a816134fa565b919050565b6000806040838503121561353257600080fd5b823561353d816134fa565b946020939093013593505050565b60006020828403121561355d57600080fd5b5035919050565b6001600160e01b031981168114611fc157600080fd5b60006020828403121561358c57600080fd5b813561073781613564565b6001600160a01b0391909116815260200190565b60008083601f8401126135bd57600080fd5b5081356001600160401b038111156135d457600080fd5b6020830191508360208285010111156135ec57600080fd5b9250929050565b803563ffffffff8116811461351a57600080fd5b80356001600160401b038116811461351a57600080fd5b60008060008060006080868803121561363657600080fd5b85356001600160401b0381111561364c57600080fd5b613658888289016135ab565b909650945050602086013561366c816134fa565b925061367a604087016135f3565b915061368860608701613607565b90509295509295909350565b60005b838110156136af578181015183820152602001613697565b50506000910152565b600081518084526136d0816020860160208601613694565b601f01601f19169290920160200192915050565b60208152600061073760208301846136b8565b6000806040838503121561370a57600080fd5b8235915061371a60208401613607565b90509250929050565b60006020828403121561373557600080fd5b8135610737816134fa565b6000806040838503121561375357600080fd5b823591506020830135613765816134fa565b809150509250929050565b634e487b7160e01b600052604160045260246000fd5b601f8201601f191681016001600160401b03811182821017156137ab576137ab613770565b6040525050565b60006001600160401b038211156137cb576137cb613770565b5060051b60200190565b600082601f8301126137e657600080fd5b813560206137f3826137b2565b6040516138008282613786565b83815260059390931b850182019282810191508684111561382057600080fd5b8286015b8481101561383b5780358352918301918301613824565b509695505050505050565b60006001600160401b0382111561385f5761385f613770565b50601f01601f191660200190565b600061387883613846565b6040516138858282613786565b80925084815285858501111561389a57600080fd5b8484602083013760006020868301015250509392505050565b600082601f8301126138c457600080fd5b6107378383356020850161386d565b600080600080600060a086880312156138eb57600080fd5b85356138f6816134fa565b94506020860135613906816134fa565b935060408601356001600160401b038082111561392257600080fd5b61392e89838a016137d5565b9450606088013591508082111561394457600080fd5b61395089838a016137d5565b9350608088013591508082111561396657600080fd5b50613973888289016138b3565b9150509295509295909350565b6000806000806080858703121561399657600080fd5b84359350602085013592506139ad604086016135f3565b91506139bb60608601613607565b905092959194509250565b803561ffff8116811461351a57600080fd5b600080604083850312156139eb57600080fd5b8235915061371a602084016139c6565b60008060408385031215613a0e57600080fd5b82356001600160401b0380821115613a2557600080fd5b818501915085601f830112613a3957600080fd5b81356020613a46826137b2565b604051613a538282613786565b83815260059390931b8501820192828101915089841115613a7357600080fd5b948201945b83861015613a9a578535613a8b816134fa565b82529482019490820190613a78565b96505086013592505080821115613ab057600080fd5b5061245d858286016137d5565b600081518084526020808501945080840160005b83811015613aed57815187529582019590820190600101613ad1565b509495945050505050565b6020815260006107376020830184613abd565b600080600060608486031215613b2057600080fd5b8335613b2b816134fa565b92506020840135613b3b816134fa565b929592945050506040919091013590565b600080600060608486031215613b6157600080fd5b8335925060208401359150613b7860408501613607565b90509250925092565b8015158114611fc157600080fd5b60008060408385031215613ba257600080fd5b8235613bad816134fa565b9150602083013561376581613b81565b60008060408385031215613bd057600080fd5b8235915061371a602084016135f3565b600080600080600080600080610100898b031215613bfd57600080fd5b8835975060208901356001600160401b03811115613c1a57600080fd5b8901601f81018b13613c2b57600080fd5b613c3a8b82356020840161386d565b9750506040890135613c4b816134fa565b95506060890135613c5b816134fa565b9450613c6960808a0161350f565b9350613c7760a08a01613607565b9250613c8560c08a016135f3565b9150613c9360e08a01613607565b90509295985092959890939650565b60008060408385031215613cb557600080fd5b50508035926020909101359150565b60008060008060408587031215613cda57600080fd5b84356001600160401b0380821115613cf157600080fd5b613cfd888389016135ab565b90965094506020870135915080821115613d1657600080fd5b50613d23878288016135ab565b95989497509550505050565b60008060008060808587031215613d4557600080fd5b843593506020850135613d57816134fa565b925060408501356139ad816134fa565b600080600080600080600060c0888a031215613d8257600080fd5b87356001600160401b03811115613d9857600080fd5b613da48a828b016135ab565b9098509650506020880135613db8816134fa565b94506040880135613dc8816134fa565b9350606088013592506080880135613ddf816134fa565b9150613ded60a089016139c6565b905092959891949750929550565b60008060408385031215613e0e57600080fd5b8235613e19816134fa565b91506020830135613765816134fa565b600080600080600060a08688031215613e4157600080fd5b8535613e4c816134fa565b94506020860135613e5c816134fa565b9350604086013592506060860135915060808601356001600160401b03811115613e8557600080fd5b613973888289016138b3565b600080600080600080600060c0888a031215613eac57600080fd5b8735965060208801356001600160401b03811115613ec957600080fd5b613ed58a828b016135ab565b9097509550506040880135613ee9816134fa565b93506060880135613ef9816134fa565b9250613f07608089016135f3565b9150613ded60a08901613607565b600181811c90821680613f2957607f821691505b602082108103613f4957634e487b7160e01b600052602260045260246000fd5b50919050565b601f82111561077f57600081815260208120601f850160051c81016020861015613f765750805b601f850160051c820191505b8181101561278657828155600101613f82565b600019600383901b1c191660019190911b1790565b6001600160401b03831115613fc157613fc1613770565b613fd583613fcf8354613f15565b83613f4f565b6000601f8411600181146140035760008515613ff15750838201355b613ffb8682613f95565b845550610f3b565b600083815260209020601f19861690835b828110156140345786850135825560209485019460019092019101614014565b50868210156140515760001960f88860031b161c19848701351681555b505060018560011b0183555050505050565b60006020828403121561407557600080fd5b8151610737816134fa565b60006020828403121561409257600080fd5b815161073781613b81565b9182526001600160a01b0316602082015260400190565b6000602082840312156140c657600080fd5b81516001600160401b038111156140dc57600080fd5b8201601f810184136140ed57600080fd5b80516140f881613846565b6040516141058282613786565b82815286602084860101111561411a57600080fd5b611168836020830160208701613694565b60208082526025908201527f455243313135353a207472616e7366657220746f20746865207a65726f206164604082015264647265737360d81b606082015260800190565b634e487b7160e01b600052603260045260246000fd5b6020808252602a908201527f455243313135353a20696e73756666696369656e742062616c616e636520666f60408201526939103a3930b739b332b960b11b606082015260800190565b634e487b7160e01b600052601160045260246000fd5b6000600182016141f8576141f86141d0565b5060010190565b6040815260006142126040830185613abd565b82810360208401526127fa8185613abd565b94855260208501939093526001600160a01b0391821660408501521660608301526001600160401b0316608082015260a00190565b60208082526028908201527f436f6e74726f6c6c61626c653a2043616c6c6572206973206e6f74206120636f604082015267373a3937b63632b960c11b606082015260800190565b8082018082111561068d5761068d6141d0565b81835281816020850137506000828201602090810191909152601f909101601f19169091010190565b60c0815260006142f160c083018a8c6142b4565b6001600160a01b03898116602085015263ffffffff891660408501526001600160401b03881660608501528616608084015282810360a08401526143368185876142b4565b9b9a5050505050505050505050565b8183823760009101908152919050565b6001600160401b03818116838216019080821115614375576143756141d0565b5092915050565b60006020828403121561438e57600080fd5b5051919050565b6080815260006143a860808301876136b8565b6001600160a01b039590951660208301525063ffffffff9290921660408301526001600160401b0316606090910152919050565b6001600160401b03828116828216039080821115614375576143756141d0565b6001600160a01b0386811682528516602082015260a06040820181905260009061442890830186613abd565b828103606084015261443a8186613abd565b9050828103608084015261444e81856136b8565b98975050505050505050565b60006020828403121561446c57600080fd5b815161073781613564565b600060033d11156144905760046000803e5060005160e01c5b90565b600060443d10156144a15790565b6040516003193d81016004833e81513d6001600160401b0381602484011181841117156144d057505050505090565b82850191508151818111156144e85750505050505090565b843d87010160208285010111156145025750505050505090565b61451160208286010187613786565b509095945050505050565b60208082526028908201527f455243313135353a204552433131353552656365697665722072656a656374656040820152676420746f6b656e7360c01b606082015260800190565b81516001600160401b0381111561457d5761457d613770565b6145918161458b8454613f15565b84613f4f565b602080601f8311600181146145c057600084156145ae5750858301515b6145b88582613f95565b865550612786565b600085815260208120601f198616915b828110156145ef578886015182559484019460019091019084016145d0565b508582101561460d5787850151600019600388901b60f8161c191681555b5050505050600190811b01905550565b8181038181111561068d5761068d6141d0565b60ff60f81b8460f81b16815260008351614651816001850160208801613694565b835190830190614668816001840160208801613694565b0160010195945050505050565b6001600160a01b03868116825285166020820152604081018490526060810183905260a0608082018190526000906146af908301846136b8565b97965050505050505056fec3d58168c5ae7397731d063d5bbf3d657854427343f4c083240f7aacaa2d0f6293cdeb708b7545dc668eb9280176169d1c33cfd8ed6f04690a0bcc88a93fc4aea26469706673582212201248839ec49a9e0b9678944c9bf420ae177fa2cf4536d39d71119e621d1ce75064736f6c63430008130033",
  "devdoc": {
    "events": {
      "Approval(address,address,uint256)": {
        "details": "Emitted when `owner` enables `approved` to manage the `tokenId` token."
      },
      "ApprovalForAll(address,address,bool)": {
        "details": "Emitted when `account` grants or revokes permission to `operator` to transfer their tokens, according to `approved`."
      },
      "TransferBatch(address,address,address,uint256[],uint256[])": {
        "details": "Equivalent to multiple {TransferSingle} events, where `operator`, `from` and `to` are the same for all transfers."
      },
      "TransferSingle(address,address,address,uint256,uint256)": {
        "details": "Emitted when `value` tokens of token type `id` are transferred from `from` to `to` by `operator`."
      },
      "URI(string,uint256)": {
        "details": "Emitted when the URI for token type `id` changes to `value`, if it is a non-programmatic URI. If an {URI} event was emitted for `id`, the standard https://eips.ethereum.org/EIPS/eip-1155#metadata-extensions[guarantees] that `value` will equal the value returned by {IERC1155MetadataURI-uri}."
      }
    },
    "kind": "dev",
    "methods": {
      "allFusesBurned(bytes32,uint32)": {
        "params": {
          "fuseMask": "The fuses you want to check",
          "node": "Namehash of the name"
        },
        "returns": {
          "_0": "Boolean of whether or not all the selected fuses are burned"
        }
      },
      "approve(address,uint256)": {
        "details": "Approved addresses are restricted to being able to renew the name or subnames of the name.      This is particularly useful for creating renewal controllers, contracts tasked with renewing      names for example for a fee.",
        "params": {
          "to": "address to approve",
          "tokenId": "name to approve"
        }
      },
      "balanceOf(address,uint256)": {
        "details": "See {IERC1155-balanceOf}. Requirements: - `account` cannot be the zero address."
      },
      "balanceOfBatch(address[],uint256[])": {
        "details": "See {IERC1155-balanceOfBatch}. Requirements: - `accounts` and `ids` must have the same length."
      },
      "canModifyName(bytes32,address)": {
        "params": {
          "addr": "The address to check for permissions.",
          "node": "The namehash of the name to check."
        },
        "returns": {
          "_0": "Whether or not the address is the owner or an operator of the name."
        }
      },
      "extendExpiry(bytes32,bytes32,uint64)": {
        "params": {
          "expiry": "The time when the name will expire in seconds since the Unix epoch.",
          "labelhash": "The labelhash of the name, e.g. vitalik.xyz would be keccak256('vitalik').",
          "parentNode": "The parent namehash of the name, e.g. vitalik.xyz would be namehash('xyz')."
        },
        "returns": {
          "_0": "The new expiry."
        }
      },
      "getApproved(uint256)": {
        "params": {
          "id": "Namehash of the name"
        },
        "returns": {
          "operator": "Approved operator of a name"
        }
      },
      "getData(uint256)": {
        "details": "If the name is expired, the fuses are set to 0. If the name is emancipated and       expired, both the fuses and the owner are set to 0.",
        "params": {
          "id": "Namehash of the name"
        },
        "returns": {
          "expiry": "The expiry of the name. ",
          "fuses": "The fuses of the name.",
          "owner": "The owner of the name."
        }
      },
      "isApprovedForAll(address,address)": {
        "details": "See {IERC1155-isApprovedForAll}."
      },
      "owner()": {
        "details": "Returns the address of the current owner."
      },
      "ownerOf(uint256)": {
        "params": {
          "id": "Label as a string of the .eth domain to wrap"
        },
        "returns": {
          "owner": "The owner of the name"
        }
      },
      "recoverFunds(address,address,uint256)": {
        "details": "The contract is Ownable and only the owner can call the recover function.",
        "params": {
          "_amount": "The amount of tokens to recover.",
          "_to": "The address to send the tokens to.",
          "_token": "The address of the ERC20 token to recover"
        }
      },
      "registerAndWrapEth2LD(string,address,address,uint256,address,uint16)": {
        "details": "Registers a new .eth second-level domain and wraps it.      Only callable by authorized controllers.",
        "params": {
          "approved": "The address to approve for the name.",
          "duration": "The duration, in seconds, to register the name for.",
          "label": "The label to register (Eg, 'foo' for 'foo.eth').",
          "ownerControlledFuses": "Initial owner-controlled fuses to set",
          "resolver": "The resolver address to set on the ENS registry (optional).",
          "wrappedOwner": "The owner of the wrapped name."
        },
        "returns": {
          "expiry": "The expiry date of the new name, in seconds since the Unix epoch."
        }
      },
      "renewEth2LD(bytes32,uint256)": {
        "details": "Only callable by authorized controllers.",
        "params": {
          "duration": "The number of seconds to renew the name for.",
          "labelhash": "The hash of the label to register (eg, `keccak256('foo')`, for 'foo.eth')."
        },
        "returns": {
          "expiry": "The expiry date of the name, in seconds since the Unix epoch."
        }
      },
      "renounceOwnership()": {
        "details": "Leaves the contract without owner. It will not be possible to call `onlyOwner` functions. Can only be called by the current owner. NOTE: Renouncing ownership will leave the contract without an owner, thereby disabling any functionality that is only available to the owner."
      },
      "safeBatchTransferFrom(address,address,uint256[],uint256[],bytes)": {
        "details": "See {IERC1155-safeBatchTransferFrom}."
      },
      "safeTransferFrom(address,address,uint256,uint256,bytes)": {
        "details": "See {IERC1155-safeTransferFrom}."
      },
      "setApprovalForAll(address,bool)": {
        "details": "See {IERC1155-setApprovalForAll}."
      },
      "setChildFuses(bytes32,bytes32,uint32,uint64)": {
        "params": {
          "expiry": "When the name will expire in seconds since the Unix epoch",
          "fuses": "Fuses to burn",
          "labelhash": "Labelhash of the name, e.g. vitalik.xyz would be keccak256('vitalik')",
          "parentNode": "Parent namehash of the name e.g. vitalik.xyz would be namehash('xyz')"
        }
      },
      "setFuses(bytes32,uint16)": {
        "params": {
          "node": "Namehash of the name",
          "ownerControlledFuses": "Owner-controlled fuses to burn"
        },
        "returns": {
          "_0": "Old fuses"
        }
      },
      "setMetadataService(address)": {
        "params": {
          "_metadataService": "The new metadata service"
        }
      },
      "setRecord(bytes32,address,address,uint64)": {
        "params": {
          "node": "Namehash of the name to set a record for",
          "owner": "New owner in the registry",
          "resolver": "Resolver contract",
          "ttl": "Time to live in the registry"
        }
      },
      "setResolver(bytes32,address)": {
        "params": {
          "node": "namehash of the name",
          "resolver": "the resolver contract"
        }
      },
      "setSubnodeOwner(bytes32,string,address,address,uint32,uint64)": {
        "params": {
          "approved": "Address to approve for the name",
          "expiry": "When the name will expire in seconds since the Unix epoch",
          "fuses": "Initial fuses for the wrapped subdomain",
          "label": "Label of the subdomain as a string",
          "owner": "New owner in the wrapper",
          "parentNode": "Parent namehash of the subdomain"
        },
        "returns": {
          "node": "Namehash of the subdomain"
        }
      },
      "setSubnodeRecord(bytes32,string,address,address,address,uint64,uint32,uint64)": {
        "params": {
          "approved": "address to approve for the name",
          "expiry": "When the name will expire in seconds since the Unix epoch",
          "fuses": "initial fuses for the wrapped subdomain",
          "label": "label of the subdomain as a string",
          "owner": "new owner in the wrapper",
          "parentNode": "parent namehash of the subdomain",
          "resolver": "resolver contract in the registry",
          "ttl": "ttl in the registry"
        },
        "returns": {
          "node": "Namehash of the subdomain"
        }
      },
      "setTTL(bytes32,uint64)": {
        "params": {
          "node": "Namehash of the name",
          "ttl": "TTL in the registry"
        }
      },
      "setUpgradeContract(address)": {
        "details": "The default value of upgradeContract is the 0 address. Use the 0 address at any time to make the contract not upgradable.",
        "params": {
          "_upgradeAddress": "address of an upgraded contract"
        }
      },
      "supportsInterface(bytes4)": {
        "params": {
          "interfaceId": "The interface id of the name."
        },
        "returns": {
          "_0": "The interface id. "
        }
      },
      "transferOwnership(address)": {
        "details": "Transfers ownership of the contract to a new account (`newOwner`). Can only be called by the current owner."
      },
      "upgrade(bytes,bytes)": {
        "details": "Can be called by the owner or an authorized caller",
        "params": {
          "extraData": "Extra data to pass to the upgrade contract",
          "name": "The name to upgrade, in DNS format"
        }
      },
      "uri(uint256)": {
        "params": {
          "tokenId": "The id of the token."
        },
        "returns": {
          "_0": "string The uri of the metadata service."
        }
      },
      "wrapTLD(bytes,address,uint32,uint64)": {
        "details": "Only callable by authorized controllers.",
        "params": {
          "expiry": "The expiry date of the name, in seconds since the Unix epoch.",
          "fuses": "Initial fuses to set on the name.",
          "name": "The name of the TLD, e.g. vitalik.xyz would be \"xyz\".",
          "wrappedOwner": "The owner of the name."
        }
      }
    },
    "version": 1
  },
  "userdoc": {
    "kind": "user",
    "methods": {
      "allFusesBurned(bytes32,uint32)": {
        "notice": "Checks all Fuses in the mask are burned for the node"
      },
      "approve(address,uint256)": {
        "notice": "Approves an address for a name"
      },
      "canModifyName(bytes32,address)": {
        "notice": "Checks if the address is the owner or operator of the name."
      },
      "extendExpiry(bytes32,bytes32,uint64)": {
        "notice": "A function to extend the expiry of a name."
      },
      "getApproved(uint256)": {
        "notice": "Gets the owner of a name"
      },
      "getData(uint256)": {
        "notice": "Gets the data for a name"
      },
      "names(bytes32)": {
        "notice": "In the ENS registry only the namehash of each name is stored and not the actual name. To make it easier to retrieve the human readable name, saved in bytes using the DNS format, we store it here. "
      },
      "ownerOf(uint256)": {
        "notice": "Gets the owner of a name"
      },
      "recoverFunds(address,address,uint256)": {
        "notice": "Recover ERC20 tokens sent to the contract by mistake."
      },
      "renewEth2LD(bytes32,uint256)": {
        "notice": "Renews a .eth second-level domain."
      },
      "setChildFuses(bytes32,bytes32,uint32,uint64)": {
        "notice": "Sets fuses of a name that you own the parent of"
      },
      "setFuses(bytes32,uint16)": {
        "notice": "Sets fuses of a name"
      },
      "setMetadataService(address)": {
        "notice": "Set the metadata service. Only the owner can do this"
      },
      "setRecord(bytes32,address,address,uint64)": {
        "notice": "Sets records for the name in the ENS Registry"
      },
      "setResolver(bytes32,address)": {
        "notice": "Sets resolver contract in the registry"
      },
      "setSubnodeOwner(bytes32,string,address,address,uint32,uint64)": {
        "notice": "Sets the subdomain owner in the registry and then wraps the subdomain"
      },
      "setSubnodeRecord(bytes32,string,address,address,address,uint64,uint32,uint64)": {
        "notice": "Sets the subdomain owner in the registry with records and then wraps the subdomain"
      },
      "setTTL(bytes32,uint64)": {
        "notice": "Sets TTL in the registry"
      },
      "setUpgradeContract(address)": {
        "notice": "Set the address of the upgradeContract of the contract. only admin can do this"
      },
      "supportsInterface(bytes4)": {
        "notice": "Provides support for ERC-165, allowing checking for interfaces. "
      },
      "upgrade(bytes,bytes)": {
        "notice": "Upgrades a domain of any kind. Could be a .eth name vitalik.eth,          a DNSSEC name vitalik.xyz, or a subdomain."
      },
      "uri(uint256)": {
        "notice": "Get the metadata uri."
      },
      "wrapTLD(bytes,address,uint32,uint64)": {
        "notice": "Wrap a new TLD, e.g. .xyz "
      }
    },
    "version": 1
  },
  "storageLayout": {
    "storage": [
      {
        "astId": 20134,
        "contract": "contracts/layertwo/optimism/wrapper/L2NameWrapper.sol:L2NameWrapper",
        "label": "_owner",
        "offset": 0,
        "slot": "0",
        "type": "t_address"
      },
      {
        "astId": 11070,
        "contract": "contracts/layertwo/optimism/wrapper/L2NameWrapper.sol:L2NameWrapper",
        "label": "_tokens",
        "offset": 0,
        "slot": "1",
        "type": "t_mapping(t_uint256,t_uint256)"
      },
      {
        "astId": 11076,
        "contract": "contracts/layertwo/optimism/wrapper/L2NameWrapper.sol:L2NameWrapper",
        "label": "_operatorApprovals",
        "offset": 0,
        "slot": "2",
        "type": "t_mapping(t_address,t_mapping(t_address,t_bool))"
      },
      {
        "astId": 11080,
        "contract": "contracts/layertwo/optimism/wrapper/L2NameWrapper.sol:L2NameWrapper",
        "label": "_tokenApprovals",
        "offset": 0,
        "slot": "3",
        "type": "t_mapping(t_uint256,t_address)"
      },
      {
        "astId": 11001,
        "contract": "contracts/layertwo/optimism/wrapper/L2NameWrapper.sol:L2NameWrapper",
        "label": "controllers",
        "offset": 0,
        "slot": "4",
        "type": "t_mapping(t_address,t_bool)"
      },
      {
        "astId": 1914,
        "contract": "contracts/layertwo/optimism/wrapper/L2NameWrapper.sol:L2NameWrapper",
        "label": "metadataService",
        "offset": 0,
        "slot": "5",
        "type": "t_contract(IMetadataService)12044"
      },
      {
        "astId": 1917,
        "contract": "contracts/layertwo/optimism/wrapper/L2NameWrapper.sol:L2NameWrapper",
        "label": "upgradeContract",
        "offset": 0,
        "slot": "6",
        "type": "t_contract(INameWrapperUpgrade)12062"
      },
      {
        "astId": 1922,
        "contract": "contracts/layertwo/optimism/wrapper/L2NameWrapper.sol:L2NameWrapper",
        "label": "names",
        "offset": 0,
        "slot": "7",
        "type": "t_mapping(t_bytes32,t_bytes_storage)"
      }
    ],
    "types": {
      "t_address": {
        "encoding": "inplace",
        "label": "address",
        "numberOfBytes": "20"
      },
      "t_bool": {
        "encoding": "inplace",
        "label": "bool",
        "numberOfBytes": "1"
      },
      "t_bytes32": {
        "encoding": "inplace",
        "label": "bytes32",
        "numberOfBytes": "32"
      },
      "t_bytes_storage": {
        "encoding": "bytes",
        "label": "bytes",
        "numberOfBytes": "32"
      },
      "t_contract(IMetadataService)12044": {
        "encoding": "inplace",
        "label": "contract IMetadataService",
        "numberOfBytes": "20"
      },
      "t_contract(INameWrapperUpgrade)12062": {
        "encoding": "inplace",
        "label": "contract INameWrapperUpgrade",
        "numberOfBytes": "20"
      },
      "t_mapping(t_address,t_bool)": {
        "encoding": "mapping",
        "key": "t_address",
        "label": "mapping(address => bool)",
        "numberOfBytes": "32",
        "value": "t_bool"
      },
      "t_mapping(t_address,t_mapping(t_address,t_bool))": {
        "encoding": "mapping",
        "key": "t_address",
        "label": "mapping(address => mapping(address => bool))",
        "numberOfBytes": "32",
        "value": "t_mapping(t_address,t_bool)"
      },
      "t_mapping(t_bytes32,t_bytes_storage)": {
        "encoding": "mapping",
        "key": "t_bytes32",
        "label": "mapping(bytes32 => bytes)",
        "numberOfBytes": "32",
        "value": "t_bytes_storage"
      },
      "t_mapping(t_uint256,t_address)": {
        "encoding": "mapping",
        "key": "t_uint256",
        "label": "mapping(uint256 => address)",
        "numberOfBytes": "32",
        "value": "t_address"
      },
      "t_mapping(t_uint256,t_uint256)": {
        "encoding": "mapping",
        "key": "t_uint256",
        "label": "mapping(uint256 => uint256)",
        "numberOfBytes": "32",
        "value": "t_uint256"
      },
      "t_uint256": {
        "encoding": "inplace",
        "label": "uint256",
        "numberOfBytes": "32"
      }
    }
  }
}