{
  "address": "0x767713a239c44Ad022A6721FD8018103AD580190",
  "abi": [
    {
      "inputs": [
        {
          "internalType": "contract INameWrapper",
          "name": "_nameWrapper",
          "type": "address"
        },
        {
          "internalType": "contract IAggregatorInterface",
          "name": "_usdOracle",
          "type": "address"
        }
      ],
      "stateMutability": "nonpayable",
      "type": "constructor"
    },
    {
      "inputs": [],
      "name": "CannotSetNewCharLengthAmount",
      "type": "error"
    },
    {
      "inputs": [],
      "name": "InsufficientValue",
      "type": "error"
    },
    {
      "inputs": [
        {
          "internalType": "bytes32",
          "name": "node",
          "type": "bytes32"
        }
      ],
      "name": "UnauthorizedAddress",
      "type": "error"
    },
    {
      "anonymous": false,
      "inputs": [
        {
          "indexed": true,
          "internalType": "address",
          "name": "_address",
          "type": "address"
        },
        {
          "indexed": true,
          "internalType": "uint256",
          "name": "amount",
          "type": "uint256"
        }
      ],
      "name": "AddressWithdrew",
      "type": "event"
    },
    {
      "anonymous": false,
      "inputs": [
        {
          "indexed": true,
          "internalType": "uint256[]",
          "name": "charAmounts",
          "type": "uint256[]"
        }
      ],
      "name": "CharPricesUpdated",
      "type": "event"
    },
    {
      "anonymous": false,
      "inputs": [
        {
          "indexed": true,
          "internalType": "bytes",
          "name": "name",
          "type": "bytes"
        },
        {
          "indexed": true,
          "internalType": "uint256",
          "name": "price",
          "type": "uint256"
        },
        {
          "indexed": true,
          "internalType": "uint64",
          "name": "expiry",
          "type": "uint64"
        }
      ],
      "name": "NameRenewed",
      "type": "event"
    },
    {
      "anonymous": false,
      "inputs": [],
      "name": "NameWrapperVersionUpdated",
      "type": "event"
    },
    {
      "anonymous": false,
      "inputs": [
        {
          "indexed": true,
          "internalType": "uint256",
          "name": "ownerCut",
          "type": "uint256"
        }
      ],
      "name": "OwnerCutSet",
      "type": "event"
    },
    {
      "anonymous": false,
      "inputs": [
        {
          "indexed": true,
          "internalType": "address",
          "name": "previousOwner",
          "type": "address"
        },
        {
          "indexed": true,
          "internalType": "address",
          "name": "newOwner",
          "type": "address"
        }
      ],
      "name": "OwnershipTransferred",
      "type": "event"
    },
    {
      "anonymous": false,
      "inputs": [
        {
          "indexed": true,
          "internalType": "uint256",
          "name": "index",
          "type": "uint256"
        },
        {
          "indexed": true,
          "internalType": "uint256",
          "name": "amount",
          "type": "uint256"
        }
      ],
      "name": "PriceForCharLengthUpdated",
      "type": "event"
    },
    {
      "anonymous": false,
      "inputs": [
        {
          "indexed": true,
          "internalType": "uint256",
          "name": "referrerCut",
          "type": "uint256"
        }
      ],
      "name": "ReferrerCutSet",
      "type": "event"
    },
    {
      "anonymous": false,
      "inputs": [],
      "name": "SubnameWrapperVersionUpdated",
      "type": "event"
    },
    {
      "inputs": [
        {
          "internalType": "contract INameWrapperUpgrade",
          "name": "_nameWrapper",
          "type": "address"
        }
      ],
      "name": "addNextNameWrapperVersion",
      "outputs": [],
      "stateMutability": "nonpayable",
      "type": "function"
    },
    {
      "inputs": [
        {
          "internalType": "uint256",
          "name": "amount",
          "type": "uint256"
        }
      ],
      "name": "addNextPriceForCharLength",
      "outputs": [],
      "stateMutability": "nonpayable",
      "type": "function"
    },
    {
      "inputs": [
        {
          "internalType": "address",
          "name": "",
          "type": "address"
        }
      ],
      "name": "balances",
      "outputs": [
        {
          "internalType": "uint256",
          "name": "",
          "type": "uint256"
        }
      ],
      "stateMutability": "view",
      "type": "function"
    },
    {
      "inputs": [
        {
          "internalType": "uint256",
          "name": "",
          "type": "uint256"
        }
      ],
      "name": "charAmounts",
      "outputs": [
        {
          "internalType": "uint256",
          "name": "",
          "type": "uint256"
        }
      ],
      "stateMutability": "view",
      "type": "function"
    },
    {
      "inputs": [],
      "name": "getLastCharIndex",
      "outputs": [
        {
          "internalType": "uint256",
          "name": "",
          "type": "uint256"
        }
      ],
      "stateMutability": "view",
      "type": "function"
    },
    {
      "inputs": [
        {
          "internalType": "uint256",
          "name": "",
          "type": "uint256"
        }
      ],
      "name": "nameWrappers",
      "outputs": [
        {
          "internalType": "address",
          "name": "",
          "type": "address"
        }
      ],
      "stateMutability": "view",
      "type": "function"
    },
    {
      "inputs": [],
      "name": "owner",
      "outputs": [
        {
          "internalType": "address",
          "name": "",
          "type": "address"
        }
      ],
      "stateMutability": "view",
      "type": "function"
    },
    {
      "inputs": [],
      "name": "ownerCut",
      "outputs": [
        {
          "internalType": "uint256",
          "name": "",
          "type": "uint256"
        }
      ],
      "stateMutability": "view",
      "type": "function"
    },
    {
      "inputs": [
        {
          "internalType": "address",
          "name": "_token",
          "type": "address"
        },
        {
          "internalType": "address",
          "name": "_to",
          "type": "address"
        },
        {
          "internalType": "uint256",
          "name": "_amount",
          "type": "uint256"
        }
      ],
      "name": "recoverFunds",
      "outputs": [],
      "stateMutability": "nonpayable",
      "type": "function"
    },
    {
      "inputs": [
        {
          "internalType": "address",
          "name": "",
          "type": "address"
        }
      ],
      "name": "referrerCuts",
      "outputs": [
        {
          "internalType": "uint256",
          "name": "",
          "type": "uint256"
        }
      ],
      "stateMutability": "view",
      "type": "function"
    },
    {
      "inputs": [
        {
          "internalType": "bytes",
          "name": "name",
          "type": "bytes"
        },
        {
          "internalType": "address",
          "name": "referrer",
          "type": "address"
        },
        {
          "internalType": "uint256",
          "name": "duration",
          "type": "uint256"
        }
      ],
      "name": "renew",
      "outputs": [],
      "stateMutability": "payable",
      "type": "function"
    },
    {
      "inputs": [
        {
          "internalType": "uint256",
          "name": "nameWrapperV",
          "type": "uint256"
        },
        {
          "internalType": "bytes",
          "name": "name",
          "type": "bytes"
        },
        {
          "internalType": "address",
          "name": "referrer",
          "type": "address"
        },
        {
          "internalType": "uint256",
          "name": "duration",
          "type": "uint256"
        }
      ],
      "name": "renewWithVersions",
      "outputs": [],
      "stateMutability": "payable",
      "type": "function"
    },
    {
      "inputs": [],
      "name": "renounceOwnership",
      "outputs": [],
      "stateMutability": "nonpayable",
      "type": "function"
    },
    {
      "inputs": [
        {
          "internalType": "bytes",
          "name": "name",
          "type": "bytes"
        },
        {
          "internalType": "uint256",
          "name": "duration",
          "type": "uint256"
        }
      ],
      "name": "rentPrice",
      "outputs": [
        {
          "internalType": "uint256",
          "name": "",
          "type": "uint256"
        },
        {
          "internalType": "uint256",
          "name": "",
          "type": "uint256"
        }
      ],
      "stateMutability": "view",
      "type": "function"
    },
    {
      "inputs": [
        {
          "internalType": "uint256",
          "name": "_ownerCut",
          "type": "uint256"
        }
      ],
      "name": "setOwnerCut",
      "outputs": [],
      "stateMutability": "nonpayable",
      "type": "function"
    },
    {
      "inputs": [
        {
          "internalType": "uint256[]",
          "name": "_charAmounts",
          "type": "uint256[]"
        }
      ],
      "name": "setPricingForAllLengths",
      "outputs": [],
      "stateMutability": "nonpayable",
      "type": "function"
    },
    {
      "inputs": [
        {
          "internalType": "uint256",
          "name": "_referrerCut",
          "type": "uint256"
        }
      ],
      "name": "setReferrerCut",
      "outputs": [],
      "stateMutability": "nonpayable",
      "type": "function"
    },
    {
      "inputs": [
        {
          "internalType": "bytes4",
          "name": "interfaceId",
          "type": "bytes4"
        }
      ],
      "name": "supportsInterface",
      "outputs": [
        {
          "internalType": "bool",
          "name": "",
          "type": "bool"
        }
      ],
      "stateMutability": "view",
      "type": "function"
    },
    {
      "inputs": [],
      "name": "totalBalance",
      "outputs": [
        {
          "internalType": "uint256",
          "name": "",
          "type": "uint256"
        }
      ],
      "stateMutability": "view",
      "type": "function"
    },
    {
      "inputs": [
        {
          "internalType": "address",
          "name": "newOwner",
          "type": "address"
        }
      ],
      "name": "transferOwnership",
      "outputs": [],
      "stateMutability": "nonpayable",
      "type": "function"
    },
    {
      "inputs": [
        {
          "internalType": "uint16",
          "name": "charLength",
          "type": "uint16"
        },
        {
          "internalType": "uint256",
          "name": "charAmount",
          "type": "uint256"
        }
      ],
      "name": "updatePriceForCharLength",
      "outputs": [],
      "stateMutability": "nonpayable",
      "type": "function"
    },
    {
      "inputs": [],
      "name": "usdOracle",
      "outputs": [
        {
          "internalType": "contract IAggregatorInterface",
          "name": "",
          "type": "address"
        }
      ],
      "stateMutability": "view",
      "type": "function"
    },
    {
      "inputs": [],
      "name": "withdraw",
      "outputs": [],
      "stateMutability": "nonpayable",
      "type": "function"
    }
  ],
  "transactionHash": "0x261c231095c2ce37ba4c43a2f3eecc1f0b887f781a90e0d437f0629e1d116110",
  "args": [
    "0x650E2705c595Ddb5f8e0B76fC3295F252f8aabB8",
    "0x1CF25555Eb74b587b4b3d9019d6Bf279E9920d25"
  ],
  "numDeployments": 1,
  "solcInputHash": "cad8f2b8710f80e95abb469eef5fbc7b",
  "bytecode": "0x600160a081815260e06040529060c0602080368337505081516200002b9260059250602001906200013e565b503480156200003957600080fd5b5060405162001fbf38038062001fbf8339810160408190526200005c9162000216565b816200006833620000ee565b60c860048190555080600560008154811062000088576200008862000255565b60009182526020918290200180546001600160a01b0319166001600160a01b03938416179055908316608052604080516001808252818301909252925090828101908036833750508151620000e5926006925060200190620001a8565b5050506200026b565b600080546001600160a01b038381166001600160a01b0319831681178455604051919092169283917f8be0079c531659141344cd1fd0a4f28419497f9722a3daafe3b4186f6b6457e09190a35050565b82805482825590600052602060002090810192821562000196579160200282015b828111156200019657825182546001600160a01b0319166001600160a01b039091161782556020909201916001909101906200015f565b50620001a4929150620001e6565b5090565b82805482825590600052602060002090810192821562000196579160200282015b8281111562000196578251825591602001919060010190620001c9565b5b80821115620001a45760008155600101620001e7565b6001600160a01b03811681146200021357600080fd5b50565b600080604083850312156200022a57600080fd5b82516200023781620001fd565b60208401519092506200024a81620001fd565b809150509250929050565b634e487b7160e01b600052603260045260246000fd5b608051611d316200028e600039600081816103ce01526115950152611d316000f3fe6080604052600436106101405760003560e01c806383b5ff8b116100b6578063c182dd711161006f578063c182dd711461037c578063c48561fe1461039c578063c8a4271f146103bc578063d4717432146103f0578063ddc0477d14610403578063f2fde38b1461043057600080fd5b806383b5ff8b146102cb5780638da5cb5b146102e1578063a996aeef14610313578063ad7a672f14610326578063ba8d24791461033c578063bae8fc081461035c57600080fd5b8063444a2d8d11610108578063444a2d8d146102015780635d3590d514610221578063715018a61461024157806371dc194f14610256578063757de5731461028b57806378693000146102ab57600080fd5b806301ffc9a71461014557806307213bc81461017a57806312ee468a1461019c57806327e235e3146101bf5780633ccfd60b146101ec575b600080fd5b34801561015157600080fd5b5061016561016036600461184f565b610450565b60405190151581526020015b60405180910390f35b34801561018657600080fd5b5061019a61019536600461188e565b610496565b005b3480156101a857600080fd5b506101b1610512565b604051908152602001610171565b3480156101cb57600080fd5b506101b16101da36600461188e565b60016020526000908152604090205481565b3480156101f857600080fd5b5061019a610529565b34801561020d57600080fd5b506101b161021c3660046118ab565b6106dd565b34801561022d57600080fd5b5061019a61023c3660046118c4565b6106fe565b34801561024d57600080fd5b5061019a61077f565b34801561026257600080fd5b5061027661027136600461194d565b610793565b60408051928352602083019190915201610171565b34801561029757600080fd5b5061019a6102a63660046118ab565b61089b565b3480156102b757600080fd5b5061019a6102c6366004611998565b61097a565b3480156102d757600080fd5b506101b160045481565b3480156102ed57600080fd5b506000546001600160a01b03165b6040516001600160a01b039091168152602001610171565b61019a6103213660046119cb565b610a0e565b34801561033257600080fd5b506101b160035481565b34801561034857600080fd5b5061019a610357366004611a27565b610a2a565b34801561036857600080fd5b5061019a6103773660046118ab565b610a8f565b34801561038857600080fd5b506102fb6103973660046118ab565b610b29565b3480156103a857600080fd5b5061019a6103b73660046118ab565b610b53565b3480156103c857600080fd5b506102fb7f000000000000000000000000000000000000000000000000000000000000000081565b61019a6103fe366004611a9b565b610bcb565b34801561040f57600080fd5b506101b161041e36600461188e565b60026020526000908152604090205481565b34801561043c57600080fd5b5061019a61044b36600461188e565b611223565b60006001600160e01b0319821663148f330d60e01b148061048157506001600160e01b031982166306c255bd60e51b145b80610490575061049082611299565b92915050565b61049e6112ce565b6005805460018101825560009182527f036b6384b5eca791c62761152d0c79bb0604c104a5fb6f4eb0703f3154bb3db00180546001600160a01b0319166001600160a01b0384161790556040517fe41a14cd176f2aecc84f8e04f138a2c318414e57c932ebe3e0bfc8864b0b9b529190a150565b60065460009061052490600190611b17565b905090565b3361053c6000546001600160a01b031690565b6001600160a01b0316816001600160a01b0316036105fd576000600354476105649190611b17565b9050600081116105b05760405162461bcd60e51b815260206004820152601260248201527104f776e65722062616c616e636520697320360741b60448201526064015b60405180910390fd5b60405181906001600160a01b038416907fb990971c3785a76fb59cf6aa8fe8327738148e676c6d46a6dea040c4b6b2609590600090a36105f96001600160a01b03831682611328565b5050565b6001600160a01b03811660009081526001602052604090205461065b5760405162461bcd60e51b815260206004820152601660248201527504164647265737327732062616c616e636520697320360541b60448201526064016105a7565b6001600160a01b0381166000908152600160205260408120805490829055600380549192839261068c908490611b17565b909155505060405181906001600160a01b038416907fb990971c3785a76fb59cf6aa8fe8327738148e676c6d46a6dea040c4b6b2609590600090a36105f96001600160a01b03831682611328565b50565b600681815481106106ed57600080fd5b600091825260209091200154905081565b6107066112ce565b60405163a9059cbb60e01b81526001600160a01b0383811660048301526024820183905284169063a9059cbb906044016020604051808303816000875af1158015610755573d6000803e3d6000fd5b505050506040513d601f19601f820116820180604052508101906107799190611b2a565b50505050565b6107876112ce565b6107916000611446565b565b60008060006107d786868080601f01602080910402602001604051908101604052809392919081815260200183838082843760009201919091525061149692505050565b600654909250905060008115610888578183101561083e576006838154811061080257610802611b4c565b906000526020600020015490508060000361083957600660008154811061082b5761082b611b4c565b906000526020600020015490505b610860565b600660008154811061085257610852611b4c565b906000526020600020015490505b61087261086d8783611b62565b611590565b61087c8783611b62565b94509450505050610893565b600080945094505050505b935093915050565b6000546001600160a01b031633146108f55760405162461bcd60e51b815260206004820152601e60248201527f4f6e6c7920746865206f776e65722063616e207365742074686520637574000060448201526064016105a7565b6101f48111156109475760405162461bcd60e51b815260206004820181905260248201527f4f776e6572206375742063616e6e6f74206265206d6f7265207468616e20352560448201526064016105a7565b600481905560405181907fd0097c261070735a2812d4540f4ac501d429da168de12584fb6302c6ea3abfd990600090a250565b6109826112ce565b60065461099190600190611b17565b8261ffff1611156109b5576040516301ed86c560e71b815260040160405180910390fd5b8060068361ffff16815481106109cd576109cd611b4c565b6000918252602082200191909155604051829161ffff8516917fbd063ae8df7c297bd537ffbf877dc501f28743564979c4af31e44463e8c39b929190a35050565b60055461077990610a2190600190611b17565b85858585610bcb565b610a326112ce565b610a3e600660006117d1565b610a4a600683836117ef565b508181604051610a5b929190611b79565b604051908190038120907f3139fe6c2f1a906b2193de359fa5a1db1389152550602fef08eef911f3ab8f7e90600090a25050565b6103e8811115610aed5760405162461bcd60e51b8152602060048201526024808201527f5265666572726572206375742063616e6e6f74206265206d6f7265207468616e6044820152632031302560e01b60648201526084016105a7565b336000908152600260205260408082208390555182917f5132aa1b4691ab49930b655c558addd21627fa35b28ff9695f3468d955c0e0a091a250565b60058181548110610b3957600080fd5b6000918252602090912001546001600160a01b0316905081565b610b5b6112ce565b600680546001818101835560008390527ff652222313e28459528d920b65115c16c04f3efc82aaedc97be59f3f377c0d3f90910183905590548291610b9f91611b17565b6040517fbd063ae8df7c297bd537ffbf877dc501f28743564979c4af31e44463e8c39b9290600090a350565b600080600080610c15600089898080601f01602080910402602001604051908101604052809392919081815260200183838082843760009201919091525092939250506116379050565b8092508193505050610c608189898080601f01602080910402602001604051908101604052809392919081815260200183838082843760009201919091525092939250506116ee9050565b60408051602080820184905281830186905282518083038401815260609092019092528051910120909450925050600060058981548110610ca357610ca3611b4c565b6000918252602090912001546040516331a9108f60e11b8152600481018690526001600160a01b0390911690636352211e90602401602060405180830381865afa158015610cf5573d6000803e3d6000fd5b505050506040513d601f19601f82011682018060405250810190610d199190611ba2565b9050600060058a81548110610d3057610d30611b4c565b6000918252602090912001546040516331a9108f60e11b8152600481018690526001600160a01b0390911690636352211e90602401602060405180830381865afa158015610d82573d6000803e3d6000fd5b505050506040513d601f19601f82011682018060405250810190610da69190611ba2565b9050336001600160a01b03821614801590610e4e575060058a81548110610dcf57610dcf611b4c565b60009182526020909120015460405163e985e9c560e01b81526001600160a01b0383811660048301523360248301529091169063e985e9c590604401602060405180830381865afa158015610e28573d6000803e3d6000fd5b505050506040513d601f19601f82011682018060405250810190610e4c9190611b2a565b155b15610e6f57604051635c20ef6960e11b8152600481018590526024016105a7565b60008060058c81548110610e8557610e85611b4c565b600091825260209091200154604051630178fe3f60e01b8152600481018890526001600160a01b0390911690630178fe3f90602401606060405180830381865afa158015610ed7573d6000803e3d6000fd5b505050506040513d601f19601f82011682018060405250810190610efb9190611bdb565b92505050600060058d81548110610f1457610f14611b4c565b600091825260209091200154604051630178fe3f60e01b8152600481018a90526001600160a01b0390911690630178fe3f90602401606060405180830381865afa158015610f66573d6000803e3d6000fd5b505050506040513d601f19601f82011682018060405250810190610f8a9190611bdb565b92505050806001600160401b031689836001600160401b0316610fad9190611c2c565b1115610fc957610fbd8282611c3f565b6001600160401b031698505b610fdc896001600160401b038416611c2c565b925050506000610fed8b8b8a610793565b509050803410156110115760405163044044a560e21b815260040160405180910390fd5b60006001600160a01b038a1615611086576001600160a01b038a16600090815260026020526040902054612710906110499084611b62565b6110539190611c66565b6001600160a01b038b16600090815260016020526040812080549293508392909190611080908490611c2c565b90915550505b6000612710600454846110999190611b62565b6110a39190611c66565b9050806110b08385611b17565b6110ba9190611b17565b6001600160a01b038716600090815260016020526040812080549091906110e2908490611c2c565b909155506110f290508184611b17565b600360008282546111039190611c2c565b92505081905550505060058c8154811061111f5761111f611b4c565b60009182526020909120015460405163372eb56960e11b815260048101899052602481018790526001600160401b03841660448201526001600160a01b0390911690636e5d6ad2906064016020604051808303816000875af1158015611189573d6000803e3d6000fd5b505050506040513d601f19601f820116820180604052508101906111ad9190611c88565b50816001600160401b0316818c8c6040516111c9929190611ca3565b604051908190038120907f0ef7ed3ee7f05ff559c931645cd3d52e8630d6ae2ef04acb8c6ce1fe2469fd4490600090a4803411156112155761121561120e8234611b17565b3390611328565b505050505050505050505050565b61122b6112ce565b6001600160a01b0381166112905760405162461bcd60e51b815260206004820152602660248201527f4f776e61626c653a206e6577206f776e657220697320746865207a65726f206160448201526564647265737360d01b60648201526084016105a7565b6106da81611446565b60006001600160e01b031982166306c255bd60e51b148061049057506301ffc9a760e01b6001600160e01b0319831614610490565b6000546001600160a01b031633146107915760405162461bcd60e51b815260206004820181905260248201527f4f776e61626c653a2063616c6c6572206973206e6f7420746865206f776e657260448201526064016105a7565b804710156113785760405162461bcd60e51b815260206004820152601d60248201527f416464726573733a20696e73756666696369656e742062616c616e636500000060448201526064016105a7565b6000826001600160a01b03168260405160006040518083038185875af1925050503d80600081146113c5576040519150601f19603f3d011682016040523d82523d6000602084013e6113ca565b606091505b50509050806114415760405162461bcd60e51b815260206004820152603a60248201527f416464726573733a20756e61626c6520746f2073656e642076616c75652c207260448201527f6563697069656e74206d6179206861766520726576657274656400000000000060648201526084016105a7565b505050565b600080546001600160a01b038381166001600160a01b0319831681178455604051919092169283917f8be0079c531659141344cd1fd0a4f28419497f9722a3daafe3b4186f6b6457e09190a35050565b6060600080836000815181106114ae576114ae611b4c565b0160200151845160f89190911c9150811080156114cb5750600081115b6114d457600080fd5b6000816001600160401b038111156114ee576114ee611cb3565b6040519080825280601f01601f191660200182016040528015611518576020820181803683370190505b50905060005b828110156115865785611532826001611c2c565b8151811061154257611542611b4c565b602001015160f81c60f81b82828151811061155f5761155f611b4c565b60200101906001600160f81b031916908160001a90535061157f81611cc9565b905061151e565b5094909350915050565b6000807f00000000000000000000000000000000000000000000000000000000000000006001600160a01b03166350d25bcd6040518163ffffffff1660e01b8152600401602060405180830381865afa1580156115f1573d6000803e3d6000fd5b505050506040513d601f19601f820116820180604052508101906116159190611ce2565b905080611626846305f5e100611b62565b6116309190611c66565b9392505050565b6000808351831061168a5760405162461bcd60e51b815260206004820152601e60248201527f726561644c6162656c3a20496e646578206f7574206f6620626f756e6473000060448201526064016105a7565b600084848151811061169e5761169e611b4c565b016020015160f81c905080156116ca576116c3856116bd866001611c2c565b836117ad565b92506116cf565b600092505b6116d98185611c2c565b6116e4906001611c2c565b9150509250929050565b60008060006116fd8585611637565b90925090508161176f57600185516117159190611b17565b84146117635760405162461bcd60e51b815260206004820152601d60248201527f6e616d65686173683a204a756e6b20617420656e64206f66206e616d6500000060448201526064016105a7565b50600091506104909050565b61177985826116ee565b6040805160208101929092528101839052606001604051602081830303815290604052805190602001209250505092915050565b82516000906117bc8385611c2c565b11156117c757600080fd5b5091016020012090565b50805460008255906000526020600020908101906106da919061183a565b82805482825590600052602060002090810192821561182a579160200282015b8281111561182a57823582559160200191906001019061180f565b5061183692915061183a565b5090565b5b80821115611836576000815560010161183b565b60006020828403121561186157600080fd5b81356001600160e01b03198116811461163057600080fd5b6001600160a01b03811681146106da57600080fd5b6000602082840312156118a057600080fd5b813561163081611879565b6000602082840312156118bd57600080fd5b5035919050565b6000806000606084860312156118d957600080fd5b83356118e481611879565b925060208401356118f481611879565b929592945050506040919091013590565b60008083601f84011261191757600080fd5b5081356001600160401b0381111561192e57600080fd5b60208301915083602082850101111561194657600080fd5b9250929050565b60008060006040848603121561196257600080fd5b83356001600160401b0381111561197857600080fd5b61198486828701611905565b909790965060209590950135949350505050565b600080604083850312156119ab57600080fd5b823561ffff811681146119bd57600080fd5b946020939093013593505050565b600080600080606085870312156119e157600080fd5b84356001600160401b038111156119f757600080fd5b611a0387828801611905565b9095509350506020850135611a1781611879565b9396929550929360400135925050565b60008060208385031215611a3a57600080fd5b82356001600160401b0380821115611a5157600080fd5b818501915085601f830112611a6557600080fd5b813581811115611a7457600080fd5b8660208260051b8501011115611a8957600080fd5b60209290920196919550909350505050565b600080600080600060808688031215611ab357600080fd5b8535945060208601356001600160401b03811115611ad057600080fd5b611adc88828901611905565b9095509350506040860135611af081611879565b949793965091946060013592915050565b634e487b7160e01b600052601160045260246000fd5b8181038181111561049057610490611b01565b600060208284031215611b3c57600080fd5b8151801515811461163057600080fd5b634e487b7160e01b600052603260045260246000fd5b808202811582820484141761049057610490611b01565b60006001600160fb1b03831115611b8f57600080fd5b8260051b80858437919091019392505050565b600060208284031215611bb457600080fd5b815161163081611879565b80516001600160401b0381168114611bd657600080fd5b919050565b600080600060608486031215611bf057600080fd5b8351611bfb81611879565b602085015190935063ffffffff81168114611c1557600080fd5b9150611c2360408501611bbf565b90509250925092565b8082018082111561049057610490611b01565b6001600160401b03828116828216039080821115611c5f57611c5f611b01565b5092915050565b600082611c8357634e487b7160e01b600052601260045260246000fd5b500490565b600060208284031215611c9a57600080fd5b61163082611bbf565b8183823760009101908152919050565b634e487b7160e01b600052604160045260246000fd5b600060018201611cdb57611cdb611b01565b5060010190565b600060208284031215611cf457600080fd5b505191905056fea2646970667358221220cc215e26acbcccf2de8e03201ba48c18e1855e4c7619d007bb8c7eb1b7ea422e64736f6c63430008130033",
  "devdoc": {
    "kind": "dev",
    "methods": {
      "addNextNameWrapperVersion(address)": {
        "params": {
          "_nameWrapper": "The next version of the NameWrapper"
        }
      },
      "addNextPriceForCharLength(uint256)": {
        "params": {
          "amount": "The amount in USD/sec. (with 18 digits of precision)  for a character count, e.g. amount for three characters."
        }
      },
      "getLastCharIndex()": {
        "returns": {
          "_0": "The length of the last character length that was set."
        }
      },
      "owner()": {
        "details": "Returns the address of the current owner."
      },
      "recoverFunds(address,address,uint256)": {
        "details": "The contract is Ownable and only the owner can call the recover function.",
        "params": {
          "_amount": "The amount of tokens to recover.",
          "_to": "The address to send the tokens to.",
          "_token": "The address of the ERC20 token to recover"
        }
      },
      "renew(bytes,address,uint256)": {
        "details": "Function to renew a name for a specified duration. ",
        "params": {
          "duration": "The duration for which the name should be renewed in years.",
          "name": "The name to be renewed in DNS format."
        }
      },
      "renewWithVersions(uint256,bytes,address,uint256)": {
        "details": "This function is allows for the upgradeing of the NameWrapper and SubnameWrapper contracts. It is not possible to know what the interface of the upgarded contracts will be, so we assume that they will be compatible with the current version of the contracts.",
        "params": {
          "duration": "The duration for which the name should be renewed in years.",
          "name": "The name to be renewed in DNS format.",
          "nameWrapperV": "The version of the NameWrapper."
        }
      },
      "renounceOwnership()": {
        "details": "Leaves the contract without owner. It will not be possible to call `onlyOwner` functions. Can only be called by the current owner. NOTE: Renouncing ownership will leave the contract without an owner, thereby disabling any functionality that is only available to the owner."
      },
      "rentPrice(bytes,uint256)": {
        "params": {
          "duration": "The amount of time the name will be rented for/extended in years. ",
          "name": "The name in DNS format, e.g. vault.vitalik.eth"
        },
        "returns": {
          "_0": "The rent price for the duration in Wei, and USD. "
        }
      },
      "setOwnerCut(uint256)": {
        "params": {
          "_ownerCut": "The cut for the owner of the contract."
        }
      },
      "setPricingForAllLengths(uint256[])": {
        "params": {
          "_charAmounts": "An array of amounst for each characer length."
        }
      },
      "setReferrerCut(uint256)": {
        "params": {
          "_referrerCut": "The percentage cut given to the referrer (0-10%)."
        }
      },
      "supportsInterface(bytes4)": {
        "params": {
          "interfaceId": "The interface identifier, as specified in ERC-165."
        },
        "returns": {
          "_0": "`true` if the contract implements `interfaceID`"
        }
      },
      "transferOwnership(address)": {
        "details": "Transfers ownership of the contract to a new account (`newOwner`). Can only be called by the current owner."
      },
      "updatePriceForCharLength(uint16,uint256)": {
        "params": {
          "charAmount": "The amount in USD/year for a character count, e.g. amount for three characters.",
          "charLength": "The character length, e.g. 3 would be for three characters. Use 0 for the default amount."
        }
      }
    },
    "version": 1
  },
  "userdoc": {
    "kind": "user",
    "methods": {
      "addNextNameWrapperVersion(address)": {
        "notice": "If the NameWrapper smart contract is upgraded, add the new version."
      },
      "addNextPriceForCharLength(uint256)": {
        "notice": "Adds a price for the next character length, e.g. three characters."
      },
      "getLastCharIndex()": {
        "notice": "Get the last length for a character length that has a price (can be 0), e.g. three characters."
      },
      "recoverFunds(address,address,uint256)": {
        "notice": "Recover ERC20 tokens sent to the contract by mistake."
      },
      "renewWithVersions(uint256,bytes,address,uint256)": {
        "notice": "Function to renew a name for a specified duration. "
      },
      "rentPrice(bytes,uint256)": {
        "notice": "Gets the total cost of rent in wei, from the unitPrice, i.e. USD, and duration."
      },
      "setOwnerCut(uint256)": {
        "notice": "A function to set the cut for the owner of the contract."
      },
      "setPricingForAllLengths(uint256[])": {
        "notice": "Set the pricing for subname lengths."
      },
      "setReferrerCut(uint256)": {
        "notice": "A function to set the referrer cut percentage for a specific referrer."
      },
      "updatePriceForCharLength(uint16,uint256)": {
        "notice": "Set a price for a single character length, e.g. three characters."
      },
      "withdraw()": {
        "notice": "A function to allow referrers, name owners, or the contract owner to withdraw."
      }
    },
    "version": 1
  },
  "storageLayout": {
    "storage": [
      {
        "astId": 56156,
        "contract": "contracts/layertwo/optimism/wrapper/renewalControllers/L2PricePerCharRenewalController.sol:L2PricePerCharRenewalController",
        "label": "_owner",
        "offset": 0,
        "slot": "0",
        "type": "t_address"
      },
      {
        "astId": 320,
        "contract": "contracts/layertwo/optimism/wrapper/renewalControllers/L2PricePerCharRenewalController.sol:L2PricePerCharRenewalController",
        "label": "balances",
        "offset": 0,
        "slot": "1",
        "type": "t_mapping(t_address,t_uint256)"
      },
      {
        "astId": 324,
        "contract": "contracts/layertwo/optimism/wrapper/renewalControllers/L2PricePerCharRenewalController.sol:L2PricePerCharRenewalController",
        "label": "referrerCuts",
        "offset": 0,
        "slot": "2",
        "type": "t_mapping(t_address,t_uint256)"
      },
      {
        "astId": 326,
        "contract": "contracts/layertwo/optimism/wrapper/renewalControllers/L2PricePerCharRenewalController.sol:L2PricePerCharRenewalController",
        "label": "totalBalance",
        "offset": 0,
        "slot": "3",
        "type": "t_uint256"
      },
      {
        "astId": 328,
        "contract": "contracts/layertwo/optimism/wrapper/renewalControllers/L2PricePerCharRenewalController.sol:L2PricePerCharRenewalController",
        "label": "ownerCut",
        "offset": 0,
        "slot": "4",
        "type": "t_uint256"
      },
      {
        "astId": 4308,
        "contract": "contracts/layertwo/optimism/wrapper/renewalControllers/L2PricePerCharRenewalController.sol:L2PricePerCharRenewalController",
        "label": "nameWrappers",
        "offset": 0,
        "slot": "5",
        "type": "t_array(t_address)dyn_storage"
      },
      {
        "astId": 6900,
        "contract": "contracts/layertwo/optimism/wrapper/renewalControllers/L2PricePerCharRenewalController.sol:L2PricePerCharRenewalController",
        "label": "charAmounts",
        "offset": 0,
        "slot": "6",
        "type": "t_array(t_uint256)dyn_storage"
      }
    ],
    "types": {
      "t_address": {
        "encoding": "inplace",
        "label": "address",
        "numberOfBytes": "20"
      },
      "t_array(t_address)dyn_storage": {
        "base": "t_address",
        "encoding": "dynamic_array",
        "label": "address[]",
        "numberOfBytes": "32"
      },
      "t_array(t_uint256)dyn_storage": {
        "base": "t_uint256",
        "encoding": "dynamic_array",
        "label": "uint256[]",
        "numberOfBytes": "32"
      },
      "t_mapping(t_address,t_uint256)": {
        "encoding": "mapping",
        "key": "t_address",
        "label": "mapping(address => uint256)",
        "numberOfBytes": "32",
        "value": "t_uint256"
      },
      "t_uint256": {
        "encoding": "inplace",
        "label": "uint256",
        "numberOfBytes": "32"
      }
    }
  }
}