{
  "address": "0x46Abb10E2A30F16DFFB7702b99F6BDd42fE6f471",
  "abi": [
    {
      "inputs": [
        {
          "internalType": "contract INameWrapper",
          "name": "_nameWrapper",
          "type": "address"
        },
        {
          "internalType": "contract IAggregatorInterface",
          "name": "_usdOracle",
          "type": "address"
        }
      ],
      "stateMutability": "nonpayable",
      "type": "constructor"
    },
    {
      "inputs": [],
      "name": "CannotSetNewCharLengthAmount",
      "type": "error"
    },
    {
      "inputs": [],
      "name": "InsufficientValue",
      "type": "error"
    },
    {
      "inputs": [
        {
          "internalType": "bytes32",
          "name": "node",
          "type": "bytes32"
        }
      ],
      "name": "UnauthorizedAddress",
      "type": "error"
    },
    {
      "anonymous": false,
      "inputs": [
        {
          "indexed": true,
          "internalType": "address",
          "name": "_address",
          "type": "address"
        },
        {
          "indexed": true,
          "internalType": "uint256",
          "name": "amount",
          "type": "uint256"
        }
      ],
      "name": "AddressWithdrew",
      "type": "event"
    },
    {
      "anonymous": false,
      "inputs": [
        {
          "indexed": true,
          "internalType": "uint256[]",
          "name": "charAmounts",
          "type": "uint256[]"
        }
      ],
      "name": "CharPricesUpdated",
      "type": "event"
    },
    {
      "anonymous": false,
      "inputs": [
        {
          "indexed": true,
          "internalType": "bytes",
          "name": "name",
          "type": "bytes"
        },
        {
          "indexed": true,
          "internalType": "uint256",
          "name": "price",
          "type": "uint256"
        },
        {
          "indexed": true,
          "internalType": "uint64",
          "name": "expiry",
          "type": "uint64"
        }
      ],
      "name": "NameRenewed",
      "type": "event"
    },
    {
      "anonymous": false,
      "inputs": [],
      "name": "NameWrapperVersionUpdated",
      "type": "event"
    },
    {
      "anonymous": false,
      "inputs": [
        {
          "indexed": true,
          "internalType": "uint256",
          "name": "ownerCut",
          "type": "uint256"
        }
      ],
      "name": "OwnerCutSet",
      "type": "event"
    },
    {
      "anonymous": false,
      "inputs": [
        {
          "indexed": true,
          "internalType": "address",
          "name": "previousOwner",
          "type": "address"
        },
        {
          "indexed": true,
          "internalType": "address",
          "name": "newOwner",
          "type": "address"
        }
      ],
      "name": "OwnershipTransferred",
      "type": "event"
    },
    {
      "anonymous": false,
      "inputs": [
        {
          "indexed": true,
          "internalType": "uint256",
          "name": "index",
          "type": "uint256"
        },
        {
          "indexed": true,
          "internalType": "uint256",
          "name": "amount",
          "type": "uint256"
        }
      ],
      "name": "PriceForCharLengthUpdated",
      "type": "event"
    },
    {
      "anonymous": false,
      "inputs": [
        {
          "indexed": true,
          "internalType": "uint256",
          "name": "referrerCut",
          "type": "uint256"
        }
      ],
      "name": "ReferrerCutSet",
      "type": "event"
    },
    {
      "anonymous": false,
      "inputs": [],
      "name": "SubnameWrapperVersionUpdated",
      "type": "event"
    },
    {
      "inputs": [
        {
          "internalType": "contract INameWrapperUpgrade",
          "name": "_nameWrapper",
          "type": "address"
        }
      ],
      "name": "addNextNameWrapperVersion",
      "outputs": [],
      "stateMutability": "nonpayable",
      "type": "function"
    },
    {
      "inputs": [
        {
          "internalType": "uint256",
          "name": "amount",
          "type": "uint256"
        }
      ],
      "name": "addNextPriceForCharLength",
      "outputs": [],
      "stateMutability": "nonpayable",
      "type": "function"
    },
    {
      "inputs": [
        {
          "internalType": "address",
          "name": "",
          "type": "address"
        }
      ],
      "name": "balances",
      "outputs": [
        {
          "internalType": "uint256",
          "name": "",
          "type": "uint256"
        }
      ],
      "stateMutability": "view",
      "type": "function"
    },
    {
      "inputs": [
        {
          "internalType": "uint256",
          "name": "",
          "type": "uint256"
        }
      ],
      "name": "charAmounts",
      "outputs": [
        {
          "internalType": "uint256",
          "name": "",
          "type": "uint256"
        }
      ],
      "stateMutability": "view",
      "type": "function"
    },
    {
      "inputs": [],
      "name": "getLastCharIndex",
      "outputs": [
        {
          "internalType": "uint256",
          "name": "",
          "type": "uint256"
        }
      ],
      "stateMutability": "view",
      "type": "function"
    },
    {
      "inputs": [
        {
          "internalType": "uint256",
          "name": "",
          "type": "uint256"
        }
      ],
      "name": "nameWrappers",
      "outputs": [
        {
          "internalType": "address",
          "name": "",
          "type": "address"
        }
      ],
      "stateMutability": "view",
      "type": "function"
    },
    {
      "inputs": [],
      "name": "owner",
      "outputs": [
        {
          "internalType": "address",
          "name": "",
          "type": "address"
        }
      ],
      "stateMutability": "view",
      "type": "function"
    },
    {
      "inputs": [],
      "name": "ownerCut",
      "outputs": [
        {
          "internalType": "uint256",
          "name": "",
          "type": "uint256"
        }
      ],
      "stateMutability": "view",
      "type": "function"
    },
    {
      "inputs": [
        {
          "internalType": "address",
          "name": "_token",
          "type": "address"
        },
        {
          "internalType": "address",
          "name": "_to",
          "type": "address"
        },
        {
          "internalType": "uint256",
          "name": "_amount",
          "type": "uint256"
        }
      ],
      "name": "recoverFunds",
      "outputs": [],
      "stateMutability": "nonpayable",
      "type": "function"
    },
    {
      "inputs": [
        {
          "internalType": "address",
          "name": "",
          "type": "address"
        }
      ],
      "name": "referrerCuts",
      "outputs": [
        {
          "internalType": "uint256",
          "name": "",
          "type": "uint256"
        }
      ],
      "stateMutability": "view",
      "type": "function"
    },
    {
      "inputs": [
        {
          "internalType": "bytes",
          "name": "name",
          "type": "bytes"
        },
        {
          "internalType": "address",
          "name": "referrer",
          "type": "address"
        },
        {
          "internalType": "uint256",
          "name": "duration",
          "type": "uint256"
        }
      ],
      "name": "renew",
      "outputs": [],
      "stateMutability": "payable",
      "type": "function"
    },
    {
      "inputs": [
        {
          "internalType": "uint256",
          "name": "nameWrapperV",
          "type": "uint256"
        },
        {
          "internalType": "bytes",
          "name": "name",
          "type": "bytes"
        },
        {
          "internalType": "address",
          "name": "referrer",
          "type": "address"
        },
        {
          "internalType": "uint256",
          "name": "duration",
          "type": "uint256"
        }
      ],
      "name": "renewWithVersions",
      "outputs": [],
      "stateMutability": "payable",
      "type": "function"
    },
    {
      "inputs": [],
      "name": "renounceOwnership",
      "outputs": [],
      "stateMutability": "nonpayable",
      "type": "function"
    },
    {
      "inputs": [
        {
          "internalType": "bytes",
          "name": "name",
          "type": "bytes"
        },
        {
          "internalType": "uint256",
          "name": "duration",
          "type": "uint256"
        }
      ],
      "name": "rentPrice",
      "outputs": [
        {
          "internalType": "uint256",
          "name": "",
          "type": "uint256"
        },
        {
          "internalType": "uint256",
          "name": "",
          "type": "uint256"
        }
      ],
      "stateMutability": "view",
      "type": "function"
    },
    {
      "inputs": [
        {
          "internalType": "uint256",
          "name": "_ownerCut",
          "type": "uint256"
        }
      ],
      "name": "setOwnerCut",
      "outputs": [],
      "stateMutability": "nonpayable",
      "type": "function"
    },
    {
      "inputs": [
        {
          "internalType": "uint256[]",
          "name": "_charAmounts",
          "type": "uint256[]"
        }
      ],
      "name": "setPricingForAllLengths",
      "outputs": [],
      "stateMutability": "nonpayable",
      "type": "function"
    },
    {
      "inputs": [
        {
          "internalType": "uint256",
          "name": "_referrerCut",
          "type": "uint256"
        }
      ],
      "name": "setReferrerCut",
      "outputs": [],
      "stateMutability": "nonpayable",
      "type": "function"
    },
    {
      "inputs": [
        {
          "internalType": "bytes4",
          "name": "interfaceId",
          "type": "bytes4"
        }
      ],
      "name": "supportsInterface",
      "outputs": [
        {
          "internalType": "bool",
          "name": "",
          "type": "bool"
        }
      ],
      "stateMutability": "view",
      "type": "function"
    },
    {
      "inputs": [],
      "name": "totalBalance",
      "outputs": [
        {
          "internalType": "uint256",
          "name": "",
          "type": "uint256"
        }
      ],
      "stateMutability": "view",
      "type": "function"
    },
    {
      "inputs": [
        {
          "internalType": "address",
          "name": "newOwner",
          "type": "address"
        }
      ],
      "name": "transferOwnership",
      "outputs": [],
      "stateMutability": "nonpayable",
      "type": "function"
    },
    {
      "inputs": [
        {
          "internalType": "contract IAggregatorInterface",
          "name": "_usdOracle",
          "type": "address"
        }
      ],
      "name": "updateOracle",
      "outputs": [],
      "stateMutability": "nonpayable",
      "type": "function"
    },
    {
      "inputs": [
        {
          "internalType": "uint16",
          "name": "charLength",
          "type": "uint16"
        },
        {
          "internalType": "uint256",
          "name": "charAmount",
          "type": "uint256"
        }
      ],
      "name": "updatePriceForCharLength",
      "outputs": [],
      "stateMutability": "nonpayable",
      "type": "function"
    },
    {
      "inputs": [],
      "name": "usdOracle",
      "outputs": [
        {
          "internalType": "contract IAggregatorInterface",
          "name": "",
          "type": "address"
        }
      ],
      "stateMutability": "view",
      "type": "function"
    },
    {
      "inputs": [],
      "name": "withdraw",
      "outputs": [],
      "stateMutability": "nonpayable",
      "type": "function"
    }
  ],
  "transactionHash": "0xaa66e01ad5b0e90e5c4848e16c6f01e929a6faccb5d29684c7918a0f524b4269",
  "args": [
    "0x690c1680b0843Ea9Bdb04cA5f9239A92d9dEb493",
    "0x1CF25555Eb74b587b4b3d9019d6Bf279E9920d25"
  ],
  "numDeployments": 1,
  "solcInputHash": "b86e30d631bb1ffefb1acbd2076dc5cd",
  "bytecode": "0x6001608081815260c06040529060a0602080368337505081516200002b9260059250602001906200014e565b503480156200003957600080fd5b5060405162001ff238038062001ff28339810160408190526200005c9162000226565b816200006833620000fe565b60c860048190555080600560008154811062000088576200008862000265565b600091825260209091200180546001600160a01b039283166001600160a01b0319918216179091556007805492851692909116919091179055506040805160018082528183019092529081602001602082028036833750508151620000f5926006925060200190620001b8565b5050506200027b565b600080546001600160a01b038381166001600160a01b0319831681178455604051919092169283917f8be0079c531659141344cd1fd0a4f28419497f9722a3daafe3b4186f6b6457e09190a35050565b828054828255906000526020600020908101928215620001a6579160200282015b82811115620001a657825182546001600160a01b0319166001600160a01b039091161782556020909201916001909101906200016f565b50620001b4929150620001f6565b5090565b828054828255906000526020600020908101928215620001a6579160200282015b82811115620001a6578251825591602001919060010190620001d9565b5b80821115620001b45760008155600101620001f7565b6001600160a01b03811681146200022357600080fd5b50565b600080604083850312156200023a57600080fd5b825162000247816200020d565b60208401519092506200025a816200020d565b809150509250929050565b634e487b7160e01b600052603260045260246000fd5b611d67806200028b6000396000f3fe60806040526004361061014b5760003560e01c806383b5ff8b116100b6578063c182dd711161006f578063c182dd71146103a7578063c48561fe146103c7578063c8a4271f146103e7578063d471743214610407578063ddc0477d1461041a578063f2fde38b1461044757600080fd5b806383b5ff8b146102f65780638da5cb5b1461030c578063a996aeef1461033e578063ad7a672f14610351578063ba8d247914610367578063bae8fc081461038757600080fd5b8063444a2d8d11610108578063444a2d8d1461022c5780635d3590d51461024c578063715018a61461026c57806371dc194f14610281578063757de573146102b657806378693000146102d657600080fd5b806301ffc9a71461015057806307213bc81461018557806312ee468a146101a75780631cb44dfc146101ca57806327e235e3146101ea5780633ccfd60b14610217575b600080fd5b34801561015c57600080fd5b5061017061016b366004611885565b610467565b60405190151581526020015b60405180910390f35b34801561019157600080fd5b506101a56101a03660046118c4565b6104ad565b005b3480156101b357600080fd5b506101bc610529565b60405190815260200161017c565b3480156101d657600080fd5b506101a56101e53660046118c4565b610540565b3480156101f657600080fd5b506101bc6102053660046118c4565b60016020526000908152604090205481565b34801561022357600080fd5b506101a561056a565b34801561023857600080fd5b506101bc6102473660046118e1565b61071e565b34801561025857600080fd5b506101a56102673660046118fa565b61073f565b34801561027857600080fd5b506101a56107c0565b34801561028d57600080fd5b506102a161029c366004611983565b6107d4565b6040805192835260208301919091520161017c565b3480156102c257600080fd5b506101a56102d13660046118e1565b6108dc565b3480156102e257600080fd5b506101a56102f13660046119ce565b6109bb565b34801561030257600080fd5b506101bc60045481565b34801561031857600080fd5b506000546001600160a01b03165b6040516001600160a01b03909116815260200161017c565b6101a561034c366004611a01565b610a4f565b34801561035d57600080fd5b506101bc60035481565b34801561037357600080fd5b506101a5610382366004611a5d565b610a6b565b34801561039357600080fd5b506101a56103a23660046118e1565b610ad0565b3480156103b357600080fd5b506103266103c23660046118e1565b610b6a565b3480156103d357600080fd5b506101a56103e23660046118e1565b610b94565b3480156103f357600080fd5b50600754610326906001600160a01b031681565b6101a5610415366004611ad1565b610c0c565b34801561042657600080fd5b506101bc6104353660046118c4565b60026020526000908152604090205481565b34801561045357600080fd5b506101a56104623660046118c4565b611264565b60006001600160e01b0319821663148f330d60e01b148061049857506001600160e01b031982166306c255bd60e51b145b806104a757506104a7826112da565b92915050565b6104b561130f565b6005805460018101825560009182527f036b6384b5eca791c62761152d0c79bb0604c104a5fb6f4eb0703f3154bb3db00180546001600160a01b0319166001600160a01b0384161790556040517fe41a14cd176f2aecc84f8e04f138a2c318414e57c932ebe3e0bfc8864b0b9b529190a150565b60065460009061053b90600190611b4d565b905090565b61054861130f565b600780546001600160a01b0319166001600160a01b0392909216919091179055565b3361057d6000546001600160a01b031690565b6001600160a01b0316816001600160a01b03160361063e576000600354476105a59190611b4d565b9050600081116105f15760405162461bcd60e51b815260206004820152601260248201527104f776e65722062616c616e636520697320360741b60448201526064015b60405180910390fd5b60405181906001600160a01b038416907fb990971c3785a76fb59cf6aa8fe8327738148e676c6d46a6dea040c4b6b2609590600090a361063a6001600160a01b03831682611369565b5050565b6001600160a01b03811660009081526001602052604090205461069c5760405162461bcd60e51b815260206004820152601660248201527504164647265737327732062616c616e636520697320360541b60448201526064016105e8565b6001600160a01b038116600090815260016020526040812080549082905560038054919283926106cd908490611b4d565b909155505060405181906001600160a01b038416907fb990971c3785a76fb59cf6aa8fe8327738148e676c6d46a6dea040c4b6b2609590600090a361063a6001600160a01b03831682611369565b50565b6006818154811061072e57600080fd5b600091825260209091200154905081565b61074761130f565b60405163a9059cbb60e01b81526001600160a01b0383811660048301526024820183905284169063a9059cbb906044016020604051808303816000875af1158015610796573d6000803e3d6000fd5b505050506040513d601f19601f820116820180604052508101906107ba9190611b60565b50505050565b6107c861130f565b6107d26000611487565b565b600080600061081886868080601f0160208091040260200160405190810160405280939291908181526020018383808284376000920191909152506114d792505050565b6006549092509050600081156108c9578183101561087f576006838154811061084357610843611b82565b906000526020600020015490508060000361087a57600660008154811061086c5761086c611b82565b906000526020600020015490505b6108a1565b600660008154811061089357610893611b82565b906000526020600020015490505b6108b36108ae8783611b98565b6115d1565b6108bd8783611b98565b945094505050506108d4565b600080945094505050505b935093915050565b6000546001600160a01b031633146109365760405162461bcd60e51b815260206004820152601e60248201527f4f6e6c7920746865206f776e65722063616e207365742074686520637574000060448201526064016105e8565b6101f48111156109885760405162461bcd60e51b815260206004820181905260248201527f4f776e6572206375742063616e6e6f74206265206d6f7265207468616e20352560448201526064016105e8565b600481905560405181907fd0097c261070735a2812d4540f4ac501d429da168de12584fb6302c6ea3abfd990600090a250565b6109c361130f565b6006546109d290600190611b4d565b8261ffff1611156109f6576040516301ed86c560e71b815260040160405180910390fd5b8060068361ffff1681548110610a0e57610a0e611b82565b6000918252602082200191909155604051829161ffff8516917fbd063ae8df7c297bd537ffbf877dc501f28743564979c4af31e44463e8c39b929190a35050565b6005546107ba90610a6290600190611b4d565b85858585610c0c565b610a7361130f565b610a7f60066000611807565b610a8b60068383611825565b508181604051610a9c929190611baf565b604051908190038120907f3139fe6c2f1a906b2193de359fa5a1db1389152550602fef08eef911f3ab8f7e90600090a25050565b6103e8811115610b2e5760405162461bcd60e51b8152602060048201526024808201527f5265666572726572206375742063616e6e6f74206265206d6f7265207468616e6044820152632031302560e01b60648201526084016105e8565b336000908152600260205260408082208390555182917f5132aa1b4691ab49930b655c558addd21627fa35b28ff9695f3468d955c0e0a091a250565b60058181548110610b7a57600080fd5b6000918252602090912001546001600160a01b0316905081565b610b9c61130f565b600680546001818101835560008390527ff652222313e28459528d920b65115c16c04f3efc82aaedc97be59f3f377c0d3f90910183905590548291610be091611b4d565b6040517fbd063ae8df7c297bd537ffbf877dc501f28743564979c4af31e44463e8c39b9290600090a350565b600080600080610c56600089898080601f016020809104026020016040519081016040528093929190818152602001838380828437600092019190915250929392505061166d9050565b8092508193505050610ca18189898080601f01602080910402602001604051908101604052809392919081815260200183838082843760009201919091525092939250506117249050565b60408051602080820184905281830186905282518083038401815260609092019092528051910120909450925050600060058981548110610ce457610ce4611b82565b6000918252602090912001546040516331a9108f60e11b8152600481018690526001600160a01b0390911690636352211e90602401602060405180830381865afa158015610d36573d6000803e3d6000fd5b505050506040513d601f19601f82011682018060405250810190610d5a9190611bd8565b9050600060058a81548110610d7157610d71611b82565b6000918252602090912001546040516331a9108f60e11b8152600481018690526001600160a01b0390911690636352211e90602401602060405180830381865afa158015610dc3573d6000803e3d6000fd5b505050506040513d601f19601f82011682018060405250810190610de79190611bd8565b9050336001600160a01b03821614801590610e8f575060058a81548110610e1057610e10611b82565b60009182526020909120015460405163e985e9c560e01b81526001600160a01b0383811660048301523360248301529091169063e985e9c590604401602060405180830381865afa158015610e69573d6000803e3d6000fd5b505050506040513d601f19601f82011682018060405250810190610e8d9190611b60565b155b15610eb057604051635c20ef6960e11b8152600481018590526024016105e8565b60008060058c81548110610ec657610ec6611b82565b600091825260209091200154604051630178fe3f60e01b8152600481018890526001600160a01b0390911690630178fe3f90602401606060405180830381865afa158015610f18573d6000803e3d6000fd5b505050506040513d601f19601f82011682018060405250810190610f3c9190611c11565b92505050600060058d81548110610f5557610f55611b82565b600091825260209091200154604051630178fe3f60e01b8152600481018a90526001600160a01b0390911690630178fe3f90602401606060405180830381865afa158015610fa7573d6000803e3d6000fd5b505050506040513d601f19601f82011682018060405250810190610fcb9190611c11565b92505050806001600160401b031689836001600160401b0316610fee9190611c62565b111561100a57610ffe8282611c75565b6001600160401b031698505b61101d896001600160401b038416611c62565b92505050600061102e8b8b8a6107d4565b509050803410156110525760405163044044a560e21b815260040160405180910390fd5b60006001600160a01b038a16156110c7576001600160a01b038a166000908152600260205260409020546127109061108a9084611b98565b6110949190611c9c565b6001600160a01b038b166000908152600160205260408120805492935083929091906110c1908490611c62565b90915550505b6000612710600454846110da9190611b98565b6110e49190611c9c565b9050806110f18385611b4d565b6110fb9190611b4d565b6001600160a01b03871660009081526001602052604081208054909190611123908490611c62565b9091555061113390508184611b4d565b600360008282546111449190611c62565b92505081905550505060058c8154811061116057611160611b82565b60009182526020909120015460405163372eb56960e11b815260048101899052602481018790526001600160401b03841660448201526001600160a01b0390911690636e5d6ad2906064016020604051808303816000875af11580156111ca573d6000803e3d6000fd5b505050506040513d601f19601f820116820180604052508101906111ee9190611cbe565b50816001600160401b0316818c8c60405161120a929190611cd9565b604051908190038120907f0ef7ed3ee7f05ff559c931645cd3d52e8630d6ae2ef04acb8c6ce1fe2469fd4490600090a4803411156112565761125661124f8234611b4d565b3390611369565b505050505050505050505050565b61126c61130f565b6001600160a01b0381166112d15760405162461bcd60e51b815260206004820152602660248201527f4f776e61626c653a206e6577206f776e657220697320746865207a65726f206160448201526564647265737360d01b60648201526084016105e8565b61071b81611487565b60006001600160e01b031982166306c255bd60e51b14806104a757506301ffc9a760e01b6001600160e01b03198316146104a7565b6000546001600160a01b031633146107d25760405162461bcd60e51b815260206004820181905260248201527f4f776e61626c653a2063616c6c6572206973206e6f7420746865206f776e657260448201526064016105e8565b804710156113b95760405162461bcd60e51b815260206004820152601d60248201527f416464726573733a20696e73756666696369656e742062616c616e636500000060448201526064016105e8565b6000826001600160a01b03168260405160006040518083038185875af1925050503d8060008114611406576040519150601f19603f3d011682016040523d82523d6000602084013e61140b565b606091505b50509050806114825760405162461bcd60e51b815260206004820152603a60248201527f416464726573733a20756e61626c6520746f2073656e642076616c75652c207260448201527f6563697069656e74206d6179206861766520726576657274656400000000000060648201526084016105e8565b505050565b600080546001600160a01b038381166001600160a01b0319831681178455604051919092169283917f8be0079c531659141344cd1fd0a4f28419497f9722a3daafe3b4186f6b6457e09190a35050565b6060600080836000815181106114ef576114ef611b82565b0160200151845160f89190911c91508110801561150c5750600081115b61151557600080fd5b6000816001600160401b0381111561152f5761152f611ce9565b6040519080825280601f01601f191660200182016040528015611559576020820181803683370190505b50905060005b828110156115c75785611573826001611c62565b8151811061158357611583611b82565b602001015160f81c60f81b8282815181106115a0576115a0611b82565b60200101906001600160f81b031916908160001a9053506115c081611cff565b905061155f565b5094909350915050565b600080600760009054906101000a90046001600160a01b03166001600160a01b03166350d25bcd6040518163ffffffff1660e01b8152600401602060405180830381865afa158015611627573d6000803e3d6000fd5b505050506040513d601f19601f8201168201806040525081019061164b9190611d18565b90508061165c846305f5e100611b98565b6116669190611c9c565b9392505050565b600080835183106116c05760405162461bcd60e51b815260206004820152601e60248201527f726561644c6162656c3a20496e646578206f7574206f6620626f756e6473000060448201526064016105e8565b60008484815181106116d4576116d4611b82565b016020015160f81c90508015611700576116f9856116f3866001611c62565b836117e3565b9250611705565b600092505b61170f8185611c62565b61171a906001611c62565b9150509250929050565b6000806000611733858561166d565b9092509050816117a5576001855161174b9190611b4d565b84146117995760405162461bcd60e51b815260206004820152601d60248201527f6e616d65686173683a204a756e6b20617420656e64206f66206e616d6500000060448201526064016105e8565b50600091506104a79050565b6117af8582611724565b6040805160208101929092528101839052606001604051602081830303815290604052805190602001209250505092915050565b82516000906117f28385611c62565b11156117fd57600080fd5b5091016020012090565b508054600082559060005260206000209081019061071b9190611870565b828054828255906000526020600020908101928215611860579160200282015b82811115611860578235825591602001919060010190611845565b5061186c929150611870565b5090565b5b8082111561186c5760008155600101611871565b60006020828403121561189757600080fd5b81356001600160e01b03198116811461166657600080fd5b6001600160a01b038116811461071b57600080fd5b6000602082840312156118d657600080fd5b8135611666816118af565b6000602082840312156118f357600080fd5b5035919050565b60008060006060848603121561190f57600080fd5b833561191a816118af565b9250602084013561192a816118af565b929592945050506040919091013590565b60008083601f84011261194d57600080fd5b5081356001600160401b0381111561196457600080fd5b60208301915083602082850101111561197c57600080fd5b9250929050565b60008060006040848603121561199857600080fd5b83356001600160401b038111156119ae57600080fd5b6119ba8682870161193b565b909790965060209590950135949350505050565b600080604083850312156119e157600080fd5b823561ffff811681146119f357600080fd5b946020939093013593505050565b60008060008060608587031215611a1757600080fd5b84356001600160401b03811115611a2d57600080fd5b611a398782880161193b565b9095509350506020850135611a4d816118af565b9396929550929360400135925050565b60008060208385031215611a7057600080fd5b82356001600160401b0380821115611a8757600080fd5b818501915085601f830112611a9b57600080fd5b813581811115611aaa57600080fd5b8660208260051b8501011115611abf57600080fd5b60209290920196919550909350505050565b600080600080600060808688031215611ae957600080fd5b8535945060208601356001600160401b03811115611b0657600080fd5b611b128882890161193b565b9095509350506040860135611b26816118af565b949793965091946060013592915050565b634e487b7160e01b600052601160045260246000fd5b818103818111156104a7576104a7611b37565b600060208284031215611b7257600080fd5b8151801515811461166657600080fd5b634e487b7160e01b600052603260045260246000fd5b80820281158282048414176104a7576104a7611b37565b60006001600160fb1b03831115611bc557600080fd5b8260051b80858437919091019392505050565b600060208284031215611bea57600080fd5b8151611666816118af565b80516001600160401b0381168114611c0c57600080fd5b919050565b600080600060608486031215611c2657600080fd5b8351611c31816118af565b602085015190935063ffffffff81168114611c4b57600080fd5b9150611c5960408501611bf5565b90509250925092565b808201808211156104a7576104a7611b37565b6001600160401b03828116828216039080821115611c9557611c95611b37565b5092915050565b600082611cb957634e487b7160e01b600052601260045260246000fd5b500490565b600060208284031215611cd057600080fd5b61166682611bf5565b8183823760009101908152919050565b634e487b7160e01b600052604160045260246000fd5b600060018201611d1157611d11611b37565b5060010190565b600060208284031215611d2a57600080fd5b505191905056fea2646970667358221220e99e987b8728d7f4414c57282d91a7a2f0b44e14c72551671502f94698b8ff5e64736f6c63430008130033",
  "devdoc": {
    "kind": "dev",
    "methods": {
      "addNextNameWrapperVersion(address)": {
        "params": {
          "_nameWrapper": "The next version of the NameWrapper"
        }
      },
      "addNextPriceForCharLength(uint256)": {
        "params": {
          "amount": "The amount in USD/sec. (with 18 digits of precision)  for a character count, e.g. amount for three characters."
        }
      },
      "getLastCharIndex()": {
        "returns": {
          "_0": "The length of the last character length that was set."
        }
      },
      "owner()": {
        "details": "Returns the address of the current owner."
      },
      "recoverFunds(address,address,uint256)": {
        "details": "The contract is Ownable and only the owner can call the recover function.",
        "params": {
          "_amount": "The amount of tokens to recover.",
          "_to": "The address to send the tokens to.",
          "_token": "The address of the ERC20 token to recover"
        }
      },
      "renew(bytes,address,uint256)": {
        "details": "Function to renew a name for a specified duration. ",
        "params": {
          "duration": "The duration for which the name should be renewed in years.",
          "name": "The name to be renewed in DNS format."
        }
      },
      "renewWithVersions(uint256,bytes,address,uint256)": {
        "details": "This function is allows for the upgradeing of the NameWrapper and SubnameWrapper contracts. It is not possible to know what the interface of the upgarded contracts will be, so we assume that they will be compatible with the current version of the contracts.",
        "params": {
          "duration": "The duration for which the name should be renewed in years.",
          "name": "The name to be renewed in DNS format.",
          "nameWrapperV": "The version of the NameWrapper."
        }
      },
      "renounceOwnership()": {
        "details": "Leaves the contract without owner. It will not be possible to call `onlyOwner` functions. Can only be called by the current owner. NOTE: Renouncing ownership will leave the contract without an owner, thereby disabling any functionality that is only available to the owner."
      },
      "rentPrice(bytes,uint256)": {
        "params": {
          "duration": "The amount of time the name will be rented for/extended in years. ",
          "name": "The name in DNS format, e.g. vault.vitalik.eth"
        },
        "returns": {
          "_0": "The rent price for the duration in Wei, and USD. "
        }
      },
      "setOwnerCut(uint256)": {
        "params": {
          "_ownerCut": "The cut for the owner of the contract."
        }
      },
      "setPricingForAllLengths(uint256[])": {
        "params": {
          "_charAmounts": "An array of amounst for each characer length."
        }
      },
      "setReferrerCut(uint256)": {
        "params": {
          "_referrerCut": "The percentage cut given to the referrer (0-10%)."
        }
      },
      "supportsInterface(bytes4)": {
        "params": {
          "interfaceId": "The interface identifier, as specified in ERC-165."
        },
        "returns": {
          "_0": "`true` if the contract implements `interfaceID`"
        }
      },
      "transferOwnership(address)": {
        "details": "Transfers ownership of the contract to a new account (`newOwner`). Can only be called by the current owner."
      },
      "updateOracle(address)": {
        "params": {
          "_usdOracle": "The oracle address."
        }
      },
      "updatePriceForCharLength(uint16,uint256)": {
        "params": {
          "charAmount": "The amount in USD/year for a character count, e.g. amount for three characters.",
          "charLength": "The character length, e.g. 3 would be for three characters. Use 0 for the default amount."
        }
      }
    },
    "version": 1
  },
  "userdoc": {
    "kind": "user",
    "methods": {
      "addNextNameWrapperVersion(address)": {
        "notice": "If the NameWrapper smart contract is upgraded, add the new version."
      },
      "addNextPriceForCharLength(uint256)": {
        "notice": "Adds a price for the next character length, e.g. three characters."
      },
      "getLastCharIndex()": {
        "notice": "Get the last length for a character length that has a price (can be 0), e.g. three characters."
      },
      "recoverFunds(address,address,uint256)": {
        "notice": "Recover ERC20 tokens sent to the contract by mistake."
      },
      "renewWithVersions(uint256,bytes,address,uint256)": {
        "notice": "Function to renew a name for a specified duration. "
      },
      "rentPrice(bytes,uint256)": {
        "notice": "Gets the total cost of rent in wei, from the unitPrice, i.e. USD, and duration."
      },
      "setOwnerCut(uint256)": {
        "notice": "A function to set the cut for the owner of the contract."
      },
      "setPricingForAllLengths(uint256[])": {
        "notice": "Set the pricing for subname lengths."
      },
      "setReferrerCut(uint256)": {
        "notice": "A function to set the referrer cut percentage for a specific referrer."
      },
      "updateOracle(address)": {
        "notice": "Sets the oracle address."
      },
      "updatePriceForCharLength(uint16,uint256)": {
        "notice": "Set a price for a single character length, e.g. three characters."
      },
      "withdraw()": {
        "notice": "A function to allow referrers, name owners, or the contract owner to withdraw."
      }
    },
    "version": 1
  },
  "storageLayout": {
    "storage": [
      {
        "astId": 56450,
        "contract": "contracts/layertwo/optimism/wrapper/renewalControllers/L2PricePerCharRenewalController.sol:L2PricePerCharRenewalController",
        "label": "_owner",
        "offset": 0,
        "slot": "0",
        "type": "t_address"
      },
      {
        "astId": 320,
        "contract": "contracts/layertwo/optimism/wrapper/renewalControllers/L2PricePerCharRenewalController.sol:L2PricePerCharRenewalController",
        "label": "balances",
        "offset": 0,
        "slot": "1",
        "type": "t_mapping(t_address,t_uint256)"
      },
      {
        "astId": 324,
        "contract": "contracts/layertwo/optimism/wrapper/renewalControllers/L2PricePerCharRenewalController.sol:L2PricePerCharRenewalController",
        "label": "referrerCuts",
        "offset": 0,
        "slot": "2",
        "type": "t_mapping(t_address,t_uint256)"
      },
      {
        "astId": 326,
        "contract": "contracts/layertwo/optimism/wrapper/renewalControllers/L2PricePerCharRenewalController.sol:L2PricePerCharRenewalController",
        "label": "totalBalance",
        "offset": 0,
        "slot": "3",
        "type": "t_uint256"
      },
      {
        "astId": 328,
        "contract": "contracts/layertwo/optimism/wrapper/renewalControllers/L2PricePerCharRenewalController.sol:L2PricePerCharRenewalController",
        "label": "ownerCut",
        "offset": 0,
        "slot": "4",
        "type": "t_uint256"
      },
      {
        "astId": 4379,
        "contract": "contracts/layertwo/optimism/wrapper/renewalControllers/L2PricePerCharRenewalController.sol:L2PricePerCharRenewalController",
        "label": "nameWrappers",
        "offset": 0,
        "slot": "5",
        "type": "t_array(t_address)dyn_storage"
      },
      {
        "astId": 7180,
        "contract": "contracts/layertwo/optimism/wrapper/renewalControllers/L2PricePerCharRenewalController.sol:L2PricePerCharRenewalController",
        "label": "charAmounts",
        "offset": 0,
        "slot": "6",
        "type": "t_array(t_uint256)dyn_storage"
      },
      {
        "astId": 7183,
        "contract": "contracts/layertwo/optimism/wrapper/renewalControllers/L2PricePerCharRenewalController.sol:L2PricePerCharRenewalController",
        "label": "usdOracle",
        "offset": 0,
        "slot": "7",
        "type": "t_contract(IAggregatorInterface)6144"
      }
    ],
    "types": {
      "t_address": {
        "encoding": "inplace",
        "label": "address",
        "numberOfBytes": "20"
      },
      "t_array(t_address)dyn_storage": {
        "base": "t_address",
        "encoding": "dynamic_array",
        "label": "address[]",
        "numberOfBytes": "32"
      },
      "t_array(t_uint256)dyn_storage": {
        "base": "t_uint256",
        "encoding": "dynamic_array",
        "label": "uint256[]",
        "numberOfBytes": "32"
      },
      "t_contract(IAggregatorInterface)6144": {
        "encoding": "inplace",
        "label": "contract IAggregatorInterface",
        "numberOfBytes": "20"
      },
      "t_mapping(t_address,t_uint256)": {
        "encoding": "mapping",
        "key": "t_address",
        "label": "mapping(address => uint256)",
        "numberOfBytes": "32",
        "value": "t_uint256"
      },
      "t_uint256": {
        "encoding": "inplace",
        "label": "uint256",
        "numberOfBytes": "32"
      }
    }
  }
}