{
  "address": "0x6032c7154efaFD2D5AC858Df5FE53E11987765F9",
  "abi": [
    {
      "inputs": [
        {
          "internalType": "uint256",
          "name": "_minCommitmentAge",
          "type": "uint256"
        },
        {
          "internalType": "uint256",
          "name": "_maxCommitmentAge",
          "type": "uint256"
        },
        {
          "internalType": "contract ENS",
          "name": "_ens",
          "type": "address"
        },
        {
          "internalType": "contract IL2NameWrapper",
          "name": "_nameWrapper",
          "type": "address"
        },
        {
          "internalType": "contract IAggregatorInterface",
          "name": "_usdOracle",
          "type": "address"
        }
      ],
      "stateMutability": "nonpayable",
      "type": "constructor"
    },
    {
      "inputs": [],
      "name": "CannotSetNewCharLengthAmounts",
      "type": "error"
    },
    {
      "inputs": [
        {
          "internalType": "bytes32",
          "name": "commitment",
          "type": "bytes32"
        }
      ],
      "name": "CommitmentTooNew",
      "type": "error"
    },
    {
      "inputs": [
        {
          "internalType": "bytes32",
          "name": "commitment",
          "type": "bytes32"
        }
      ],
      "name": "CommitmentTooOld",
      "type": "error"
    },
    {
      "inputs": [
        {
          "internalType": "uint256",
          "name": "duration",
          "type": "uint256"
        }
      ],
      "name": "DurationTooShort",
      "type": "error"
    },
    {
      "inputs": [],
      "name": "InsufficientValue",
      "type": "error"
    },
    {
      "inputs": [
        {
          "internalType": "uint256",
          "name": "duration",
          "type": "uint256"
        }
      ],
      "name": "InvalidDuration",
      "type": "error"
    },
    {
      "inputs": [],
      "name": "MaxCommitmentAgeTooHigh",
      "type": "error"
    },
    {
      "inputs": [],
      "name": "MaxCommitmentAgeTooLow",
      "type": "error"
    },
    {
      "inputs": [
        {
          "internalType": "bytes",
          "name": "name",
          "type": "bytes"
        }
      ],
      "name": "NameNotAvailable",
      "type": "error"
    },
    {
      "inputs": [],
      "name": "RandomNameNotFound",
      "type": "error"
    },
    {
      "inputs": [
        {
          "internalType": "bytes32",
          "name": "node",
          "type": "bytes32"
        }
      ],
      "name": "UnauthorizedAddress",
      "type": "error"
    },
    {
      "inputs": [
        {
          "internalType": "bytes32",
          "name": "commitment",
          "type": "bytes32"
        }
      ],
      "name": "UnexpiredCommitmentExists",
      "type": "error"
    },
    {
      "inputs": [
        {
          "internalType": "string",
          "name": "label",
          "type": "string"
        }
      ],
      "name": "WrongNumberOfChars",
      "type": "error"
    },
    {
      "anonymous": false,
      "inputs": [
        {
          "indexed": true,
          "internalType": "address",
          "name": "_address",
          "type": "address"
        },
        {
          "indexed": true,
          "internalType": "uint256",
          "name": "amount",
          "type": "uint256"
        }
      ],
      "name": "AddressWithdrew",
      "type": "event"
    },
    {
      "anonymous": false,
      "inputs": [
        {
          "indexed": true,
          "internalType": "bytes",
          "name": "name",
          "type": "bytes"
        },
        {
          "indexed": false,
          "internalType": "uint256",
          "name": "cost",
          "type": "uint256"
        },
        {
          "indexed": false,
          "internalType": "uint256",
          "name": "expires",
          "type": "uint256"
        }
      ],
      "name": "NameRenewed",
      "type": "event"
    },
    {
      "anonymous": false,
      "inputs": [
        {
          "indexed": true,
          "internalType": "uint256",
          "name": "ownerCut",
          "type": "uint256"
        }
      ],
      "name": "OwnerCutSet",
      "type": "event"
    },
    {
      "anonymous": false,
      "inputs": [
        {
          "indexed": true,
          "internalType": "address",
          "name": "previousOwner",
          "type": "address"
        },
        {
          "indexed": true,
          "internalType": "address",
          "name": "newOwner",
          "type": "address"
        }
      ],
      "name": "OwnershipTransferred",
      "type": "event"
    },
    {
      "anonymous": false,
      "inputs": [
        {
          "indexed": true,
          "internalType": "uint256",
          "name": "referrerCut",
          "type": "uint256"
        }
      ],
      "name": "ReferrerCutSet",
      "type": "event"
    },
    {
      "anonymous": false,
      "inputs": [
        {
          "indexed": false,
          "internalType": "bytes",
          "name": "name",
          "type": "bytes"
        },
        {
          "indexed": true,
          "internalType": "bytes32",
          "name": "node",
          "type": "bytes32"
        },
        {
          "indexed": true,
          "internalType": "address",
          "name": "owner",
          "type": "address"
        },
        {
          "indexed": false,
          "internalType": "uint256",
          "name": "price",
          "type": "uint256"
        },
        {
          "indexed": false,
          "internalType": "uint256",
          "name": "expires",
          "type": "uint256"
        }
      ],
      "name": "SubnameRegistered",
      "type": "event"
    },
    {
      "anonymous": false,
      "inputs": [
        {
          "indexed": false,
          "internalType": "string",
          "name": "name",
          "type": "string"
        }
      ],
      "name": "UnruggableRegistered",
      "type": "event"
    },
    {
      "inputs": [],
      "name": "MIN_REGISTRATION_DURATION",
      "outputs": [
        {
          "internalType": "uint256",
          "name": "",
          "type": "uint256"
        }
      ],
      "stateMutability": "view",
      "type": "function"
    },
    {
      "inputs": [
        {
          "internalType": "bytes32",
          "name": "parentNode",
          "type": "bytes32"
        },
        {
          "internalType": "uint256",
          "name": "charAmount",
          "type": "uint256"
        }
      ],
      "name": "addNextPriceForCharLength",
      "outputs": [],
      "stateMutability": "nonpayable",
      "type": "function"
    },
    {
      "inputs": [
        {
          "internalType": "bytes32",
          "name": "",
          "type": "bytes32"
        }
      ],
      "name": "allowList",
      "outputs": [
        {
          "internalType": "bool",
          "name": "",
          "type": "bool"
        }
      ],
      "stateMutability": "view",
      "type": "function"
    },
    {
      "inputs": [],
      "name": "allowListDisabled",
      "outputs": [
        {
          "internalType": "bool",
          "name": "",
          "type": "bool"
        }
      ],
      "stateMutability": "view",
      "type": "function"
    },
    {
      "inputs": [
        {
          "internalType": "bytes",
          "name": "_name",
          "type": "bytes"
        },
        {
          "internalType": "bool",
          "name": "_allow",
          "type": "bool"
        }
      ],
      "name": "allowName",
      "outputs": [],
      "stateMutability": "nonpayable",
      "type": "function"
    },
    {
      "inputs": [
        {
          "internalType": "bytes",
          "name": "name",
          "type": "bytes"
        }
      ],
      "name": "available",
      "outputs": [
        {
          "internalType": "bool",
          "name": "",
          "type": "bool"
        }
      ],
      "stateMutability": "view",
      "type": "function"
    },
    {
      "inputs": [
        {
          "internalType": "address",
          "name": "",
          "type": "address"
        }
      ],
      "name": "balances",
      "outputs": [
        {
          "internalType": "uint256",
          "name": "",
          "type": "uint256"
        }
      ],
      "stateMutability": "view",
      "type": "function"
    },
    {
      "inputs": [
        {
          "internalType": "bytes32",
          "name": "commitment",
          "type": "bytes32"
        }
      ],
      "name": "commit",
      "outputs": [],
      "stateMutability": "nonpayable",
      "type": "function"
    },
    {
      "inputs": [
        {
          "internalType": "bytes32",
          "name": "",
          "type": "bytes32"
        }
      ],
      "name": "commitments",
      "outputs": [
        {
          "internalType": "uint256",
          "name": "",
          "type": "uint256"
        }
      ],
      "stateMutability": "view",
      "type": "function"
    },
    {
      "inputs": [],
      "name": "disableAllowList",
      "outputs": [],
      "stateMutability": "nonpayable",
      "type": "function"
    },
    {
      "inputs": [],
      "name": "ens",
      "outputs": [
        {
          "internalType": "contract ENS",
          "name": "",
          "type": "address"
        }
      ],
      "stateMutability": "view",
      "type": "function"
    },
    {
      "inputs": [
        {
          "internalType": "bytes32",
          "name": "parentNode",
          "type": "bytes32"
        }
      ],
      "name": "getLastCharIndex",
      "outputs": [
        {
          "internalType": "uint256",
          "name": "",
          "type": "uint256"
        }
      ],
      "stateMutability": "view",
      "type": "function"
    },
    {
      "inputs": [
        {
          "internalType": "bytes32",
          "name": "parentNode",
          "type": "bytes32"
        },
        {
          "internalType": "uint16",
          "name": "charLength",
          "type": "uint16"
        }
      ],
      "name": "getPriceDataForLength",
      "outputs": [
        {
          "internalType": "uint256",
          "name": "",
          "type": "uint256"
        }
      ],
      "stateMutability": "view",
      "type": "function"
    },
    {
      "inputs": [
        {
          "internalType": "bytes",
          "name": "name",
          "type": "bytes"
        },
        {
          "internalType": "address",
          "name": "owner",
          "type": "address"
        },
        {
          "internalType": "bytes32",
          "name": "secret",
          "type": "bytes32"
        }
      ],
      "name": "makeCommitment",
      "outputs": [
        {
          "internalType": "bytes32",
          "name": "",
          "type": "bytes32"
        }
      ],
      "stateMutability": "pure",
      "type": "function"
    },
    {
      "inputs": [],
      "name": "maxCommitmentAge",
      "outputs": [
        {
          "internalType": "uint256",
          "name": "",
          "type": "uint256"
        }
      ],
      "stateMutability": "view",
      "type": "function"
    },
    {
      "inputs": [],
      "name": "minCommitmentAge",
      "outputs": [
        {
          "internalType": "uint256",
          "name": "",
          "type": "uint256"
        }
      ],
      "stateMutability": "view",
      "type": "function"
    },
    {
      "inputs": [],
      "name": "nameWrapper",
      "outputs": [
        {
          "internalType": "contract IL2NameWrapper",
          "name": "",
          "type": "address"
        }
      ],
      "stateMutability": "view",
      "type": "function"
    },
    {
      "inputs": [],
      "name": "owner",
      "outputs": [
        {
          "internalType": "address",
          "name": "",
          "type": "address"
        }
      ],
      "stateMutability": "view",
      "type": "function"
    },
    {
      "inputs": [],
      "name": "ownerCut",
      "outputs": [
        {
          "internalType": "uint256",
          "name": "",
          "type": "uint256"
        }
      ],
      "stateMutability": "view",
      "type": "function"
    },
    {
      "inputs": [
        {
          "internalType": "bytes32",
          "name": "",
          "type": "bytes32"
        }
      ],
      "name": "pricingData",
      "outputs": [
        {
          "internalType": "bool",
          "name": "offerSubnames",
          "type": "bool"
        },
        {
          "internalType": "contract IRenewalController",
          "name": "renewalController",
          "type": "address"
        },
        {
          "internalType": "uint64",
          "name": "minRegistrationDuration",
          "type": "uint64"
        },
        {
          "internalType": "uint64",
          "name": "maxRegistrationDuration",
          "type": "uint64"
        },
        {
          "internalType": "uint16",
          "name": "minChars",
          "type": "uint16"
        },
        {
          "internalType": "uint16",
          "name": "maxChars",
          "type": "uint16"
        }
      ],
      "stateMutability": "view",
      "type": "function"
    },
    {
      "inputs": [
        {
          "internalType": "address",
          "name": "_token",
          "type": "address"
        },
        {
          "internalType": "address",
          "name": "_to",
          "type": "address"
        },
        {
          "internalType": "uint256",
          "name": "_amount",
          "type": "uint256"
        }
      ],
      "name": "recoverFunds",
      "outputs": [],
      "stateMutability": "nonpayable",
      "type": "function"
    },
    {
      "inputs": [
        {
          "internalType": "address",
          "name": "",
          "type": "address"
        }
      ],
      "name": "referrerCuts",
      "outputs": [
        {
          "internalType": "uint256",
          "name": "",
          "type": "uint256"
        }
      ],
      "stateMutability": "view",
      "type": "function"
    },
    {
      "inputs": [
        {
          "internalType": "bytes",
          "name": "name",
          "type": "bytes"
        },
        {
          "internalType": "address",
          "name": "owner",
          "type": "address"
        },
        {
          "internalType": "address",
          "name": "referrer",
          "type": "address"
        },
        {
          "internalType": "uint256",
          "name": "duration",
          "type": "uint256"
        },
        {
          "internalType": "bytes32",
          "name": "secret",
          "type": "bytes32"
        },
        {
          "internalType": "address",
          "name": "resolver",
          "type": "address"
        },
        {
          "internalType": "uint32",
          "name": "fuses",
          "type": "uint32"
        }
      ],
      "name": "register",
      "outputs": [],
      "stateMutability": "payable",
      "type": "function"
    },
    {
      "inputs": [
        {
          "internalType": "address",
          "name": "owner",
          "type": "address"
        },
        {
          "internalType": "uint256",
          "name": "maxLoops",
          "type": "uint256"
        },
        {
          "internalType": "uint8",
          "name": "numChars",
          "type": "uint8"
        },
        {
          "internalType": "uint256",
          "name": "salt",
          "type": "uint256"
        }
      ],
      "name": "registerRandomUnruggable",
      "outputs": [
        {
          "internalType": "bytes32",
          "name": "",
          "type": "bytes32"
        }
      ],
      "stateMutability": "nonpayable",
      "type": "function"
    },
    {
      "inputs": [
        {
          "internalType": "string",
          "name": "label",
          "type": "string"
        },
        {
          "internalType": "address",
          "name": "owner",
          "type": "address"
        }
      ],
      "name": "registerUnruggable",
      "outputs": [
        {
          "internalType": "bytes32",
          "name": "",
          "type": "bytes32"
        }
      ],
      "stateMutability": "nonpayable",
      "type": "function"
    },
    {
      "inputs": [],
      "name": "renounceOwnership",
      "outputs": [],
      "stateMutability": "nonpayable",
      "type": "function"
    },
    {
      "inputs": [
        {
          "internalType": "bytes",
          "name": "name",
          "type": "bytes"
        },
        {
          "internalType": "uint256",
          "name": "duration",
          "type": "uint256"
        }
      ],
      "name": "rentPrice",
      "outputs": [
        {
          "internalType": "uint256",
          "name": "weiPrice",
          "type": "uint256"
        },
        {
          "internalType": "uint256",
          "name": "usdPrice",
          "type": "uint256"
        }
      ],
      "stateMutability": "view",
      "type": "function"
    },
    {
      "inputs": [
        {
          "internalType": "bytes32",
          "name": "parentNode",
          "type": "bytes32"
        },
        {
          "internalType": "bool",
          "name": "_offerSubnames",
          "type": "bool"
        }
      ],
      "name": "setOfferSubnames",
      "outputs": [],
      "stateMutability": "nonpayable",
      "type": "function"
    },
    {
      "inputs": [
        {
          "internalType": "uint256",
          "name": "_ownerCut",
          "type": "uint256"
        }
      ],
      "name": "setOwnerCut",
      "outputs": [],
      "stateMutability": "nonpayable",
      "type": "function"
    },
    {
      "inputs": [
        {
          "internalType": "bytes",
          "name": "name",
          "type": "bytes"
        },
        {
          "internalType": "bool",
          "name": "_offerSubnames",
          "type": "bool"
        },
        {
          "internalType": "contract IRenewalController",
          "name": "_renewalController",
          "type": "address"
        },
        {
          "internalType": "uint64",
          "name": "_minRegistrationDuration",
          "type": "uint64"
        },
        {
          "internalType": "uint64",
          "name": "_maxRegistrationDuration",
          "type": "uint64"
        },
        {
          "internalType": "uint16",
          "name": "_minChars",
          "type": "uint16"
        },
        {
          "internalType": "uint16",
          "name": "_maxChars",
          "type": "uint16"
        }
      ],
      "name": "setParams",
      "outputs": [],
      "stateMutability": "nonpayable",
      "type": "function"
    },
    {
      "inputs": [
        {
          "internalType": "bytes32",
          "name": "parentNode",
          "type": "bytes32"
        },
        {
          "internalType": "uint256[]",
          "name": "_charAmounts",
          "type": "uint256[]"
        }
      ],
      "name": "setPricingForAllLengths",
      "outputs": [],
      "stateMutability": "nonpayable",
      "type": "function"
    },
    {
      "inputs": [
        {
          "internalType": "uint256",
          "name": "_referrerCut",
          "type": "uint256"
        }
      ],
      "name": "setReferrerCut",
      "outputs": [],
      "stateMutability": "nonpayable",
      "type": "function"
    },
    {
      "inputs": [
        {
          "internalType": "bytes4",
          "name": "interfaceId",
          "type": "bytes4"
        }
      ],
      "name": "supportsInterface",
      "outputs": [
        {
          "internalType": "bool",
          "name": "",
          "type": "bool"
        }
      ],
      "stateMutability": "view",
      "type": "function"
    },
    {
      "inputs": [],
      "name": "totalBalance",
      "outputs": [
        {
          "internalType": "uint256",
          "name": "",
          "type": "uint256"
        }
      ],
      "stateMutability": "view",
      "type": "function"
    },
    {
      "inputs": [
        {
          "internalType": "address",
          "name": "newOwner",
          "type": "address"
        }
      ],
      "name": "transferOwnership",
      "outputs": [],
      "stateMutability": "nonpayable",
      "type": "function"
    },
    {
      "inputs": [
        {
          "internalType": "bytes32",
          "name": "parentNode",
          "type": "bytes32"
        },
        {
          "internalType": "uint16",
          "name": "charLength",
          "type": "uint16"
        },
        {
          "internalType": "uint256",
          "name": "charAmount",
          "type": "uint256"
        }
      ],
      "name": "updatePriceForCharLength",
      "outputs": [],
      "stateMutability": "nonpayable",
      "type": "function"
    },
    {
      "inputs": [],
      "name": "usdOracle",
      "outputs": [
        {
          "internalType": "contract IAggregatorInterface",
          "name": "",
          "type": "address"
        }
      ],
      "stateMutability": "view",
      "type": "function"
    },
    {
      "inputs": [],
      "name": "withdraw",
      "outputs": [],
      "stateMutability": "nonpayable",
      "type": "function"
    }
  ],
  "transactionHash": "0x5d00678a0dc9eff7b7beb6041f02651a355b02d10b9386f8e248f07e5f1b3789",
  "args": [
    5,
    604800,
    "0xffED83BDBd2F9906Ac12467288946cf7d8F6f599",
    "0x690c1680b0843Ea9Bdb04cA5f9239A92d9dEb493",
    "0x1CF25555Eb74b587b4b3d9019d6Bf279E9920d25"
  ],
  "numDeployments": 1,
  "solcInputHash": "53569466bcd7546878fb900dc1c3b8de",
  "bytecode": "0x6101206040523480156200001257600080fd5b50604051620038a6380380620038a6833981016040819052620000359162000121565b6200004033620000b8565b60c860045584841162000066576040516307cb550760e31b815260040160405180910390fd5b428411156200008857604051630b4319e560e21b815260040160405180910390fd5b60809490945260a0929092526001600160a01b0390811660e05290811660c05260c8600455166101005262000189565b600080546001600160a01b038381166001600160a01b0319831681178455604051919092169283917f8be0079c531659141344cd1fd0a4f28419497f9722a3daafe3b4186f6b6457e09190a35050565b6001600160a01b03811681146200011e57600080fd5b50565b600080600080600060a086880312156200013a57600080fd5b85519450602086015193506040860151620001558162000108565b6060870151909350620001688162000108565b60808701519092506200017b8162000108565b809150509295509295909350565b60805160a05160c05160e0516101005161363e62000268600039600081816106c501526127b7015260008181610303015281816108e20152612a6e01526000818161063b01528181610bb901528181610c5701528181610efe01528181610ff301528181611202015281816116800152818161176a015281816118080152818161197801528181611a7501528181611c3b01528181611cd901528181611ee901528181611f870152818161206d015261210b01526000818161071301528181611e0301526126e60152600081816105890152612688015261363e6000f3fe6080604052600436106102055760003560e01c80638a95b09f11610113578063bae8fc08116100ab578063e9cf272b1161006f578063e9cf272b14610762578063f14fcbc814610782578063f2fde38b146107a2578063f3b3c97f146107c2578063f9524ded146107e257600080fd5b8063bae8fc0814610693578063c8a4271f146106b3578063ccdfbe43146106e7578063ce1e09c014610701578063ddc0477d1461073557600080fd5b80638a95b09f146105605780638d839ffe146105775780638da5cb5b146105ab578063928731c1146105c957806394d2ec40146105e9578063a8df1a9e14610609578063a8e5fbc014610629578063ad4e88141461065d578063ad7a672f1461067d57600080fd5b80635967616e116101a157806371dc194f1161016557806371dc194f146104b3578063757de573146104e8578063834029ba14610508578063839df9451461051d57806383b5ff8b1461054a57600080fd5b80635967616e1461037d5780635d3590d5146103905780635f707515146103b05780636ed96587146103e0578063715018a61461049e57600080fd5b806301ffc9a71461020a57806310dbfba51461023f57806312abf4f71461026d57806327e235e31461028d57806334a8f108146102ba5780633ccfd60b146102dc5780633f15457f146102f15780633f4cfb1c1461033d57806344ae718e1461035d575b600080fd5b34801561021657600080fd5b5061022a610225366004612cc5565b610802565b60405190151581526020015b60405180910390f35b34801561024b57600080fd5b5061025f61025a366004612d06565b610839565b604051908152602001610236565b34801561027957600080fd5b5061022a610288366004612ddd565b610873565b34801561029957600080fd5b5061025f6102a8366004612e2e565b60016020526000908152604090205481565b3480156102c657600080fd5b506102da6102d5366004612ea1565b61097d565b005b3480156102e857600080fd5b506102da6109ee565b3480156102fd57600080fd5b506103257f000000000000000000000000000000000000000000000000000000000000000081565b6040516001600160a01b039091168152602001610236565b34801561034957600080fd5b506102da610358366004612ef7565b610ba2565b34801561036957600080fd5b5061025f610378366004612f27565b610d0d565b6102da61038b366004612f52565b610d2b565b34801561039c57600080fd5b506102da6103ab366004612ff3565b611343565b3480156103bc57600080fd5b5061022a6103cb366004612f27565b60076020526000908152604090205460ff1681565b3480156103ec57600080fd5b506104536103fb366004612f27565b6006602052600090815260409020805460019091015460ff8216916001600160a01b03610100820416916001600160401b03600160a81b90920482169181169061ffff600160401b8204811691600160501b90041686565b6040805196151587526001600160a01b0390951660208701526001600160401b03938416948601949094529116606084015261ffff90811660808401521660a082015260c001610236565b3480156104aa57600080fd5b506102da6113c4565b3480156104bf57600080fd5b506104d36104ce366004613034565b6113d8565b60408051928352602083019190915201610236565b3480156104f457600080fd5b506102da610503366004612f27565b611551565b34801561051457600080fd5b506102da611630565b34801561052957600080fd5b5061025f610538366004612f27565b60056020526000908152604090205481565b34801561055657600080fd5b5061025f60045481565b34801561056c57600080fd5b5061025f6224ea0081565b34801561058357600080fd5b5061025f7f000000000000000000000000000000000000000000000000000000000000000081565b3480156105b757600080fd5b506000546001600160a01b0316610325565b3480156105d557600080fd5b506102da6105e4366004613094565b611647565b3480156105f557600080fd5b5061025f61060436600461313c565b61194d565b34801561061557600080fd5b5061025f61062436600461318a565b611a59565b34801561063557600080fd5b506103257f000000000000000000000000000000000000000000000000000000000000000081565b34801561066957600080fd5b5061025f6106783660046131e4565b611b53565b34801561068957600080fd5b5061025f60035481565b34801561069f57600080fd5b506102da6106ae366004612f27565b611b8a565b3480156106bf57600080fd5b506103257f000000000000000000000000000000000000000000000000000000000000000081565b3480156106f357600080fd5b5060085461022a9060ff1681565b34801561070d57600080fd5b5061025f7f000000000000000000000000000000000000000000000000000000000000000081565b34801561074157600080fd5b5061025f610750366004612e2e565b60026020526000908152604090205481565b34801561076e57600080fd5b506102da61077d36600461322c565b611c24565b34801561078e57600080fd5b506102da61079d366004612f27565b611dec565b3480156107ae57600080fd5b506102da6107bd366004612e2e565b611e5c565b3480156107ce57600080fd5b506102da6107dd366004613261565b611ed2565b3480156107ee57600080fd5b506102da6107fd3660046132df565b612056565b60006001600160e01b03198216637c812c4560e01b148061083357506301ffc9a760e01b6001600160e01b03198316145b92915050565b6000828152600660205260408120600201805461ffff841690811061086057610860613301565b9060005260206000200154905092915050565b6000808061088184826121c7565b90925090506000610892858361227e565b905060006108a0828561233d565b905060006108ad87612369565b5090506108ba8282612463565b801561095857506040516302571be360e01b8152600481018390526000906001600160a01b037f000000000000000000000000000000000000000000000000000000000000000016906302571be390602401602060405180830381865afa158015610929573d6000803e3d6000fd5b505050506040513d601f19601f8201168201806040525081019061094d9190613317565b6001600160a01b0316145b8015610972575060008381526006602052604090205460ff165b979650505050505050565b6109856124f9565b60006109cb600085858080601f016020809104026020016040519081016040528093929190818152602001838380828437600092019190915250929392505061227e9050565b6000908152600760205260409020805460ff191692151592909217909155505050565b33610a016000546001600160a01b031690565b6001600160a01b0316816001600160a01b031603610ac257600060035447610a29919061334a565b905060008111610a755760405162461bcd60e51b815260206004820152601260248201527104f776e65722062616c616e636520697320360741b60448201526064015b60405180910390fd5b60405181906001600160a01b038416907fb990971c3785a76fb59cf6aa8fe8327738148e676c6d46a6dea040c4b6b2609590600090a3610abe6001600160a01b03831682612553565b5050565b6001600160a01b038116600090815260016020526040902054610b205760405162461bcd60e51b815260206004820152601660248201527504164647265737327732062616c616e636520697320360541b6044820152606401610a6c565b6001600160a01b03811660009081526001602052604081208054908290556003805491928392610b5190849061334a565b909155505060405181906001600160a01b038416907fb990971c3785a76fb59cf6aa8fe8327738148e676c6d46a6dea040c4b6b2609590600090a3610abe6001600160a01b03831682612553565b50565b6040516341415eab60e01b81526001600160a01b037f000000000000000000000000000000000000000000000000000000000000000016906341415eab90610bf0908590339060040161335d565b602060405180830381865afa158015610c0d573d6000803e3d6000fd5b505050506040513d601f19601f82011682018060405250810190610c319190613374565b1580610ccc57506040516356fa4b0560e11b8152600481018390526201000160248201527f00000000000000000000000000000000000000000000000000000000000000006001600160a01b03169063adf4960a90604401602060405180830381865afa158015610ca6573d6000803e3d6000fd5b505050506040513d601f19601f82011682018060405250810190610cca9190613374565b155b15610ced57604051635c20ef6960e11b815260048101839052602401610a6c565b600091825260066020526040909120805460ff1916911515919091179055565b6000818152600660205260408120600201546108339060019061334a565b600080600080610d7560008d8d8080601f01602080910402602001604051908101604052809392919081815260200183838082843760009201919091525092939250506121c79050565b91509150610dbc818d8d8080601f016020809104026020016040519081016040528093929190818152602001838380828437600092019190915250929392505061227e9050565b9350610dc8848361233d565b600085815260066020526040902054909350600160a81b90046001600160401b031688109150819050610e1457506000828152600660205260409020600101546001600160401b031686115b15610e35576040516313b783af60e21b815260048101879052602401610a6c565b6000610e768b8b8080601f01602080910402602001604051908101604052809392919081815260200183838082843760009201919091525061236992505050565b509050610e838282612463565b610ea25780604051637df0e75560e01b8152600401610a6c91906133d7565b5060008281526006602052604090205460ff16610ed6578989604051632df73e3360e11b8152600401610a6c929190613413565b6000610ee28742613427565b604051630178fe3f60e01b8152600481018590529091506000907f00000000000000000000000000000000000000000000000000000000000000006001600160a01b031690630178fe3f90602401606060405180830381865afa158015610f4d573d6000803e3d6000fd5b505050506040513d601f19601f82011682018060405250810190610f71919061343a565b92505050806001600160401b0316826001600160401b03161115610fa857610fa2426001600160401b03831661334a565b97508091505b506000610fb68c8c8a6113d8565b50905080341015610fda5760405163044044a560e21b815260040160405180910390fd5b6040516331a9108f60e11b8152600481018590526000907f00000000000000000000000000000000000000000000000000000000000000006001600160a01b031690636352211e90602401602060405180830381865afa158015611042573d6000803e3d6000fd5b505050506040513d601f19601f820116820180604052508101906110669190613317565b905060006127106004548461107b919061347c565b61108591906134a9565b905060006001600160a01b038c16156110fc576001600160a01b038c16600090815260026020526040902054612710906110bf908661347c565b6110c991906134a9565b6001600160a01b038d166000908152600160205260408120805492935083929091906110f6908490613427565b90915550505b81611107828661334a565b611111919061334a565b6001600160a01b03841660009081526001602052604081208054909190611139908490613427565b909155506111499050828561334a565b6003600082825461115a9190613427565b925050819055505050506111bc886111b78e8e8080601f016020809104026020016040519081016040528093929190818152602001838380828437600081840152601f19601f820116905080830192505050505050508d8b611b53565b612671565b60006111fd8d8d8080601f01602080910402602001604051908101604052809392919081815260200183838082843760009201919091525061236992505050565b5090507f00000000000000000000000000000000000000000000000000000000000000006001600160a01b031663b1b36f2886838e600660008b815260200190815260200160002060000160019054906101000a90046001600160a01b03168c60006201000060018f17178b6040518963ffffffff1660e01b815260040161128c9897969594939291906134bd565b6020604051808303816000875af11580156112ab573d6000803e3d6000fd5b505050506040513d601f19601f820116820180604052508101906112cf9190613527565b5050896001600160a01b0316837f7cb3866bf468ec4d0221fae5bade9a6bf536e7c661e80aa9b20db3e7a71fbb668e8e85876040516113119493929190613540565b60405180910390a3803411156113355761133561132e823461334a565b3390612553565b505050505050505050505050565b61134b6124f9565b60405163a9059cbb60e01b81526001600160a01b0383811660048301526024820183905284169063a9059cbb906044016020604051808303816000875af115801561139a573d6000803e3d6000fd5b505050506040513d601f19601f820116820180604052508101906113be9190613374565b50505050565b6113cc6124f9565b6113d66000612762565b565b600080600061141c86868080601f01602080910402602001604051908101604052809392919081815260200183838082843760009201919091525061236992505050565b91506000905061146f611430836001613427565b88888080601f016020809104026020016040519081016040528093929190818152602001838380828437600092019190915250929392505061227e9050565b600081815260066020526040812060020154919250811561152157818410156114ff5760008381526006602052604090206002018054859081106114b5576114b5613301565b90600052602060002001549050806000036114fa57600083815260066020526040812060020180549091906114ec576114ec613301565b906000526020600020015490505b611525565b600083815260066020526040812060020180549091906114ec576114ec613301565b5060005b611537611532888361347c565b6127b2565b611541888361347c565b9550955050505050935093915050565b6000546001600160a01b031633146115ab5760405162461bcd60e51b815260206004820152601e60248201527f4f6e6c7920746865206f776e65722063616e20736574207468652063757400006044820152606401610a6c565b6101f48111156115fd5760405162461bcd60e51b815260206004820181905260248201527f4f776e6572206375742063616e6e6f74206265206d6f7265207468616e2035256044820152606401610a6c565b600481905560405181907fd0097c261070735a2812d4540f4ac501d429da168de12584fb6302c6ea3abfd990600090a250565b6116386124f9565b6008805460ff19166001179055565b60008061165389612369565b909250905060006116648a8261227e565b6040516331a9108f60e11b8152600481018290529091506000907f00000000000000000000000000000000000000000000000000000000000000006001600160a01b031690636352211e90602401602060405180830381865afa1580156116cf573d6000803e3d6000fd5b505050506040513d601f19601f820116820180604052508101906116f39190613317565b60085490915060ff16158015611718575060008281526007602052604090205460ff16155b1561173957604051635c20ef6960e11b815260048101839052602401610a6c565b6001600160a01b038116611753576117518433611a59565b505b6040516341415eab60e01b81526001600160a01b037f000000000000000000000000000000000000000000000000000000000000000016906341415eab906117a1908590339060040161335d565b602060405180830381865afa1580156117be573d6000803e3d6000fd5b505050506040513d601f19601f820116820180604052508101906117e29190613374565b158061187d57506040516356fa4b0560e11b8152600481018390526201000160248201527f00000000000000000000000000000000000000000000000000000000000000006001600160a01b03169063adf4960a90604401602060405180830381865afa158015611857573d6000803e3d6000fd5b505050506040513d601f19601f8201168201806040525081019061187b9190613374565b155b1561189e57604051635c20ef6960e11b815260048101839052602401610a6c565b50600090815260066020526040902080546001600160a81b031916981515610100600160a81b031916989098176101006001600160a01b0398909816979097029690961767ffffffffffffffff60a81b1916600160a81b6001600160401b039687160217875550600190950180549290931669ffffffffffffffffffff1990921691909117600160401b61ffff928316021761ffff60501b1916600160501b9190941602929092179091555050565b60008061195b858585612852565b6040516316366de560e31b81529091506000906001600160a01b037f0000000000000000000000000000000000000000000000000000000000000000169063b1b36f28906119d3906000805160206135e98339815191529086908c9087908190819062010001906001600160401b03906004016134bd565b6020604051808303816000875af11580156119f2573d6000803e3d6000fd5b505050506040513d601f19601f82011682018060405250810190611a169190613527565b90507f1de92c8ea47e91254089d9ac38756d7765dadc10b14bb2b7808bbb1df9b1a92a82604051611a4791906133d7565b60405180910390a19695505050505050565b6040516316366de560e31b815260009081906001600160a01b037f0000000000000000000000000000000000000000000000000000000000000000169063b1b36f2890611ad0906000805160206135e9833981519152908890889087908190819062010001906001600160401b03906004016134bd565b6020604051808303816000875af1158015611aef573d6000803e3d6000fd5b505050506040513d601f19601f82011682018060405250810190611b139190613527565b90507f1de92c8ea47e91254089d9ac38756d7765dadc10b14bb2b7808bbb1df9b1a92a84604051611b4491906133d7565b60405180910390a19392505050565b6000838383604051602001611b6a93929190613574565b6040516020818303038152906040528051906020012090505b9392505050565b6103e8811115611be85760405162461bcd60e51b8152602060048201526024808201527f5265666572726572206375742063616e6e6f74206265206d6f7265207468616e6044820152632031302560e01b6064820152608401610a6c565b336000908152600260205260408082208390555182917f5132aa1b4691ab49930b655c558addd21627fa35b28ff9695f3468d955c0e0a091a250565b6040516341415eab60e01b81526001600160a01b037f000000000000000000000000000000000000000000000000000000000000000016906341415eab90611c72908690339060040161335d565b602060405180830381865afa158015611c8f573d6000803e3d6000fd5b505050506040513d601f19601f82011682018060405250810190611cb39190613374565b1580611d4e57506040516356fa4b0560e11b8152600481018490526201000160248201527f00000000000000000000000000000000000000000000000000000000000000006001600160a01b03169063adf4960a90604401602060405180830381865afa158015611d28573d6000803e3d6000fd5b505050506040513d601f19601f82011682018060405250810190611d4c9190613374565b155b15611d6f57604051635c20ef6960e11b815260048101849052602401610a6c565b600083815260066020526040902060020154611d8d9060019061334a565b8261ffff161115611db1576040516339b7567760e21b815260040160405180910390fd5b6000838152600660205260409020600201805482919061ffff8516908110611ddb57611ddb613301565b600091825260209091200155505050565b6000818152600560205260409020544290611e28907f000000000000000000000000000000000000000000000000000000000000000090613427565b10611e4957604051630a059d7160e01b815260048101829052602401610a6c565b6000908152600560205260409020429055565b611e646124f9565b6001600160a01b038116611ec95760405162461bcd60e51b815260206004820152602660248201527f4f776e61626c653a206e6577206f776e657220697320746865207a65726f206160448201526564647265737360d01b6064820152608401610a6c565b610b9f81612762565b6040516341415eab60e01b81526001600160a01b037f000000000000000000000000000000000000000000000000000000000000000016906341415eab90611f20908690339060040161335d565b602060405180830381865afa158015611f3d573d6000803e3d6000fd5b505050506040513d601f19601f82011682018060405250810190611f619190613374565b1580611ffc57506040516356fa4b0560e11b8152600481018490526201000160248201527f00000000000000000000000000000000000000000000000000000000000000006001600160a01b03169063adf4960a90604401602060405180830381865afa158015611fd6573d6000803e3d6000fd5b505050506040513d601f19601f82011682018060405250810190611ffa9190613374565b155b1561201d57604051635c20ef6960e11b815260048101849052602401610a6c565b600083815260066020526040812061203a91600290910190612c47565b60008381526006602052604090206113be906002018383612c65565b6040516341415eab60e01b81526001600160a01b037f000000000000000000000000000000000000000000000000000000000000000016906341415eab906120a4908590339060040161335d565b602060405180830381865afa1580156120c1573d6000803e3d6000fd5b505050506040513d601f19601f820116820180604052508101906120e59190613374565b158061218057506040516356fa4b0560e11b8152600481018390526201000160248201527f00000000000000000000000000000000000000000000000000000000000000006001600160a01b03169063adf4960a90604401602060405180830381865afa15801561215a573d6000803e3d6000fd5b505050506040513d601f19601f8201168201806040525081019061217e9190613374565b155b156121a157604051635c20ef6960e11b815260048101839052602401610a6c565b600091825260066020908152604083206002018054600181018255908452922090910155565b6000808351831061221a5760405162461bcd60e51b815260206004820152601e60248201527f726561644c6162656c3a20496e646578206f7574206f6620626f756e647300006044820152606401610a6c565b600084848151811061222e5761222e613301565b016020015160f81c9050801561225a576122538561224d866001613427565b83612b20565b925061225f565b600092505b6122698185613427565b612274906001613427565b9150509250929050565b600080600061228d85856121c7565b9092509050816122ff57600185516122a5919061334a565b84146122f35760405162461bcd60e51b815260206004820152601d60248201527f6e616d65686173683a204a756e6b20617420656e64206f66206e616d650000006044820152606401610a6c565b50600091506108339050565b612309858261227e565b6040805160208101929092528101839052606001604051602081830303815290604052805190602001209250505092915050565b604080516020808201949094528082019290925280518083038201815260609092019052805191012090565b60606000808360008151811061238157612381613301565b0160200151845160f89190911c91508110801561239e5750600081115b6123a757600080fd5b6000816001600160401b038111156123c1576123c1612d32565b6040519080825280601f01601f1916602001820160405280156123eb576020820181803683370190505b50905060005b828110156124595785612405826001613427565b8151811061241557612415613301565b602001015160f81c60f81b82828151811061243257612432613301565b60200101906001600160f81b031916908160001a905350612452816135a2565b90506123f1565b5094909350915050565b600082815260066020526040812060010154600160401b900461ffff1661248983612b44565b106124f157600083815260066020526040902060010154600160501b900461ffff16158015906124dc5750600083815260066020526040902060010154600160501b900461ffff166124da83612b44565b115b156124e957506000610833565b506001610833565b506000610833565b6000546001600160a01b031633146113d65760405162461bcd60e51b815260206004820181905260248201527f4f776e61626c653a2063616c6c6572206973206e6f7420746865206f776e65726044820152606401610a6c565b804710156125a35760405162461bcd60e51b815260206004820152601d60248201527f416464726573733a20696e73756666696369656e742062616c616e63650000006044820152606401610a6c565b6000826001600160a01b03168260405160006040518083038185875af1925050503d80600081146125f0576040519150601f19603f3d011682016040523d82523d6000602084013e6125f5565b606091505b505090508061266c5760405162461bcd60e51b815260206004820152603a60248201527f416464726573733a20756e61626c6520746f2073656e642076616c75652c207260448201527f6563697069656e74206d617920686176652072657665727465640000000000006064820152608401610a6c565b505050565b60008181526005602052604090205442906126ad907f000000000000000000000000000000000000000000000000000000000000000090613427565b11156126cf57604051635320bcf960e01b815260048101829052602401610a6c565b600081815260056020526040902054429061270b907f000000000000000000000000000000000000000000000000000000000000000090613427565b1161272c5760405163cb7690d760e01b815260048101829052602401610a6c565b6000818152600560205260408120556224ea00821015610abe57604051639a71997b60e01b815260048101839052602401610a6c565b600080546001600160a01b038381166001600160a01b0319831681178455604051919092169283917f8be0079c531659141344cd1fd0a4f28419497f9722a3daafe3b4186f6b6457e09190a35050565b6000807f00000000000000000000000000000000000000000000000000000000000000006001600160a01b03166350d25bcd6040518163ffffffff1660e01b8152600401602060405180830381865afa158015612813573d6000803e3d6000fd5b505050506040513d601f19601f820116820180604052508101906128379190613527565b905080612848846305f5e10061347c565b611b8391906134a9565b60608260ff166000036128bc5760405162461bcd60e51b815260206004820152602c60248201527f4e756d626572206f662063686172616374657273206d7573742062652067726560448201526b30ba32b9103a3430b710181760a11b6064820152608401610a6c565b836000036129165760405162461bcd60e51b815260206004820152602160248201527f4d6178206c6f6f7073206d7573742062652067726561746572207468616e20306044820152601760f91b6064820152608401610a6c565b60008360ff166001600160401b0381111561293357612933612d32565b6040519080825280601f01601f19166020018201604052801561295d576020820181803683370190505b5060408051426020808301919091523360601b6bffffffffffffffffffffffff1916828401526054808301889052835180840390910181526074909201909252805191012090915060005b86811015612b065760005b8660ff16811015612a255760006129cb600a856135bb565b90506129d88160306135cf565b60f81b8583815181106129ed576129ed613301565b60200101906001600160f81b031916908160001a905350612a0f600a856134a9565b9350508080612a1d906135a2565b9150506129b3565b506000612a4a6000805160206135e983398151915260001b858051906020012061233d565b6040516302571be360e01b8152600481018290529091506000906001600160a01b037f000000000000000000000000000000000000000000000000000000000000000016906302571be390602401602060405180830381865afa158015612ab5573d6000803e3d6000fd5b505050506040513d601f19601f82011682018060405250810190612ad99190613317565b6001600160a01b031603612af35783945050505050611b83565b5080612afe816135a2565b9150506129a8565b50604051634e0bc4e360e11b815260040160405180910390fd5b8251600090612b2f8385613427565b1115612b3a57600080fd5b5091016020012090565b8051600090819081905b80821015612c3e576000858381518110612b6a57612b6a613301565b01602001516001600160f81b0319169050600160ff1b811015612b9957612b92600184613427565b9250612c2b565b600760fd1b6001600160f81b031982161015612bba57612b92600284613427565b600f60fc1b6001600160f81b031982161015612bdb57612b92600384613427565b601f60fb1b6001600160f81b031982161015612bfc57612b92600484613427565b603f60fa1b6001600160f81b031982161015612c1d57612b92600584613427565b612c28600684613427565b92505b5082612c36816135a2565b935050612b4e565b50909392505050565b5080546000825590600052602060002090810190610b9f9190612cb0565b828054828255906000526020600020908101928215612ca0579160200282015b82811115612ca0578235825591602001919060010190612c85565b50612cac929150612cb0565b5090565b5b80821115612cac5760008155600101612cb1565b600060208284031215612cd757600080fd5b81356001600160e01b031981168114611b8357600080fd5b803561ffff81168114612d0157600080fd5b919050565b60008060408385031215612d1957600080fd5b82359150612d2960208401612cef565b90509250929050565b634e487b7160e01b600052604160045260246000fd5b60006001600160401b0380841115612d6257612d62612d32565b604051601f8501601f19908116603f01168101908282118183101715612d8a57612d8a612d32565b81604052809350858152868686011115612da357600080fd5b858560208301376000602087830101525050509392505050565b600082601f830112612dce57600080fd5b611b8383833560208501612d48565b600060208284031215612def57600080fd5b81356001600160401b03811115612e0557600080fd5b612e1184828501612dbd565b949350505050565b6001600160a01b0381168114610b9f57600080fd5b600060208284031215612e4057600080fd5b8135611b8381612e19565b60008083601f840112612e5d57600080fd5b5081356001600160401b03811115612e7457600080fd5b602083019150836020828501011115612e8c57600080fd5b9250929050565b8015158114610b9f57600080fd5b600080600060408486031215612eb657600080fd5b83356001600160401b03811115612ecc57600080fd5b612ed886828701612e4b565b9094509250506020840135612eec81612e93565b809150509250925092565b60008060408385031215612f0a57600080fd5b823591506020830135612f1c81612e93565b809150509250929050565b600060208284031215612f3957600080fd5b5035919050565b63ffffffff81168114610b9f57600080fd5b60008060008060008060008060e0898b031215612f6e57600080fd5b88356001600160401b03811115612f8457600080fd5b612f908b828c01612e4b565b9099509750506020890135612fa481612e19565b95506040890135612fb481612e19565b9450606089013593506080890135925060a0890135612fd281612e19565b915060c0890135612fe281612f40565b809150509295985092959890939650565b60008060006060848603121561300857600080fd5b833561301381612e19565b9250602084013561302381612e19565b929592945050506040919091013590565b60008060006040848603121561304957600080fd5b83356001600160401b0381111561305f57600080fd5b61306b86828701612e4b565b909790965060209590950135949350505050565b6001600160401b0381168114610b9f57600080fd5b600080600080600080600060e0888a0312156130af57600080fd5b87356001600160401b038111156130c557600080fd5b6130d18a828b01612dbd565b97505060208801356130e281612e93565b955060408801356130f281612e19565b945060608801356131028161307f565b935060808801356131128161307f565b925061312060a08901612cef565b915061312e60c08901612cef565b905092959891949750929550565b6000806000806080858703121561315257600080fd5b843561315d81612e19565b935060208501359250604085013560ff8116811461317a57600080fd5b9396929550929360600135925050565b6000806040838503121561319d57600080fd5b82356001600160401b038111156131b357600080fd5b8301601f810185136131c457600080fd5b6131d385823560208401612d48565b9250506020830135612f1c81612e19565b6000806000606084860312156131f957600080fd5b83356001600160401b0381111561320f57600080fd5b61321b86828701612dbd565b935050602084013561302381612e19565b60008060006060848603121561324157600080fd5b8335925061325160208501612cef565b9150604084013590509250925092565b60008060006040848603121561327657600080fd5b8335925060208401356001600160401b038082111561329457600080fd5b818601915086601f8301126132a857600080fd5b8135818111156132b757600080fd5b8760208260051b85010111156132cc57600080fd5b6020830194508093505050509250925092565b600080604083850312156132f257600080fd5b50508035926020909101359150565b634e487b7160e01b600052603260045260246000fd5b60006020828403121561332957600080fd5b8151611b8381612e19565b634e487b7160e01b600052601160045260246000fd5b8181038181111561083357610833613334565b9182526001600160a01b0316602082015260400190565b60006020828403121561338657600080fd5b8151611b8381612e93565b6000815180845260005b818110156133b75760208185018101518683018201520161339b565b506000602082860101526020601f19601f83011685010191505092915050565b602081526000611b836020830184613391565b81835281816020850137506000828201602090810191909152601f909101601f19169091010190565b602081526000612e116020830184866133ea565b8082018082111561083357610833613334565b60008060006060848603121561344f57600080fd5b835161345a81612e19565b602085015190935061346b81612f40565b6040850151909250612eec8161307f565b808202811582820484141761083357610833613334565b634e487b7160e01b600052601260045260246000fd5b6000826134b8576134b8613493565b500490565b60006101008a83528060208401526134d78184018b613391565b6001600160a01b03998a166040850152978916606084015250509390951660808401526001600160401b0391821660a084015263ffffffff1660c083015290921660e09092019190915292915050565b60006020828403121561353957600080fd5b5051919050565b6060815260006135546060830186886133ea565b90508360208301526001600160401b038316604083015295945050505050565b6060815260006135876060830186613391565b6001600160a01b039490941660208301525060400152919050565b6000600182016135b4576135b4613334565b5060010190565b6000826135ca576135ca613493565b500690565b60ff81811683821601908111156108335761083361333456fec951937fc733cfe92dd3ea5d53048d4f39082c7e84dfc0501b03d5e2dd672d5da2646970667358221220d5d7fdee9c26af5916bfec3b76b455c18dca6a6e44f238cd09ebc78d6c63860264736f6c63430008130033",
  "devdoc": {
    "details": "A registrar controller for registering and renewing names at fixed cost.",
    "kind": "dev",
    "methods": {
      "addNextPriceForCharLength(bytes32,uint256)": {
        "params": {
          "charAmount": "The amount in USD/sec. (with 18 digits of precision)  for a character count, e.g. amount for three characters.",
          "parentNode": "The namehash of the parent name."
        }
      },
      "allowName(bytes,bool)": {
        "params": {
          "_allow": "A bool indicating if the name is allowed to be listed.",
          "_name": "The name in DNS format, e.g. vitalik.eth"
        }
      },
      "available(bytes)": {
        "params": {
          "name": "The full name, in DNS format wherein the length precedes each label and is terminted with a 0x0 byte, e.g. \"cb.id\" => [0x02,0x63,0x62,0x02,0x69,0x64,0x00]."
        }
      },
      "commit(bytes32)": {
        "params": {
          "commitment": "The hash to register. "
        }
      },
      "getLastCharIndex(bytes32)": {
        "returns": {
          "_0": "The length of the last character length that was set."
        }
      },
      "getPriceDataForLength(bytes32,uint16)": {
        "params": {
          "charLength": "The character length, e.g. 3 would be for three characters. Use 0 for the default amount.",
          "parentNode": "The namehash of the parent name."
        }
      },
      "makeCommitment(bytes,address,bytes32)": {
        "params": {
          "name": "The full name, in DNS format wherein the length precedes each label and is terminted with a 0x0 byte, e.g. \"cb.id\" => [0x02,0x63,0x62,0x02,0x69,0x64,0x00].",
          "owner": "The address that will own the name.",
          "secret": "The secret to be used for the commitment."
        }
      },
      "owner()": {
        "details": "Returns the address of the current owner."
      },
      "recoverFunds(address,address,uint256)": {
        "details": "The contract is Ownable and only the owner can call the recover function.",
        "params": {
          "_amount": "The amount of tokens to recover.",
          "_to": "The address to send the tokens to.",
          "_token": "The address of the ERC20 token to recover"
        }
      },
      "register(bytes,address,address,uint256,bytes32,address,uint32)": {
        "params": {
          "duration": "The duration in seconds of the registration.",
          "fuses": "The fuses to be set on the name.",
          "name": "The full name, in DNS format.",
          "owner": "The address that will own the name.",
          "referrer": "The address that referred the owner to the registrar.",
          "resolver": "The address of the resolver to use.",
          "secret": "The secret to be used for the commitment."
        }
      },
      "registerRandomUnruggable(address,uint256,uint8,uint256)": {
        "params": {
          "maxLoops": "The maximum number of times to check for an available name.",
          "numChars": "The number of characters in the name.",
          "owner": "The address that will own the name.",
          "salt": "The salt to be used for the commitment."
        }
      },
      "renounceOwnership()": {
        "details": "Leaves the contract without owner. It will not be possible to call `onlyOwner` functions. Can only be called by the current owner. NOTE: Renouncing ownership will leave the contract without an owner, thereby disabling any functionality that is only available to the owner."
      },
      "rentPrice(bytes,uint256)": {
        "params": {
          "duration": "The amount of time the name will be rented for/extended in years. ",
          "name": "The name in DNS format, e.g. vault.vitalik.eth"
        },
        "returns": {
          "usdPrice": "The rent price for the duration in USD ",
          "weiPrice": "The rent price for the duration in Wei "
        }
      },
      "setOfferSubnames(bytes32,bool)": {
        "params": {
          "_offerSubnames": "A bool indicating the parent name owner is offering subnames.",
          "parentNode": "The namehash of the parent name."
        }
      },
      "setOwnerCut(uint256)": {
        "params": {
          "_ownerCut": "The cut for the owner of the contract."
        }
      },
      "setParams(bytes,bool,address,uint64,uint64,uint16,uint16)": {
        "params": {
          "_maxChars": "The maximum length a name can be.",
          "_maxRegistrationDuration": "The maximum duration a name can be registered for.",
          "_minChars": "The minimum length a name can be.",
          "_minRegistrationDuration": "The minimum duration a name can be registered for.",
          "_offerSubnames": "A bool indicating the parent name owner is offering subnames.",
          "_renewalController": "The address of the renewal controller.",
          "name": "The DNS encoded name we want to offer subnames of."
        }
      },
      "setPricingForAllLengths(bytes32,uint256[])": {
        "params": {
          "_charAmounts": "An array of amounst for each characer length.",
          "parentNode": "The namehash of the parent name."
        }
      },
      "setReferrerCut(uint256)": {
        "params": {
          "_referrerCut": "The percentage cut given to the referrer (0-10%)."
        }
      },
      "supportsInterface(bytes4)": {
        "details": "See {IERC165-supportsInterface}."
      },
      "transferOwnership(address)": {
        "details": "Transfers ownership of the contract to a new account (`newOwner`). Can only be called by the current owner."
      },
      "updatePriceForCharLength(bytes32,uint16,uint256)": {
        "params": {
          "charAmount": "The amount in USD/year for a character count, e.g. amount for three characters.",
          "charLength": "The character length, e.g. 3 would be for three characters. Use 0 for the default amount.",
          "parentNode": "The namehash of the parent name."
        }
      }
    },
    "version": 1
  },
  "userdoc": {
    "kind": "user",
    "methods": {
      "addNextPriceForCharLength(bytes32,uint256)": {
        "notice": "Adds a price for the next character length, e.g. three characters."
      },
      "allowName(bytes,bool)": {
        "notice": "Add a name to the allow list."
      },
      "available(bytes)": {
        "notice": "Check to see if the name is available for registration. "
      },
      "commit(bytes32)": {
        "notice": "Registers a commitment hash for a name."
      },
      "disableAllowList()": {
        "notice": "Disable the allow list permanenty."
      },
      "getLastCharIndex(bytes32)": {
        "notice": "Get the last length for a character length that has a price (can be 0), e.g. three characters."
      },
      "getPriceDataForLength(bytes32,uint16)": {
        "notice": "Get the price for a single character length, e.g. three characters."
      },
      "makeCommitment(bytes,address,bytes32)": {
        "notice": "Check to see if the name is available for registration. "
      },
      "recoverFunds(address,address,uint256)": {
        "notice": "Recover ERC20 tokens sent to the contract by mistake."
      },
      "register(bytes,address,address,uint256,bytes32,address,uint32)": {
        "notice": "Register a name."
      },
      "registerRandomUnruggable(address,uint256,uint8,uint256)": {
        "notice": "Register a random number .unruggable name."
      },
      "rentPrice(bytes,uint256)": {
        "notice": "Gets the total cost of rent in wei, from the unitPrice, i.e. USD, and duration."
      },
      "setOfferSubnames(bytes32,bool)": {
        "notice": "Allows for chaning the offer status of subnames to true or false."
      },
      "setOwnerCut(uint256)": {
        "notice": "A function to set the cut for the owner of the contract."
      },
      "setParams(bytes,bool,address,uint64,uint64,uint16,uint16)": {
        "notice": "Set the pricing for subnames of the parent name."
      },
      "setPricingForAllLengths(bytes32,uint256[])": {
        "notice": "Set the pricing for subname lengths."
      },
      "setReferrerCut(uint256)": {
        "notice": "A function to set the referrer cut percentage for a specific referrer."
      },
      "updatePriceForCharLength(bytes32,uint16,uint256)": {
        "notice": "Set a price for a single character length, e.g. three characters."
      },
      "withdraw()": {
        "notice": "A function to allow referrers, name owners, or the contract owner to withdraw."
      }
    },
    "version": 1
  },
  "storageLayout": {
    "storage": [
      {
        "astId": 11102,
        "contract": "contracts/layertwo/optimism/wrapper/L2SubnameRegistrar.sol:L2SubnameRegistrar",
        "label": "_owner",
        "offset": 0,
        "slot": "0",
        "type": "t_address"
      },
      {
        "astId": 28,
        "contract": "contracts/layertwo/optimism/wrapper/L2SubnameRegistrar.sol:L2SubnameRegistrar",
        "label": "balances",
        "offset": 0,
        "slot": "1",
        "type": "t_mapping(t_address,t_uint256)"
      },
      {
        "astId": 32,
        "contract": "contracts/layertwo/optimism/wrapper/L2SubnameRegistrar.sol:L2SubnameRegistrar",
        "label": "referrerCuts",
        "offset": 0,
        "slot": "2",
        "type": "t_mapping(t_address,t_uint256)"
      },
      {
        "astId": 34,
        "contract": "contracts/layertwo/optimism/wrapper/L2SubnameRegistrar.sol:L2SubnameRegistrar",
        "label": "totalBalance",
        "offset": 0,
        "slot": "3",
        "type": "t_uint256"
      },
      {
        "astId": 36,
        "contract": "contracts/layertwo/optimism/wrapper/L2SubnameRegistrar.sol:L2SubnameRegistrar",
        "label": "ownerCut",
        "offset": 0,
        "slot": "4",
        "type": "t_uint256"
      },
      {
        "astId": 807,
        "contract": "contracts/layertwo/optimism/wrapper/L2SubnameRegistrar.sol:L2SubnameRegistrar",
        "label": "commitments",
        "offset": 0,
        "slot": "5",
        "type": "t_mapping(t_bytes32,t_uint256)"
      },
      {
        "astId": 812,
        "contract": "contracts/layertwo/optimism/wrapper/L2SubnameRegistrar.sol:L2SubnameRegistrar",
        "label": "pricingData",
        "offset": 0,
        "slot": "6",
        "type": "t_mapping(t_bytes32,t_struct(Pricing)803_storage)"
      },
      {
        "astId": 816,
        "contract": "contracts/layertwo/optimism/wrapper/L2SubnameRegistrar.sol:L2SubnameRegistrar",
        "label": "allowList",
        "offset": 0,
        "slot": "7",
        "type": "t_mapping(t_bytes32,t_bool)"
      },
      {
        "astId": 818,
        "contract": "contracts/layertwo/optimism/wrapper/L2SubnameRegistrar.sol:L2SubnameRegistrar",
        "label": "allowListDisabled",
        "offset": 0,
        "slot": "8",
        "type": "t_bool"
      }
    ],
    "types": {
      "t_address": {
        "encoding": "inplace",
        "label": "address",
        "numberOfBytes": "20"
      },
      "t_array(t_uint256)dyn_storage": {
        "base": "t_uint256",
        "encoding": "dynamic_array",
        "label": "uint256[]",
        "numberOfBytes": "32"
      },
      "t_bool": {
        "encoding": "inplace",
        "label": "bool",
        "numberOfBytes": "1"
      },
      "t_bytes32": {
        "encoding": "inplace",
        "label": "bytes32",
        "numberOfBytes": "32"
      },
      "t_contract(IRenewalController)2495": {
        "encoding": "inplace",
        "label": "contract IRenewalController",
        "numberOfBytes": "20"
      },
      "t_mapping(t_address,t_uint256)": {
        "encoding": "mapping",
        "key": "t_address",
        "label": "mapping(address => uint256)",
        "numberOfBytes": "32",
        "value": "t_uint256"
      },
      "t_mapping(t_bytes32,t_bool)": {
        "encoding": "mapping",
        "key": "t_bytes32",
        "label": "mapping(bytes32 => bool)",
        "numberOfBytes": "32",
        "value": "t_bool"
      },
      "t_mapping(t_bytes32,t_struct(Pricing)803_storage)": {
        "encoding": "mapping",
        "key": "t_bytes32",
        "label": "mapping(bytes32 => struct L2SubnameRegistrar.Pricing)",
        "numberOfBytes": "32",
        "value": "t_struct(Pricing)803_storage"
      },
      "t_mapping(t_bytes32,t_uint256)": {
        "encoding": "mapping",
        "key": "t_bytes32",
        "label": "mapping(bytes32 => uint256)",
        "numberOfBytes": "32",
        "value": "t_uint256"
      },
      "t_struct(Pricing)803_storage": {
        "encoding": "inplace",
        "label": "struct L2SubnameRegistrar.Pricing",
        "members": [
          {
            "astId": 788,
            "contract": "contracts/layertwo/optimism/wrapper/L2SubnameRegistrar.sol:L2SubnameRegistrar",
            "label": "offerSubnames",
            "offset": 0,
            "slot": "0",
            "type": "t_bool"
          },
          {
            "astId": 791,
            "contract": "contracts/layertwo/optimism/wrapper/L2SubnameRegistrar.sol:L2SubnameRegistrar",
            "label": "renewalController",
            "offset": 1,
            "slot": "0",
            "type": "t_contract(IRenewalController)2495"
          },
          {
            "astId": 793,
            "contract": "contracts/layertwo/optimism/wrapper/L2SubnameRegistrar.sol:L2SubnameRegistrar",
            "label": "minRegistrationDuration",
            "offset": 21,
            "slot": "0",
            "type": "t_uint64"
          },
          {
            "astId": 795,
            "contract": "contracts/layertwo/optimism/wrapper/L2SubnameRegistrar.sol:L2SubnameRegistrar",
            "label": "maxRegistrationDuration",
            "offset": 0,
            "slot": "1",
            "type": "t_uint64"
          },
          {
            "astId": 797,
            "contract": "contracts/layertwo/optimism/wrapper/L2SubnameRegistrar.sol:L2SubnameRegistrar",
            "label": "minChars",
            "offset": 8,
            "slot": "1",
            "type": "t_uint16"
          },
          {
            "astId": 799,
            "contract": "contracts/layertwo/optimism/wrapper/L2SubnameRegistrar.sol:L2SubnameRegistrar",
            "label": "maxChars",
            "offset": 10,
            "slot": "1",
            "type": "t_uint16"
          },
          {
            "astId": 802,
            "contract": "contracts/layertwo/optimism/wrapper/L2SubnameRegistrar.sol:L2SubnameRegistrar",
            "label": "charAmounts",
            "offset": 0,
            "slot": "2",
            "type": "t_array(t_uint256)dyn_storage"
          }
        ],
        "numberOfBytes": "96"
      },
      "t_uint16": {
        "encoding": "inplace",
        "label": "uint16",
        "numberOfBytes": "2"
      },
      "t_uint256": {
        "encoding": "inplace",
        "label": "uint256",
        "numberOfBytes": "32"
      },
      "t_uint64": {
        "encoding": "inplace",
        "label": "uint64",
        "numberOfBytes": "8"
      }
    }
  }
}