{
  "address": "0xa393f704Abc042764b604e239Ab787aB7c599a8e",
  "abi": [
    {
      "inputs": [
        {
          "internalType": "uint256",
          "name": "_minCommitmentAge",
          "type": "uint256"
        },
        {
          "internalType": "uint256",
          "name": "_maxCommitmentAge",
          "type": "uint256"
        },
        {
          "internalType": "contract ENS",
          "name": "_ens",
          "type": "address"
        },
        {
          "internalType": "contract IL2NameWrapper",
          "name": "_nameWrapper",
          "type": "address"
        },
        {
          "internalType": "contract IAggregatorInterface",
          "name": "_usdOracle",
          "type": "address"
        }
      ],
      "stateMutability": "nonpayable",
      "type": "constructor"
    },
    {
      "inputs": [],
      "name": "CannotSetNewCharLengthAmounts",
      "type": "error"
    },
    {
      "inputs": [
        {
          "internalType": "bytes32",
          "name": "commitment",
          "type": "bytes32"
        }
      ],
      "name": "CommitmentTooNew",
      "type": "error"
    },
    {
      "inputs": [
        {
          "internalType": "bytes32",
          "name": "commitment",
          "type": "bytes32"
        }
      ],
      "name": "CommitmentTooOld",
      "type": "error"
    },
    {
      "inputs": [
        {
          "internalType": "uint256",
          "name": "duration",
          "type": "uint256"
        }
      ],
      "name": "DurationTooShort",
      "type": "error"
    },
    {
      "inputs": [],
      "name": "InsufficientValue",
      "type": "error"
    },
    {
      "inputs": [
        {
          "internalType": "uint256",
          "name": "duration",
          "type": "uint256"
        }
      ],
      "name": "InvalidDuration",
      "type": "error"
    },
    {
      "inputs": [],
      "name": "MaxCommitmentAgeTooHigh",
      "type": "error"
    },
    {
      "inputs": [],
      "name": "MaxCommitmentAgeTooLow",
      "type": "error"
    },
    {
      "inputs": [
        {
          "internalType": "bytes",
          "name": "name",
          "type": "bytes"
        }
      ],
      "name": "NameNotAvailable",
      "type": "error"
    },
    {
      "inputs": [
        {
          "internalType": "bytes32",
          "name": "node",
          "type": "bytes32"
        }
      ],
      "name": "UnauthorizedAddress",
      "type": "error"
    },
    {
      "inputs": [
        {
          "internalType": "bytes32",
          "name": "commitment",
          "type": "bytes32"
        }
      ],
      "name": "UnexpiredCommitmentExists",
      "type": "error"
    },
    {
      "inputs": [
        {
          "internalType": "string",
          "name": "label",
          "type": "string"
        }
      ],
      "name": "WrongNumberOfChars",
      "type": "error"
    },
    {
      "anonymous": false,
      "inputs": [
        {
          "indexed": true,
          "internalType": "address",
          "name": "_address",
          "type": "address"
        },
        {
          "indexed": true,
          "internalType": "uint256",
          "name": "amount",
          "type": "uint256"
        }
      ],
      "name": "AddressWithdrew",
      "type": "event"
    },
    {
      "anonymous": false,
      "inputs": [
        {
          "indexed": true,
          "internalType": "bytes",
          "name": "name",
          "type": "bytes"
        },
        {
          "indexed": false,
          "internalType": "uint256",
          "name": "cost",
          "type": "uint256"
        },
        {
          "indexed": false,
          "internalType": "uint256",
          "name": "expires",
          "type": "uint256"
        }
      ],
      "name": "NameRenewed",
      "type": "event"
    },
    {
      "anonymous": false,
      "inputs": [
        {
          "indexed": true,
          "internalType": "uint256",
          "name": "ownerCut",
          "type": "uint256"
        }
      ],
      "name": "OwnerCutSet",
      "type": "event"
    },
    {
      "anonymous": false,
      "inputs": [
        {
          "indexed": true,
          "internalType": "address",
          "name": "previousOwner",
          "type": "address"
        },
        {
          "indexed": true,
          "internalType": "address",
          "name": "newOwner",
          "type": "address"
        }
      ],
      "name": "OwnershipTransferred",
      "type": "event"
    },
    {
      "anonymous": false,
      "inputs": [
        {
          "indexed": true,
          "internalType": "uint256",
          "name": "referrerCut",
          "type": "uint256"
        }
      ],
      "name": "ReferrerCutSet",
      "type": "event"
    },
    {
      "anonymous": false,
      "inputs": [
        {
          "indexed": false,
          "internalType": "bytes",
          "name": "name",
          "type": "bytes"
        },
        {
          "indexed": true,
          "internalType": "bytes32",
          "name": "node",
          "type": "bytes32"
        },
        {
          "indexed": true,
          "internalType": "address",
          "name": "owner",
          "type": "address"
        },
        {
          "indexed": false,
          "internalType": "uint256",
          "name": "price",
          "type": "uint256"
        },
        {
          "indexed": false,
          "internalType": "uint256",
          "name": "expires",
          "type": "uint256"
        }
      ],
      "name": "SubnameRegistered",
      "type": "event"
    },
    {
      "inputs": [],
      "name": "MIN_REGISTRATION_DURATION",
      "outputs": [
        {
          "internalType": "uint256",
          "name": "",
          "type": "uint256"
        }
      ],
      "stateMutability": "view",
      "type": "function"
    },
    {
      "inputs": [
        {
          "internalType": "bytes32",
          "name": "parentNode",
          "type": "bytes32"
        },
        {
          "internalType": "uint256",
          "name": "charAmount",
          "type": "uint256"
        }
      ],
      "name": "addNextPriceForCharLength",
      "outputs": [],
      "stateMutability": "nonpayable",
      "type": "function"
    },
    {
      "inputs": [
        {
          "internalType": "bytes32",
          "name": "",
          "type": "bytes32"
        }
      ],
      "name": "allowList",
      "outputs": [
        {
          "internalType": "bool",
          "name": "",
          "type": "bool"
        }
      ],
      "stateMutability": "view",
      "type": "function"
    },
    {
      "inputs": [],
      "name": "allowListDisabled",
      "outputs": [
        {
          "internalType": "bool",
          "name": "",
          "type": "bool"
        }
      ],
      "stateMutability": "view",
      "type": "function"
    },
    {
      "inputs": [
        {
          "internalType": "bytes",
          "name": "_name",
          "type": "bytes"
        },
        {
          "internalType": "bool",
          "name": "_allow",
          "type": "bool"
        }
      ],
      "name": "allowName",
      "outputs": [],
      "stateMutability": "nonpayable",
      "type": "function"
    },
    {
      "inputs": [
        {
          "internalType": "bytes",
          "name": "name",
          "type": "bytes"
        }
      ],
      "name": "available",
      "outputs": [
        {
          "internalType": "bool",
          "name": "",
          "type": "bool"
        }
      ],
      "stateMutability": "view",
      "type": "function"
    },
    {
      "inputs": [
        {
          "internalType": "address",
          "name": "",
          "type": "address"
        }
      ],
      "name": "balances",
      "outputs": [
        {
          "internalType": "uint256",
          "name": "",
          "type": "uint256"
        }
      ],
      "stateMutability": "view",
      "type": "function"
    },
    {
      "inputs": [
        {
          "internalType": "bytes32",
          "name": "commitment",
          "type": "bytes32"
        }
      ],
      "name": "commit",
      "outputs": [],
      "stateMutability": "nonpayable",
      "type": "function"
    },
    {
      "inputs": [
        {
          "internalType": "bytes32",
          "name": "",
          "type": "bytes32"
        }
      ],
      "name": "commitments",
      "outputs": [
        {
          "internalType": "uint256",
          "name": "",
          "type": "uint256"
        }
      ],
      "stateMutability": "view",
      "type": "function"
    },
    {
      "inputs": [],
      "name": "disableAllowList",
      "outputs": [],
      "stateMutability": "nonpayable",
      "type": "function"
    },
    {
      "inputs": [],
      "name": "ens",
      "outputs": [
        {
          "internalType": "contract ENS",
          "name": "",
          "type": "address"
        }
      ],
      "stateMutability": "view",
      "type": "function"
    },
    {
      "inputs": [
        {
          "internalType": "bytes32",
          "name": "parentNode",
          "type": "bytes32"
        }
      ],
      "name": "getLastCharIndex",
      "outputs": [
        {
          "internalType": "uint256",
          "name": "",
          "type": "uint256"
        }
      ],
      "stateMutability": "view",
      "type": "function"
    },
    {
      "inputs": [
        {
          "internalType": "bytes32",
          "name": "parentNode",
          "type": "bytes32"
        },
        {
          "internalType": "uint16",
          "name": "charLength",
          "type": "uint16"
        }
      ],
      "name": "getPriceDataForLength",
      "outputs": [
        {
          "internalType": "uint256",
          "name": "",
          "type": "uint256"
        }
      ],
      "stateMutability": "view",
      "type": "function"
    },
    {
      "inputs": [
        {
          "internalType": "bytes",
          "name": "name",
          "type": "bytes"
        },
        {
          "internalType": "address",
          "name": "owner",
          "type": "address"
        },
        {
          "internalType": "bytes32",
          "name": "secret",
          "type": "bytes32"
        }
      ],
      "name": "makeCommitment",
      "outputs": [
        {
          "internalType": "bytes32",
          "name": "",
          "type": "bytes32"
        }
      ],
      "stateMutability": "pure",
      "type": "function"
    },
    {
      "inputs": [],
      "name": "maxCommitmentAge",
      "outputs": [
        {
          "internalType": "uint256",
          "name": "",
          "type": "uint256"
        }
      ],
      "stateMutability": "view",
      "type": "function"
    },
    {
      "inputs": [],
      "name": "minCommitmentAge",
      "outputs": [
        {
          "internalType": "uint256",
          "name": "",
          "type": "uint256"
        }
      ],
      "stateMutability": "view",
      "type": "function"
    },
    {
      "inputs": [],
      "name": "nameWrapper",
      "outputs": [
        {
          "internalType": "contract IL2NameWrapper",
          "name": "",
          "type": "address"
        }
      ],
      "stateMutability": "view",
      "type": "function"
    },
    {
      "inputs": [],
      "name": "owner",
      "outputs": [
        {
          "internalType": "address",
          "name": "",
          "type": "address"
        }
      ],
      "stateMutability": "view",
      "type": "function"
    },
    {
      "inputs": [],
      "name": "ownerCut",
      "outputs": [
        {
          "internalType": "uint256",
          "name": "",
          "type": "uint256"
        }
      ],
      "stateMutability": "view",
      "type": "function"
    },
    {
      "inputs": [
        {
          "internalType": "bytes32",
          "name": "",
          "type": "bytes32"
        }
      ],
      "name": "pricingData",
      "outputs": [
        {
          "internalType": "bool",
          "name": "offerSubnames",
          "type": "bool"
        },
        {
          "internalType": "contract IRenewalController",
          "name": "renewalController",
          "type": "address"
        },
        {
          "internalType": "uint64",
          "name": "minRegistrationDuration",
          "type": "uint64"
        },
        {
          "internalType": "uint64",
          "name": "maxRegistrationDuration",
          "type": "uint64"
        },
        {
          "internalType": "uint16",
          "name": "minChars",
          "type": "uint16"
        },
        {
          "internalType": "uint16",
          "name": "maxChars",
          "type": "uint16"
        }
      ],
      "stateMutability": "view",
      "type": "function"
    },
    {
      "inputs": [
        {
          "internalType": "address",
          "name": "_token",
          "type": "address"
        },
        {
          "internalType": "address",
          "name": "_to",
          "type": "address"
        },
        {
          "internalType": "uint256",
          "name": "_amount",
          "type": "uint256"
        }
      ],
      "name": "recoverFunds",
      "outputs": [],
      "stateMutability": "nonpayable",
      "type": "function"
    },
    {
      "inputs": [
        {
          "internalType": "address",
          "name": "",
          "type": "address"
        }
      ],
      "name": "referrerCuts",
      "outputs": [
        {
          "internalType": "uint256",
          "name": "",
          "type": "uint256"
        }
      ],
      "stateMutability": "view",
      "type": "function"
    },
    {
      "inputs": [
        {
          "internalType": "bytes",
          "name": "name",
          "type": "bytes"
        },
        {
          "internalType": "address",
          "name": "owner",
          "type": "address"
        },
        {
          "internalType": "address",
          "name": "referrer",
          "type": "address"
        },
        {
          "internalType": "uint256",
          "name": "duration",
          "type": "uint256"
        },
        {
          "internalType": "bytes32",
          "name": "secret",
          "type": "bytes32"
        },
        {
          "internalType": "address",
          "name": "resolver",
          "type": "address"
        },
        {
          "internalType": "uint32",
          "name": "fuses",
          "type": "uint32"
        }
      ],
      "name": "register",
      "outputs": [],
      "stateMutability": "payable",
      "type": "function"
    },
    {
      "inputs": [],
      "name": "renounceOwnership",
      "outputs": [],
      "stateMutability": "nonpayable",
      "type": "function"
    },
    {
      "inputs": [
        {
          "internalType": "bytes",
          "name": "name",
          "type": "bytes"
        },
        {
          "internalType": "uint256",
          "name": "duration",
          "type": "uint256"
        }
      ],
      "name": "rentPrice",
      "outputs": [
        {
          "internalType": "uint256",
          "name": "weiPrice",
          "type": "uint256"
        },
        {
          "internalType": "uint256",
          "name": "usdPrice",
          "type": "uint256"
        }
      ],
      "stateMutability": "view",
      "type": "function"
    },
    {
      "inputs": [
        {
          "internalType": "bytes32",
          "name": "parentNode",
          "type": "bytes32"
        },
        {
          "internalType": "bool",
          "name": "_offerSubnames",
          "type": "bool"
        }
      ],
      "name": "setOfferSubnames",
      "outputs": [],
      "stateMutability": "nonpayable",
      "type": "function"
    },
    {
      "inputs": [
        {
          "internalType": "uint256",
          "name": "_ownerCut",
          "type": "uint256"
        }
      ],
      "name": "setOwnerCut",
      "outputs": [],
      "stateMutability": "nonpayable",
      "type": "function"
    },
    {
      "inputs": [
        {
          "internalType": "bytes32",
          "name": "parentNode",
          "type": "bytes32"
        },
        {
          "internalType": "bool",
          "name": "_offerSubnames",
          "type": "bool"
        },
        {
          "internalType": "contract IRenewalController",
          "name": "_renewalController",
          "type": "address"
        },
        {
          "internalType": "uint64",
          "name": "_minRegistrationDuration",
          "type": "uint64"
        },
        {
          "internalType": "uint64",
          "name": "_maxRegistrationDuration",
          "type": "uint64"
        },
        {
          "internalType": "uint16",
          "name": "_minChars",
          "type": "uint16"
        },
        {
          "internalType": "uint16",
          "name": "_maxChars",
          "type": "uint16"
        }
      ],
      "name": "setParams",
      "outputs": [],
      "stateMutability": "nonpayable",
      "type": "function"
    },
    {
      "inputs": [
        {
          "internalType": "bytes32",
          "name": "parentNode",
          "type": "bytes32"
        },
        {
          "internalType": "uint256[]",
          "name": "_charAmounts",
          "type": "uint256[]"
        }
      ],
      "name": "setPricingForAllLengths",
      "outputs": [],
      "stateMutability": "nonpayable",
      "type": "function"
    },
    {
      "inputs": [
        {
          "internalType": "uint256",
          "name": "_referrerCut",
          "type": "uint256"
        }
      ],
      "name": "setReferrerCut",
      "outputs": [],
      "stateMutability": "nonpayable",
      "type": "function"
    },
    {
      "inputs": [
        {
          "internalType": "bytes4",
          "name": "interfaceId",
          "type": "bytes4"
        }
      ],
      "name": "supportsInterface",
      "outputs": [
        {
          "internalType": "bool",
          "name": "",
          "type": "bool"
        }
      ],
      "stateMutability": "view",
      "type": "function"
    },
    {
      "inputs": [],
      "name": "totalBalance",
      "outputs": [
        {
          "internalType": "uint256",
          "name": "",
          "type": "uint256"
        }
      ],
      "stateMutability": "view",
      "type": "function"
    },
    {
      "inputs": [
        {
          "internalType": "address",
          "name": "newOwner",
          "type": "address"
        }
      ],
      "name": "transferOwnership",
      "outputs": [],
      "stateMutability": "nonpayable",
      "type": "function"
    },
    {
      "inputs": [
        {
          "internalType": "bytes32",
          "name": "parentNode",
          "type": "bytes32"
        },
        {
          "internalType": "uint16",
          "name": "charLength",
          "type": "uint16"
        },
        {
          "internalType": "uint256",
          "name": "charAmount",
          "type": "uint256"
        }
      ],
      "name": "updatePriceForCharLength",
      "outputs": [],
      "stateMutability": "nonpayable",
      "type": "function"
    },
    {
      "inputs": [],
      "name": "usdOracle",
      "outputs": [
        {
          "internalType": "contract IAggregatorInterface",
          "name": "",
          "type": "address"
        }
      ],
      "stateMutability": "view",
      "type": "function"
    },
    {
      "inputs": [],
      "name": "withdraw",
      "outputs": [],
      "stateMutability": "nonpayable",
      "type": "function"
    }
  ],
  "transactionHash": "0xe3bb93357d9e87961adfcabe0968c08e4ecd43e26813aa9b48417d913e89061b",
  "args": [
    5,
    604800,
    "0xffED83BDBd2F9906Ac12467288946cf7d8F6f599",
    "0x650E2705c595Ddb5f8e0B76fC3295F252f8aabB8",
    "0x1CF25555Eb74b587b4b3d9019d6Bf279E9920d25"
  ],
  "numDeployments": 2,
  "solcInputHash": "09411f6041dce78a34f63327b23de149",
  "bytecode": "0x6101206040523480156200001257600080fd5b506040516200315238038062003152833981016040819052620000359162000121565b6200004033620000b8565b60c860045584841162000066576040516307cb550760e31b815260040160405180910390fd5b428411156200008857604051630b4319e560e21b815260040160405180910390fd5b60809490945260a0929092526001600160a01b0390811660e05290811660c05260c8600455166101005262000189565b600080546001600160a01b038381166001600160a01b0319831681178455604051919092169283917f8be0079c531659141344cd1fd0a4f28419497f9722a3daafe3b4186f6b6457e09190a35050565b6001600160a01b03811681146200011e57600080fd5b50565b600080600080600060a086880312156200013a57600080fd5b85519450602086015193506040860151620001558162000108565b6060870151909350620001688162000108565b60808701519092506200017b8162000108565b809150509295509295909350565b60805160a05160c05160e05161010051612f066200024c6000396000818161064f015261246d0152600081816102cd015261086c0152600081816105c501528181610b4301528181610be101528181610e8801528181610f7d0152818161118c0152818161162b015281816116c9015281816118f10152818161198f01528181611b9f01528181611c3d01528181611d230152611dc101526000818161069d01528181611ab9015261239c015260008181610573015261233e0152612f066000f3fe6080604052600436106101cf5760003560e01c806383b5ff8b116100f8578063c8a4271f11610090578063c8a4271f1461063d578063ccdfbe4314610671578063ce1e09c01461068b578063ddc0477d146106bf578063e9cf272b146106ec578063f14fcbc81461070c578063f2fde38b1461072c578063f3b3c97f1461074c578063f9524ded1461076c57600080fd5b806383b5ff8b1461051457806387b4bc661461052a5780638a95b09f1461054a5780638d839ffe146105615780638da5cb5b14610595578063a8e5fbc0146105b3578063ad4e8814146105e7578063ad7a672f14610607578063bae8fc081461061d57600080fd5b80635967616e1161016b5780635967616e146103475780635d3590d51461035a5780635f7075151461037a5780636ed96587146103aa578063715018a61461046857806371dc194f1461047d578063757de573146104b2578063834029ba146104d2578063839df945146104e757600080fd5b806301ffc9a7146101d457806310dbfba51461020957806312abf4f71461023757806327e235e31461025757806334a8f108146102845780633ccfd60b146102a65780633f15457f146102bb5780633f4cfb1c1461030757806344ae718e14610327575b600080fd5b3480156101e057600080fd5b506101f46101ef3660046126b4565b61078c565b60405190151581526020015b60405180910390f35b34801561021557600080fd5b506102296102243660046126f5565b6107c3565b604051908152602001610200565b34801561024357600080fd5b506101f46102523660046127c3565b6107fd565b34801561026357600080fd5b50610229610272366004612814565b60016020526000908152604090205481565b34801561029057600080fd5b506102a461029f366004612887565b610907565b005b3480156102b257600080fd5b506102a4610978565b3480156102c757600080fd5b506102ef7f000000000000000000000000000000000000000000000000000000000000000081565b6040516001600160a01b039091168152602001610200565b34801561031357600080fd5b506102a46103223660046128dd565b610b2c565b34801561033357600080fd5b5061022961034236600461290d565b610c97565b6102a4610355366004612938565b610cb5565b34801561036657600080fd5b506102a46103753660046129d9565b6112cd565b34801561038657600080fd5b506101f461039536600461290d565b60076020526000908152604090205460ff1681565b3480156103b657600080fd5b5061041d6103c536600461290d565b6006602052600090815260409020805460019091015460ff8216916001600160a01b03610100820416916001600160401b03600160a81b90920482169181169061ffff600160401b8204811691600160501b90041686565b6040805196151587526001600160a01b0390951660208701526001600160401b03938416948601949094529116606084015261ffff90811660808401521660a082015260c001610200565b34801561047457600080fd5b506102a461134e565b34801561048957600080fd5b5061049d610498366004612a1a565b611362565b60408051928352602083019190915201610200565b3480156104be57600080fd5b506102a46104cd36600461290d565b6114db565b3480156104de57600080fd5b506102a46115ba565b3480156104f357600080fd5b5061022961050236600461290d565b60056020526000908152604090205481565b34801561052057600080fd5b5061022960045481565b34801561053657600080fd5b506102a4610545366004612a7a565b6115d1565b34801561055657600080fd5b506102296224ea0081565b34801561056d57600080fd5b506102297f000000000000000000000000000000000000000000000000000000000000000081565b3480156105a157600080fd5b506000546001600160a01b03166102ef565b3480156105bf57600080fd5b506102ef7f000000000000000000000000000000000000000000000000000000000000000081565b3480156105f357600080fd5b50610229610602366004612b01565b61180a565b34801561061357600080fd5b5061022960035481565b34801561062957600080fd5b506102a461063836600461290d565b611840565b34801561064957600080fd5b506102ef7f000000000000000000000000000000000000000000000000000000000000000081565b34801561067d57600080fd5b506008546101f49060ff1681565b34801561069757600080fd5b506102297f000000000000000000000000000000000000000000000000000000000000000081565b3480156106cb57600080fd5b506102296106da366004612814565b60026020526000908152604090205481565b3480156106f857600080fd5b506102a4610707366004612b49565b6118da565b34801561071857600080fd5b506102a461072736600461290d565b611aa2565b34801561073857600080fd5b506102a4610747366004612814565b611b12565b34801561075857600080fd5b506102a4610767366004612b7e565b611b88565b34801561077857600080fd5b506102a4610787366004612bfc565b611d0c565b60006001600160e01b031982166334d950f160e11b14806107bd57506301ffc9a760e01b6001600160e01b03198316145b92915050565b6000828152600660205260408120600201805461ffff84169081106107ea576107ea612c1e565b9060005260206000200154905092915050565b6000808061080b8482611e7d565b9092509050600061081c8583611f34565b9050600061082a8285611ff3565b905060006108378761201f565b5090506108448282612119565b80156108e257506040516302571be360e01b8152600481018390526000906001600160a01b037f000000000000000000000000000000000000000000000000000000000000000016906302571be390602401602060405180830381865afa1580156108b3573d6000803e3d6000fd5b505050506040513d601f19601f820116820180604052508101906108d79190612c34565b6001600160a01b0316145b80156108fc575060008381526006602052604090205460ff165b979650505050505050565b61090f6121af565b6000610955600085858080601f0160208091040260200160405190810160405280939291908181526020018383808284376000920191909152509293925050611f349050565b6000908152600760205260409020805460ff191692151592909217909155505050565b3361098b6000546001600160a01b031690565b6001600160a01b0316816001600160a01b031603610a4c576000600354476109b39190612c67565b9050600081116109ff5760405162461bcd60e51b815260206004820152601260248201527104f776e65722062616c616e636520697320360741b60448201526064015b60405180910390fd5b60405181906001600160a01b038416907fb990971c3785a76fb59cf6aa8fe8327738148e676c6d46a6dea040c4b6b2609590600090a3610a486001600160a01b03831682612209565b5050565b6001600160a01b038116600090815260016020526040902054610aaa5760405162461bcd60e51b815260206004820152601660248201527504164647265737327732062616c616e636520697320360541b60448201526064016109f6565b6001600160a01b03811660009081526001602052604081208054908290556003805491928392610adb908490612c67565b909155505060405181906001600160a01b038416907fb990971c3785a76fb59cf6aa8fe8327738148e676c6d46a6dea040c4b6b2609590600090a3610a486001600160a01b03831682612209565b50565b6040516341415eab60e01b81526001600160a01b037f000000000000000000000000000000000000000000000000000000000000000016906341415eab90610b7a9085903390600401612c7a565b602060405180830381865afa158015610b97573d6000803e3d6000fd5b505050506040513d601f19601f82011682018060405250810190610bbb9190612c91565b1580610c5657506040516356fa4b0560e11b8152600481018390526201000160248201527f00000000000000000000000000000000000000000000000000000000000000006001600160a01b03169063adf4960a90604401602060405180830381865afa158015610c30573d6000803e3d6000fd5b505050506040513d601f19601f82011682018060405250810190610c549190612c91565b155b15610c7757604051635c20ef6960e11b8152600481018390526024016109f6565b600091825260066020526040909120805460ff1916911515919091179055565b6000818152600660205260408120600201546107bd90600190612c67565b600080600080610cff60008d8d8080601f0160208091040260200160405190810160405280939291908181526020018383808284376000920191909152509293925050611e7d9050565b91509150610d46818d8d8080601f0160208091040260200160405190810160405280939291908181526020018383808284376000920191909152509293925050611f349050565b9350610d528483611ff3565b600085815260066020526040902054909350600160a81b90046001600160401b031688109150819050610d9e57506000828152600660205260409020600101546001600160401b031686115b15610dbf576040516313b783af60e21b8152600481018790526024016109f6565b6000610e008b8b8080601f01602080910402602001604051908101604052809392919081815260200183838082843760009201919091525061201f92505050565b509050610e0d8282612119565b610e2c5780604051637df0e75560e01b81526004016109f69190612cf4565b5060008281526006602052604090205460ff16610e60578989604051632df73e3360e11b81526004016109f6929190612d30565b6000610e6c8742612d44565b604051630178fe3f60e01b8152600481018590529091506000907f00000000000000000000000000000000000000000000000000000000000000006001600160a01b031690630178fe3f90602401606060405180830381865afa158015610ed7573d6000803e3d6000fd5b505050506040513d601f19601f82011682018060405250810190610efb9190612d57565b92505050806001600160401b0316826001600160401b03161115610f3257610f2c426001600160401b038316612c67565b97508091505b506000610f408c8c8a611362565b50905080341015610f645760405163044044a560e21b815260040160405180910390fd5b6040516331a9108f60e11b8152600481018590526000907f00000000000000000000000000000000000000000000000000000000000000006001600160a01b031690636352211e90602401602060405180830381865afa158015610fcc573d6000803e3d6000fd5b505050506040513d601f19601f82011682018060405250810190610ff09190612c34565b90506000612710600454846110059190612d99565b61100f9190612db0565b905060006001600160a01b038c1615611086576001600160a01b038c16600090815260026020526040902054612710906110499086612d99565b6110539190612db0565b6001600160a01b038d16600090815260016020526040812080549293508392909190611080908490612d44565b90915550505b816110918286612c67565b61109b9190612c67565b6001600160a01b038416600090815260016020526040812080549091906110c3908490612d44565b909155506110d390508285612c67565b600360008282546110e49190612d44565b92505081905550505050611146886111418e8e8080601f016020809104026020016040519081016040528093929190818152602001838380828437600081840152601f19601f820116905080830192505050505050508d8b61180a565b612327565b60006111878d8d8080601f01602080910402602001604051908101604052809392919081815260200183838082843760009201919091525061201f92505050565b5090507f00000000000000000000000000000000000000000000000000000000000000006001600160a01b031663b1b36f2886838e600660008b815260200190815260200160002060000160019054906101000a90046001600160a01b03168c60006201000060018f17178b6040518963ffffffff1660e01b8152600401611216989796959493929190612dd2565b6020604051808303816000875af1158015611235573d6000803e3d6000fd5b505050506040513d601f19601f820116820180604052508101906112599190612e3c565b5050896001600160a01b0316837f7cb3866bf468ec4d0221fae5bade9a6bf536e7c661e80aa9b20db3e7a71fbb668e8e858760405161129b9493929190612e55565b60405180910390a3803411156112bf576112bf6112b88234612c67565b3390612209565b505050505050505050505050565b6112d56121af565b60405163a9059cbb60e01b81526001600160a01b0383811660048301526024820183905284169063a9059cbb906044016020604051808303816000875af1158015611324573d6000803e3d6000fd5b505050506040513d601f19601f820116820180604052508101906113489190612c91565b50505050565b6113566121af565b6113606000612418565b565b60008060006113a686868080601f01602080910402602001604051908101604052809392919081815260200183838082843760009201919091525061201f92505050565b9150600090506113f96113ba836001612d44565b88888080601f0160208091040260200160405190810160405280939291908181526020018383808284376000920191909152509293925050611f349050565b60008181526006602052604081206002015491925081156114ab578184101561148957600083815260066020526040902060020180548590811061143f5761143f612c1e565b9060005260206000200154905080600003611484576000838152600660205260408120600201805490919061147657611476612c1e565b906000526020600020015490505b6114af565b6000838152600660205260408120600201805490919061147657611476612c1e565b5060005b6114c16114bc8883612d99565b612468565b6114cb8883612d99565b9550955050505050935093915050565b6000546001600160a01b031633146115355760405162461bcd60e51b815260206004820152601e60248201527f4f6e6c7920746865206f776e65722063616e207365742074686520637574000060448201526064016109f6565b6101f48111156115875760405162461bcd60e51b815260206004820181905260248201527f4f776e6572206375742063616e6e6f74206265206d6f7265207468616e20352560448201526064016109f6565b600481905560405181907fd0097c261070735a2812d4540f4ac501d429da168de12584fb6302c6ea3abfd990600090a250565b6115c26121af565b6008805460ff19166001179055565b60085460ff161580156115f3575060008781526007602052604090205460ff16155b1561161457604051635c20ef6960e11b8152600481018890526024016109f6565b6040516341415eab60e01b81526001600160a01b037f000000000000000000000000000000000000000000000000000000000000000016906341415eab90611662908a903390600401612c7a565b602060405180830381865afa15801561167f573d6000803e3d6000fd5b505050506040513d601f19601f820116820180604052508101906116a39190612c91565b158061173e57506040516356fa4b0560e11b8152600481018890526201000160248201527f00000000000000000000000000000000000000000000000000000000000000006001600160a01b03169063adf4960a90604401602060405180830381865afa158015611718573d6000803e3d6000fd5b505050506040513d601f19601f8201168201806040525081019061173c9190612c91565b155b1561175f57604051635c20ef6960e11b8152600481018890526024016109f6565b60009687526006602052604090962080546001600160a81b031916951515610100600160a81b031916959095176101006001600160a01b0395909516949094029390931767ffffffffffffffff60a81b1916600160a81b6001600160401b0393841602178455600190930180549390911669ffffffffffffffffffff1990931692909217600160401b61ffff928316021761ffff60501b1916600160501b9190931602919091179055565b600083838360405160200161182193929190612e89565b6040516020818303038152906040528051906020012090509392505050565b6103e881111561189e5760405162461bcd60e51b8152602060048201526024808201527f5265666572726572206375742063616e6e6f74206265206d6f7265207468616e6044820152632031302560e01b60648201526084016109f6565b336000908152600260205260408082208390555182917f5132aa1b4691ab49930b655c558addd21627fa35b28ff9695f3468d955c0e0a091a250565b6040516341415eab60e01b81526001600160a01b037f000000000000000000000000000000000000000000000000000000000000000016906341415eab906119289086903390600401612c7a565b602060405180830381865afa158015611945573d6000803e3d6000fd5b505050506040513d601f19601f820116820180604052508101906119699190612c91565b1580611a0457506040516356fa4b0560e11b8152600481018490526201000160248201527f00000000000000000000000000000000000000000000000000000000000000006001600160a01b03169063adf4960a90604401602060405180830381865afa1580156119de573d6000803e3d6000fd5b505050506040513d601f19601f82011682018060405250810190611a029190612c91565b155b15611a2557604051635c20ef6960e11b8152600481018490526024016109f6565b600083815260066020526040902060020154611a4390600190612c67565b8261ffff161115611a67576040516339b7567760e21b815260040160405180910390fd5b6000838152600660205260409020600201805482919061ffff8516908110611a9157611a91612c1e565b600091825260209091200155505050565b6000818152600560205260409020544290611ade907f000000000000000000000000000000000000000000000000000000000000000090612d44565b10611aff57604051630a059d7160e01b8152600481018290526024016109f6565b6000908152600560205260409020429055565b611b1a6121af565b6001600160a01b038116611b7f5760405162461bcd60e51b815260206004820152602660248201527f4f776e61626c653a206e6577206f776e657220697320746865207a65726f206160448201526564647265737360d01b60648201526084016109f6565b610b2981612418565b6040516341415eab60e01b81526001600160a01b037f000000000000000000000000000000000000000000000000000000000000000016906341415eab90611bd69086903390600401612c7a565b602060405180830381865afa158015611bf3573d6000803e3d6000fd5b505050506040513d601f19601f82011682018060405250810190611c179190612c91565b1580611cb257506040516356fa4b0560e11b8152600481018490526201000160248201527f00000000000000000000000000000000000000000000000000000000000000006001600160a01b03169063adf4960a90604401602060405180830381865afa158015611c8c573d6000803e3d6000fd5b505050506040513d601f19601f82011682018060405250810190611cb09190612c91565b155b15611cd357604051635c20ef6960e11b8152600481018490526024016109f6565b6000838152600660205260408120611cf091600290910190612636565b6000838152600660205260409020611348906002018383612654565b6040516341415eab60e01b81526001600160a01b037f000000000000000000000000000000000000000000000000000000000000000016906341415eab90611d5a9085903390600401612c7a565b602060405180830381865afa158015611d77573d6000803e3d6000fd5b505050506040513d601f19601f82011682018060405250810190611d9b9190612c91565b1580611e3657506040516356fa4b0560e11b8152600481018390526201000160248201527f00000000000000000000000000000000000000000000000000000000000000006001600160a01b03169063adf4960a90604401602060405180830381865afa158015611e10573d6000803e3d6000fd5b505050506040513d601f19601f82011682018060405250810190611e349190612c91565b155b15611e5757604051635c20ef6960e11b8152600481018390526024016109f6565b600091825260066020908152604083206002018054600181018255908452922090910155565b60008083518310611ed05760405162461bcd60e51b815260206004820152601e60248201527f726561644c6162656c3a20496e646578206f7574206f6620626f756e6473000060448201526064016109f6565b6000848481518110611ee457611ee4612c1e565b016020015160f81c90508015611f1057611f0985611f03866001612d44565b8361250f565b9250611f15565b600092505b611f1f8185612d44565b611f2a906001612d44565b9150509250929050565b6000806000611f438585611e7d565b909250905081611fb55760018551611f5b9190612c67565b8414611fa95760405162461bcd60e51b815260206004820152601d60248201527f6e616d65686173683a204a756e6b20617420656e64206f66206e616d6500000060448201526064016109f6565b50600091506107bd9050565b611fbf8582611f34565b6040805160208101929092528101839052606001604051602081830303815290604052805190602001209250505092915050565b604080516020808201949094528082019290925280518083038201815260609092019052805191012090565b60606000808360008151811061203757612037612c1e565b0160200151845160f89190911c9150811080156120545750600081115b61205d57600080fd5b6000816001600160401b0381111561207757612077612721565b6040519080825280601f01601f1916602001820160405280156120a1576020820181803683370190505b50905060005b8281101561210f57856120bb826001612d44565b815181106120cb576120cb612c1e565b602001015160f81c60f81b8282815181106120e8576120e8612c1e565b60200101906001600160f81b031916908160001a90535061210881612eb7565b90506120a7565b5094909350915050565b600082815260066020526040812060010154600160401b900461ffff1661213f83612533565b106121a757600083815260066020526040902060010154600160501b900461ffff16158015906121925750600083815260066020526040902060010154600160501b900461ffff1661219083612533565b115b1561219f575060006107bd565b5060016107bd565b5060006107bd565b6000546001600160a01b031633146113605760405162461bcd60e51b815260206004820181905260248201527f4f776e61626c653a2063616c6c6572206973206e6f7420746865206f776e657260448201526064016109f6565b804710156122595760405162461bcd60e51b815260206004820152601d60248201527f416464726573733a20696e73756666696369656e742062616c616e636500000060448201526064016109f6565b6000826001600160a01b03168260405160006040518083038185875af1925050503d80600081146122a6576040519150601f19603f3d011682016040523d82523d6000602084013e6122ab565b606091505b50509050806123225760405162461bcd60e51b815260206004820152603a60248201527f416464726573733a20756e61626c6520746f2073656e642076616c75652c207260448201527f6563697069656e74206d6179206861766520726576657274656400000000000060648201526084016109f6565b505050565b6000818152600560205260409020544290612363907f000000000000000000000000000000000000000000000000000000000000000090612d44565b111561238557604051635320bcf960e01b8152600481018290526024016109f6565b60008181526005602052604090205442906123c1907f000000000000000000000000000000000000000000000000000000000000000090612d44565b116123e25760405163cb7690d760e01b8152600481018290526024016109f6565b6000818152600560205260408120556224ea00821015610a4857604051639a71997b60e01b8152600481018390526024016109f6565b600080546001600160a01b038381166001600160a01b0319831681178455604051919092169283917f8be0079c531659141344cd1fd0a4f28419497f9722a3daafe3b4186f6b6457e09190a35050565b6000807f00000000000000000000000000000000000000000000000000000000000000006001600160a01b03166350d25bcd6040518163ffffffff1660e01b8152600401602060405180830381865afa1580156124c9573d6000803e3d6000fd5b505050506040513d601f19601f820116820180604052508101906124ed9190612e3c565b9050806124fe846305f5e100612d99565b6125089190612db0565b9392505050565b825160009061251e8385612d44565b111561252957600080fd5b5091016020012090565b8051600090819081905b8082101561262d57600085838151811061255957612559612c1e565b01602001516001600160f81b0319169050600160ff1b81101561258857612581600184612d44565b925061261a565b600760fd1b6001600160f81b0319821610156125a957612581600284612d44565b600f60fc1b6001600160f81b0319821610156125ca57612581600384612d44565b601f60fb1b6001600160f81b0319821610156125eb57612581600484612d44565b603f60fa1b6001600160f81b03198216101561260c57612581600584612d44565b612617600684612d44565b92505b508261262581612eb7565b93505061253d565b50909392505050565b5080546000825590600052602060002090810190610b29919061269f565b82805482825590600052602060002090810192821561268f579160200282015b8281111561268f578235825591602001919060010190612674565b5061269b92915061269f565b5090565b5b8082111561269b57600081556001016126a0565b6000602082840312156126c657600080fd5b81356001600160e01b03198116811461250857600080fd5b803561ffff811681146126f057600080fd5b919050565b6000806040838503121561270857600080fd5b82359150612718602084016126de565b90509250929050565b634e487b7160e01b600052604160045260246000fd5b600082601f83011261274857600080fd5b81356001600160401b038082111561276257612762612721565b604051601f8301601f19908116603f0116810190828211818310171561278a5761278a612721565b816040528381528660208588010111156127a357600080fd5b836020870160208301376000602085830101528094505050505092915050565b6000602082840312156127d557600080fd5b81356001600160401b038111156127eb57600080fd5b6127f784828501612737565b949350505050565b6001600160a01b0381168114610b2957600080fd5b60006020828403121561282657600080fd5b8135612508816127ff565b60008083601f84011261284357600080fd5b5081356001600160401b0381111561285a57600080fd5b60208301915083602082850101111561287257600080fd5b9250929050565b8015158114610b2957600080fd5b60008060006040848603121561289c57600080fd5b83356001600160401b038111156128b257600080fd5b6128be86828701612831565b90945092505060208401356128d281612879565b809150509250925092565b600080604083850312156128f057600080fd5b82359150602083013561290281612879565b809150509250929050565b60006020828403121561291f57600080fd5b5035919050565b63ffffffff81168114610b2957600080fd5b60008060008060008060008060e0898b03121561295457600080fd5b88356001600160401b0381111561296a57600080fd5b6129768b828c01612831565b909950975050602089013561298a816127ff565b9550604089013561299a816127ff565b9450606089013593506080890135925060a08901356129b8816127ff565b915060c08901356129c881612926565b809150509295985092959890939650565b6000806000606084860312156129ee57600080fd5b83356129f9816127ff565b92506020840135612a09816127ff565b929592945050506040919091013590565b600080600060408486031215612a2f57600080fd5b83356001600160401b03811115612a4557600080fd5b612a5186828701612831565b909790965060209590950135949350505050565b6001600160401b0381168114610b2957600080fd5b600080600080600080600060e0888a031215612a9557600080fd5b873596506020880135612aa781612879565b95506040880135612ab7816127ff565b94506060880135612ac781612a65565b93506080880135612ad781612a65565b9250612ae560a089016126de565b9150612af360c089016126de565b905092959891949750929550565b600080600060608486031215612b1657600080fd5b83356001600160401b03811115612b2c57600080fd5b612b3886828701612737565b9350506020840135612a09816127ff565b600080600060608486031215612b5e57600080fd5b83359250612b6e602085016126de565b9150604084013590509250925092565b600080600060408486031215612b9357600080fd5b8335925060208401356001600160401b0380821115612bb157600080fd5b818601915086601f830112612bc557600080fd5b813581811115612bd457600080fd5b8760208260051b8501011115612be957600080fd5b6020830194508093505050509250925092565b60008060408385031215612c0f57600080fd5b50508035926020909101359150565b634e487b7160e01b600052603260045260246000fd5b600060208284031215612c4657600080fd5b8151612508816127ff565b634e487b7160e01b600052601160045260246000fd5b818103818111156107bd576107bd612c51565b9182526001600160a01b0316602082015260400190565b600060208284031215612ca357600080fd5b815161250881612879565b6000815180845260005b81811015612cd457602081850181015186830182015201612cb8565b506000602082860101526020601f19601f83011685010191505092915050565b6020815260006125086020830184612cae565b81835281816020850137506000828201602090810191909152601f909101601f19169091010190565b6020815260006127f7602083018486612d07565b808201808211156107bd576107bd612c51565b600080600060608486031215612d6c57600080fd5b8351612d77816127ff565b6020850151909350612d8881612926565b60408501519092506128d281612a65565b80820281158282048414176107bd576107bd612c51565b600082612dcd57634e487b7160e01b600052601260045260246000fd5b500490565b60006101008a8352806020840152612dec8184018b612cae565b6001600160a01b03998a166040850152978916606084015250509390951660808401526001600160401b0391821660a084015263ffffffff1660c083015290921660e09092019190915292915050565b600060208284031215612e4e57600080fd5b5051919050565b606081526000612e69606083018688612d07565b90508360208301526001600160401b038316604083015295945050505050565b606081526000612e9c6060830186612cae565b6001600160a01b039490941660208301525060400152919050565b600060018201612ec957612ec9612c51565b506001019056fea2646970667358221220c9cf70906a198d4bc78e1618d4bb2b47fa645f47c9198038f7b9f5552081636764736f6c63430008130033",
  "devdoc": {
    "details": "A registrar controller for registering and renewing names at fixed cost.",
    "kind": "dev",
    "methods": {
      "addNextPriceForCharLength(bytes32,uint256)": {
        "params": {
          "charAmount": "The amount in USD/sec. (with 18 digits of precision)  for a character count, e.g. amount for three characters.",
          "parentNode": "The namehash of the parent name."
        }
      },
      "allowName(bytes,bool)": {
        "params": {
          "_allow": "A bool indicating if the name is allowed to be listed.",
          "_name": "The name in DNS format, e.g. vitalik.eth"
        }
      },
      "available(bytes)": {
        "params": {
          "name": "The full name, in DNS format wherein the length precedes each label and is terminted with a 0x0 byte, e.g. \"cb.id\" => [0x02,0x63,0x62,0x02,0x69,0x64,0x00]."
        }
      },
      "getLastCharIndex(bytes32)": {
        "returns": {
          "_0": "The length of the last character length that was set."
        }
      },
      "getPriceDataForLength(bytes32,uint16)": {
        "params": {
          "charLength": "The character length, e.g. 3 would be for three characters. Use 0 for the default amount.",
          "parentNode": "The namehash of the parent name."
        }
      },
      "makeCommitment(bytes,address,bytes32)": {
        "params": {
          "name": "The full name, in DNS format wherein the length precedes each label and is terminted with a 0x0 byte, e.g. \"cb.id\" => [0x02,0x63,0x62,0x02,0x69,0x64,0x00].",
          "owner": "The address that will own the name.",
          "secret": "The secret to be used for the commitment."
        }
      },
      "owner()": {
        "details": "Returns the address of the current owner."
      },
      "recoverFunds(address,address,uint256)": {
        "details": "The contract is Ownable and only the owner can call the recover function.",
        "params": {
          "_amount": "The amount of tokens to recover.",
          "_to": "The address to send the tokens to.",
          "_token": "The address of the ERC20 token to recover"
        }
      },
      "register(bytes,address,address,uint256,bytes32,address,uint32)": {
        "params": {
          "duration": "The duration in seconds of the registration.",
          "fuses": "The fuses to be set on the name.",
          "name": "The full name, in DNS format.",
          "owner": "The address that will own the name.",
          "referrer": "The address that referred the owner to the registrar.",
          "resolver": "The address of the resolver to use.",
          "secret": "The secret to be used for the commitment."
        }
      },
      "renounceOwnership()": {
        "details": "Leaves the contract without owner. It will not be possible to call `onlyOwner` functions. Can only be called by the current owner. NOTE: Renouncing ownership will leave the contract without an owner, thereby disabling any functionality that is only available to the owner."
      },
      "rentPrice(bytes,uint256)": {
        "params": {
          "duration": "The amount of time the name will be rented for/extended in years. ",
          "name": "The name in DNS format, e.g. vault.vitalik.eth"
        },
        "returns": {
          "usdPrice": "The rent price for the duration in USD ",
          "weiPrice": "The rent price for the duration in Wei "
        }
      },
      "setOfferSubnames(bytes32,bool)": {
        "params": {
          "_offerSubnames": "A bool indicating the parent name owner is offering subnames.",
          "parentNode": "The namehash of the parent name."
        }
      },
      "setOwnerCut(uint256)": {
        "params": {
          "_ownerCut": "The cut for the owner of the contract."
        }
      },
      "setParams(bytes32,bool,address,uint64,uint64,uint16,uint16)": {
        "params": {
          "_maxChars": "The maximum length a name can be.",
          "_maxRegistrationDuration": "The maximum duration a name can be registered for.",
          "_minChars": "The minimum length a name can be.",
          "_minRegistrationDuration": "The minimum duration a name can be registered for.",
          "_offerSubnames": "A bool indicating the parent name owner is offering subnames.",
          "_renewalController": "The address of the renewal controller.",
          "parentNode": "The namehash of the parent name."
        }
      },
      "setPricingForAllLengths(bytes32,uint256[])": {
        "params": {
          "_charAmounts": "An array of amounst for each characer length.",
          "parentNode": "The namehash of the parent name."
        }
      },
      "setReferrerCut(uint256)": {
        "params": {
          "_referrerCut": "The percentage cut given to the referrer (0-10%)."
        }
      },
      "supportsInterface(bytes4)": {
        "details": "See {IERC165-supportsInterface}."
      },
      "transferOwnership(address)": {
        "details": "Transfers ownership of the contract to a new account (`newOwner`). Can only be called by the current owner."
      },
      "updatePriceForCharLength(bytes32,uint16,uint256)": {
        "params": {
          "charAmount": "The amount in USD/year for a character count, e.g. amount for three characters.",
          "charLength": "The character length, e.g. 3 would be for three characters. Use 0 for the default amount.",
          "parentNode": "The namehash of the parent name."
        }
      }
    },
    "version": 1
  },
  "userdoc": {
    "kind": "user",
    "methods": {
      "addNextPriceForCharLength(bytes32,uint256)": {
        "notice": "Adds a price for the next character length, e.g. three characters."
      },
      "allowName(bytes,bool)": {
        "notice": "Add a name to the allow list."
      },
      "available(bytes)": {
        "notice": "Check to see if the name is available for registration. "
      },
      "disableAllowList()": {
        "notice": "Disable the allow list permanenty."
      },
      "getLastCharIndex(bytes32)": {
        "notice": "Get the last length for a character length that has a price (can be 0), e.g. three characters."
      },
      "getPriceDataForLength(bytes32,uint16)": {
        "notice": "Get the price for a single character length, e.g. three characters."
      },
      "makeCommitment(bytes,address,bytes32)": {
        "notice": "Check to see if the name is available for registration. "
      },
      "recoverFunds(address,address,uint256)": {
        "notice": "Recover ERC20 tokens sent to the contract by mistake."
      },
      "register(bytes,address,address,uint256,bytes32,address,uint32)": {
        "notice": "Register a name."
      },
      "rentPrice(bytes,uint256)": {
        "notice": "Gets the total cost of rent in wei, from the unitPrice, i.e. USD, and duration."
      },
      "setOfferSubnames(bytes32,bool)": {
        "notice": "Allows for chaning the offer status of subnames to true or false."
      },
      "setOwnerCut(uint256)": {
        "notice": "A function to set the cut for the owner of the contract."
      },
      "setParams(bytes32,bool,address,uint64,uint64,uint16,uint16)": {
        "notice": "Set the pricing for subnames of the parent name."
      },
      "setPricingForAllLengths(bytes32,uint256[])": {
        "notice": "Set the pricing for subname lengths."
      },
      "setReferrerCut(uint256)": {
        "notice": "A function to set the referrer cut percentage for a specific referrer."
      },
      "updatePriceForCharLength(bytes32,uint16,uint256)": {
        "notice": "Set a price for a single character length, e.g. three characters."
      },
      "withdraw()": {
        "notice": "A function to allow referrers, name owners, or the contract owner to withdraw."
      }
    },
    "version": 1
  },
  "storageLayout": {
    "storage": [
      {
        "astId": 19865,
        "contract": "contracts/layertwo/optimism/wrapper/L2SubnameRegistrar.sol:L2SubnameRegistrar",
        "label": "_owner",
        "offset": 0,
        "slot": "0",
        "type": "t_address"
      },
      {
        "astId": 320,
        "contract": "contracts/layertwo/optimism/wrapper/L2SubnameRegistrar.sol:L2SubnameRegistrar",
        "label": "balances",
        "offset": 0,
        "slot": "1",
        "type": "t_mapping(t_address,t_uint256)"
      },
      {
        "astId": 324,
        "contract": "contracts/layertwo/optimism/wrapper/L2SubnameRegistrar.sol:L2SubnameRegistrar",
        "label": "referrerCuts",
        "offset": 0,
        "slot": "2",
        "type": "t_mapping(t_address,t_uint256)"
      },
      {
        "astId": 326,
        "contract": "contracts/layertwo/optimism/wrapper/L2SubnameRegistrar.sol:L2SubnameRegistrar",
        "label": "totalBalance",
        "offset": 0,
        "slot": "3",
        "type": "t_uint256"
      },
      {
        "astId": 328,
        "contract": "contracts/layertwo/optimism/wrapper/L2SubnameRegistrar.sol:L2SubnameRegistrar",
        "label": "ownerCut",
        "offset": 0,
        "slot": "4",
        "type": "t_uint256"
      },
      {
        "astId": 4354,
        "contract": "contracts/layertwo/optimism/wrapper/L2SubnameRegistrar.sol:L2SubnameRegistrar",
        "label": "commitments",
        "offset": 0,
        "slot": "5",
        "type": "t_mapping(t_bytes32,t_uint256)"
      },
      {
        "astId": 4359,
        "contract": "contracts/layertwo/optimism/wrapper/L2SubnameRegistrar.sol:L2SubnameRegistrar",
        "label": "pricingData",
        "offset": 0,
        "slot": "6",
        "type": "t_mapping(t_bytes32,t_struct(Pricing)4350_storage)"
      },
      {
        "astId": 4363,
        "contract": "contracts/layertwo/optimism/wrapper/L2SubnameRegistrar.sol:L2SubnameRegistrar",
        "label": "allowList",
        "offset": 0,
        "slot": "7",
        "type": "t_mapping(t_bytes32,t_bool)"
      },
      {
        "astId": 4365,
        "contract": "contracts/layertwo/optimism/wrapper/L2SubnameRegistrar.sol:L2SubnameRegistrar",
        "label": "allowListDisabled",
        "offset": 0,
        "slot": "8",
        "type": "t_bool"
      }
    ],
    "types": {
      "t_address": {
        "encoding": "inplace",
        "label": "address",
        "numberOfBytes": "20"
      },
      "t_array(t_uint256)dyn_storage": {
        "base": "t_uint256",
        "encoding": "dynamic_array",
        "label": "uint256[]",
        "numberOfBytes": "32"
      },
      "t_bool": {
        "encoding": "inplace",
        "label": "bool",
        "numberOfBytes": "1"
      },
      "t_bytes32": {
        "encoding": "inplace",
        "label": "bytes32",
        "numberOfBytes": "32"
      },
      "t_contract(IRenewalController)5881": {
        "encoding": "inplace",
        "label": "contract IRenewalController",
        "numberOfBytes": "20"
      },
      "t_mapping(t_address,t_uint256)": {
        "encoding": "mapping",
        "key": "t_address",
        "label": "mapping(address => uint256)",
        "numberOfBytes": "32",
        "value": "t_uint256"
      },
      "t_mapping(t_bytes32,t_bool)": {
        "encoding": "mapping",
        "key": "t_bytes32",
        "label": "mapping(bytes32 => bool)",
        "numberOfBytes": "32",
        "value": "t_bool"
      },
      "t_mapping(t_bytes32,t_struct(Pricing)4350_storage)": {
        "encoding": "mapping",
        "key": "t_bytes32",
        "label": "mapping(bytes32 => struct L2SubnameRegistrar.Pricing)",
        "numberOfBytes": "32",
        "value": "t_struct(Pricing)4350_storage"
      },
      "t_mapping(t_bytes32,t_uint256)": {
        "encoding": "mapping",
        "key": "t_bytes32",
        "label": "mapping(bytes32 => uint256)",
        "numberOfBytes": "32",
        "value": "t_uint256"
      },
      "t_struct(Pricing)4350_storage": {
        "encoding": "inplace",
        "label": "struct L2SubnameRegistrar.Pricing",
        "members": [
          {
            "astId": 4335,
            "contract": "contracts/layertwo/optimism/wrapper/L2SubnameRegistrar.sol:L2SubnameRegistrar",
            "label": "offerSubnames",
            "offset": 0,
            "slot": "0",
            "type": "t_bool"
          },
          {
            "astId": 4338,
            "contract": "contracts/layertwo/optimism/wrapper/L2SubnameRegistrar.sol:L2SubnameRegistrar",
            "label": "renewalController",
            "offset": 1,
            "slot": "0",
            "type": "t_contract(IRenewalController)5881"
          },
          {
            "astId": 4340,
            "contract": "contracts/layertwo/optimism/wrapper/L2SubnameRegistrar.sol:L2SubnameRegistrar",
            "label": "minRegistrationDuration",
            "offset": 21,
            "slot": "0",
            "type": "t_uint64"
          },
          {
            "astId": 4342,
            "contract": "contracts/layertwo/optimism/wrapper/L2SubnameRegistrar.sol:L2SubnameRegistrar",
            "label": "maxRegistrationDuration",
            "offset": 0,
            "slot": "1",
            "type": "t_uint64"
          },
          {
            "astId": 4344,
            "contract": "contracts/layertwo/optimism/wrapper/L2SubnameRegistrar.sol:L2SubnameRegistrar",
            "label": "minChars",
            "offset": 8,
            "slot": "1",
            "type": "t_uint16"
          },
          {
            "astId": 4346,
            "contract": "contracts/layertwo/optimism/wrapper/L2SubnameRegistrar.sol:L2SubnameRegistrar",
            "label": "maxChars",
            "offset": 10,
            "slot": "1",
            "type": "t_uint16"
          },
          {
            "astId": 4349,
            "contract": "contracts/layertwo/optimism/wrapper/L2SubnameRegistrar.sol:L2SubnameRegistrar",
            "label": "charAmounts",
            "offset": 0,
            "slot": "2",
            "type": "t_array(t_uint256)dyn_storage"
          }
        ],
        "numberOfBytes": "96"
      },
      "t_uint16": {
        "encoding": "inplace",
        "label": "uint16",
        "numberOfBytes": "2"
      },
      "t_uint256": {
        "encoding": "inplace",
        "label": "uint256",
        "numberOfBytes": "32"
      },
      "t_uint64": {
        "encoding": "inplace",
        "label": "uint64",
        "numberOfBytes": "8"
      }
    }
  }
}