{
  "address": "0x1CF25555Eb74b587b4b3d9019d6Bf279E9920d25",
  "abi": [
    {
      "inputs": [],
      "name": "latestAnswer",
      "outputs": [
        {
          "internalType": "int256",
          "name": "",
          "type": "int256"
        }
      ],
      "stateMutability": "view",
      "type": "function"
    },
    {
      "inputs": [],
      "name": "latestPrice",
      "outputs": [
        {
          "internalType": "int256",
          "name": "",
          "type": "int256"
        }
      ],
      "stateMutability": "view",
      "type": "function"
    }
  ],
  "transactionHash": "0x8e174b4767a4a4fb2ca781ea1f9d70e526f4df46a3c86c77cd0e14a56b04ff77",
  "args": [],
  "numDeployments": 1,
  "solcInputHash": "cad8f2b8710f80e95abb469eef5fbc7b",
  "bytecode": "0x6080604052642b2d52e100600055348015601857600080fd5b50608b806100276000396000f3fe6080604052348015600f57600080fd5b506004361060325760003560e01c806350d25bcd146037578063a3e6ba9414604d575b600080fd5b6000545b60405190815260200160405180910390f35b603b6000548156fea26469706673582212200f91a7361ff09a79da87cbfa8d612221a1f1083f867f799d0ca62e0a6f476a1664736f6c63430008130033",
  "devdoc": {
    "kind": "dev",
    "methods": {},
    "version": 1
  },
  "userdoc": {
    "kind": "user",
    "methods": {},
    "version": 1
  },
  "storageLayout": {
    "storage": [
      {
        "astId": 6697,
        "contract": "contracts/layertwo/optimism/wrapper/mocks/USDOracleMock.sol:USDOracleMock",
        "label": "latestPrice",
        "offset": 0,
        "slot": "0",
        "type": "t_int256"
      }
    ],
    "types": {
      "t_int256": {
        "encoding": "inplace",
        "label": "int256",
        "numberOfBytes": "32"
      }
    }
  }
}